{
  "contractName": "Hub",
  "abi": [
    {
      "inputs": [
        {
          "internalType": "uint256",
          "name": "fee",
          "type": "uint256"
        }
      ],
      "stateMutability": "nonpayable",
      "type": "constructor"
    },
    {
      "anonymous": false,
      "inputs": [
        {
          "indexed": true,
          "internalType": "address",
          "name": "tokenAddress",
          "type": "address"
        }
      ],
      "name": "AddToken",
      "type": "event"
    },
    {
      "anonymous": false,
      "inputs": [
        {
          "indexed": false,
          "internalType": "uint256",
          "name": "cid",
          "type": "uint256"
        },
        {
          "indexed": true,
          "internalType": "address",
          "name": "owner",
          "type": "address"
        },
        {
          "indexed": true,
          "internalType": "address",
          "name": "nftAddress",
          "type": "address"
        },
        {
          "indexed": false,
          "internalType": "string",
          "name": "metadata",
          "type": "string"
        }
      ],
      "name": "CollectionCreated",
      "type": "event"
    },
    {
      "anonymous": false,
      "inputs": [
        {
          "indexed": false,
          "internalType": "uint256",
          "name": "cid",
          "type": "uint256"
        },
        {
          "indexed": false,
          "internalType": "string",
          "name": "metadata",
          "type": "string"
        }
      ],
      "name": "CollectionEdited",
      "type": "event"
    },
    {
      "anonymous": false,
      "inputs": [
        {
          "indexed": false,
          "internalType": "uint256",
          "name": "cid",
          "type": "uint256"
        },
        {
          "indexed": true,
          "internalType": "address",
          "name": "owner",
          "type": "address"
        },
        {
          "indexed": true,
          "internalType": "address",
          "name": "nftAddress",
          "type": "address"
        },
        {
          "indexed": false,
          "internalType": "string",
          "name": "metadata",
          "type": "string"
        }
      ],
      "name": "CollectionListed",
      "type": "event"
    },
    {
      "anonymous": false,
      "inputs": [
        {
          "indexed": true,
          "internalType": "address",
          "name": "tokenAddress",
          "type": "address"
        }
      ],
      "name": "RemoveToken",
      "type": "event"
    },
    {
      "anonymous": false,
      "inputs": [
        {
          "indexed": true,
          "internalType": "bytes32",
          "name": "role",
          "type": "bytes32"
        },
        {
          "indexed": true,
          "internalType": "bytes32",
          "name": "previousAdminRole",
          "type": "bytes32"
        },
        {
          "indexed": true,
          "internalType": "bytes32",
          "name": "newAdminRole",
          "type": "bytes32"
        }
      ],
      "name": "RoleAdminChanged",
      "type": "event"
    },
    {
      "anonymous": false,
      "inputs": [
        {
          "indexed": true,
          "internalType": "bytes32",
          "name": "role",
          "type": "bytes32"
        },
        {
          "indexed": true,
          "internalType": "address",
          "name": "account",
          "type": "address"
        },
        {
          "indexed": true,
          "internalType": "address",
          "name": "sender",
          "type": "address"
        }
      ],
      "name": "RoleGranted",
      "type": "event"
    },
    {
      "anonymous": false,
      "inputs": [
        {
          "indexed": true,
          "internalType": "bytes32",
          "name": "role",
          "type": "bytes32"
        },
        {
          "indexed": true,
          "internalType": "address",
          "name": "account",
          "type": "address"
        },
        {
          "indexed": true,
          "internalType": "address",
          "name": "sender",
          "type": "address"
        }
      ],
      "name": "RoleRevoked",
      "type": "event"
    },
    {
      "inputs": [],
      "name": "ARTIST_ROLE",
      "outputs": [
        {
          "internalType": "bytes32",
          "name": "",
          "type": "bytes32"
        }
      ],
      "stateMutability": "view",
      "type": "function"
    },
    {
      "inputs": [],
      "name": "CREATE_FEE",
      "outputs": [
        {
          "internalType": "uint256",
          "name": "",
          "type": "uint256"
        }
      ],
      "stateMutability": "view",
      "type": "function"
    },
    {
      "inputs": [],
      "name": "DEFAULT_ADMIN_ROLE",
      "outputs": [
        {
          "internalType": "bytes32",
          "name": "",
          "type": "bytes32"
        }
      ],
      "stateMutability": "view",
      "type": "function"
    },
    {
      "inputs": [],
      "name": "ERC721INTERFACE",
      "outputs": [
        {
          "internalType": "bytes4",
          "name": "",
          "type": "bytes4"
        }
      ],
      "stateMutability": "view",
      "type": "function"
    },
    {
      "inputs": [],
      "name": "RATE_FEE",
      "outputs": [
        {
          "internalType": "uint256",
          "name": "",
          "type": "uint256"
        }
      ],
      "stateMutability": "view",
      "type": "function"
    },
    {
      "inputs": [
        {
          "internalType": "uint256",
          "name": "",
          "type": "uint256"
        }
      ],
      "name": "collectionIds",
      "outputs": [
        {
          "internalType": "uint256",
          "name": "",
          "type": "uint256"
        }
      ],
      "stateMutability": "view",
      "type": "function"
    },
    {
      "inputs": [
        {
          "internalType": "bytes32",
          "name": "role",
          "type": "bytes32"
        }
      ],
      "name": "getRoleAdmin",
      "outputs": [
        {
          "internalType": "bytes32",
          "name": "",
          "type": "bytes32"
        }
      ],
      "stateMutability": "view",
      "type": "function"
    },
    {
      "inputs": [
        {
          "internalType": "bytes32",
          "name": "role",
          "type": "bytes32"
        },
        {
          "internalType": "address",
          "name": "account",
          "type": "address"
        }
      ],
      "name": "grantRole",
      "outputs": [],
      "stateMutability": "nonpayable",
      "type": "function"
    },
    {
      "inputs": [
        {
          "internalType": "bytes32",
          "name": "role",
          "type": "bytes32"
        },
        {
          "internalType": "address",
          "name": "account",
          "type": "address"
        }
      ],
      "name": "hasRole",
      "outputs": [
        {
          "internalType": "bool",
          "name": "",
          "type": "bool"
        }
      ],
      "stateMutability": "view",
      "type": "function"
    },
    {
      "inputs": [
        {
          "internalType": "bytes32",
          "name": "role",
          "type": "bytes32"
        },
        {
          "internalType": "address",
          "name": "account",
          "type": "address"
        }
      ],
      "name": "renounceRole",
      "outputs": [],
      "stateMutability": "nonpayable",
      "type": "function"
    },
    {
      "inputs": [
        {
          "internalType": "bytes32",
          "name": "role",
          "type": "bytes32"
        },
        {
          "internalType": "address",
          "name": "account",
          "type": "address"
        }
      ],
      "name": "revokeRole",
      "outputs": [],
      "stateMutability": "nonpayable",
      "type": "function"
    },
    {
      "inputs": [
        {
          "internalType": "bytes4",
          "name": "interfaceId",
          "type": "bytes4"
        }
      ],
      "name": "supportsInterface",
      "outputs": [
        {
          "internalType": "bool",
          "name": "",
          "type": "bool"
        }
      ],
      "stateMutability": "view",
      "type": "function"
    },
    {
      "inputs": [
        {
          "internalType": "uint256",
          "name": "newFee",
          "type": "uint256"
        }
      ],
      "name": "setFee",
      "outputs": [],
      "stateMutability": "nonpayable",
      "type": "function"
    },
    {
      "inputs": [],
      "name": "getCreateFee",
      "outputs": [
        {
          "internalType": "uint256",
          "name": "",
          "type": "uint256"
        }
      ],
      "stateMutability": "view",
      "type": "function"
    },
    {
      "inputs": [
        {
          "internalType": "address",
          "name": "childAddress",
          "type": "address"
        }
      ],
      "name": "addHubChild",
      "outputs": [],
      "stateMutability": "nonpayable",
      "type": "function"
    },
    {
      "inputs": [
        {
          "internalType": "address",
          "name": "childAddress",
          "type": "address"
        }
      ],
      "name": "removeHubChild",
      "outputs": [],
      "stateMutability": "nonpayable",
      "type": "function"
    },
    {
      "inputs": [],
      "name": "getHubChild",
      "outputs": [
        {
          "internalType": "address[]",
          "name": "",
          "type": "address[]"
        }
      ],
      "stateMutability": "view",
      "type": "function"
    },
    {
      "inputs": [
        {
          "internalType": "address",
          "name": "tokenAddr",
          "type": "address"
        }
      ],
      "name": "addAcceptToken",
      "outputs": [],
      "stateMutability": "nonpayable",
      "type": "function"
    },
    {
      "inputs": [
        {
          "internalType": "address",
          "name": "tokenAddr",
          "type": "address"
        }
      ],
      "name": "removeToken",
      "outputs": [],
      "stateMutability": "nonpayable",
      "type": "function"
    },
    {
      "inputs": [
        {
          "internalType": "address",
          "name": "whitelistAddress",
          "type": "address"
        },
        {
          "internalType": "uint256",
          "name": "fee",
          "type": "uint256"
        }
      ],
      "name": "addWhitelistAddress",
      "outputs": [],
      "stateMutability": "nonpayable",
      "type": "function"
    },
    {
      "inputs": [
        {
          "internalType": "address",
          "name": "whitelistAddress",
          "type": "address"
        }
      ],
      "name": "removeWhitelistAddress",
      "outputs": [],
      "stateMutability": "nonpayable",
      "type": "function"
    },
    {
      "inputs": [
        {
          "internalType": "uint256",
          "name": "rateFee",
          "type": "uint256"
        }
      ],
      "name": "setRateFee",
      "outputs": [],
      "stateMutability": "nonpayable",
      "type": "function"
    },
    {
      "inputs": [
        {
          "internalType": "string",
          "name": "name",
          "type": "string"
        },
        {
          "internalType": "string",
          "name": "symbol",
          "type": "string"
        },
        {
          "internalType": "string",
          "name": "metadata",
          "type": "string"
        }
      ],
      "name": "createCollection",
      "outputs": [],
      "stateMutability": "payable",
      "type": "function"
    },
    {
      "inputs": [
        {
          "internalType": "address",
          "name": "nftAddress",
          "type": "address"
        },
        {
          "internalType": "string",
          "name": "metadata",
          "type": "string"
        }
      ],
      "name": "listCollection",
      "outputs": [],
      "stateMutability": "payable",
      "type": "function"
    },
    {
      "inputs": [
        {
          "internalType": "uint256",
          "name": "cid",
          "type": "uint256"
        },
        {
          "internalType": "string",
          "name": "newHash",
          "type": "string"
        }
      ],
      "name": "editMetaData",
      "outputs": [],
      "stateMutability": "nonpayable",
      "type": "function"
    },
    {
      "inputs": [
        {
          "internalType": "uint256",
          "name": "cid",
          "type": "uint256"
        },
        {
          "internalType": "address",
          "name": "newOwner",
          "type": "address"
        }
      ],
      "name": "transferCollection",
      "outputs": [],
      "stateMutability": "nonpayable",
      "type": "function"
    },
    {
      "inputs": [],
      "name": "totalCollections",
      "outputs": [
        {
          "internalType": "uint256",
          "name": "",
          "type": "uint256"
        }
      ],
      "stateMutability": "view",
      "type": "function"
    },
    {
      "inputs": [
        {
          "internalType": "uint256",
          "name": "cid",
          "type": "uint256"
        }
      ],
      "name": "getCollectionData",
      "outputs": [
        {
          "components": [
            {
              "internalType": "uint256",
              "name": "cid",
              "type": "uint256"
            },
            {
              "internalType": "address",
              "name": "contractAddress",
              "type": "address"
            },
            {
              "internalType": "string",
              "name": "name",
              "type": "string"
            },
            {
              "internalType": "string",
              "name": "symbol",
              "type": "string"
            },
            {
              "internalType": "string",
              "name": "metadata",
              "type": "string"
            },
            {
              "internalType": "address",
              "name": "owner",
              "type": "address"
            }
          ],
          "internalType": "struct Hub.Collection",
          "name": "",
          "type": "tuple"
        }
      ],
      "stateMutability": "view",
      "type": "function"
    },
    {
      "inputs": [
        {
          "internalType": "address",
          "name": "nftAddress",
          "type": "address"
        }
      ],
      "name": "getCollectionByAddress",
      "outputs": [
        {
          "components": [
            {
              "internalType": "uint256",
              "name": "cid",
              "type": "uint256"
            },
            {
              "internalType": "address",
              "name": "contractAddress",
              "type": "address"
            },
            {
              "internalType": "string",
              "name": "name",
              "type": "string"
            },
            {
              "internalType": "string",
              "name": "symbol",
              "type": "string"
            },
            {
              "internalType": "string",
              "name": "metadata",
              "type": "string"
            },
            {
              "internalType": "address",
              "name": "owner",
              "type": "address"
            }
          ],
          "internalType": "struct Hub.Collection",
          "name": "",
          "type": "tuple"
        }
      ],
      "stateMutability": "view",
      "type": "function"
    },
    {
      "inputs": [
        {
          "internalType": "address",
          "name": "creator",
          "type": "address"
        }
      ],
      "name": "getCollectionsByOwner",
      "outputs": [
        {
          "components": [
            {
              "internalType": "uint256",
              "name": "cid",
              "type": "uint256"
            },
            {
              "internalType": "address",
              "name": "contractAddress",
              "type": "address"
            },
            {
              "internalType": "string",
              "name": "name",
              "type": "string"
            },
            {
              "internalType": "string",
              "name": "symbol",
              "type": "string"
            },
            {
              "internalType": "string",
              "name": "metadata",
              "type": "string"
            },
            {
              "internalType": "address",
              "name": "owner",
              "type": "address"
            }
          ],
          "internalType": "struct Hub.Collection[]",
          "name": "",
          "type": "tuple[]"
        }
      ],
      "stateMutability": "view",
      "type": "function"
    },
    {
      "inputs": [
        {
          "internalType": "uint256",
          "name": "startIndex",
          "type": "uint256"
        },
        {
          "internalType": "uint256",
          "name": "endIndex",
          "type": "uint256"
        }
      ],
      "name": "getCollectionsPaginated",
      "outputs": [
        {
          "components": [
            {
              "internalType": "uint256",
              "name": "cid",
              "type": "uint256"
            },
            {
              "internalType": "address",
              "name": "contractAddress",
              "type": "address"
            },
            {
              "internalType": "string",
              "name": "name",
              "type": "string"
            },
            {
              "internalType": "string",
              "name": "symbol",
              "type": "string"
            },
            {
              "internalType": "string",
              "name": "metadata",
              "type": "string"
            },
            {
              "internalType": "address",
              "name": "owner",
              "type": "address"
            }
          ],
          "internalType": "struct Hub.Collection[]",
          "name": "",
          "type": "tuple[]"
        }
      ],
      "stateMutability": "view",
      "type": "function"
    },
    {
      "inputs": [],
      "name": "getAllCollections",
      "outputs": [
        {
          "components": [
            {
              "internalType": "uint256",
              "name": "cid",
              "type": "uint256"
            },
            {
              "internalType": "address",
              "name": "contractAddress",
              "type": "address"
            },
            {
              "internalType": "string",
              "name": "name",
              "type": "string"
            },
            {
              "internalType": "string",
              "name": "symbol",
              "type": "string"
            },
            {
              "internalType": "string",
              "name": "metadata",
              "type": "string"
            },
            {
              "internalType": "address",
              "name": "owner",
              "type": "address"
            }
          ],
          "internalType": "struct Hub.Collection[]",
          "name": "",
          "type": "tuple[]"
        }
      ],
      "stateMutability": "view",
      "type": "function"
    },
    {
      "inputs": [
        {
          "internalType": "address",
          "name": "to",
          "type": "address"
        },
        {
          "internalType": "address",
          "name": "tokenAddress",
          "type": "address"
        },
        {
          "internalType": "uint256",
          "name": "amount",
          "type": "uint256"
        }
      ],
      "name": "withdrawFee",
      "outputs": [],
      "stateMutability": "nonpayable",
      "type": "function"
    }
  ],
  "bytecode": "0x60806040523480156200001157600080fd5b50604051620065f7380380620065f7833981016040819052620000349162000159565b600180556007819055620000536000336401000000006200008f810204565b620000887f877a78dc988c0ec5f58453b44888a55eb39755c3d5ed8d8ea990912aa3ef29c6336401000000006200008f810204565b5062000172565b620000a482826401000000006200012c810204565b6200012857600082815260208181526040808320600160a060020a03851684529091529020805460ff19166001179055620000e764010000000062000155810204565b600160a060020a031681600160a060020a0316837f2f8788117e7eff1d82e926ec794901d17c78024a50270940304540a733656f0d60405160405180910390a45b5050565b600091825260208281526040808420600160a060020a0393909316845291905290205460ff1690565b3390565b6000602082840312156200016b578081fd5b5051919050565b61647580620001826000396000f3fe6080604052600436106200021b5760003560e060020a9004806384195ec01162000127578063c56325bd11620000b1578063debd2272116200007c578063debd2272146200063f578063df6f5b201462000664578063e178d60c1462000698578063ece86c2114620006bd578063f002804a14620006d457600080fd5b8063c56325bd14620005ab578063c6154e5b14620005d0578063d547741f14620005f5578063da4bd505146200061a57600080fd5b8063a49a538911620000f2578063a49a53891462000525578063a966a0df146200053c578063a9b566a31462000561578063b7ecbaae146200058657600080fd5b806384195ec014620004ac5780638cba9e7614620004d157806391d1485414620004e9578063a217fddf146200050e57600080fd5b80634244a6e211620001a95780635fa7b58411620001745780635fa7b584146200043257806361d9db2d14620004575780636804a958146200046f57806369fe0e2d146200048757600080fd5b80634244a6e214620003aa578063502a676c14620003c15780635254aca914620003d95780635df44c9214620003fe57600080fd5b8063248a9ca311620001ea578063248a9ca314620002f65780632f2ff15d146200033957806336568abe146200035e5780633f9baa57146200038357600080fd5b806301ffc9a7146200022057806307cb1a6e146200025a5780630f15e9be14620002aa5780631095b6d714620002d1575b600080fd5b3480156200022d57600080fd5b50620002456200023f3660046200325e565b620006f9565b60405190151581526020015b60405180910390f35b3480156200026757600080fd5b50620002907f80ac58cd0000000000000000000000000000000000000000000000000000000081565b604051600160e060020a0319909116815260200162000251565b348015620002b757600080fd5b50620002cf620002c936600462003213565b62000763565b005b348015620002de57600080fd5b50620002cf620002f036600462003125565b6200081f565b3480156200030357600080fd5b506200032a6200031536600462003213565b60009081526020819052604090206001015490565b60405190815260200162000251565b3480156200034657600080fd5b50620002cf620003583660046200322c565b6200083a565b3480156200036b57600080fd5b50620002cf6200037d3660046200322c565b62000868565b3480156200039057600080fd5b506200039b620008ff565b604051620002519190620035b5565b348015620003b757600080fd5b506007546200032a565b348015620003ce57600080fd5b506200032a60025481565b348015620003e657600080fd5b50620002cf620003f8366004620031c3565b62000912565b3480156200040b57600080fd5b50620004236200041d36600462003410565b620009e4565b60405162000251919062003604565b3480156200043f57600080fd5b50620002cf62000451366004620030e7565b62000da5565b3480156200046457600080fd5b506200032a62000ea3565b3480156200047c57600080fd5b506200042362000eaf565b3480156200049457600080fd5b50620002cf620004a636600462003213565b620011cc565b348015620004b957600080fd5b50620002cf620004cb366004620030e7565b620011df565b348015620004de57600080fd5b506200032a60075481565b348015620004f657600080fd5b5062000245620005083660046200322c565b620011f9565b3480156200051b57600080fd5b506200032a600081565b620002cf620005363660046200316a565b62001222565b3480156200054957600080fd5b506200032a6000805160206200642083398151915281565b3480156200056e57600080fd5b506200032a6200058036600462003213565b620017ea565b3480156200059357600080fd5b50620002cf620005a5366004620030e7565b6200180c565b348015620005b857600080fd5b50620002cf620005ca366004620033dd565b620018d0565b348015620005dd57600080fd5b50620002cf620005ef366004620030e7565b620019f0565b3480156200060257600080fd5b50620002cf620006143660046200322c565b62001a0a565b3480156200062757600080fd5b50620002cf620006393660046200322c565b62001a33565b3480156200064c57600080fd5b50620002cf6200065e366004620030e7565b62001b31565b3480156200067157600080fd5b50620006896200068336600462003213565b62001c2f565b6040516200025191906200377e565b348015620006a557600080fd5b5062000423620006b7366004620030e7565b62001e5c565b620002cf620006ce36600462003288565b620021e4565b348015620006e157600080fd5b5062000689620006f3366004620030e7565b620024ee565b6000600160e060020a031982167f7965db0b0000000000000000000000000000000000000000000000000000000014806200075d57507f01ffc9a700000000000000000000000000000000000000000000000000000000600160e060020a03198316145b92915050565b6000620007708162002550565b60006200077e60056200255f565b6002849055905060005b8181101562000819576200079e6005826200256a565b600160a060020a0316630f15e9be856040518263ffffffff1660e060020a028152600401620007cf91815260200190565b600060405180830381600087803b158015620007ea57600080fd5b505af1158015620007ff573d6000803e3d6000fd5b505050508080620008109062003892565b91505062000788565b50505050565b60006200082c8162002550565b62000819308585856200257f565b600082815260208190526040902060010154620008578162002550565b62000863838362002723565b505050565b600160a060020a0381163314620008ef5760405160e560020a62461bcd02815260206004820152602f60248201527f416363657373436f6e74726f6c3a2063616e206f6e6c792072656e6f756e636560448201527f20726f6c657320666f722073656c66000000000000000000000000000000000060648201526084015b60405180910390fd5b620008fb8282620027ab565b5050565b60606200090d600562002813565b905090565b60006200091f8162002550565b60006200092d60056200255f565b905060005b81811015620009dd57620009486005826200256a565b6040517f5254aca9000000000000000000000000000000000000000000000000000000008152600160a060020a038781166004830152602482018790529190911690635254aca990604401600060405180830381600087803b158015620009ae57600080fd5b505af1158015620009c3573d6000803e3d6000fd5b505050508080620009d49062003892565b91505062000932565b5050505050565b60608282101562000a615760405160e560020a62461bcd02815260206004820152603a60248201527f456e6420496e646578206e6565647320746f206265206772656174657220746860448201527f616e206f7220657175616c20746f20737461727420496e6465780000000000006064820152608401620008e6565b60045482111562000a725760045491505b600062000a808484620037f5565b62000a8d906001620037b8565b905060008167ffffffffffffffff81111562000abc5760e060020a634e487b7102600052604160045260246000fd5b60405190808252806020026020018201604052801562000af957816020015b62000ae562002f24565b81526020019060019003908162000adb5790505b509050845b84811162000d9c57600860006004838154811062000b2f5760e060020a634e487b7102600052603260045260246000fd5b600091825260208083209091015483528281019390935260409182019020815160c081018352815481526001820154600160a060020a031693810193909352600281018054919284019162000b849062003858565b80601f016020809104026020016040519081016040528092919081815260200182805462000bb29062003858565b801562000c035780601f1062000bd75761010080835404028352916020019162000c03565b820191906000526020600020905b81548152906001019060200180831162000be557829003601f168201915b5050505050815260200160038201805462000c1e9062003858565b80601f016020809104026020016040519081016040528092919081815260200182805462000c4c9062003858565b801562000c9d5780601f1062000c715761010080835404028352916020019162000c9d565b820191906000526020600020905b81548152906001019060200180831162000c7f57829003601f168201915b5050505050815260200160048201805462000cb89062003858565b80601f016020809104026020016040519081016040528092919081815260200182805462000ce69062003858565b801562000d375780601f1062000d0b5761010080835404028352916020019162000d37565b820191906000526020600020905b81548152906001019060200180831162000d1957829003601f168201915b505050918352505060059190910154600160a060020a0316602090910152825183908390811062000d7b5760e060020a634e487b7102600052603260045260246000fd5b6020026020010181905250808062000d939062003892565b91505062000afe565b50949350505050565b600062000db28162002550565b600062000dc060056200255f565b905060005b8181101562000e695762000ddb6005826200256a565b6040517f5fa7b584000000000000000000000000000000000000000000000000000000008152600160a060020a0386811660048301529190911690635fa7b58490602401600060405180830381600087803b15801562000e3a57600080fd5b505af115801562000e4f573d6000803e3d6000fd5b50505050808062000e609062003892565b91505062000dc5565b50604051600160a060020a038416907f4eb129c82dcd3eedb52df2b0e6fb4cfa41ac64ee9d63ff081acbb1877e85d79b90600090a2505050565b60006200090d60035490565b60045460609060009067ffffffffffffffff81111562000ee25760e060020a634e487b7102600052604160045260246000fd5b60405190808252806020026020018201604052801562000f1f57816020015b62000f0b62002f24565b81526020019060019003908162000f015790505b50905060005b600454811015620011c657600860006004838154811062000f595760e060020a634e487b7102600052603260045260246000fd5b600091825260208083209091015483528281019390935260409182019020815160c081018352815481526001820154600160a060020a031693810193909352600281018054919284019162000fae9062003858565b80601f016020809104026020016040519081016040528092919081815260200182805462000fdc9062003858565b80156200102d5780601f1062001001576101008083540402835291602001916200102d565b820191906000526020600020905b8154815290600101906020018083116200100f57829003601f168201915b50505050508152602001600382018054620010489062003858565b80601f0160208091040260200160405190810160405280929190818152602001828054620010769062003858565b8015620010c75780601f106200109b57610100808354040283529160200191620010c7565b820191906000526020600020905b815481529060010190602001808311620010a957829003601f168201915b50505050508152602001600482018054620010e29062003858565b80601f0160208091040260200160405190810160405280929190818152602001828054620011109062003858565b8015620011615780601f10620011355761010080835404028352916020019162001161565b820191906000526020600020905b8154815290600101906020018083116200114357829003601f168201915b505050918352505060059190910154600160a060020a03166020909101528251839083908110620011a55760e060020a634e487b7102600052603260045260246000fd5b60200260200101819052508080620011bd9062003892565b91505062000f25565b50919050565b6000620011d98162002550565b50600755565b6000620011ec8162002550565b6200086360058362002822565b600091825260208281526040808420600160a060020a0393909316845291905290205460ff1690565b600080516020620064208339815191526200123d8162002550565b60026001541415620012665760405160e560020a62461bcd028152600401620008e69062003747565b60026001556007543414620012925760405160e560020a62461bcd028152600401620008e690620036c4565b620012be847f80ac58cd0000000000000000000000000000000000000000000000000000000062002839565b6200130f5760405160e560020a62461bcd02815260206004820152601b60248201527f436f6e7472616374206e6565647320746f2062652045524337323100000000006044820152606401620008e6565b600084905033600160a060020a031681600160a060020a0316638da5cb5b6040518163ffffffff1660e060020a02815260040160206040518083038186803b1580156200135b57600080fd5b505afa15801562001370573d6000803e3d6000fd5b505050506040513d601f19601f8201168201806040525081019062001396919062003106565b600160a060020a031614620013f15760405160e560020a62461bcd02815260206004820152601860248201527f43616c6c6572206d757374206265204e4654206f776e657200000000000000006044820152606401620008e6565b600160a060020a038516600090815260096020526040902054156200145c5760405160e560020a62461bcd02815260206004820152601260248201527f436f6e7472616374206973206c697374656400000000000000000000000000006044820152606401620008e6565b60006200146860035490565b90508015620014fc576000805260086020527f5eff886ea0ce6ca488a3d6e336d6c0f75f46d19b42c06ce5ee98e42c96d256c854600160a060020a0387811691161415620014fc5760405160e560020a62461bcd02815260206004820152601260248201527f436f6e7472616374206973206c697374656400000000000000000000000000006044820152606401620008e6565b6200150b600380546001019055565b806009600088600160a060020a0316600160a060020a03168152602001908152602001600020819055506040518060c0016040528082815260200187600160a060020a0316815260200183600160a060020a03166306fdde036040518163ffffffff1660e060020a02815260040160006040518083038186803b1580156200159257600080fd5b505afa158015620015a7573d6000803e3d6000fd5b505050506040513d6000823e601f3d908101601f19168201604052620015d1919081019062003328565b815260200183600160a060020a03166395d89b416040518163ffffffff1660e060020a02815260040160006040518083038186803b1580156200161357600080fd5b505afa15801562001628573d6000803e3d6000fd5b505050506040513d6000823e601f3d908101601f1916820160405262001652919081019062003328565b815260200186868080601f01602080910402602001604051908101604052809392919081815260200183838082843760009201829052509385525050336020938401525083815260088252604090819020835181558383015160018201805473ffffffffffffffffffffffffffffffffffffffff1916600160a060020a039092169190911790559083015180519192620016f59260028501929091019062002f6c565b50606082015180516200171391600384019160209091019062002f6c565b50608082015180516200173191600484019160209091019062002f6c565b5060a091909101516005909101805473ffffffffffffffffffffffffffffffffffffffff1916600160a060020a03928316179055600480546001810182556000919091527f8a35acfbc15ff81a39ae7d344fd709f28e8600b4aa8c65c6b64bfe7fe36bd19b018290556040519087169033907ffd9fdb42246c073f4d07c7ec07b5e0fb9cf121eff741d4d2554e6e77a248712090620017d69085908a908a9062003793565b60405180910390a350506001805550505050565b60048181548110620017fb57600080fd5b600091825260209091200154905081565b6000620018198162002550565b60006200182760056200255f565b905060005b818110156200081957620018426005826200256a565b6040517fb7ecbaae000000000000000000000000000000000000000000000000000000008152600160a060020a038681166004830152919091169063b7ecbaae90602401600060405180830381600087803b158015620018a157600080fd5b505af1158015620018b6573d6000803e3d6000fd5b505050508080620018c79062003892565b9150506200182c565b60008051602062006420833981519152620018eb8162002550565b6000848152600860205260409020600501548490600160a060020a031633146200195b5760405160e560020a62461bcd02815260206004820152601c60248201527f4f6e6c79206f776e65722063616e2065646974206d65746164617461000000006044820152606401620008e6565b60026001541415620019845760405160e560020a62461bcd028152600401620008e69062003747565b60026001556000858152600860205260409020620019a790600401858562002ffb565b507f0455f3c11be6bd04ad201be113904d21960743bdad47547867a5316187315d5c858585604051620019dd9392919062003793565b60405180910390a1505060018055505050565b6000620019fd8162002550565b620008636005836200285a565b60008281526020819052604090206001015462001a278162002550565b620008638383620027ab565b6000805160206200642083398151915262001a4e8162002550565b6000838152600860205260409020600501548390600160a060020a0316331462001abe5760405160e560020a62461bcd02815260206004820152601c60248201527f4f6e6c79206f776e65722063616e2065646974206d65746164617461000000006044820152606401620008e6565b6002600154141562001ae75760405160e560020a62461bcd028152600401620008e69062003747565b505060026001908155600092835260086020526040909220600501805473ffffffffffffffffffffffffffffffffffffffff1916600160a060020a03929092169190911790558055565b600062001b3e8162002550565b600062001b4c60056200255f565b905060005b8181101562001bf55762001b676005826200256a565b6040517fdebd2272000000000000000000000000000000000000000000000000000000008152600160a060020a038681166004830152919091169063debd227290602401600060405180830381600087803b15801562001bc657600080fd5b505af115801562001bdb573d6000803e3d6000fd5b50505050808062001bec9062003892565b91505062001b51565b50604051600160a060020a038416907fe473c74f34be27c1464d6624f14a0d7fd4e301cbfa29c3eba425d378c8a7ebe090600090a2505050565b62001c3962002f24565b600082815260086020908152604091829020825160c081018452815481526001820154600160a060020a031692810192909252600281018054929391929184019162001c859062003858565b80601f016020809104026020016040519081016040528092919081815260200182805462001cb39062003858565b801562001d045780601f1062001cd85761010080835404028352916020019162001d04565b820191906000526020600020905b81548152906001019060200180831162001ce657829003601f168201915b5050505050815260200160038201805462001d1f9062003858565b80601f016020809104026020016040519081016040528092919081815260200182805462001d4d9062003858565b801562001d9e5780601f1062001d725761010080835404028352916020019162001d9e565b820191906000526020600020905b81548152906001019060200180831162001d8057829003601f168201915b5050505050815260200160048201805462001db99062003858565b80601f016020809104026020016040519081016040528092919081815260200182805462001de79062003858565b801562001e385780601f1062001e0c5761010080835404028352916020019162001e38565b820191906000526020600020905b81548152906001019060200180831162001e1a57829003601f168201915b505050918352505060059190910154600160a060020a031660209091015292915050565b6060600062001e6a60035490565b90506000805b8281101562001ec457600081815260086020526040902060050154600160a060020a038681169116141562001eaf578162001eab8162003892565b9250505b8062001ebb8162003892565b91505062001e70565b5060008167ffffffffffffffff81111562001ef25760e060020a634e487b7102600052604160045260246000fd5b60405190808252806020026020018201604052801562001f2f57816020015b62001f1b62002f24565b81526020019060019003908162001f115790505b5090506000805b84811015620021d957600081815260086020526040902060050154600160a060020a0388811691161415620021c457600081815260086020908152604091829020825160c081018452815481526001820154600160a060020a031692810192909252600281018054929391929184019162001fb19062003858565b80601f016020809104026020016040519081016040528092919081815260200182805462001fdf9062003858565b8015620020305780601f10620020045761010080835404028352916020019162002030565b820191906000526020600020905b8154815290600101906020018083116200201257829003601f168201915b505050505081526020016003820180546200204b9062003858565b80601f0160208091040260200160405190810160405280929190818152602001828054620020799062003858565b8015620020ca5780601f106200209e57610100808354040283529160200191620020ca565b820191906000526020600020905b815481529060010190602001808311620020ac57829003601f168201915b50505050508152602001600482018054620020e59062003858565b80601f0160208091040260200160405190810160405280929190818152602001828054620021139062003858565b8015620021645780601f10620021385761010080835404028352916020019162002164565b820191906000526020600020905b8154815290600101906020018083116200214657829003601f168201915b505050918352505060059190910154600160a060020a03166020909101528351849084908110620021a85760e060020a634e487b7102600052603260045260246000fd5b60200260200101819052508180620021c09062003892565b9250505b80620021d08162003892565b91505062001f36565b509095945050505050565b60008051602062006420833981519152620021ff8162002550565b60026001541415620022285760405160e560020a62461bcd028152600401620008e69062003747565b60026001556007543414620022545760405160e560020a62461bcd028152600401620008e690620036c4565b60006200226060035490565b905062002271600380546001019055565b60008888888833604051620022869062003078565b6200229695949392919062003668565b604051809103906000f080158015620022b3573d6000803e3d6000fd5b5090506040518060c0016040528083815260200182600160a060020a031681526020018a8a8080601f016020809104026020016040519081016040528093929190818152602001838380828437600092019190915250505090825250604080516020601f8b0181900481028201810190925289815291810191908a908a9081908401838280828437600092019190915250505090825250604080516020601f89018190048102820181019092528781529181019190889088908190840183828082843760009201829052509385525050336020938401525084815260088252604090819020835181558383015160018201805473ffffffffffffffffffffffffffffffffffffffff1916600160a060020a039092169190911790559083015180519192620023ea9260028501929091019062002f6c565b50606082015180516200240891600384019160209091019062002f6c565b50608082015180516200242691600484019160209091019062002f6c565b5060a091909101516005909101805473ffffffffffffffffffffffffffffffffffffffff1916600160a060020a0392831617905581166000818152600960205260408082208590556004805460018101825592527f8a35acfbc15ff81a39ae7d344fd709f28e8600b4aa8c65c6b64bfe7fe36bd19b9091018490555133907f302eb65a1fbff180da0f4fa83befd29ff62c2bff6765fcc04e6a5c2ffade88cd90620024d79086908a908a9062003793565b60405180910390a350506001805550505050505050565b620024f862002f24565b600160a060020a0380831660009081526009602090815260408083205483526008825291829020825160c08101845281548152600182015490941691840191909152600281018054919284019162001c859062003858565b6200255c813362002871565b50565b60006200075d825490565b6000620025788383620028e3565b9392505050565b600160a060020a038216620025cc57604051600160a060020a0384169082156108fc029083906000818181858888f19350505050158015620025c5573d6000803e3d6000fd5b5062000819565b600160a060020a038416301462002684576040517f23b872dd000000000000000000000000000000000000000000000000000000008152600160a060020a0385811660048301528481166024830152604482018390528316906323b872dd90606401602060405180830381600087803b1580156200264957600080fd5b505af11580156200265e573d6000803e3d6000fd5b505050506040513d601f19601f82011682018060405250810190620025c59190620031f1565b6040517fa9059cbb000000000000000000000000000000000000000000000000000000008152600160a060020a0384811660048301526024820183905283169063a9059cbb90604401602060405180830381600087803b158015620026e857600080fd5b505af1158015620026fd573d6000803e3d6000fd5b505050506040513d601f19601f82011682018060405250810190620009dd9190620031f1565b6200272f8282620011f9565b620008fb57600082815260208181526040808320600160a060020a03851684529091529020805460ff19166001179055620027673390565b600160a060020a031681600160a060020a0316837f2f8788117e7eff1d82e926ec794901d17c78024a50270940304540a733656f0d60405160405180910390a45050565b620027b78282620011f9565b15620008fb57600082815260208181526040808320600160a060020a0385168085529252808320805460ff1916905551339285917ff6391f5c32d9c69d2a47ea670b442974b53935d1edc7fd64eb21e047a839171b9190a45050565b6060600062002578836200291f565b60006200257883600160a060020a0384166200297d565b6000620028468362002aae565b801562002578575062002578838362002aff565b60006200257883600160a060020a03841662002c1f565b6200287d8282620011f9565b620008fb576200289881600160a060020a0316601462002c71565b620028a583602062002c71565b604051602001620028b892919062003530565b60408051601f198184030181529082905260e560020a62461bcd028252620008e691600401620036af565b60008260000182815481106200290c5760e060020a634e487b7102600052603260045260246000fd5b9060005260206000200154905092915050565b6060816000018054806020026020016040519081016040528092919081815260200182805480156200297157602002820191906000526020600020905b8154815260200190600101908083116200295c575b50505050509050919050565b6000818152600183016020526040812054801562002aa3576000620029a4600183620037f5565b8554909150600090620029ba90600190620037f5565b905081811462002a44576000866000018281548110620029ed5760e060020a634e487b7102600052603260045260246000fd5b906000526020600020015490508087600001848154811062002a225760e060020a634e487b7102600052603260045260246000fd5b6000918252602080832090910192909255918252600188019052604090208390555b855486908062002a675760e060020a634e487b7102600052603160045260246000fd5b6001900381819060005260206000200160009055905585600101600086815260200190815260200160002060009055600193505050506200075d565b60009150506200075d565b600062002adc827f01ffc9a70000000000000000000000000000000000000000000000000000000062002aff565b80156200075d575062002af882600160e060020a031962002aff565b1592915050565b60408051600160e060020a0319831660248083019190915282518083039091018152604490910182526020810180517bffffffffffffffffffffffffffffffffffffffffffffffffffffffff167f01ffc9a70000000000000000000000000000000000000000000000000000000017905290516000919082908190600160a060020a038716906175309062002b9690869062003512565b6000604051808303818686fa925050503d806000811462002bd4576040519150601f19603f3d011682016040523d82523d6000602084013e62002bd9565b606091505b509150915060208151101562002bf657600093505050506200075d565b81801562002c1557508080602001905181019062002c159190620031f1565b9695505050505050565b600081815260018301602052604081205462002c68575081546001818101845560008481526020808220909301849055845484825282860190935260409020919091556200075d565b5060006200075d565b6060600062002c82836002620037d3565b62002c8f906002620037b8565b67ffffffffffffffff81111562002cb95760e060020a634e487b7102600052604160045260246000fd5b6040519080825280601f01601f19166020018201604052801562002ce4576020820181803683370190505b5090507f30000000000000000000000000000000000000000000000000000000000000008160008151811062002d2d5760e060020a634e487b7102600052603260045260246000fd5b60200101907effffffffffffffffffffffffffffffffffffffffffffffffffffffffffffff1916908160001a9053507f78000000000000000000000000000000000000000000000000000000000000008160018151811062002da25760e060020a634e487b7102600052603260045260246000fd5b60200101907effffffffffffffffffffffffffffffffffffffffffffffffffffffffffffff1916908160001a905350600062002de0846002620037d3565b62002ded906001620037b8565b90505b600181111562002ed0577f303132333435363738396162636465660000000000000000000000000000000085600f166010811062002e415760e060020a634e487b7102600052603260045260246000fd5b1a7f01000000000000000000000000000000000000000000000000000000000000000282828151811062002e885760e060020a634e487b7102600052603260045260246000fd5b60200101907effffffffffffffffffffffffffffffffffffffffffffffffffffffffffffff1916908160001a90535060109094049362002ec8816200383e565b905062002df0565b508315620025785760405160e560020a62461bcd02815260206004820181905260248201527f537472696e67733a20686578206c656e67746820696e73756666696369656e746044820152606401620008e6565b6040518060c00160405280600081526020016000600160a060020a031681526020016060815260200160608152602001606081526020016000600160a060020a031681525090565b82805462002f7a9062003858565b90600052602060002090601f01602090048101928262002f9e576000855562002fe9565b82601f1062002fb957805160ff191683800117855562002fe9565b8280016001018555821562002fe9579182015b8281111562002fe957825182559160200191906001019062002fcc565b5062002ff792915062003086565b5090565b828054620030099062003858565b90600052602060002090601f0160209004810192826200302d576000855562002fe9565b82601f10620030485782800160ff1982351617855562002fe9565b8280016001018555821562002fe9579182015b8281111562002fe95782358255916020019190600101906200305b565b612b2780620038f983390190565b5b8082111562002ff7576000815560010162003087565b60008083601f840112620030af578182fd5b50813567ffffffffffffffff811115620030c7578182fd5b602083019150836020828501011115620030e057600080fd5b9250929050565b600060208284031215620030f9578081fd5b81356200257881620038e2565b60006020828403121562003118578081fd5b81516200257881620038e2565b6000806000606084860312156200313a578182fd5b83356200314781620038e2565b925060208401356200315981620038e2565b929592945050506040919091013590565b6000806000604084860312156200317f578283fd5b83356200318c81620038e2565b9250602084013567ffffffffffffffff811115620031a8578283fd5b620031b6868287016200309d565b9497909650939450505050565b60008060408385031215620031d6578182fd5b8235620031e381620038e2565b946020939093013593505050565b60006020828403121562003203578081fd5b8151801515811462002578578182fd5b60006020828403121562003225578081fd5b5035919050565b600080604083850312156200323f578182fd5b8235915060208301356200325381620038e2565b809150509250929050565b60006020828403121562003270578081fd5b8135600160e060020a03198116811462002578578182fd5b60008060008060008060608789031215620032a1578182fd5b863567ffffffffffffffff80821115620032b9578384fd5b620032c78a838b016200309d565b90985096506020890135915080821115620032e0578384fd5b620032ee8a838b016200309d565b9096509450604089013591508082111562003307578384fd5b506200331689828a016200309d565b979a9699509497509295939492505050565b6000602082840312156200333a578081fd5b815167ffffffffffffffff8082111562003352578283fd5b818401915084601f83011262003366578283fd5b8151818111156200337b576200337b620038c9565b604051601f8201601f19908116603f01168101908382118183101715620033a657620033a6620038c9565b81604052828152876020848701011115620033bf578586fd5b620033d28360208301602088016200380f565b979650505050505050565b600080600060408486031215620033f2578283fd5b83359250602084013567ffffffffffffffff811115620031a8578283fd5b6000806040838503121562003423578182fd5b50508035926020909101359150565b81835281816020850137506000828201602090810191909152601f909101601f19169091010190565b60008151808452620034758160208601602086016200380f565b601f01601f19169290920160200192915050565b8051825260006020820151600160a060020a0380821660208601526040840151915060c06040860152620034c160c08601836200345b565b915060608401518583036060870152620034dc83826200345b565b92505060808401518583036080870152620034f883826200345b565b9250508060a08501511660a0860152508091505092915050565b60008251620035268184602087016200380f565b9190910192915050565b7f416363657373436f6e74726f6c3a206163636f756e74200000000000000000008152600083516200356a8160178501602088016200380f565b7f206973206d697373696e6720726f6c65200000000000000000000000000000006017918401918201528351620035a98160288401602088016200380f565b01602801949350505050565b6020808252825182820181905260009190848201906040850190845b81811015620035f8578351600160a060020a031683529284019291840191600101620035d1565b50909695505050505050565b6000602080830181845280855180835260408601915060408482028701019250838701855b828110156200365b57603f198886030184526200364885835162003489565b9450928501929085019060010162003629565b5092979650505050505050565b6060815260006200367e60608301878962003432565b82810360208401526200369381868862003432565b915050600160a060020a03831660408301529695505050505050565b6020815260006200257860208301846200345b565b60208082526046908201527f4e656564206d6f72652066656520666f722063726561746520636f6c6c65637460408201527f696f6e2028696e636c7564652073746f726167652062616e6e65722c206c6f6760608201527f6f2c2e2e2e290000000000000000000000000000000000000000000000000000608082015260a00190565b6020808252601f908201527f5265656e7472616e637947756172643a207265656e7472616e742063616c6c00604082015260600190565b60208152600062002578602083018462003489565b838152604060208201526000620037af60408301848662003432565b95945050505050565b60008219821115620037ce57620037ce620038b0565b500190565b6000816000190483118215151615620037f057620037f0620038b0565b500290565b6000828210156200380a576200380a620038b0565b500390565b60005b838110156200382c57818101518382015260200162003812565b83811115620008195750506000910152565b600081620038505762003850620038b0565b506000190190565b6002810460018216806200386d57607f821691505b60208210811415620011c65760e060020a634e487b7102600052602260045260246000fd5b6000600019821415620038a957620038a9620038b0565b5060010190565b60e060020a634e487b7102600052601160045260246000fd5b60e060020a634e487b7102600052604160045260246000fd5b600160a060020a03811681146200255c57600080fdfe60806040523480156200001157600080fd5b5060405162002b2738038062002b2783398101604081905262000034916200025e565b8251839083906200004d90600290602085019062000105565b5080516200006390600390602084019062000105565b5050506200009262000083620000af640100000000026401000000009004565b640100000000620000b3810204565b620000a681640100000000620000b3810204565b5050506200036c565b3390565b600d8054600160a060020a03838116600160a060020a0319831681179093556040519116919082907f8be0079c531659141344cd1fd0a4f28419497f9722a3daafe3b4186f6b6457e090600090a35050565b8280546200011390620002e7565b90600052602060002090601f01602090048101928262000137576000855562000182565b82601f106200015257805160ff191683800117855562000182565b8280016001018555821562000182579182015b828111156200018257825182559160200191906001019062000165565b506200019092915062000194565b5090565b5b8082111562000190576000815560010162000195565b600082601f830112620001bc578081fd5b81516001604060020a0380821115620001d957620001d96200033d565b604051601f8301601f19908116603f011681019082821181831017156200020457620002046200033d565b8160405283815260209250868385880101111562000220578485fd5b8491505b8382101562000243578582018301518183018401529082019062000224565b838211156200025457848385830101525b9695505050505050565b60008060006060848603121562000273578283fd5b83516001604060020a03808211156200028a578485fd5b6200029887838801620001ab565b94506020860151915080821115620002ae578384fd5b50620002bd86828701620001ab565b60408601519093509050600160a060020a0381168114620002dc578182fd5b809150509250925092565b600281046001821680620002fc57607f821691505b6020821081141562000337577f4e487b7100000000000000000000000000000000000000000000000000000000600052602260045260246000fd5b50919050565b7f4e487b7100000000000000000000000000000000000000000000000000000000600052604160045260246000fd5b6127ab806200037c6000396000f3fe608060405234801561001057600080fd5b5060043610610190576000357c0100000000000000000000000000000000000000000000000000000000900480636352211e116100fb578063a22cb465116100b4578063c87b56dd1161008e578063c87b56dd1461039a578063e985e9c5146103ad578063eaf05b16146103e9578063f2fde38b146103fc57600080fd5b8063a22cb46514610361578063b88d4fde14610374578063c2f1f14a1461038757600080fd5b80636352211e146102c857806370a08231146102db578063715018a6146102ee5780638da5cb5b146102f65780638fc88c481461030757806395d89b411461035957600080fd5b806323b872dd1161014d57806323b872dd146102375780632a55205a1461024a5780632f745c591461027c57806342842e0e1461028f57806342966c68146102a25780634f6ccce7146102b557600080fd5b806301ffc9a71461019557806306fdde03146101bd578063081812fc146101d2578063095ea7b3146101fd57806318160ddd146102125780631b2a61b714610224575b600080fd5b6101a86101a33660046123dd565b61040f565b60405190151581526020015b60405180910390f35b6101c5610453565b6040516101b49190612517565b6101e56101e0366004612415565b6104e5565b604051600160a060020a0390911681526020016101b4565b61021061020b3660046123b4565b610586565b005b600a545b6040519081526020016101b4565b610210610232366004612345565b6106be565b610210610245366004612257565b61072b565b61025d61025836600461245f565b610760565b60408051600160a060020a0390931683526020830191909152016101b4565b61021661028a3660046123b4565b61081b565b61021061029d366004612257565b6108c6565b6102106102b0366004612415565b6108e1565b6102166102c3366004612415565b61096b565b6101e56102d6366004612415565b610a23565b6102166102e936600461220b565b610ab1565b610210610b4e565b600d54600160a060020a03166101e5565b61033c610315366004612415565b6000908152600f602052604090205460a060020a90046bffffffffffffffffffffffff1690565b6040516bffffffffffffffffffffffff90911681526020016101b4565b6101c5610b87565b61021061036f36600461230b565b610b96565b610210610382366004612292565b610ba5565b6101e5610395366004612415565b610bda565b6101c56103a8366004612415565b610c2f565b6101a86103bb366004612225565b600160a060020a03918216600090815260076020908152604080832093909416825291909152205460ff1690565b6102106103f736600461242d565b610c3a565b61021061040a36600461220b565b610d2b565b6000600160e060020a031982167fa7c9261400000000000000000000000000000000000000000000000000000000148061044d575061044d82610de0565b92915050565b606060028054610462906126a7565b80601f016020809104026020016040519081016040528092919081815260200182805461048e906126a7565b80156104db5780601f106104b0576101008083540402835291602001916104db565b820191906000526020600020905b8154815290600101906020018083116104be57829003601f168201915b5050505050905090565b60006104f082610deb565b61056a5760405160e560020a62461bcd02815260206004820152602c60248201527f4552433732313a20617070726f76656420717565727920666f72206e6f6e657860448201527f697374656e7420746f6b656e000000000000000000000000000000000000000060648201526084015b60405180910390fd5b50600090815260066020526040902054600160a060020a031690565b600061059182610a23565b905080600160a060020a031683600160a060020a0316141561061e5760405160e560020a62461bcd02815260206004820152602160248201527f4552433732313a20617070726f76616c20746f2063757272656e74206f776e6560448201527f72000000000000000000000000000000000000000000000000000000000000006064820152608401610561565b33600160a060020a038216148061063a575061063a81336103bb565b6106af5760405160e560020a62461bcd02815260206004820152603860248201527f4552433732313a20617070726f76652063616c6c6572206973206e6f74206f7760448201527f6e6572206e6f7220617070726f76656420666f7220616c6c00000000000000006064820152608401610561565b6106b98383610e08565b505050565b600d54600160a060020a031633146106eb5760405160e560020a62461bcd02815260040161056190612587565b60006106f6600e5490565b9050610706600e80546001019055565b6107108482610e83565b61071a8184610e9d565b610725818584610f3a565b50505050565b610736335b8261106b565b6107555760405160e560020a62461bcd028152600401610561906125bc565b6106b9838383611169565b6000828152600160209081526040808320815180830190925254600160a060020a03811680835260a060020a9091046bffffffffffffffffffffffff169282019290925282916107df575060408051808201909152600054600160a060020a038116825260a060020a90046bffffffffffffffffffffffff1660208201525b60208101516000906107d090610803906bffffffffffffffffffffffff1687612645565b61080d9190612631565b915196919550909350505050565b600061082683610ab1565b821061089d5760405160e560020a62461bcd02815260206004820152602b60248201527f455243373231456e756d657261626c653a206f776e657220696e646578206f7560448201527f74206f6620626f756e64730000000000000000000000000000000000000000006064820152608401610561565b50600160a060020a03919091166000908152600860209081526040808320938352929052205490565b6106b983838360405180602001604052806000815250610ba5565b6108ea33610730565b61095f5760405160e560020a62461bcd02815260206004820152603060248201527f4552433732314275726e61626c653a2063616c6c6572206973206e6f74206f7760448201527f6e6572206e6f7220617070726f766564000000000000000000000000000000006064820152608401610561565b61096881611354565b50565b6000610976600a5490565b82106109ed5760405160e560020a62461bcd02815260206004820152602c60248201527f455243373231456e756d657261626c653a20676c6f62616c20696e646578206f60448201527f7574206f6620626f756e647300000000000000000000000000000000000000006064820152608401610561565b600a8281548110610a115760e060020a634e487b7102600052603260045260246000fd5b90600052602060002001549050919050565b600081815260046020526040812054600160a060020a03168061044d5760405160e560020a62461bcd02815260206004820152602960248201527f4552433732313a206f776e657220717565727920666f72206e6f6e657869737460448201527f656e7420746f6b656e00000000000000000000000000000000000000000000006064820152608401610561565b6000600160a060020a038216610b325760405160e560020a62461bcd02815260206004820152602a60248201527f4552433732313a2062616c616e636520717565727920666f7220746865207a6560448201527f726f2061646472657373000000000000000000000000000000000000000000006064820152608401610561565b50600160a060020a031660009081526005602052604090205490565b600d54600160a060020a03163314610b7b5760405160e560020a62461bcd02815260040161056190612587565b610b85600061135d565b565b606060038054610462906126a7565b610ba13383836113bc565b5050565b610baf338361106b565b610bce5760405160e560020a62461bcd028152600401610561906125bc565b6107258484848461148f565b6000818152600f60205260408120544260a060020a9091046bffffffffffffffffffffffff1610610c2157506000908152600f6020526040902054600160a060020a031690565b61044d82610a23565b919050565b606061044d826114c5565b610c44338461106b565b610cb95760405160e560020a62461bcd02815260206004820152603260248201527f455243343930373a207472616e736665722063616c6c6572206973206e6f742060448201527f6f776e6572206e6f7220617070726f76656400000000000000000000000000006064820152608401610561565b6000838152600f60209081526040918290206bffffffffffffffffffffffff841660a060020a8102600160a060020a0387169081178355935190815290929186917ff3eadda1a229156f3f0f663b8e3b1f2409cb8d447391afe7a1221b52401529ae910160405180910390a350505050565b600d54600160a060020a03163314610d585760405160e560020a62461bcd02815260040161056190612587565b600160a060020a038116610dd75760405160e560020a62461bcd02815260206004820152602660248201527f4f776e61626c653a206e6577206f776e657220697320746865207a65726f206160448201527f64647265737300000000000000000000000000000000000000000000000000006064820152608401610561565b6109688161135d565b600061044d82611643565b600090815260046020526040902054600160a060020a0316151590565b6000818152600660205260409020805473ffffffffffffffffffffffffffffffffffffffff1916600160a060020a0384169081179091558190610e4a82610a23565b600160a060020a03167f8c5be1e5ebec7d5bd14f71427d1e84f3dd0314c0f7b2291e5b200ac8c7c3b92560405160405180910390a45050565b610ba1828260405180602001604052806000815250611681565b610ea682610deb565b610f1b5760405160e560020a62461bcd02815260206004820152602e60248201527f45524337323155524953746f726167653a2055524920736574206f66206e6f6e60448201527f6578697374656e7420746f6b656e0000000000000000000000000000000000006064820152608401610561565b6000828152600c6020908152604090912082516106b992840190612093565b6107d06bffffffffffffffffffffffff82161115610fc35760405160e560020a62461bcd02815260206004820152602a60248201527f455243323938313a20726f79616c7479206665652077696c6c2065786365656460448201527f2073616c655072696365000000000000000000000000000000000000000000006064820152608401610561565b600160a060020a03821661101c5760405160e560020a62461bcd02815260206004820152601b60248201527f455243323938313a20496e76616c696420706172616d657465727300000000006044820152606401610561565b604080518082018252600160a060020a0393841681526bffffffffffffffffffffffff9283166020808301918252600096875260019052919094209351905190911660a060020a029116179055565b600061107682610deb565b6110eb5760405160e560020a62461bcd02815260206004820152602c60248201527f4552433732313a206f70657261746f7220717565727920666f72206e6f6e657860448201527f697374656e7420746f6b656e00000000000000000000000000000000000000006064820152608401610561565b60006110f683610a23565b905080600160a060020a031684600160a060020a0316148061113d5750600160a060020a0380821660009081526007602090815260408083209388168352929052205460ff165b80611161575083600160a060020a0316611156846104e5565b600160a060020a0316145b949350505050565b82600160a060020a031661117c82610a23565b600160a060020a0316146111fb5760405160e560020a62461bcd02815260206004820152602560248201527f4552433732313a207472616e736665722066726f6d20696e636f72726563742060448201527f6f776e65720000000000000000000000000000000000000000000000000000006064820152608401610561565b600160a060020a0382166112795760405160e560020a62461bcd028152602060048201526024808201527f4552433732313a207472616e7366657220746f20746865207a65726f2061646460448201527f72657373000000000000000000000000000000000000000000000000000000006064820152608401610561565b6112848383836116b7565b61128f600082610e08565b600160a060020a03831660009081526005602052604081208054600192906112b8908490612664565b9091555050600160a060020a03821660009081526005602052604081208054600192906112e6908490612619565b9091555050600081815260046020526040808220805473ffffffffffffffffffffffffffffffffffffffff1916600160a060020a0386811691821790925591518493918716917fddf252ad1be2c89b69c2b068fc378daa952ba7f163c4a11628f55a4df523b3ef91a4505050565b61096881611741565b600d8054600160a060020a0383811673ffffffffffffffffffffffffffffffffffffffff19831681179093556040519116919082907f8be0079c531659141344cd1fd0a4f28419497f9722a3daafe3b4186f6b6457e090600090a35050565b81600160a060020a031683600160a060020a031614156114215760405160e560020a62461bcd02815260206004820152601960248201527f4552433732313a20617070726f766520746f2063616c6c6572000000000000006044820152606401610561565b600160a060020a03838116600081815260076020908152604080832094871680845294825291829020805460ff191686151590811790915591519182527f17307eab39ab6107e8899845ad3d59bd9653f200f220920489ca2b5937696c3191015b60405180910390a3505050565b61149a848484611169565b6114a68484848461175b565b6107255760405160e560020a62461bcd0281526004016105619061252a565b60606114d082610deb565b6115455760405160e560020a62461bcd02815260206004820152603160248201527f45524337323155524953746f726167653a2055524920717565727920666f722060448201527f6e6f6e6578697374656e7420746f6b656e0000000000000000000000000000006064820152608401610561565b6000828152600c60205260408120805461155e906126a7565b80601f016020809104026020016040519081016040528092919081815260200182805461158a906126a7565b80156115d75780601f106115ac576101008083540402835291602001916115d7565b820191906000526020600020905b8154815290600101906020018083116115ba57829003601f168201915b5050505050905060006115f560408051602081019091526000815290565b9050805160001415611608575092915050565b81511561163a5780826040516020016116229291906124ac565b60405160208183030381529060405292505050919050565b6111618461189d565b6000600160e060020a031982167f780e9d6300000000000000000000000000000000000000000000000000000000148061044d575061044d82611986565b61168b83836119f8565b611698600084848461175b565b6106b95760405160e560020a62461bcd0281526004016105619061252a565b6116c2838383611b4a565b81600160a060020a031683600160a060020a0316141580156116fa57506000818152600f6020526040902054600160a060020a031615155b156106b9576000818152600f602090815260408083208390555182815283917ff3eadda1a229156f3f0f663b8e3b1f2409cb8d447391afe7a1221b52401529ae9101611482565b61174a81611c02565b600090815260016020526040812055565b6000600160a060020a0384163b15611892576040517f150b7a02000000000000000000000000000000000000000000000000000000008152600160a060020a0385169063150b7a02906117b89033908990889088906004016124db565b602060405180830381600087803b1580156117d257600080fd5b505af1925050508015611802575060408051601f3d908101601f191682019092526117ff918101906123f9565b60015b61185f573d808015611830576040519150601f19603f3d011682016040523d82523d6000602084013e611835565b606091505b5080516118575760405160e560020a62461bcd0281526004016105619061252a565b805181602001fd5b600160e060020a0319167f150b7a0200000000000000000000000000000000000000000000000000000000149050611161565b506001949350505050565b60606118a882610deb565b61191d5760405160e560020a62461bcd02815260206004820152602f60248201527f4552433732314d657461646174613a2055524920717565727920666f72206e6f60448201527f6e6578697374656e7420746f6b656e00000000000000000000000000000000006064820152608401610561565b600061193460408051602081019091526000815290565b90506000815111611954576040518060200160405280600081525061197f565b8061195e84611c42565b60405160200161196f9291906124ac565b6040516020818303038152906040525b9392505050565b6000600160e060020a031982167f80ac58cd0000000000000000000000000000000000000000000000000000000014806119e95750600160e060020a031982167f5b5e139f00000000000000000000000000000000000000000000000000000000145b8061044d575061044d82611db5565b600160a060020a038216611a515760405160e560020a62461bcd02815260206004820181905260248201527f4552433732313a206d696e7420746f20746865207a65726f20616464726573736044820152606401610561565b611a5a81610deb565b15611aaa5760405160e560020a62461bcd02815260206004820152601c60248201527f4552433732313a20746f6b656e20616c7265616479206d696e746564000000006044820152606401610561565b611ab6600083836116b7565b600160a060020a0382166000908152600560205260408120805460019290611adf908490612619565b9091555050600081815260046020526040808220805473ffffffffffffffffffffffffffffffffffffffff1916600160a060020a03861690811790915590518392907fddf252ad1be2c89b69c2b068fc378daa952ba7f163c4a11628f55a4df523b3ef908290a45050565b600160a060020a038316611ba557611ba081600a80546000838152600b60205260408120829055600182018355919091527fc65a7bb8d6351c1cf70c95a316cc6a92839c986682d98bc35f958f4883f9d2a80155565b611bc8565b81600160a060020a031683600160a060020a031614611bc857611bc88382611e1c565b600160a060020a038216611bdf576106b981611eb9565b82600160a060020a031682600160a060020a0316146106b9576106b98282611f9b565b611c0b81611fdf565b6000818152600c602052604090208054611c24906126a7565b159050610968576000818152600c6020526040812061096891612117565b606081611c8257505060408051808201909152600181527f3000000000000000000000000000000000000000000000000000000000000000602082015290565b8160005b8115611cac5780611c96816126e5565b9150611ca59050600a83612631565b9150611c86565b60008167ffffffffffffffff811115611cd85760e060020a634e487b7102600052604160045260246000fd5b6040519080825280601f01601f191660200182016040528015611d02576020820181803683370190505b5090505b841561116157611d17600183612664565b9150611d24600a86612700565b611d2f906030612619565b7f010000000000000000000000000000000000000000000000000000000000000002818381518110611d745760e060020a634e487b7102600052603260045260246000fd5b60200101907effffffffffffffffffffffffffffffffffffffffffffffffffffffffffffff1916908160001a905350611dae600a86612631565b9450611d06565b6000600160e060020a031982167f2a55205a00000000000000000000000000000000000000000000000000000000148061044d57507f01ffc9a700000000000000000000000000000000000000000000000000000000600160e060020a031983161461044d565b60006001611e2984610ab1565b611e339190612664565b600083815260096020526040902054909150808214611e8657600160a060020a03841660009081526008602090815260408083208584528252808320548484528184208190558352600990915290208190555b506000918252600960209081526040808420849055600160a060020a039094168352600881528383209183525290812055565b600a54600090611ecb90600190612664565b6000838152600b6020526040812054600a8054939450909284908110611f045760e060020a634e487b7102600052603260045260246000fd5b9060005260206000200154905080600a8381548110611f365760e060020a634e487b7102600052603260045260246000fd5b6000918252602080832090910192909255828152600b9091526040808220849055858252812055600a805480611f7f5760e060020a634e487b7102600052603160045260246000fd5b6001900381819060005260206000200160009055905550505050565b6000611fa683610ab1565b600160a060020a039093166000908152600860209081526040808320868452825280832085905593825260099052919091209190915550565b6000611fea82610a23565b9050611ff8816000846116b7565b612003600083610e08565b600160a060020a038116600090815260056020526040812080546001929061202c908490612664565b9091555050600082815260046020526040808220805473ffffffffffffffffffffffffffffffffffffffff1916905551839190600160a060020a038416907fddf252ad1be2c89b69c2b068fc378daa952ba7f163c4a11628f55a4df523b3ef908390a45050565b82805461209f906126a7565b90600052602060002090601f0160209004810192826120c15760008555612107565b82601f106120da57805160ff1916838001178555612107565b82800160010185558215612107579182015b828111156121075782518255916020019190600101906120ec565b5061211392915061214d565b5090565b508054612123906126a7565b6000825580601f10612133575050565b601f01602090049060005260206000209081019061096891905b5b80821115612113576000815560010161214e565b600067ffffffffffffffff8084111561217d5761217d612746565b604051601f8501601f19908116603f011681019082821181831017156121a5576121a5612746565b816040528093508581528686860111156121be57600080fd5b858560208301376000602087830101525050509392505050565b8035600160a060020a0381168114610c2a57600080fd5b80356bffffffffffffffffffffffff81168114610c2a57600080fd5b60006020828403121561221c578081fd5b61197f826121d8565b60008060408385031215612237578081fd5b612240836121d8565b915061224e602084016121d8565b90509250929050565b60008060006060848603121561226b578081fd5b612274846121d8565b9250612282602085016121d8565b9150604084013590509250925092565b600080600080608085870312156122a7578081fd5b6122b0856121d8565b93506122be602086016121d8565b925060408501359150606085013567ffffffffffffffff8111156122e0578182fd5b8501601f810187136122f0578182fd5b6122ff87823560208401612162565b91505092959194509250565b6000806040838503121561231d578182fd5b612326836121d8565b91506020830135801515811461233a578182fd5b809150509250929050565b600080600060608486031215612359578283fd5b612362846121d8565b9250602084013567ffffffffffffffff81111561237d578283fd5b8401601f8101861361238d578283fd5b61239c86823560208401612162565b9250506123ab604085016121ef565b90509250925092565b600080604083850312156123c6578182fd5b6123cf836121d8565b946020939093013593505050565b6000602082840312156123ee578081fd5b813561197f8161275f565b60006020828403121561240a578081fd5b815161197f8161275f565b600060208284031215612426578081fd5b5035919050565b600080600060608486031215612441578283fd5b83359250612451602085016121d8565b91506123ab604085016121ef565b60008060408385031215612471578182fd5b50508035926020909101359150565b6000815180845261249881602086016020860161267b565b601f01601f19169290920160200192915050565b600083516124be81846020880161267b565b8351908301906124d281836020880161267b565b01949350505050565b6000600160a060020a0380871683528086166020840152508360408301526080606083015261250d6080830184612480565b9695505050505050565b60208152600061197f6020830184612480565b60208082526032908201527f4552433732313a207472616e7366657220746f206e6f6e20455243373231526560408201527f63656976657220696d706c656d656e7465720000000000000000000000000000606082015260800190565b6020808252818101527f4f776e61626c653a2063616c6c6572206973206e6f7420746865206f776e6572604082015260600190565b60208082526031908201527f4552433732313a207472616e736665722063616c6c6572206973206e6f74206f60408201527f776e6572206e6f7220617070726f766564000000000000000000000000000000606082015260800190565b6000821982111561262c5761262c612714565b500190565b6000826126405761264061272d565b500490565b600081600019048311821515161561265f5761265f612714565b500290565b60008282101561267657612676612714565b500390565b60005b8381101561269657818101518382015260200161267e565b838111156107255750506000910152565b6002810460018216806126bb57607f821691505b602082108114156126df5760e060020a634e487b7102600052602260045260246000fd5b50919050565b60006000198214156126f9576126f9612714565b5060010190565b60008261270f5761270f61272d565b500690565b60e060020a634e487b7102600052601160045260246000fd5b60e060020a634e487b7102600052601260045260246000fd5b60e060020a634e487b7102600052604160045260246000fd5b600160e060020a03198116811461096857600080fdfea26469706673582212204718b83760fffc9d9bf69fe62768921a0ac8b0319bf82d5a3138e905619e2f2464736f6c63430008040033877a78dc988c0ec5f58453b44888a55eb39755c3d5ed8d8ea990912aa3ef29c6a2646970667358221220a5a8b8407b9f1ca8181b49e4be0778712aeee221020ded69ab5bc38f3f9d4cd664736f6c63430008040033",
  "immutableReferences": {},
  "source": "// SPDX-License-Identifier: MIT\r\npragma solidity ^0.8.4;\r\nimport \"@openzeppelin/contracts/utils/Counters.sol\";\r\nimport \"@openzeppelin/contracts/access/AccessControl.sol\";\r\nimport \"@openzeppelin/contracts/security/ReentrancyGuard.sol\";\r\nimport \"@openzeppelin/contracts/token/ERC721/ERC721.sol\";\r\nimport \"@openzeppelin/contracts/utils/introspection/ERC165Checker.sol\";\r\nimport \"@openzeppelin/contracts/utils/structs/EnumerableSet.sol\";\r\nimport \"@openzeppelin/contracts/token/ERC20/IERC20.sol\";\r\nimport \"./standards/PNFT.sol\";\r\nimport \"./interfaces/INFT.sol\";\r\nimport \"./interfaces/IHub.sol\";\r\nimport \"./interfaces/IHubChild.sol\";\r\n\r\ncontract Hub is IHub, AccessControl, ReentrancyGuard {\r\n    using Counters for Counters.Counter;\r\n    using EnumerableSet for EnumerableSet.AddressSet;\r\n\r\n    bytes32 public constant ARTIST_ROLE = keccak256(\"ARTIST_ROLE\");\r\n    bytes4 public constant ERC721INTERFACE = type(IERC721).interfaceId;\r\n    uint256 public RATE_FEE;\r\n    Counters.Counter private _itemCount;\r\n    uint256[] public collectionIds;\r\n    EnumerableSet.AddressSet private _hubChild;\r\n\r\n    struct Collection {\r\n        uint256 cid;\r\n        address contractAddress;\r\n        string name;\r\n        string symbol;\r\n        string metadata;\r\n        address owner;\r\n    }\r\n\r\n    uint256 public CREATE_FEE;\r\n\r\n    mapping(uint256 => Collection) private _cidToCollection;\r\n    mapping(address => uint256) private _addressToCid;\r\n\r\n    event CollectionCreated(\r\n        uint256 cid,\r\n        address indexed owner,\r\n        address indexed nftAddress,\r\n        string metadata\r\n    );\r\n    \r\n    event CollectionListed(\r\n        uint256 cid,\r\n        address indexed owner,\r\n        address indexed nftAddress,\r\n        string metadata\r\n    );\r\n\r\n    event CollectionEdited(\r\n        uint256 cid,\r\n        string metadata\r\n    );\r\n\r\n    event AddToken(\r\n        address indexed tokenAddress\r\n    );\r\n\r\n    event RemoveToken(\r\n        address indexed tokenAddress\r\n    );\r\n\r\n    modifier onlyCollectionOwner(uint256 cid) {\r\n        require(\r\n            _cidToCollection[cid].owner == msg.sender,\r\n            \"Only owner can edit metadata\"\r\n        );\r\n        _;\r\n    }\r\n\r\n    constructor(uint256 fee) {\r\n        CREATE_FEE = fee;\r\n        _grantRole(DEFAULT_ADMIN_ROLE, msg.sender);\r\n        _grantRole(ARTIST_ROLE, msg.sender);\r\n    }\r\n\r\n    function setFee(uint256 newFee) public onlyRole(DEFAULT_ADMIN_ROLE) {\r\n        CREATE_FEE = newFee;\r\n    }\r\n\r\n    function getCreateFee() public view returns (uint256) {\r\n        return CREATE_FEE;\r\n    }\r\n\r\n    function addHubChild(address childAddress)\r\n        external\r\n        onlyRole(DEFAULT_ADMIN_ROLE)\r\n    {\r\n        _hubChild.add(childAddress);\r\n    }\r\n\r\n    function removeHubChild(address childAddress)\r\n        external\r\n        onlyRole(DEFAULT_ADMIN_ROLE)\r\n    {\r\n        _hubChild.remove(childAddress);\r\n    }\r\n\r\n    function getHubChild()\r\n        external\r\n        view\r\n        returns (address[] memory)\r\n    {\r\n        return _hubChild.values();\r\n    }\r\n\r\n    //IHub implement\r\n    function addAcceptToken(address tokenAddr)\r\n        external\r\n        override\r\n        onlyRole(DEFAULT_ADMIN_ROLE)\r\n    {\r\n        uint256 childLength = _hubChild.length();\r\n        for (uint256 i = 0; i < childLength; i++) {\r\n            IHubChild(_hubChild.at(i)).addAcceptToken(tokenAddr);\r\n        }\r\n        emit AddToken(tokenAddr);\r\n    }\r\n\r\n    function removeToken(address tokenAddr)\r\n        external\r\n        override\r\n        onlyRole(DEFAULT_ADMIN_ROLE)\r\n    {\r\n        uint256 childLength = _hubChild.length();\r\n        for (uint256 i = 0; i < childLength; i++) {\r\n            IHubChild(_hubChild.at(i)).removeToken(tokenAddr);\r\n        }\r\n        emit RemoveToken(tokenAddr);\r\n    }\r\n\r\n    //IPlatformFee implement\r\n    function addWhitelistAddress(address whitelistAddress, uint256 fee)\r\n        external\r\n        override\r\n        onlyRole(DEFAULT_ADMIN_ROLE)\r\n    {\r\n        uint256 childLength = _hubChild.length();\r\n        for (uint256 i = 0; i < childLength; i++) {\r\n            IHubChild(_hubChild.at(i)).addWhitelistAddress(\r\n                whitelistAddress,\r\n                fee\r\n            );\r\n        }\r\n    }\r\n\r\n    function removeWhitelistAddress(address whitelistAddress)\r\n        external\r\n        override\r\n        onlyRole(DEFAULT_ADMIN_ROLE)\r\n    {\r\n        uint256 childLength = _hubChild.length();\r\n        for (uint256 i = 0; i < childLength; i++) {\r\n            IHubChild(_hubChild.at(i)).removeWhitelistAddress(whitelistAddress);\r\n        }\r\n    }\r\n    \r\n    function setRateFee(uint256 rateFee) external override onlyRole(DEFAULT_ADMIN_ROLE) {\r\n        uint256 childLength = _hubChild.length();\r\n        RATE_FEE = rateFee;\r\n        for (uint256 i = 0; i < childLength; i++) {\r\n            IHubChild(_hubChild.at(i)).setRateFee(rateFee);\r\n        }\r\n    }\r\n\r\n    function createCollection(\r\n        string calldata name,\r\n        string calldata symbol,\r\n        string calldata metadata\r\n    ) public payable onlyRole(ARTIST_ROLE) nonReentrant {\r\n        require(\r\n            msg.value == CREATE_FEE,\r\n            \"Need more fee for create collection (include storage banner, logo,...)\"\r\n        );\r\n        uint256 itemId = _itemCount.current();\r\n        _itemCount.increment();\r\n        address newPNFT = address(new PNFT(name, symbol, msg.sender));\r\n\r\n        _cidToCollection[itemId] = Collection(\r\n            itemId,\r\n            newPNFT,\r\n            name,\r\n            symbol,\r\n            metadata,\r\n            msg.sender\r\n        );\r\n        _addressToCid[newPNFT] = itemId;\r\n        collectionIds.push(itemId);\r\n        emit CollectionCreated(itemId, msg.sender, newPNFT, metadata);\r\n    }\r\n\r\n    function listCollection(address nftAddress, string calldata metadata)\r\n        public\r\n        payable\r\n        onlyRole(ARTIST_ROLE)\r\n        nonReentrant\r\n    {\r\n        require(\r\n            msg.value == CREATE_FEE,\r\n            \"Need more fee for create collection (include storage banner, logo,...)\"\r\n        );\r\n        require(\r\n            ERC165Checker.supportsInterface(nftAddress, ERC721INTERFACE),\r\n            \"Contract needs to be ERC721\"\r\n        );\r\n        INFT newPNFT = INFT(nftAddress);\r\n\r\n        require(newPNFT.owner() == msg.sender, \"Caller must be NFT owner\");\r\n        require(_addressToCid[nftAddress] == 0, \"Contract is listed\");\r\n\r\n        uint256 itemId = _itemCount.current();\r\n        if (itemId != 0) {\r\n            require(\r\n                nftAddress != _cidToCollection[0].contractAddress,\r\n                \"Contract is listed\"\r\n            );\r\n        }\r\n\r\n        _itemCount.increment();\r\n        _addressToCid[nftAddress] = itemId;\r\n        _cidToCollection[itemId] = Collection(\r\n            itemId,\r\n            nftAddress,\r\n            newPNFT.name(),\r\n            newPNFT.symbol(),\r\n            metadata,\r\n            msg.sender\r\n        );\r\n        collectionIds.push(itemId);\r\n        emit CollectionListed(itemId, msg.sender, nftAddress, metadata);\r\n    }\r\n\r\n    function editMetaData(uint256 cid, string calldata newHash)\r\n        public\r\n        onlyRole(ARTIST_ROLE)\r\n        onlyCollectionOwner(cid)\r\n        nonReentrant\r\n    {\r\n        _cidToCollection[cid].metadata = newHash;\r\n        emit CollectionEdited(cid, newHash);\r\n    }\r\n\r\n    function transferCollection(uint256 cid, address newOwner)\r\n        public\r\n        onlyRole(ARTIST_ROLE)\r\n        onlyCollectionOwner(cid)\r\n        nonReentrant\r\n    {\r\n        _cidToCollection[cid].owner = newOwner;\r\n    }\r\n\r\n    function totalCollections() external view returns (uint256) {\r\n        return _itemCount.current();\r\n    }\r\n\r\n    function getCollectionData(uint256 cid)\r\n        public\r\n        view\r\n        returns (Collection memory)\r\n    {\r\n        return _cidToCollection[cid];\r\n    }\r\n\r\n    function getCollectionByAddress(address nftAddress)\r\n        public\r\n        view\r\n        returns (Collection memory)\r\n    {\r\n        return _cidToCollection[_addressToCid[nftAddress]];\r\n    }\r\n\r\n    function getCollectionsByOwner(address creator)\r\n        public\r\n        view\r\n        returns (Collection[] memory)\r\n    {\r\n        uint256 cCount = _itemCount.current();\r\n        uint256 myCollectionCount = 0;\r\n        for (uint256 i = 0; i < cCount; i++) {\r\n            if (_cidToCollection[i].owner == creator) {\r\n                myCollectionCount++;\r\n            }\r\n        }\r\n\r\n        Collection[] memory collections = new Collection[](myCollectionCount);\r\n        uint256 cIndex = 0;\r\n        for (uint256 i = 0; i < cCount; i++) {\r\n            if (_cidToCollection[i].owner == creator) {\r\n                collections[cIndex] = _cidToCollection[i];\r\n                cIndex++;\r\n            }\r\n        }\r\n        return collections;\r\n    }\r\n\r\n    function getCollectionsPaginated(uint256 startIndex, uint256 endIndex)\r\n        external\r\n        view\r\n        returns (Collection[] memory)\r\n    {\r\n        require(\r\n            endIndex >= startIndex,\r\n            \"End Index needs to be greater than or equal to start Index\"\r\n        );\r\n        if (endIndex > collectionIds.length) {\r\n            endIndex = collectionIds.length;\r\n        }\r\n        uint256 length = endIndex - startIndex + 1;\r\n        Collection[] memory info = new Collection[](length);\r\n        for (uint256 i = startIndex; i <= endIndex; i++) {\r\n            info[i] = _cidToCollection[collectionIds[i]];\r\n        }\r\n\r\n        return info;\r\n    }\r\n\r\n    function getAllCollections() external view returns (Collection[] memory) {\r\n        Collection[] memory collections = new Collection[](\r\n            collectionIds.length\r\n        );\r\n        for (uint256 i = 0; i < collectionIds.length; i++) {\r\n            collections[i] = _cidToCollection[collectionIds[i]];\r\n        }\r\n\r\n        return collections;\r\n    }\r\n\r\n    function withdrawFee(address to, address tokenAddress, uint256 amount) external onlyRole(DEFAULT_ADMIN_ROLE) {\r\n        sendAssets(address(this), to, tokenAddress, amount);\r\n    }\r\n    \r\n    function sendAssets(\r\n        address from,\r\n        address to,\r\n        address ftToken,\r\n        uint256 value\r\n    ) private {\r\n        if (ftToken == address(0)) {\r\n            payable(to).transfer(value);\r\n        } else {\r\n            if (from != address(this)) {\r\n                IERC20(ftToken).transferFrom(from, to, value);\r\n            } else {\r\n                IERC20(ftToken).transfer(to, value);\r\n            }\r\n        }\r\n    }\r\n}\r\n",
  "sourcePath": "G:\\Learning\\Project\\source\\picasarts-contracts\\contracts\\Hub.sol",
  "compiler": {
    "name": "solc",
    "version": "0.8.4+commit.c7e474f2.Emscripten.clang"
  },
  "schemaVersion": "3.4.10",
  "updatedAt": "2023-02-24T17:19:21.417Z",
  "devdoc": {
    "kind": "dev",
    "methods": {
      "getRoleAdmin(bytes32)": {
        "details": "Returns the admin role that controls `role`. See {grantRole} and {revokeRole}. To change a role's admin, use {_setRoleAdmin}."
      },
      "grantRole(bytes32,address)": {
        "details": "Grants `role` to `account`. If `account` had not been already granted `role`, emits a {RoleGranted} event. Requirements: - the caller must have ``role``'s admin role."
      },
      "hasRole(bytes32,address)": {
        "details": "Returns `true` if `account` has been granted `role`."
      },
      "renounceRole(bytes32,address)": {
        "details": "Revokes `role` from the calling account. Roles are often managed via {grantRole} and {revokeRole}: this function's purpose is to provide a mechanism for accounts to lose their privileges if they are compromised (such as when a trusted device is misplaced). If the calling account had been revoked `role`, emits a {RoleRevoked} event. Requirements: - the caller must be `account`."
      },
      "revokeRole(bytes32,address)": {
        "details": "Revokes `role` from `account`. If `account` had been granted `role`, emits a {RoleRevoked} event. Requirements: - the caller must have ``role``'s admin role."
      },
      "supportsInterface(bytes4)": {
        "details": "See {IERC165-supportsInterface}."
      }
    },
    "version": 1
  },
  "userdoc": {
    "kind": "user",
    "methods": {},
    "version": 1
  }
}