{
  "contractName": "Marketplace",
  "abi": [
    {
      "inputs": [
        {
          "internalType": "uint256",
          "name": "fee",
          "type": "uint256"
        },
        {
          "internalType": "address",
          "name": "hub",
          "type": "address"
        }
      ],
      "stateMutability": "nonpayable",
      "type": "constructor"
    },
    {
      "anonymous": false,
      "inputs": [
        {
          "indexed": false,
          "internalType": "uint256",
          "name": "itemId",
          "type": "uint256"
        },
        {
          "indexed": false,
          "internalType": "address",
          "name": "nftContract",
          "type": "address"
        },
        {
          "indexed": false,
          "internalType": "uint256",
          "name": "tokenId",
          "type": "uint256"
        },
        {
          "indexed": false,
          "internalType": "address",
          "name": "bidder",
          "type": "address"
        },
        {
          "indexed": false,
          "internalType": "uint256",
          "name": "price",
          "type": "uint256"
        }
      ],
      "name": "NFTAddAuction",
      "type": "event"
    },
    {
      "anonymous": false,
      "inputs": [
        {
          "indexed": false,
          "internalType": "uint256",
          "name": "itemId",
          "type": "uint256"
        },
        {
          "indexed": false,
          "internalType": "address",
          "name": "nftContract",
          "type": "address"
        },
        {
          "indexed": false,
          "internalType": "uint256",
          "name": "tokenId",
          "type": "uint256"
        },
        {
          "indexed": false,
          "internalType": "address",
          "name": "seller",
          "type": "address"
        },
        {
          "indexed": false,
          "internalType": "address",
          "name": "ftContract",
          "type": "address"
        },
        {
          "indexed": false,
          "internalType": "uint256",
          "name": "price",
          "type": "uint256"
        },
        {
          "indexed": false,
          "internalType": "bool",
          "name": "auction",
          "type": "bool"
        }
      ],
      "name": "NFTListed",
      "type": "event"
    },
    {
      "anonymous": false,
      "inputs": [
        {
          "indexed": false,
          "internalType": "uint256",
          "name": "itemId",
          "type": "uint256"
        },
        {
          "indexed": false,
          "internalType": "address",
          "name": "nftContract",
          "type": "address"
        },
        {
          "indexed": false,
          "internalType": "uint256",
          "name": "tokenId",
          "type": "uint256"
        },
        {
          "indexed": false,
          "internalType": "address",
          "name": "seller",
          "type": "address"
        },
        {
          "indexed": false,
          "internalType": "address",
          "name": "buyer",
          "type": "address"
        },
        {
          "indexed": false,
          "internalType": "uint256",
          "name": "price",
          "type": "uint256"
        }
      ],
      "name": "NFTSold",
      "type": "event"
    },
    {
      "anonymous": false,
      "inputs": [
        {
          "indexed": false,
          "internalType": "uint256",
          "name": "itemId",
          "type": "uint256"
        }
      ],
      "name": "NFTUnlisted",
      "type": "event"
    },
    {
      "anonymous": false,
      "inputs": [
        {
          "indexed": true,
          "internalType": "address",
          "name": "previousOwner",
          "type": "address"
        },
        {
          "indexed": true,
          "internalType": "address",
          "name": "newOwner",
          "type": "address"
        }
      ],
      "name": "OwnershipTransferred",
      "type": "event"
    },
    {
      "inputs": [],
      "name": "DENOMINATOR",
      "outputs": [
        {
          "internalType": "uint256",
          "name": "",
          "type": "uint256"
        }
      ],
      "stateMutability": "view",
      "type": "function"
    },
    {
      "inputs": [],
      "name": "ERC2981INTERFACE",
      "outputs": [
        {
          "internalType": "bytes4",
          "name": "",
          "type": "bytes4"
        }
      ],
      "stateMutability": "view",
      "type": "function"
    },
    {
      "inputs": [],
      "name": "ERC721INTERFACE",
      "outputs": [
        {
          "internalType": "bytes4",
          "name": "",
          "type": "bytes4"
        }
      ],
      "stateMutability": "view",
      "type": "function"
    },
    {
      "inputs": [],
      "name": "RATE_FEE",
      "outputs": [
        {
          "internalType": "uint256",
          "name": "",
          "type": "uint256"
        }
      ],
      "stateMutability": "view",
      "type": "function"
    },
    {
      "inputs": [
        {
          "internalType": "address",
          "name": "tokenAddr",
          "type": "address"
        }
      ],
      "name": "addAcceptToken",
      "outputs": [],
      "stateMutability": "nonpayable",
      "type": "function"
    },
    {
      "inputs": [
        {
          "internalType": "address",
          "name": "whitelistAddress",
          "type": "address"
        },
        {
          "internalType": "uint256",
          "name": "fee",
          "type": "uint256"
        }
      ],
      "name": "addWhitelistAddress",
      "outputs": [],
      "stateMutability": "nonpayable",
      "type": "function"
    },
    {
      "inputs": [
        {
          "internalType": "address",
          "name": "walletAddress",
          "type": "address"
        },
        {
          "internalType": "address",
          "name": "tokenAddress",
          "type": "address"
        }
      ],
      "name": "feeOf",
      "outputs": [
        {
          "internalType": "uint256",
          "name": "",
          "type": "uint256"
        }
      ],
      "stateMutability": "view",
      "type": "function"
    },
    {
      "inputs": [],
      "name": "getAcceptTokens",
      "outputs": [
        {
          "internalType": "address[]",
          "name": "",
          "type": "address[]"
        }
      ],
      "stateMutability": "view",
      "type": "function"
    },
    {
      "inputs": [],
      "name": "getRateFee",
      "outputs": [
        {
          "internalType": "uint256",
          "name": "",
          "type": "uint256"
        }
      ],
      "stateMutability": "view",
      "type": "function"
    },
    {
      "inputs": [
        {
          "internalType": "address",
          "name": "tokenAddress",
          "type": "address"
        }
      ],
      "name": "getTokenFee",
      "outputs": [
        {
          "internalType": "uint256",
          "name": "",
          "type": "uint256"
        }
      ],
      "stateMutability": "view",
      "type": "function"
    },
    {
      "inputs": [],
      "name": "getWhitelist",
      "outputs": [
        {
          "components": [
            {
              "internalType": "address",
              "name": "addr",
              "type": "address"
            },
            {
              "internalType": "uint256",
              "name": "fee",
              "type": "uint256"
            }
          ],
          "internalType": "struct IHubChild.WhitelistVars[]",
          "name": "",
          "type": "tuple[]"
        }
      ],
      "stateMutability": "view",
      "type": "function"
    },
    {
      "inputs": [],
      "name": "hubAddr",
      "outputs": [
        {
          "internalType": "address",
          "name": "",
          "type": "address"
        }
      ],
      "stateMutability": "view",
      "type": "function"
    },
    {
      "inputs": [],
      "name": "owner",
      "outputs": [
        {
          "internalType": "address",
          "name": "",
          "type": "address"
        }
      ],
      "stateMutability": "view",
      "type": "function"
    },
    {
      "inputs": [
        {
          "internalType": "address",
          "name": "tokenAddr",
          "type": "address"
        }
      ],
      "name": "removeToken",
      "outputs": [],
      "stateMutability": "nonpayable",
      "type": "function"
    },
    {
      "inputs": [
        {
          "internalType": "address",
          "name": "whitelistAddress",
          "type": "address"
        }
      ],
      "name": "removeWhitelistAddress",
      "outputs": [],
      "stateMutability": "nonpayable",
      "type": "function"
    },
    {
      "inputs": [],
      "name": "renounceOwnership",
      "outputs": [],
      "stateMutability": "nonpayable",
      "type": "function"
    },
    {
      "inputs": [
        {
          "internalType": "address",
          "name": "hub",
          "type": "address"
        }
      ],
      "name": "setHub",
      "outputs": [],
      "stateMutability": "nonpayable",
      "type": "function"
    },
    {
      "inputs": [
        {
          "internalType": "uint256",
          "name": "rateFee",
          "type": "uint256"
        }
      ],
      "name": "setRateFee",
      "outputs": [],
      "stateMutability": "nonpayable",
      "type": "function"
    },
    {
      "inputs": [
        {
          "internalType": "address",
          "name": "newOwner",
          "type": "address"
        }
      ],
      "name": "transferOwnership",
      "outputs": [],
      "stateMutability": "nonpayable",
      "type": "function"
    },
    {
      "inputs": [
        {
          "internalType": "address",
          "name": "nftContract",
          "type": "address"
        },
        {
          "internalType": "address",
          "name": "ftContract",
          "type": "address"
        },
        {
          "internalType": "uint256",
          "name": "tokenId",
          "type": "uint256"
        },
        {
          "internalType": "uint256",
          "name": "price",
          "type": "uint256"
        }
      ],
      "name": "listNft",
      "outputs": [],
      "stateMutability": "nonpayable",
      "type": "function"
    },
    {
      "inputs": [
        {
          "internalType": "address",
          "name": "nftContract",
          "type": "address"
        },
        {
          "internalType": "address",
          "name": "ftContract",
          "type": "address"
        },
        {
          "internalType": "uint256",
          "name": "tokenId",
          "type": "uint256"
        },
        {
          "internalType": "uint256",
          "name": "price",
          "type": "uint256"
        },
        {
          "internalType": "bool",
          "name": "limitTime",
          "type": "bool"
        },
        {
          "internalType": "uint256",
          "name": "timeHour",
          "type": "uint256"
        }
      ],
      "name": "listAuctionNft",
      "outputs": [],
      "stateMutability": "nonpayable",
      "type": "function"
    },
    {
      "inputs": [
        {
          "internalType": "uint256",
          "name": "itemId",
          "type": "uint256"
        },
        {
          "internalType": "address",
          "name": "ftContract",
          "type": "address"
        },
        {
          "internalType": "uint256",
          "name": "price",
          "type": "uint256"
        }
      ],
      "name": "switchToListed",
      "outputs": [],
      "stateMutability": "nonpayable",
      "type": "function"
    },
    {
      "inputs": [
        {
          "internalType": "uint256",
          "name": "itemId",
          "type": "uint256"
        },
        {
          "internalType": "address",
          "name": "ftContract",
          "type": "address"
        },
        {
          "internalType": "uint256",
          "name": "price",
          "type": "uint256"
        },
        {
          "internalType": "bool",
          "name": "limitTime",
          "type": "bool"
        },
        {
          "internalType": "uint256",
          "name": "timeHour",
          "type": "uint256"
        }
      ],
      "name": "switchToAuction",
      "outputs": [],
      "stateMutability": "nonpayable",
      "type": "function"
    },
    {
      "inputs": [
        {
          "internalType": "uint256",
          "name": "itemId",
          "type": "uint256"
        },
        {
          "internalType": "address",
          "name": "ftContract",
          "type": "address"
        },
        {
          "internalType": "uint256",
          "name": "price",
          "type": "uint256"
        }
      ],
      "name": "relistNft",
      "outputs": [],
      "stateMutability": "nonpayable",
      "type": "function"
    },
    {
      "inputs": [
        {
          "internalType": "uint256",
          "name": "itemId",
          "type": "uint256"
        },
        {
          "internalType": "address",
          "name": "ftContract",
          "type": "address"
        },
        {
          "internalType": "uint256",
          "name": "price",
          "type": "uint256"
        },
        {
          "internalType": "bool",
          "name": "limitTime",
          "type": "bool"
        },
        {
          "internalType": "uint256",
          "name": "timeHour",
          "type": "uint256"
        }
      ],
      "name": "reauctionNft",
      "outputs": [],
      "stateMutability": "nonpayable",
      "type": "function"
    },
    {
      "inputs": [
        {
          "internalType": "uint256",
          "name": "itemId",
          "type": "uint256"
        }
      ],
      "name": "unlistItem",
      "outputs": [],
      "stateMutability": "nonpayable",
      "type": "function"
    },
    {
      "inputs": [
        {
          "internalType": "uint256",
          "name": "itemId",
          "type": "uint256"
        }
      ],
      "name": "buyNft",
      "outputs": [],
      "stateMutability": "payable",
      "type": "function"
    },
    {
      "inputs": [
        {
          "internalType": "uint256",
          "name": "itemId",
          "type": "uint256"
        },
        {
          "internalType": "uint256",
          "name": "value",
          "type": "uint256"
        }
      ],
      "name": "addAuctionNft",
      "outputs": [],
      "stateMutability": "payable",
      "type": "function"
    },
    {
      "inputs": [
        {
          "internalType": "uint256",
          "name": "itemId",
          "type": "uint256"
        }
      ],
      "name": "acceptAuctionNft",
      "outputs": [],
      "stateMutability": "payable",
      "type": "function"
    },
    {
      "inputs": [
        {
          "internalType": "uint256",
          "name": "itemId",
          "type": "uint256"
        }
      ],
      "name": "claimAuctionNft",
      "outputs": [],
      "stateMutability": "payable",
      "type": "function"
    },
    {
      "inputs": [],
      "name": "getListedNfts",
      "outputs": [
        {
          "components": [
            {
              "internalType": "uint256",
              "name": "itemId",
              "type": "uint256"
            },
            {
              "internalType": "address",
              "name": "nftContract",
              "type": "address"
            },
            {
              "internalType": "uint256",
              "name": "tokenId",
              "type": "uint256"
            },
            {
              "internalType": "address",
              "name": "seller",
              "type": "address"
            },
            {
              "internalType": "address",
              "name": "ftContract",
              "type": "address"
            },
            {
              "internalType": "uint256",
              "name": "price",
              "type": "uint256"
            },
            {
              "internalType": "bool",
              "name": "listed",
              "type": "bool"
            },
            {
              "internalType": "bool",
              "name": "auction",
              "type": "bool"
            }
          ],
          "internalType": "struct Marketplace.NFT[]",
          "name": "",
          "type": "tuple[]"
        }
      ],
      "stateMutability": "view",
      "type": "function"
    },
    {
      "inputs": [],
      "name": "getMyListedNfts",
      "outputs": [
        {
          "components": [
            {
              "internalType": "uint256",
              "name": "itemId",
              "type": "uint256"
            },
            {
              "internalType": "address",
              "name": "nftContract",
              "type": "address"
            },
            {
              "internalType": "uint256",
              "name": "tokenId",
              "type": "uint256"
            },
            {
              "internalType": "address",
              "name": "seller",
              "type": "address"
            },
            {
              "internalType": "address",
              "name": "ftContract",
              "type": "address"
            },
            {
              "internalType": "uint256",
              "name": "price",
              "type": "uint256"
            },
            {
              "internalType": "bool",
              "name": "listed",
              "type": "bool"
            },
            {
              "internalType": "bool",
              "name": "auction",
              "type": "bool"
            }
          ],
          "internalType": "struct Marketplace.NFT[]",
          "name": "",
          "type": "tuple[]"
        }
      ],
      "stateMutability": "view",
      "type": "function"
    },
    {
      "inputs": [],
      "name": "getUserBids",
      "outputs": [
        {
          "components": [
            {
              "internalType": "uint256",
              "name": "itemId",
              "type": "uint256"
            },
            {
              "internalType": "address",
              "name": "nftContract",
              "type": "address"
            },
            {
              "internalType": "uint256",
              "name": "tokenId",
              "type": "uint256"
            },
            {
              "internalType": "address",
              "name": "seller",
              "type": "address"
            },
            {
              "internalType": "address",
              "name": "ftContract",
              "type": "address"
            },
            {
              "internalType": "uint256",
              "name": "price",
              "type": "uint256"
            },
            {
              "internalType": "bool",
              "name": "listed",
              "type": "bool"
            },
            {
              "internalType": "bool",
              "name": "auction",
              "type": "bool"
            }
          ],
          "internalType": "struct Marketplace.NFT[]",
          "name": "",
          "type": "tuple[]"
        },
        {
          "components": [
            {
              "internalType": "address",
              "name": "bidder",
              "type": "address"
            },
            {
              "internalType": "uint256",
              "name": "highestBid",
              "type": "uint256"
            },
            {
              "internalType": "bool",
              "name": "limitTime",
              "type": "bool"
            },
            {
              "internalType": "uint256",
              "name": "timeEnd",
              "type": "uint256"
            }
          ],
          "internalType": "struct Marketplace.Auction[]",
          "name": "",
          "type": "tuple[]"
        }
      ],
      "stateMutability": "view",
      "type": "function"
    },
    {
      "inputs": [],
      "name": "getListAuction",
      "outputs": [
        {
          "components": [
            {
              "internalType": "address",
              "name": "bidder",
              "type": "address"
            },
            {
              "internalType": "uint256",
              "name": "highestBid",
              "type": "uint256"
            },
            {
              "internalType": "bool",
              "name": "limitTime",
              "type": "bool"
            },
            {
              "internalType": "uint256",
              "name": "timeEnd",
              "type": "uint256"
            }
          ],
          "internalType": "struct Marketplace.Auction[]",
          "name": "",
          "type": "tuple[]"
        }
      ],
      "stateMutability": "view",
      "type": "function"
    },
    {
      "inputs": [
        {
          "internalType": "address",
          "name": "contractAddress",
          "type": "address"
        },
        {
          "internalType": "uint256",
          "name": "tokenId",
          "type": "uint256"
        }
      ],
      "name": "getMarketData",
      "outputs": [
        {
          "components": [
            {
              "internalType": "uint256",
              "name": "itemId",
              "type": "uint256"
            },
            {
              "internalType": "address",
              "name": "nftContract",
              "type": "address"
            },
            {
              "internalType": "uint256",
              "name": "tokenId",
              "type": "uint256"
            },
            {
              "internalType": "address",
              "name": "seller",
              "type": "address"
            },
            {
              "internalType": "address",
              "name": "ftContract",
              "type": "address"
            },
            {
              "internalType": "uint256",
              "name": "price",
              "type": "uint256"
            },
            {
              "internalType": "bool",
              "name": "listed",
              "type": "bool"
            },
            {
              "internalType": "bool",
              "name": "auction",
              "type": "bool"
            }
          ],
          "internalType": "struct Marketplace.NFT",
          "name": "",
          "type": "tuple"
        },
        {
          "components": [
            {
              "internalType": "address",
              "name": "bidder",
              "type": "address"
            },
            {
              "internalType": "uint256",
              "name": "highestBid",
              "type": "uint256"
            },
            {
              "internalType": "bool",
              "name": "limitTime",
              "type": "bool"
            },
            {
              "internalType": "uint256",
              "name": "timeEnd",
              "type": "uint256"
            }
          ],
          "internalType": "struct Marketplace.Auction",
          "name": "",
          "type": "tuple"
        }
      ],
      "stateMutability": "view",
      "type": "function"
    }
  ],
  "bytecode": "0x60806040523480156200001157600080fd5b506040516200454a3803806200454a8339810160408190526200003491620001a8565b6200005a6200004b6401000000006200007f810204565b64010000000062000083810204565b6001805560078290556200007781640100000000620000d3810204565b5050620001e5565b3390565b60008054600160a060020a03838116600160a060020a0319831681178455604051919092169283917f8be0079c531659141344cd1fd0a4f28419497f9722a3daafe3b4186f6b6457e09190a35050565b620000e66401000000006200007f810204565b600160a060020a03166200010264010000000062000199810204565b600160a060020a03161462000177576040517f08c379a000000000000000000000000000000000000000000000000000000000815260206004820181905260248201527f4f776e61626c653a2063616c6c6572206973206e6f7420746865206f776e6572604482015260640160405180910390fd5b60088054600160a060020a031916600160a060020a0392909216919091179055565b600054600160a060020a031690565b60008060408385031215620001bb578182fd5b82516020840151909250600160a060020a0381168114620001da578182fd5b809150509250929050565b61435580620001f56000396000f3fe608060405260043610610221576000357c01000000000000000000000000000000000000000000000000000000009004806383eb1f3b11610135578063a432309b116100bd578063b7ecbaae1161008c578063b7ecbaae146105fd578063ca6ca4851461061d578063d01f63f51461063f578063debd227214610661578063f2fde38b1461068157600080fd5b8063a432309b1461057c578063a4b7dd8e146105aa578063a89eccfd146105bd578063a9140099146105dd57600080fd5b80638d6cb3fb116101045780638d6cb3fb146104f35780638da5cb5b14610508578063918f867414610526578063937054f61461053c57806396b5c1d61461055c57600080fd5b806383eb1f3b146104895780638563e10e146104a957806386164c4c146104cb57806386c3b08a146104de57600080fd5b80634387d0f1116101b85780635254aca9116101875780635254aca9146103f45780635a599da8146104145780635fa7b58414610434578063715018a61461045457806375e1e4c71461046957600080fd5b80634387d0f11461036357806349095a21146103835780634f17ef81146103bb578063502a676c146103de57600080fd5b80631f4cc4db116101f45780631f4cc4db146102e0578063243adbdd14610302578063252154fa1461031557806331962cdc1461034357600080fd5b806307cb1a6e146102265780630f15e9be1461028d5780630fab2713146102af5780631879c750146102c2575b600080fd5b34801561023257600080fd5b5061025a7f80ac58cd0000000000000000000000000000000000000000000000000000000081565b6040517bffffffffffffffffffffffffffffffffffffffffffffffffffffffff1990911681526020015b60405180910390f35b34801561029957600080fd5b506102ad6102a8366004613ce6565b6106a1565b005b6102ad6102bd366004613ce6565b610756565b3480156102ce57600080fd5b5061025a60e160020a63152a902d0281565b3480156102ec57600080fd5b506102f5610bd7565b6040516102849190613f71565b6102ad610310366004613ce6565b610de3565b34801561032157600080fd5b50610335610330366004613b73565b6111e6565b604051908152602001610284565b34801561034f57600080fd5b506102ad61035e366004613b73565b6111f9565b34801561036f57600080fd5b506102ad61037e366004613d35565b611248565b34801561038f57600080fd5b506008546103a390600160a060020a031681565b604051600160a060020a039091168152602001610284565b3480156103c757600080fd5b506103d0611438565b604051610284929190613f84565b3480156103ea57600080fd5b5061033560075481565b34801561040057600080fd5b506102ad61040f366004613c72565b6116eb565b34801561042057600080fd5b506102ad61042f366004613ce6565b611729565b34801561044057600080fd5b506102ad61044f366004613b73565b611984565b34801561046057600080fd5b506102ad6119c0565b34801561047557600080fd5b506102ad610484366004613bc7565b6119f9565b34801561049557600080fd5b506102ad6104a4366004613c0c565b611d48565b3480156104b557600080fd5b506104be6120f6565b6040516102849190613f11565b6102ad6104d9366004613d86565b6121c8565b3480156104ea57600080fd5b50600754610335565b3480156104ff57600080fd5b506102f561252b565b34801561051457600080fd5b50600054600160a060020a03166103a3565b34801561053257600080fd5b5061033561271081565b34801561054857600080fd5b506102ad610557366004613cfe565b6126d7565b34801561056857600080fd5b506102ad610577366004613cfe565b6128f0565b34801561058857600080fd5b5061059c610597366004613c72565b612a84565b6040516102849291906141af565b6102ad6105b8366004613ce6565b612bee565b3480156105c957600080fd5b506103356105d8366004613b8f565b612d57565b3480156105e957600080fd5b506102ad6105f8366004613d35565b612d6a565b34801561060957600080fd5b506102ad610618366004613b73565b612f45565b34801561062957600080fd5b50610632612f7d565b6040516102849190613f5e565b34801561064b57600080fd5b506106546130a9565b6040516102849190613fb2565b34801561066d57600080fd5b506102ad61067c366004613b73565b6131ab565b34801561068d57600080fd5b506102ad61069c366004613b73565b6131e3565b600854600160a060020a031633146106d75760405160e560020a62461bcd0281526004016106ce906140ad565b60405180910390fd5b61271081106107515760405160e560020a62461bcd02815260206004820152602160248201527f466565206e756d657261746f72206d757374206c657373207468616e2031303060448201527f250000000000000000000000000000000000000000000000000000000000000060648201526084016106ce565b600755565b6002600154141561077c5760405160e560020a62461bcd0281526004016106ce906140e4565b60026001556000818152600c60205260409020600681015460ff1680156107ac57506006810154610100900460ff165b6107cb5760405160e560020a62461bcd0281526004016106ce90614152565b6000828152600d602052604090206003820154600160a060020a031633146108085760405160e560020a62461bcd0281526004016106ce90614041565b600281015460ff16158061081f5750428160030154105b6108945760405160e560020a62461bcd02815260206004820152602760248201527f41756374696f6e206d75737420626520656e646564206f72206e6f74206c696d60448201527f69742074696d650000000000000000000000000000000000000000000000000060648201526084016106ce565b60048201546000906108b0903390600160a060020a031661329b565b90506108d56127106108cf83856001015461330590919063ffffffff16565b90613311565b60018401549091506108fa90600160a060020a031660e160020a63152a902d0261331d565b15610a4c5760018381015460028501549184015460405160e160020a63152a902d028152600481019390935260248301526000918291600160a060020a031690632a55205a90604401604080518083038186803b15801561095a57600080fd5b505afa15801561096e573d6000803e3d6000fd5b505050506040513d601f19601f820116820180604052508101906109929190613c9d565b60038701549193509150600160a060020a038084169116148015906109b75750600081115b15610a175760048501546109d89030908490600160a060020a031684613339565b60038501546004860154610a12913091600160a060020a039182169116610a0d610a0286896134bb565b60018a0154906134c7565b613339565b610a45565b600385015460048601546001860154610a45923092600160a060020a0391821692911690610a0d90886134c7565b5050610a7a565b600383015460048401546001840154610a7a923092600160a060020a0391821692911690610a0d90866134c7565b610aa433610a90600054600160a060020a031690565b6004860154600160a060020a031684613339565b60018301548254600285015460405160e060020a6323b872dd028152600160a060020a03938416936323b872dd93610ae59330939290911691600401613eed565b600060405180830381600087803b158015610aff57600080fd5b505af1158015610b13573d6000803e3d6000fd5b5050505060068301805460ff199081169091558254600160a060020a03191683556000600184810182905560028086018054909416909355600380860183905590860154928601549086015460408051898152600160a060020a039586166020820152908101929092529290921660608301526080820181905260a08201527ffbd14ef83c9e36d4cd05cdc496d3b3a07da3041679b4142908d0ef3cef210dc49060c00160405180910390a1610bcd600980546001019055565b5050600180555050565b60606000610be4600a5490565b90506000805b82811015610c51576000818152600c6020526040902060030154600160a060020a031633148015610c2c57506000818152600c602052604090206006015460ff165b15610c3f5781610c3b816142a8565b9250505b80610c49816142a8565b915050610bea565b5060008167ffffffffffffffff811115610c7e5760e060020a634e487b7102600052604160045260246000fd5b604051908082528060200260200182016040528015610cb757816020015b610ca4613afc565b815260200190600190039081610c9c5790505b5090506000805b84811015610dd9576000818152600c6020526040902060030154600160a060020a031633148015610d0057506000818152600c602052604090206006015460ff165b15610dc7576000818152600c602090815260409182902082516101008082018552825482526001830154600160a060020a039081169483019490945260028301549482019490945260038201548316606082015260048201549092166080830152600581015460a08301526006015460ff808216151560c0840152929004909116151560e08201528351849084908110610dad5760e060020a634e487b7102600052603260045260246000fd5b60200260200101819052508180610dc3906142a8565b9250505b80610dd1816142a8565b915050610cbe565b5090949350505050565b60026001541415610e095760405160e560020a62461bcd0281526004016106ce906140e4565b60026001556000818152600c602052604090206004810154600160a060020a0316610eab578060050154341015610eab5760405160e560020a62461bcd02815260206004820152602660248201527f4e6f7420656e6f75676820657468657220746f20636f7665722061736b696e6760448201527f207072696365000000000000000000000000000000000000000000000000000060648201526084016106ce565b600681015460ff168015610ec957506006810154610100900460ff16155b610ee85760405160e560020a62461bcd0281526004016106ce90614152565b60048101543390600090610f06908390600160a060020a031661329b565b9050610f256127106108cf83866005015461330590919063ffffffff16565b6001840154909150610f4a90600160a060020a031660e160020a63152a902d0261331d565b156110995760018301546002840154600585015460405160e160020a63152a902d028152600481019290925260248201526000918291600160a060020a0390911690632a55205a90604401604080518083038186803b158015610fac57600080fd5b505afa158015610fc0573d6000803e3d6000fd5b505050506040513d601f19601f82011682018060405250810190610fe49190613c9d565b60038701549193509150600160a060020a038084169116148015906110095750600081115b1561106457600485015461102a9033908490600160a060020a031684613339565b6003850154600486015461105f913391600160a060020a039182169116610a0d61105486896134bb565b60058b0154906134c7565b611092565b600385015460048601546005870154611092923392600160a060020a0391821692911690610a0d90886134c7565b50506110c7565b6003830154600484015460058501546110c7923392600160a060020a0391821692911690610a0d90866134c7565b6110dd33610a90600054600160a060020a031690565b6001830154600284015460405160e060020a6323b872dd028152600160a060020a03909216916323b872dd916111199130918791600401613eed565b600060405180830381600087803b15801561113357600080fd5b505af1158015611147573d6000803e3d6000fd5b50505060068401805460ff1916905550611165600980546001019055565b600183015460028401546003850154600586015460408051898152600160a060020a039586166020820152908101939093529083166060830152918416608082015260a08101919091527ffbd14ef83c9e36d4cd05cdc496d3b3a07da3041679b4142908d0ef3cef210dc49060c00160405180910390a15050600180555050565b60006111f36004836134d3565b92915050565b600054600160a060020a031633146112265760405160e560020a62461bcd0281526004016106ce90614078565b60088054600160a060020a031916600160a060020a0392909216919091179055565b83600160a060020a038116158061126557506112656002826134e8565b6112845760405160e560020a62461bcd0281526004016106ce9061400a565b600260015414156112aa5760405160e560020a62461bcd0281526004016106ce906140e4565b6002600155836112cf5760405160e560020a62461bcd0281526004016106ce9061411b565b6000868152600c60205260409081902060018101546002820154925160e060020a6323b872dd0281529192600160a060020a03909116916323b872dd9161131c9133913091600401613eed565b600060405180830381600087803b15801561133657600080fd5b505af115801561134a573d6000803e3d6000fd5b5050505060038101805433600160a060020a031991821617909155600682018054600484018054909316600160a060020a038a161790925561ffff19909116610101179055611399600961350a565b6000878152600d602052604090206001810186905560028101805460ff1916861515179055846113ca5760006113e0565b6113e06113d985610e10613305565b42906134bb565b6003820155600180830154600284015460405160008051602061430083398151915293611422938d93600160a060020a0390911692909133918e918e916141f7565b60405180910390a1505060018055505050505050565b6060806000611446600a5490565b905060008060005b83811015611495576000818152600d6020526040902054600160a060020a031633141561148357611480600184614237565b92505b8061148d816142a8565b91505061144e565b5060008267ffffffffffffffff8111156114c25760e060020a634e487b7102600052604160045260246000fd5b6040519080825280602002602001820160405280156114fb57816020015b6114e8613afc565b8152602001906001900390816114e05790505b50905060008367ffffffffffffffff81111561152a5760e060020a634e487b7102600052604160045260246000fd5b60405190808252806020026020018201604052801561156357816020015b611550613b40565b8152602001906001900390816115485790505b50905060005b858110156116de576000818152600d6020526040902054600160a060020a03163314156116cc576000818152600c602090815260408083208151610100808201845282548252600180840154600160a060020a039081168488015260028086015485880152600380870154831660608088019190915260048801548416608080890191909152600589015460a089015260069098015460ff808216151560c08a01529690048616151560e08801528b8b52600d8a52998890208851978801895280549093168752928201549786019790975295860154909116151593830193909352929091015492810192909252845183929082908790899081106116815760e060020a634e487b7102600052603260045260246000fd5b6020026020010181905250808588815181106116b05760e060020a634e487b7102600052603260045260246000fd5b60209081029190910101526116c6600188614237565b96505050505b806116d6816142a8565b915050611569565b5090969095509350505050565b600854600160a060020a031633146117185760405160e560020a62461bcd0281526004016106ce906140ad565b61172460048383613564565b505050565b6002600154141561174f5760405160e560020a62461bcd0281526004016106ce906140e4565b60026001556000818152600c6020526040902060030154600160a060020a031633146117c05760405160e560020a62461bcd02815260206004820152601460248201527f53656e646572206973206e6f74206c697374657200000000000000000000000060448201526064016106ce565b6000818152600c6020526040902060060154610100900460ff161561186b576000818152600d602052604090206001810154156118365780546001820154604051600160a060020a039092169181156108fc0291906000818181858888f19350505050158015611834573d6000803e3d6000fd5b505b506000818152600d602052604081208054600160a060020a03191681556001810182905560028101805460ff19169055600301555b6000818152600c6020526040908190206001810154600290910154915160e060020a6323b872dd028152600160a060020a03909116916323b872dd916118b8913091339190600401613eed565b600060405180830381600087803b1580156118d257600080fd5b505af11580156118e6573d6000803e3d6000fd5b5050506000828152600c60205260408120818155600181018054600160a060020a0319908116909155600282018390556003820180548216905560048201805490911690556005810191909155600601805461ffff191690555061194a600b61350a565b6040518181527fcd14eb7ebf273ed59a9fd1cf8651f3f40d9a04355b3511376f0d17b37ba224ff9060200160405180910390a15060018055565b600854600160a060020a031633146119b15760405160e560020a62461bcd0281526004016106ce906140ad565b6119bc600282613582565b5050565b600054600160a060020a031633146119ed5760405160e560020a62461bcd0281526004016106ce90614078565b6119f76000613597565b565b82600160a060020a0381161580611a165750611a166002826134e8565b611a355760405160e560020a62461bcd0281526004016106ce9061400a565b60026001541415611a5b5760405160e560020a62461bcd0281526004016106ce906140e4565b600260015581611a805760405160e560020a62461bcd0281526004016106ce9061411b565b60405160e060020a6323b872dd028152600160a060020a038616906323b872dd90611ab390339030908890600401613eed565b600060405180830381600087803b158015611acd57600080fd5b505af1158015611ae1573d6000803e3d6000fd5b50505050611af3600a80546001019055565b611b01600b80546001019055565b6000611b0c600a5490565b905060405180610100016040528082815260200187600160a060020a0316815260200185815260200133600160a060020a0316815260200186600160a060020a0316815260200184815260200160011515815260200160001515815250600c60008381526020019081526020016000206000820151816000015560208201518160010160006101000a815481600160a060020a030219169083600160a060020a031602179055506040820151816002015560608201518160030160006101000a815481600160a060020a030219169083600160a060020a0316021790555060808201518160040160006101000a815481600160a060020a030219169083600160a060020a0316021790555060a0820151816005015560c08201518160060160006101000a81548160ff02191690831515021790555060e08201518160060160016101000a81548160ff02191690831515021790555090505060405180608001604052806000600160a060020a031681526020018481526020016000151581526020016000815250600d600083815260200190815260200160002060008201518160000160006101000a815481600160a060020a030219169083600160a060020a031602179055506020820151816001015560408201518160020160006101000a81548160ff021916908315150217905550606082015181600301559050506000805160206143008339815191528187863389886000604051611d3497969594939291906141f7565b60405180910390a150506001805550505050565b84600160a060020a0381161580611d655750611d656002826134e8565b611d845760405160e560020a62461bcd0281526004016106ce9061400a565b60026001541415611daa5760405160e560020a62461bcd0281526004016106ce906140e4565b600260015583611dcf5760405160e560020a62461bcd0281526004016106ce9061411b565b611df9877f80ac58cd0000000000000000000000000000000000000000000000000000000061331d565b611e485760405160e560020a62461bcd02815260206004820152601b60248201527f436f6e7472616374206e6565647320746f20626520455243373231000000000060448201526064016106ce565b60405160e060020a6323b872dd028152600160a060020a038816906323b872dd90611e7b90339030908a90600401613eed565b600060405180830381600087803b158015611e9557600080fd5b505af1158015611ea9573d6000803e3d6000fd5b50505050611ebb600a80546001019055565b611ec9600b80546001019055565b6000611ed4600a5490565b905060405180610100016040528082815260200189600160a060020a0316815260200187815260200133600160a060020a0316815260200188600160a060020a0316815260200186815260200160011515815260200160011515815250600c60008381526020019081526020016000206000820151816000015560208201518160010160006101000a815481600160a060020a030219169083600160a060020a031602179055506040820151816002015560608201518160030160006101000a815481600160a060020a030219169083600160a060020a0316021790555060808201518160040160006101000a815481600160a060020a030219169083600160a060020a0316021790555060a0820151816005015560c08201518160060160006101000a81548160ff02191690831515021790555060e08201518160060160016101000a81548160ff02191690831515021790555090505060405180608001604052806000600160a060020a03168152602001868152602001851515815260200185612061576000612070565b6120706113d986610e10613305565b90526000828152600d602090815260409182902083518154600160a060020a031916600160a060020a03909116178155908301516001808301919091558383015160028301805460ff191691151591909117905560609093015160039091015551600080516020614300833981519152916114229184918c918b9133918e918d916141f7565b6060600061210460026135e7565b905060008167ffffffffffffffff8111156121325760e060020a634e487b7102600052604160045260246000fd5b60405190808252806020026020018201604052801561215b578160200160208202803683370190505b50905060005b828110156121c1576121746002826135f1565b8282815181106121975760e060020a634e487b7102600052603260045260246000fd5b600160a060020a0390921660209283029190910190910152806121b9816142a8565b915050612161565b5092915050565b600260015414156121ee5760405160e560020a62461bcd0281526004016106ce906140e4565b60026001556000828152600c60205260409020600681015460ff16801561221e57506006810154610100900460ff165b61223d5760405160e560020a62461bcd0281526004016106ce90614152565b6000838152600d602052604090208054600160a060020a0316331480159061227257506003820154600160a060020a03163314155b6122e75760405160e560020a62461bcd02815260206004820152602b60248201527f53656e646572206d757374206265206e6f742073656c6c6572206f722068696760448201527f686573742062696464657200000000000000000000000000000000000000000060648201526084016106ce565b600281015460ff1615806122fe5750428160030154115b61234d5760405160e560020a62461bcd02815260206004820152601960248201527f41756374696f6e2068617320616c726561647920656e6465640000000000000060448201526064016106ce565b806001015483116123c95760405160e560020a62461bcd02815260206004820152602f60248201527f4e6f7420656e6f75676820657468657220746f20636f7665722068696768657360448201527f742061756374696f6e207072696365000000000000000000000000000000000060648201526084016106ce565b60048201543390600160a060020a03161561246a5760048084015460405160e060020a6323b872dd028152600160a060020a03909116916323b872dd9161241691859130918a9101613eed565b602060405180830381600087803b15801561243057600080fd5b505af1158015612444573d6000803e3d6000fd5b505050506040513d601f19601f820116820180604052508101906124689190613cca565b505b8154600160a060020a0316156124a0578154600484015460018401546124a0923092600160a060020a0391821692911690613339565b8154600160a060020a031916600160a060020a03828116918217845560018085018790558501546002860154604080518a8152929093166020830152918101919091526060810191909152608081018590527f1ec22f773eb11b65e580f47284fbf084529fa09c8c8b8b96cb76b665e38a72aa9060a0015b60405180910390a1505060018055505050565b60606000612538600a5490565b90506000612545600b5490565b9050600061255260095490565b61255c9083614291565b905060008167ffffffffffffffff81111561258a5760e060020a634e487b7102600052604160045260246000fd5b6040519080825280602002602001820160405280156125c357816020015b6125b0613afc565b8152602001906001900390816125a85790505b5090506000805b85811080156125d95750838211155b156126cc576000818152600c602052604090206006015460ff16156126ba576000818152600c602090815260409182902082516101008082018552825482526001830154600160a060020a039081169483019490945260028301549482019490945260038201548316606082015260048201549092166080830152600581015460a08301526006015460ff808216151560c0840152929004909116151560e082015283518490849081106126a05760e060020a634e487b7102600052603260045260246000fd5b602002602001018190525081806126b6906142a8565b9250505b806126c4816142a8565b9150506125ca565b509095945050505050565b81600160a060020a03811615806126f457506126f46002826134e8565b6127135760405160e560020a62461bcd0281526004016106ce9061400a565b600260015414156127395760405160e560020a62461bcd0281526004016106ce906140e4565b60026001558161275e5760405160e560020a62461bcd0281526004016106ce9061411b565b6000848152600c602052604090206003810154600160a060020a0316331461279b5760405160e560020a62461bcd0281526004016106ce90614041565b6006810154610100900460ff166127f75760405160e560020a62461bcd02815260206004820152601360248201527f4e4654206d7573742062652061756374696f6e0000000000000000000000000060448201526064016106ce565b6000858152600d60205260409020600482018054600160a060020a031916600160a060020a03878116919091179091556005830185905560068301805461ff0019169055815416156128825780546001820154604051600160a060020a039092169181156108fc0291906000818181858888f19350505050158015612880573d6000803e3d6000fd5b505b8054600160a060020a0319168155600060018083018290556002808401805460ff19169055600384018390559084015490840154600485015460405160008051602061430083398151915294611d34948c94600160a060020a03918216949093339392909116918c916141f7565b81600160a060020a038116158061290d575061290d6002826134e8565b61292c5760405160e560020a62461bcd0281526004016106ce9061400a565b600260015414156129525760405160e560020a62461bcd0281526004016106ce906140e4565b6002600155816129775760405160e560020a62461bcd0281526004016106ce9061411b565b6000848152600c60205260409081902060018101546002820154925160e060020a6323b872dd0281529192600160a060020a03909116916323b872dd916129c49133913091600401613eed565b600060405180830381600087803b1580156129de57600080fd5b505af11580156129f2573d6000803e3d6000fd5b5050505060038101805433600160a060020a031991821617909155600682018054600484018054909316600160a060020a038816179092556005830185905561ffff199091166001179055612a47600961350a565b6001810154600282015460405160008051602061430083398151915292612518928992600160a060020a039092169133908a908a906000906141f7565b612a8c613afc565b612a94613b40565b612a9c613afc565b612aa4613b40565b6000612aaf600a5490565b905060005b81811015612bdf576000818152600c6020526040902060010154600160a060020a038981169116148015612af857506000818152600c602052604090206002015487145b15612bcd576000818152600c602090815260408083208151610100808201845282548252600180840154600160a060020a039081168488015260028086015485880152600380870154831660608088019190915260048801548416608080890191909152600589015460a089015260069098015460ff808216151560c08a01529690048616151560e08801528b8b52600d8a5299889020885197880189528054909316875292820154978601979097529586015490911615159383019390935292909101549281019290925294509250612bdf565b80612bd7816142a8565b915050612ab4565b509193509150505b9250929050565b60026001541415612c145760405160e560020a62461bcd0281526004016106ce906140e4565b60026001556000818152600c60205260409020600681015460ff168015612c4457506006810154610100900460ff165b612c635760405160e560020a62461bcd0281526004016106ce90614152565b6000828152600d602052604090208054600160a060020a03163314612ccd5760405160e560020a62461bcd02815260206004820152601560248201527f53656e646572206d75737420626520626964646572000000000000000000000060448201526064016106ce565b600281015460ff1680612ce35750428160030154105b6108945760405160e560020a62461bcd028152602060048201526024808201527f41756374696f6e206d75737420626520656e64656420616e64206c696d69742060448201527f74696d650000000000000000000000000000000000000000000000000000000060648201526084016106ce565b6000612d63838361329b565b9392505050565b83600160a060020a0381161580612d875750612d876002826134e8565b612da65760405160e560020a62461bcd0281526004016106ce9061400a565b60026001541415612dcc5760405160e560020a62461bcd0281526004016106ce906140e4565b600260015583612df15760405160e560020a62461bcd0281526004016106ce9061411b565b6000868152600c602052604090206003810154600160a060020a03163314612e2e5760405160e560020a62461bcd0281526004016106ce90614041565b6006810154610100900460ff1615612e8b5760405160e560020a62461bcd02815260206004820152601760248201527f4e4654206d757374206e6f742062652061756374696f6e00000000000000000060448201526064016106ce565b6000878152600d6020526040902060068201805461010061ff0019909116179055600482018054600160a060020a031916600160a060020a0389161790556001810186905560028101805460ff191686151517905584612eec576000612efb565b612efb6113d985610e10613305565b600382015560018201546002830154600484015460405160008051602061430083398151915293611422938d93600160a060020a0392831693919233929116908d906000906141f7565b600854600160a060020a03163314612f725760405160e560020a62461bcd0281526004016106ce906140ad565b6119bc6004826135fd565b60606000612f8a600a5490565b905060008167ffffffffffffffff811115612fb85760e060020a634e487b7102600052604160045260246000fd5b604051908082528060200260200182016040528015612ff157816020015b612fde613b40565b815260200190600190039081612fd65790505b5090506000805b838110156130a0576000818152600d602090815260409182902082516080810184528154600160a060020a03168152600182015492810192909252600281015460ff16151592820192909252600390910154606082015283518490849081106130745760e060020a634e487b7102600052603260045260246000fd5b6020026020010181905250818061308a906142a8565b9250508080613098906142a8565b915050612ff8565b50909392505050565b606060006130b76004613612565b905060008167ffffffffffffffff8111156130e55760e060020a634e487b7102600052604160045260246000fd5b60405190808252806020026020018201604052801561312a57816020015b60408051808201909152600080825260208201528152602001906001900390816131035790505b50905060005b828110156121c15760008061314660048461361d565b91509150604051806040016040528083600160a060020a031681526020018281525084848151811061318b5760e060020a634e487b7102600052603260045260246000fd5b6020026020010181905250505080806131a3906142a8565b915050613130565b600854600160a060020a031633146131d85760405160e560020a62461bcd0281526004016106ce906140ad565b6119bc600282613639565b600054600160a060020a031633146132105760405160e560020a62461bcd0281526004016106ce90614078565b600160a060020a03811661328f5760405160e560020a62461bcd02815260206004820152602660248201527f4f776e61626c653a206e6577206f776e657220697320746865207a65726f206160448201527f646472657373000000000000000000000000000000000000000000000000000060648201526084016106ce565b61329881613597565b50565b60408051808201909152600080825260208201819052906132bd60048561364e565b602083015215801582526132d6576020015190506111f3565b6132e160048461364e565b602083015215801582526132fa576020015190506111f3565b505060075492915050565b6000612d638284614272565b6000612d63828461424f565b600061332883613666565b8015612d635750612d6383836136c7565b600160a060020a03821661338357604051600160a060020a0384169082156108fc029083906000818181858888f1935050505015801561337d573d6000803e3d6000fd5b506134b5565b600160a060020a03841630146134185760405160e060020a6323b872dd028152600160a060020a038316906323b872dd906133c690879087908690600401613eed565b602060405180830381600087803b1580156133e057600080fd5b505af11580156133f4573d6000803e3d6000fd5b505050506040513d601f19601f8201168201806040525081019061337d9190613cca565b6040517fa9059cbb000000000000000000000000000000000000000000000000000000008152600160a060020a0384811660048301526024820183905283169063a9059cbb90604401602060405180830381600087803b15801561347b57600080fd5b505af115801561348f573d6000803e3d6000fd5b505050506040513d601f19601f820116820180604052508101906134b39190613cca565b505b50505050565b6000612d638284614237565b6000612d638284614291565b6000612d6383600160a060020a0384166137f3565b600160a060020a03811660009081526001830160205260408120541515612d63565b80548061355c5760405160e560020a62461bcd02815260206004820152601b60248201527f436f756e7465723a2064656372656d656e74206f766572666c6f77000000000060448201526064016106ce565b600019019055565b600061357a84600160a060020a03851684613866565b949350505050565b6000612d6383600160a060020a038416613883565b60008054600160a060020a03838116600160a060020a0319831681178455604051919092169283917f8be0079c531659141344cd1fd0a4f28419497f9722a3daafe3b4186f6b6457e09190a35050565b60006111f3825490565b6000612d6383836139a9565b6000612d6383600160a060020a0384166139e4565b60006111f382613a01565b600080808061362c8686613a0c565b9097909650945050505050565b6000612d6383600160a060020a038416613a37565b600080808061362c86600160a060020a038716613a86565b6000613692827f01ffc9a7000000000000000000000000000000000000000000000000000000006136c7565b80156111f357506136c0827bffffffffffffffffffffffffffffffffffffffffffffffffffffffff196136c7565b1592915050565b604080517bffffffffffffffffffffffffffffffffffffffffffffffffffffffff19831660248083019190915282518083039091018152604490910182526020810180517bffffffffffffffffffffffffffffffffffffffffffffffffffffffff167f01ffc9a70000000000000000000000000000000000000000000000000000000017905290516000919082908190600160a060020a0387169061753090613771908690613eb4565b6000604051808303818686fa925050503d80600081146137ad576040519150601f19603f3d011682016040523d82523d6000602084013e6137b2565b606091505b50915091506020815110156137cd57600093505050506111f3565b8180156137e95750808060200190518101906137e99190613cca565b9695505050505050565b60008181526002830160205260408120548015158061381757506138178484613ac0565b612d635760405160e560020a62461bcd02815260206004820152601e60248201527f456e756d657261626c654d61703a206e6f6e6578697374656e74206b6579000060448201526064016106ce565b6000828152600284016020526040812082905561357a8484613acc565b6000818152600183016020526040812054801561399f5760006138a7600183614291565b85549091506000906138bb90600190614291565b90508181146139425760008660000182815481106138ec5760e060020a634e487b7102600052603260045260246000fd5b90600052602060002001549050808760000184815481106139205760e060020a634e487b7102600052603260045260246000fd5b6000918252602080832090910192909255918252600188019052604090208390555b85548690806139645760e060020a634e487b7102600052603160045260246000fd5b6001900381819060005260206000200160009055905585600101600086815260200190815260200160002060009055600193505050506111f3565b60009150506111f3565b60008260000182815481106139d15760e060020a634e487b7102600052603260045260246000fd5b9060005260206000200154905092915050565b60008181526002830160205260408120819055612d638383613ad8565b60006111f3826135e7565b60008080613a1a85856135f1565b600081815260029690960160205260409095205494959350505050565b6000818152600183016020526040812054613a7e575081546001818101845560008481526020808220909301849055845484825282860190935260409020919091556111f3565b5060006111f3565b6000818152600283016020526040812054819080613ab557613aa88585613ac0565b925060009150612be79050565b600192509050612be7565b6000612d638383613ae4565b6000612d638383613a37565b6000612d638383613883565b60008181526001830160205260408120541515612d63565b6040805161010081018252600080825260208201819052918101829052606081018290526080810182905260a0810182905260c0810182905260e081019190915290565b60405180608001604052806000600160a060020a0316815260200160008152602001600015158152602001600081525090565b600060208284031215613b84578081fd5b8135612d63816142dc565b60008060408385031215613ba1578081fd5b8235613bac816142dc565b91506020830135613bbc816142dc565b809150509250929050565b60008060008060808587031215613bdc578182fd5b8435613be7816142dc565b93506020850135613bf7816142dc565b93969395505050506040820135916060013590565b60008060008060008060c08789031215613c24578182fd5b8635613c2f816142dc565b95506020870135613c3f816142dc565b945060408701359350606087013592506080870135613c5d816142f1565b8092505060a087013590509295509295509295565b60008060408385031215613c84578182fd5b8235613c8f816142dc565b946020939093013593505050565b60008060408385031215613caf578182fd5b8251613cba816142dc565b6020939093015192949293505050565b600060208284031215613cdb578081fd5b8151612d63816142f1565b600060208284031215613cf7578081fd5b5035919050565b600080600060608486031215613d12578283fd5b833592506020840135613d24816142dc565b929592945050506040919091013590565b600080600080600060a08688031215613d4c578081fd5b853594506020860135613d5e816142dc565b9350604086013592506060860135613d75816142f1565b949793965091946080013592915050565b60008060408385031215613d98578182fd5b50508035926020909101359150565b6000815180845260208085019450808401835b83811015613e0c57613df9878351600160a060020a03815116825260208101516020830152604081015115156040830152606081015160608301525050565b6080969096019590820190600101613dba565b509495945050505050565b6000815180845260208085019450808401835b83811015613e0c57613e3d878351613e51565b610100969096019590820190600101613e2a565b805182526020810151600160a060020a03808216602085015260408301516040850152806060840151166060850152806080840151166080850152505060a081015160a083015260c0810151151560c083015260e0810151151560e08301525050565b60008251815b81811015613ed45760208186018101518583015201613eba565b81811115613ee25782828501525b509190910192915050565b600160a060020a039384168152919092166020820152604081019190915260600190565b6020808252825182820181905260009190848201906040850190845b81811015613f52578351600160a060020a031683529284019291840191600101613f2d565b50909695505050505050565b602081526000612d636020830184613da7565b602081526000612d636020830184613e17565b604081526000613f976040830185613e17565b8281036020840152613fa98185613da7565b95945050505050565b602080825282518282018190526000919060409081850190868401855b82811015613ffd5781518051600160a060020a03168552860151868501529284019290850190600101613fcf565b5091979650505050505050565b60208082526015908201527f546f6b656e206973206e6f742061636365707465640000000000000000000000604082015260600190565b60208082526015908201527f53656e646572206d7573742062652073656c6c65720000000000000000000000604082015260600190565b6020808252818101527f4f776e61626c653a2063616c6c6572206973206e6f7420746865206f776e6572604082015260600190565b60208082526014908201527f4d7573742062652068756220636f6e7472616374000000000000000000000000604082015260600190565b6020808252601f908201527f5265656e7472616e637947756172643a207265656e7472616e742063616c6c00604082015260600190565b6020808252601c908201527f5072696365206d757374206265206174206c6561737420312077656900000000604082015260600190565b60208082526029908201527f4e6674206d757374206265206c697374656420616e64206e6f7420696e20746860408201527f652061756374696f6e0000000000000000000000000000000000000000000000606082015260800190565b61018081016141be8285613e51565b8251600160a060020a03166101008301526020830151610120830152604083015115156101408301526060830151610160830152612d63565b968752600160a060020a03958616602088015260408701949094529184166060860152909216608084015260a0830191909152151560c082015260e00190565b6000821982111561424a5761424a6142c3565b500190565b60008261426d5760e060020a634e487b710281526012600452602481fd5b500490565b600081600019048311821515161561428c5761428c6142c3565b500290565b6000828210156142a3576142a36142c3565b500390565b60006000198214156142bc576142bc6142c3565b5060010190565b60e060020a634e487b7102600052601160045260246000fd5b600160a060020a038116811461329857600080fd5b801515811461329857600080fdfef9b8a81a1bb3e12b4a9b295ae3f1d8b0255537c0feaafc43705b6954b5822d5ca2646970667358221220e07ed3470bdbb2b3b34c6769fb28d1c9ac03440bbde351f150bd662c56e348a664736f6c63430008040033",
  "immutableReferences": {},
  "source": "// SPDX-License-Identifier: MIT\r\npragma solidity ^0.8.4;\r\n\r\nimport \"@openzeppelin/contracts/utils/Counters.sol\";\r\nimport \"@openzeppelin/contracts/token/ERC721/ERC721.sol\";\r\nimport \"@openzeppelin/contracts/utils/introspection/ERC165Checker.sol\";\r\nimport \"@openzeppelin/contracts/interfaces/IERC2981.sol\";\r\nimport \"@openzeppelin/contracts/utils/math/SafeMath.sol\";\r\nimport \"@openzeppelin/contracts/token/ERC20/IERC20.sol\";\r\nimport \"./HubChild.sol\";\r\n\r\ncontract Marketplace is HubChild {\r\n    using Counters for Counters.Counter;\r\n    using SafeMath for uint256;\r\n\r\n    Counters.Counter private _nftsSold;\r\n    Counters.Counter private _nftCount;\r\n    Counters.Counter private _nftExisted;\r\n    mapping(uint256 => NFT) private _idToNFT;\r\n    mapping(uint256 => Auction) private _idToAuction;\r\n\r\n    bytes4 public constant ERC721INTERFACE = type(IERC721).interfaceId;\r\n    bytes4 public constant ERC2981INTERFACE = type(IERC2981).interfaceId;\r\n    struct NFT {\r\n        uint256 itemId;\r\n        address nftContract;\r\n        uint256 tokenId;\r\n        address seller;\r\n        address ftContract;\r\n        uint256 price;\r\n        bool listed;\r\n        bool auction;\r\n    }\r\n\r\n    struct Auction {\r\n        address bidder;\r\n        uint256 highestBid;\r\n        bool limitTime;\r\n        uint256 timeEnd;\r\n    }\r\n\r\n    event NFTListed(\r\n        uint256 itemId,\r\n        address nftContract,\r\n        uint256 tokenId,\r\n        address seller,\r\n        address ftContract,\r\n        uint256 price,\r\n        bool auction\r\n    );\r\n\r\n    event NFTUnlisted(uint256 itemId);\r\n\r\n    event NFTAddAuction(\r\n        uint256 itemId,\r\n        address nftContract,\r\n        uint256 tokenId,\r\n        address bidder,\r\n        uint256 price\r\n    );\r\n\r\n    event NFTSold(\r\n        uint256 itemId,\r\n        address nftContract,\r\n        uint256 tokenId,\r\n        address seller,\r\n        address buyer,\r\n        uint256 price\r\n    );\r\n\r\n    constructor(uint256 fee, address hub) {\r\n        RATE_FEE = fee;\r\n        setHub(hub);\r\n    }\r\n\r\n    // List the NFT on the marketplace\r\n    function listNft(\r\n        address nftContract,\r\n        address ftContract,\r\n        uint256 tokenId,\r\n        uint256 price\r\n    ) public isAcceptToken(ftContract) nonReentrant {\r\n        require(price > 0, \"Price must be at least 1 wei\");\r\n\r\n        IERC721(nftContract).transferFrom(msg.sender, address(this), tokenId);\r\n        _nftCount.increment();\r\n        _nftExisted.increment();\r\n        uint256 itemId = _nftCount.current();\r\n        _idToNFT[itemId] = NFT(\r\n            itemId,\r\n            nftContract,\r\n            tokenId,\r\n            msg.sender,\r\n            ftContract,\r\n            price,\r\n            true,\r\n            false\r\n        );\r\n\r\n        _idToAuction[itemId] = Auction(address(0), price, false, 0);\r\n\r\n        emit NFTListed(\r\n            itemId,\r\n            nftContract,\r\n            tokenId,\r\n            msg.sender,\r\n            ftContract,\r\n            price,\r\n            false\r\n        );\r\n    }\r\n\r\n    // List the NFT on the marketplace\r\n    function listAuctionNft(\r\n        address nftContract,\r\n        address ftContract,\r\n        uint256 tokenId,\r\n        uint256 price,\r\n        bool limitTime,\r\n        uint256 timeHour\r\n    ) public isAcceptToken(ftContract) nonReentrant {\r\n        require(price > 0, \"Price must be at least 1 wei\");\r\n        require(\r\n            ERC165Checker.supportsInterface(nftContract, ERC721INTERFACE),\r\n            \"Contract needs to be ERC721\"\r\n        );\r\n\r\n        IERC721(nftContract).transferFrom(msg.sender, address(this), tokenId);\r\n        _nftCount.increment();\r\n        _nftExisted.increment();\r\n        uint256 itemId = _nftCount.current();\r\n\r\n        _idToNFT[itemId] = NFT(\r\n            itemId,\r\n            nftContract,\r\n            tokenId,\r\n            msg.sender,\r\n            ftContract,\r\n            price,\r\n            true,\r\n            true\r\n        );\r\n\r\n        _idToAuction[itemId] = Auction(\r\n            address(0),\r\n            price,\r\n            limitTime,\r\n            limitTime ? block.timestamp.add(timeHour.mul(1 hours)) : 0\r\n        );\r\n\r\n        emit NFTListed(\r\n            itemId,\r\n            nftContract,\r\n            tokenId,\r\n            msg.sender,\r\n            ftContract,\r\n            price,\r\n            true\r\n        );\r\n    }\r\n\r\n    // Switch auction to simple listed\r\n    function switchToListed(\r\n        uint256 itemId,\r\n        address ftContract,\r\n        uint256 price\r\n    ) public isAcceptToken(ftContract) nonReentrant {\r\n        require(price > 0, \"Price must be at least 1 wei\");\r\n        NFT storage nft = _idToNFT[itemId];\r\n        require(msg.sender == nft.seller, \"Sender must be seller\");\r\n        require(nft.auction, \"NFT must be auction\");\r\n        Auction storage auction = _idToAuction[itemId];\r\n        nft.ftContract = ftContract;\r\n        nft.price = price;\r\n        nft.auction = false;\r\n        if (auction.bidder != address(0)) {\r\n            payable(auction.bidder).transfer(auction.highestBid);\r\n        }\r\n        auction.bidder = address(0);\r\n        auction.highestBid = 0;\r\n        auction.limitTime = false;\r\n        auction.timeEnd = 0;\r\n        emit NFTListed(\r\n            itemId,\r\n            nft.nftContract,\r\n            nft.tokenId,\r\n            msg.sender,\r\n            nft.ftContract,\r\n            price,\r\n            false\r\n        );\r\n    }\r\n\r\n    // Resell an NFT purchased from the marketplace\r\n    function switchToAuction(\r\n        uint256 itemId,\r\n        address ftContract,\r\n        uint256 price,\r\n        bool limitTime,\r\n        uint256 timeHour\r\n    ) public isAcceptToken(ftContract) nonReentrant {\r\n        require(price > 0, \"Price must be at least 1 wei\");\r\n        NFT storage nft = _idToNFT[itemId];\r\n        require(msg.sender == nft.seller, \"Sender must be seller\");\r\n        require(!nft.auction, \"NFT must not be auction\");\r\n        Auction storage auction = _idToAuction[itemId];\r\n        nft.auction = true;\r\n        nft.ftContract = ftContract;\r\n        auction.highestBid = price;\r\n        auction.limitTime = limitTime;\r\n        auction.timeEnd = limitTime\r\n            ? block.timestamp.add(timeHour.mul(1 hours))\r\n            : 0;\r\n\r\n        emit NFTListed(\r\n            itemId,\r\n            nft.nftContract,\r\n            nft.tokenId,\r\n            msg.sender,\r\n            nft.ftContract,\r\n            price,\r\n            false\r\n        );\r\n    }\r\n\r\n    // Resell an NFT purchased from the marketplace\r\n    function relistNft(\r\n        uint256 itemId,\r\n        address ftContract,\r\n        uint256 price\r\n    ) public isAcceptToken(ftContract) nonReentrant {\r\n        require(price > 0, \"Price must be at least 1 wei\");\r\n        NFT storage nft = _idToNFT[itemId];\r\n        IERC721(nft.nftContract).transferFrom(\r\n            msg.sender,\r\n            address(this),\r\n            nft.tokenId\r\n        );\r\n\r\n        nft.seller = msg.sender;\r\n        nft.listed = true;\r\n        nft.ftContract = ftContract;\r\n        nft.price = price;\r\n        nft.auction = false;\r\n        _nftsSold.decrement();\r\n        emit NFTListed(\r\n            itemId,\r\n            nft.nftContract,\r\n            nft.tokenId,\r\n            msg.sender,\r\n            ftContract,\r\n            price,\r\n            false\r\n        );\r\n    }\r\n\r\n    // Reauction an NFT purchased from the marketplace\r\n    function reauctionNft(\r\n        uint256 itemId,\r\n        address ftContract,\r\n        uint256 price,\r\n        bool limitTime,\r\n        uint256 timeHour\r\n    ) public isAcceptToken(ftContract) nonReentrant {\r\n        require(price > 0, \"Price must be at least 1 wei\");\r\n        NFT storage nft = _idToNFT[itemId];\r\n        IERC721(nft.nftContract).transferFrom(\r\n            msg.sender,\r\n            address(this),\r\n            nft.tokenId\r\n        );\r\n\r\n        nft.seller = msg.sender;\r\n        nft.listed = true;\r\n        nft.ftContract = ftContract;\r\n        nft.auction = true;\r\n        _nftsSold.decrement();\r\n\r\n        Auction storage auction = _idToAuction[itemId];\r\n        auction.highestBid = price;\r\n        auction.limitTime = limitTime;\r\n        auction.timeEnd = limitTime\r\n            ? block.timestamp.add(timeHour.mul(1 hours))\r\n            : 0;\r\n\r\n        emit NFTListed(\r\n            itemId,\r\n            nft.nftContract,\r\n            nft.tokenId,\r\n            msg.sender,\r\n            ftContract,\r\n            price,\r\n            true\r\n        );\r\n    }\r\n\r\n    function unlistItem(uint256 itemId) external nonReentrant {\r\n        require(_idToNFT[itemId].seller == msg.sender, \"Sender is not lister\");\r\n        if (_idToNFT[itemId].auction) {\r\n            Auction storage info = _idToAuction[itemId];\r\n            if (info.highestBid > 0) {\r\n                payable(info.bidder).transfer(info.highestBid);\r\n            }\r\n            delete _idToAuction[itemId];\r\n        }\r\n        IERC721(_idToNFT[itemId].nftContract).transferFrom(\r\n            address(this),\r\n            msg.sender,\r\n            _idToNFT[itemId].tokenId\r\n        );\r\n        delete _idToNFT[itemId];\r\n        _idToNFT[itemId].listed = false;\r\n        _nftExisted.decrement();\r\n        emit NFTUnlisted(itemId);\r\n    }\r\n\r\n    // Buy an NFT\r\n    function buyNft(uint256 itemId) public payable nonReentrant {\r\n        NFT storage nft = _idToNFT[itemId];\r\n        if (nft.ftContract == address(0)) {\r\n            require(\r\n                msg.value >= nft.price,\r\n                \"Not enough ether to cover asking price\"\r\n            );\r\n        }\r\n        require(\r\n            nft.listed && !nft.auction,\r\n            \"Nft must be listed and not in the auction\"\r\n        );\r\n        address payable buyer = payable(msg.sender);\r\n        uint256 fee = _feeOf(msg.sender, nft.ftContract);\r\n        fee = nft.price.mul(fee).div(DENOMINATOR);\r\n        if (\r\n            ERC165Checker.supportsInterface(nft.nftContract, ERC2981INTERFACE)\r\n        ) {\r\n            (address creator, uint256 royaltyAmount) = IERC2981(nft.nftContract)\r\n                .royaltyInfo(nft.tokenId, nft.price);\r\n            if (creator != nft.seller && royaltyAmount > 0) {\r\n                sendAssets(msg.sender, creator, nft.ftContract, royaltyAmount);\r\n                sendAssets(\r\n                    msg.sender,\r\n                    nft.seller,\r\n                    nft.ftContract,\r\n                    nft.price.sub(royaltyAmount.add(fee))\r\n                );\r\n            } else {\r\n                sendAssets(msg.sender, nft.seller, nft.ftContract, nft.price.sub(fee));\r\n            }\r\n        } else {\r\n            sendAssets(msg.sender, nft.seller, nft.ftContract, nft.price.sub(fee));\r\n        }\r\n        sendAssets(msg.sender, owner(), nft.ftContract, fee);\r\n\r\n        IERC721(nft.nftContract).transferFrom(\r\n            address(this),\r\n            buyer,\r\n            nft.tokenId\r\n        );\r\n        nft.listed = false;\r\n\r\n        _nftsSold.increment();\r\n        emit NFTSold(\r\n            itemId,\r\n            nft.nftContract,\r\n            nft.tokenId,\r\n            nft.seller,\r\n            buyer,\r\n            nft.price\r\n        );\r\n    }\r\n\r\n    function addAuctionNft(uint256 itemId, uint256 value)\r\n        public\r\n        payable\r\n        nonReentrant\r\n    {\r\n        NFT storage nft = _idToNFT[itemId];\r\n        require(\r\n            nft.listed && nft.auction,\r\n            \"Nft must be listed and not in the auction\"\r\n        );\r\n        Auction storage auction = _idToAuction[itemId];\r\n\r\n        require(\r\n            msg.sender != auction.bidder && msg.sender != nft.seller,\r\n            \"Sender must be not seller or highest bidder\"\r\n        );\r\n        require(\r\n            !auction.limitTime || (auction.timeEnd > block.timestamp),\r\n            \"Auction has already ended\"\r\n        );\r\n        require(\r\n            value > auction.highestBid,\r\n            \"Not enough ether to cover highest auction price\"\r\n        );\r\n\r\n        address bidder = msg.sender;\r\n        if (nft.ftContract != address(0)) {\r\n            IERC20(nft.ftContract).transferFrom(bidder, address(this), value);\r\n        }\r\n\r\n        if (auction.bidder != address(0)) {\r\n            sendAssets(\r\n                address(this),\r\n                auction.bidder,\r\n                nft.ftContract,\r\n                auction.highestBid\r\n            );\r\n        }\r\n\r\n        auction.bidder = bidder;\r\n        auction.highestBid = value;\r\n\r\n        emit NFTAddAuction(itemId, nft.nftContract, nft.tokenId, bidder, value);\r\n    }\r\n\r\n    function acceptAuctionNft(uint256 itemId) public payable nonReentrant {\r\n        NFT storage nft = _idToNFT[itemId];\r\n        require(\r\n            nft.listed && nft.auction,\r\n            \"Nft must be listed and not in the auction\"\r\n        );\r\n        Auction storage auction = _idToAuction[itemId];\r\n        require(msg.sender == nft.seller, \"Sender must be seller\");\r\n        require(\r\n            !auction.limitTime || (auction.timeEnd < block.timestamp),\r\n            \"Auction must be ended or not limit time\"\r\n        );\r\n        uint256 fee = _feeOf(msg.sender, nft.ftContract);\r\n        fee = auction.highestBid.mul(fee).div(DENOMINATOR);\r\n        if (\r\n            ERC165Checker.supportsInterface(nft.nftContract, ERC2981INTERFACE)\r\n        ) {\r\n            (address creator, uint256 royaltyAmount) = IERC2981(nft.nftContract)\r\n                .royaltyInfo(nft.tokenId, auction.highestBid);\r\n            if (creator != nft.seller && royaltyAmount > 0) {\r\n                sendAssets(\r\n                    address(this),\r\n                    creator,\r\n                    nft.ftContract,\r\n                    royaltyAmount\r\n                );\r\n                sendAssets(\r\n                    address(this),\r\n                    nft.seller,\r\n                    nft.ftContract,\r\n                    auction.highestBid.sub(royaltyAmount.add(fee))\r\n                );\r\n            } else {\r\n                sendAssets(\r\n                    address(this),\r\n                    nft.seller,\r\n                    nft.ftContract,\r\n                    auction.highestBid.sub(fee)\r\n                );\r\n            }\r\n        } else {\r\n            sendAssets(\r\n                address(this),\r\n                nft.seller,\r\n                nft.ftContract,\r\n                auction.highestBid.sub(fee)\r\n            );\r\n        }\r\n        sendAssets(msg.sender, owner(), nft.ftContract, fee);\r\n        IERC721(nft.nftContract).transferFrom(\r\n            address(this),\r\n            auction.bidder,\r\n            nft.tokenId\r\n        );\r\n        nft.listed = false;\r\n        auction.bidder = address(0);\r\n        auction.highestBid = 0;\r\n        auction.limitTime = false;\r\n        auction.timeEnd = 0;\r\n        emit NFTSold(\r\n            itemId,\r\n            nft.nftContract,\r\n            nft.tokenId,\r\n            nft.seller,\r\n            auction.bidder,\r\n            auction.highestBid\r\n        );\r\n        _nftsSold.increment();\r\n    }\r\n\r\n    function claimAuctionNft(uint256 itemId) public payable nonReentrant {\r\n        NFT storage nft = _idToNFT[itemId];\r\n        require(\r\n            nft.listed && nft.auction,\r\n            \"Nft must be listed and not in the auction\"\r\n        );\r\n        Auction storage auction = _idToAuction[itemId];\r\n        require(msg.sender == auction.bidder, \"Sender must be bidder\");\r\n        require(\r\n            auction.limitTime || (auction.timeEnd < block.timestamp),\r\n            \"Auction must be ended and limit time\"\r\n        );\r\n        uint256 fee = _feeOf(msg.sender, nft.ftContract);\r\n        fee = auction.highestBid.mul(fee).div(DENOMINATOR);\r\n        if (\r\n            ERC165Checker.supportsInterface(nft.nftContract, ERC2981INTERFACE)\r\n        ) {\r\n            (address creator, uint256 royaltyAmount) = IERC2981(nft.nftContract)\r\n                .royaltyInfo(nft.tokenId, auction.highestBid);\r\n            if (creator != nft.seller && royaltyAmount > 0) {\r\n                sendAssets(\r\n                    address(this),\r\n                    creator,\r\n                    nft.ftContract,\r\n                    royaltyAmount\r\n                );\r\n                sendAssets(\r\n                    address(this),\r\n                    nft.seller,\r\n                    nft.ftContract,\r\n                    auction.highestBid.sub(royaltyAmount.add(fee))\r\n                );\r\n            } else {\r\n                sendAssets(\r\n                    address(this),\r\n                    nft.seller,\r\n                    nft.ftContract,\r\n                    auction.highestBid.sub(fee)\r\n                );\r\n            }\r\n        } else {\r\n            sendAssets(\r\n                address(this),\r\n                nft.seller,\r\n                nft.ftContract,\r\n                auction.highestBid.sub(fee)\r\n            );\r\n        }\r\n        sendAssets(msg.sender, owner(), nft.ftContract, fee);\r\n        IERC721(nft.nftContract).transferFrom(\r\n            address(this),\r\n            auction.bidder,\r\n            nft.tokenId\r\n        );\r\n        nft.listed = false;\r\n        auction.bidder = address(0);\r\n        auction.highestBid = 0;\r\n        auction.limitTime = false;\r\n        auction.timeEnd = 0;\r\n        emit NFTSold(\r\n            itemId,\r\n            nft.nftContract,\r\n            nft.tokenId,\r\n            nft.seller,\r\n            auction.bidder,\r\n            auction.highestBid\r\n        );\r\n        _nftsSold.increment();\r\n    }\r\n\r\n    function getListedNfts() public view returns (NFT[] memory) {\r\n        uint256 nftCount = _nftCount.current();\r\n        uint256 existedItem = _nftExisted.current();\r\n        uint256 unsoldNftsCount = existedItem - _nftsSold.current();\r\n\r\n        NFT[] memory nfts = new NFT[](unsoldNftsCount);\r\n        uint256 nftsIndex = 0;\r\n        for (uint256 i = 0; i < nftCount && nftsIndex<= unsoldNftsCount; i++) {\r\n            if (_idToNFT[i].listed) {\r\n                nfts[nftsIndex] = _idToNFT[i];\r\n                nftsIndex++;\r\n            }\r\n        }\r\n        return nfts;\r\n    }\r\n\r\n    function getMyListedNfts() public view returns (NFT[] memory) {\r\n        uint256 nftCount = _nftCount.current();\r\n        uint256 myListedNftCount = 0;\r\n        for (uint256 i = 0; i < nftCount; i++) {\r\n            if (_idToNFT[i].seller == msg.sender && _idToNFT[i].listed) {\r\n                myListedNftCount++;\r\n            }\r\n        }\r\n\r\n        NFT[] memory nfts = new NFT[](myListedNftCount);\r\n        uint256 nftsIndex = 0;\r\n        for (uint256 i = 0; i < nftCount; i++) {\r\n            if (_idToNFT[i].seller == msg.sender && _idToNFT[i].listed) {\r\n                nfts[nftsIndex] = _idToNFT[i];\r\n                nftsIndex++;\r\n            }\r\n        }\r\n        return nfts;\r\n    }\r\n\r\n    /* Returns all of user bids */\r\n    function getUserBids()\r\n        external\r\n        view\r\n        returns (NFT[] memory, Auction[] memory)\r\n    {\r\n        uint256 totalItemCount = _nftCount.current();\r\n        uint256 itemCount = 0;\r\n        uint256 currentIndex = 0;\r\n\r\n        for (uint256 i = 0; i < totalItemCount; i++) {\r\n            if (_idToAuction[i].bidder == msg.sender) {\r\n                itemCount += 1;\r\n            }\r\n        }\r\n\r\n        NFT[] memory items = new NFT[](itemCount);\r\n        Auction[] memory info = new Auction[](itemCount);\r\n\r\n        for (uint256 i = 0; i < totalItemCount; i++) {\r\n            if (_idToAuction[i].bidder == msg.sender) {\r\n                uint256 currentId = i;\r\n                NFT memory currentItem = _idToNFT[currentId];\r\n                Auction memory currentInfo = _idToAuction[currentId];\r\n                items[currentIndex] = currentItem;\r\n                info[currentIndex] = currentInfo;\r\n                currentIndex += 1;\r\n            }\r\n        }\r\n        return (items, info);\r\n    }\r\n\r\n    function getListAuction() public view returns (Auction[] memory) {\r\n        uint256 nftCount = _nftCount.current();\r\n\r\n        Auction[] memory auctions = new Auction[](nftCount);\r\n        uint256 nftsIndex = 0;\r\n        for (uint256 i = 0; i < nftCount; i++) {\r\n            auctions[nftsIndex] = _idToAuction[i];\r\n            nftsIndex++;\r\n        }\r\n        return auctions;\r\n    }\r\n\r\n    function getMarketData(address contractAddress, uint256 tokenId)\r\n        public\r\n        view\r\n        returns (NFT memory, Auction memory)\r\n    {\r\n        NFT memory nft;\r\n        Auction memory auction;\r\n        uint256 nftCount = _nftCount.current();\r\n        for (uint256 i = 0; i < nftCount; i++) {\r\n            if (\r\n                _idToNFT[i].nftContract == contractAddress &&\r\n                _idToNFT[i].tokenId == tokenId\r\n            ) {\r\n                nft = _idToNFT[i];\r\n                auction = _idToAuction[i];\r\n                break;\r\n            }\r\n        }\r\n\r\n        return (nft, auction);\r\n    }\r\n\r\n    function sendAssets(\r\n        address from,\r\n        address to,\r\n        address ftToken,\r\n        uint256 value\r\n    ) private {\r\n        if (ftToken == address(0)) {\r\n            payable(to).transfer(value);\r\n        } else {\r\n            if (from != address(this)) {\r\n                IERC20(ftToken).transferFrom(from, to, value);\r\n            } else {\r\n                IERC20(ftToken).transfer(to, value);\r\n            }\r\n        }\r\n    }\r\n}\r\n",
  "sourcePath": "G:\\Learning\\Project\\source\\picasarts-contracts\\contracts\\Marketplace.sol",
  "compiler": {
    "name": "solc",
    "version": "0.8.4+commit.c7e474f2.Emscripten.clang"
  },
  "schemaVersion": "3.4.10",
  "updatedAt": "2023-02-24T17:19:21.427Z",
  "devdoc": {
    "kind": "dev",
    "methods": {
      "owner()": {
        "details": "Returns the address of the current owner."
      },
      "renounceOwnership()": {
        "details": "Leaves the contract without owner. It will not be possible to call `onlyOwner` functions anymore. Can only be called by the current owner. NOTE: Renouncing ownership will leave the contract without an owner, thereby removing any functionality that is only available to the owner."
      },
      "transferOwnership(address)": {
        "details": "Transfers ownership of the contract to a new account (`newOwner`). Can only be called by the current owner."
      }
    },
    "version": 1
  },
  "userdoc": {
    "kind": "user",
    "methods": {},
    "version": 1
  }
}