{
  "contractName": "NFTLoan",
  "abi": [
    {
      "inputs": [
        {
          "internalType": "uint256",
          "name": "fee",
          "type": "uint256"
        },
        {
          "internalType": "address",
          "name": "hub",
          "type": "address"
        }
      ],
      "stateMutability": "nonpayable",
      "type": "constructor"
    },
    {
      "anonymous": false,
      "inputs": [
        {
          "indexed": false,
          "internalType": "uint256",
          "name": "itemId",
          "type": "uint256"
        },
        {
          "indexed": false,
          "internalType": "address",
          "name": "lender",
          "type": "address"
        },
        {
          "indexed": false,
          "internalType": "address",
          "name": "ftContract",
          "type": "address"
        },
        {
          "indexed": false,
          "internalType": "uint256",
          "name": "amount",
          "type": "uint256"
        },
        {
          "indexed": false,
          "internalType": "uint256",
          "name": "profit",
          "type": "uint256"
        },
        {
          "indexed": false,
          "internalType": "uint256",
          "name": "timeExpired",
          "type": "uint256"
        }
      ],
      "name": "CovenantAccept",
      "type": "event"
    },
    {
      "anonymous": false,
      "inputs": [
        {
          "indexed": false,
          "internalType": "uint256",
          "name": "itemId",
          "type": "uint256"
        },
        {
          "indexed": false,
          "internalType": "address",
          "name": "ftContract",
          "type": "address"
        },
        {
          "indexed": false,
          "internalType": "uint256",
          "name": "amount",
          "type": "uint256"
        },
        {
          "indexed": false,
          "internalType": "uint256",
          "name": "profit",
          "type": "uint256"
        },
        {
          "indexed": false,
          "internalType": "uint256",
          "name": "duration",
          "type": "uint256"
        }
      ],
      "name": "CovenantEdited",
      "type": "event"
    },
    {
      "anonymous": false,
      "inputs": [
        {
          "indexed": false,
          "internalType": "uint256",
          "name": "itemId",
          "type": "uint256"
        },
        {
          "indexed": false,
          "internalType": "address",
          "name": "nftContract",
          "type": "address"
        },
        {
          "indexed": false,
          "internalType": "uint256",
          "name": "tokenId",
          "type": "uint256"
        }
      ],
      "name": "CovenantLiquidate",
      "type": "event"
    },
    {
      "anonymous": false,
      "inputs": [
        {
          "indexed": false,
          "internalType": "uint256",
          "name": "itemId",
          "type": "uint256"
        },
        {
          "indexed": false,
          "internalType": "address",
          "name": "nftContract",
          "type": "address"
        },
        {
          "indexed": false,
          "internalType": "uint256",
          "name": "tokenId",
          "type": "uint256"
        },
        {
          "indexed": false,
          "internalType": "address",
          "name": "ftContract",
          "type": "address"
        },
        {
          "indexed": false,
          "internalType": "uint256",
          "name": "amount",
          "type": "uint256"
        },
        {
          "indexed": false,
          "internalType": "uint256",
          "name": "profit",
          "type": "uint256"
        },
        {
          "indexed": false,
          "internalType": "uint256",
          "name": "duration",
          "type": "uint256"
        },
        {
          "indexed": false,
          "internalType": "uint8",
          "name": "status",
          "type": "uint8"
        },
        {
          "indexed": false,
          "internalType": "address",
          "name": "borrower",
          "type": "address"
        },
        {
          "indexed": false,
          "internalType": "address",
          "name": "lender",
          "type": "address"
        }
      ],
      "name": "CovenantListed",
      "type": "event"
    },
    {
      "anonymous": false,
      "inputs": [
        {
          "indexed": false,
          "internalType": "uint256",
          "name": "itemId",
          "type": "uint256"
        },
        {
          "indexed": false,
          "internalType": "address",
          "name": "nftContract",
          "type": "address"
        },
        {
          "indexed": false,
          "internalType": "uint256",
          "name": "tokenId",
          "type": "uint256"
        },
        {
          "indexed": false,
          "internalType": "address",
          "name": "ftContract",
          "type": "address"
        },
        {
          "indexed": false,
          "internalType": "uint256",
          "name": "amount",
          "type": "uint256"
        },
        {
          "indexed": false,
          "internalType": "uint256",
          "name": "profit",
          "type": "uint256"
        }
      ],
      "name": "CovenantPayOff",
      "type": "event"
    },
    {
      "anonymous": false,
      "inputs": [
        {
          "indexed": false,
          "internalType": "uint256",
          "name": "itemId",
          "type": "uint256"
        }
      ],
      "name": "CovenantUnlisted",
      "type": "event"
    },
    {
      "anonymous": false,
      "inputs": [
        {
          "indexed": true,
          "internalType": "address",
          "name": "previousOwner",
          "type": "address"
        },
        {
          "indexed": true,
          "internalType": "address",
          "name": "newOwner",
          "type": "address"
        }
      ],
      "name": "OwnershipTransferred",
      "type": "event"
    },
    {
      "anonymous": false,
      "inputs": [
        {
          "indexed": false,
          "internalType": "uint256",
          "name": "itemId",
          "type": "uint256"
        },
        {
          "indexed": false,
          "internalType": "uint256",
          "name": "profit",
          "type": "uint256"
        },
        {
          "indexed": false,
          "internalType": "uint256",
          "name": "timeExpired",
          "type": "uint256"
        }
      ],
      "name": "ProposalAccepted",
      "type": "event"
    },
    {
      "anonymous": false,
      "inputs": [
        {
          "indexed": false,
          "internalType": "uint256",
          "name": "itemId",
          "type": "uint256"
        },
        {
          "indexed": false,
          "internalType": "uint256",
          "name": "profit",
          "type": "uint256"
        },
        {
          "indexed": false,
          "internalType": "uint256",
          "name": "timeExpired",
          "type": "uint256"
        }
      ],
      "name": "ProposalEdited",
      "type": "event"
    },
    {
      "inputs": [],
      "name": "DENOMINATOR",
      "outputs": [
        {
          "internalType": "uint256",
          "name": "",
          "type": "uint256"
        }
      ],
      "stateMutability": "view",
      "type": "function"
    },
    {
      "inputs": [],
      "name": "ERC2981INTERFACE",
      "outputs": [
        {
          "internalType": "bytes4",
          "name": "",
          "type": "bytes4"
        }
      ],
      "stateMutability": "view",
      "type": "function"
    },
    {
      "inputs": [],
      "name": "ERC721INTERFACE",
      "outputs": [
        {
          "internalType": "bytes4",
          "name": "",
          "type": "bytes4"
        }
      ],
      "stateMutability": "view",
      "type": "function"
    },
    {
      "inputs": [],
      "name": "RATE_FEE",
      "outputs": [
        {
          "internalType": "uint256",
          "name": "",
          "type": "uint256"
        }
      ],
      "stateMutability": "view",
      "type": "function"
    },
    {
      "inputs": [
        {
          "internalType": "address",
          "name": "tokenAddr",
          "type": "address"
        }
      ],
      "name": "addAcceptToken",
      "outputs": [],
      "stateMutability": "nonpayable",
      "type": "function"
    },
    {
      "inputs": [
        {
          "internalType": "address",
          "name": "whitelistAddress",
          "type": "address"
        },
        {
          "internalType": "uint256",
          "name": "fee",
          "type": "uint256"
        }
      ],
      "name": "addWhitelistAddress",
      "outputs": [],
      "stateMutability": "nonpayable",
      "type": "function"
    },
    {
      "inputs": [
        {
          "internalType": "address",
          "name": "walletAddress",
          "type": "address"
        },
        {
          "internalType": "address",
          "name": "tokenAddress",
          "type": "address"
        }
      ],
      "name": "feeOf",
      "outputs": [
        {
          "internalType": "uint256",
          "name": "",
          "type": "uint256"
        }
      ],
      "stateMutability": "view",
      "type": "function"
    },
    {
      "inputs": [],
      "name": "getAcceptTokens",
      "outputs": [
        {
          "internalType": "address[]",
          "name": "",
          "type": "address[]"
        }
      ],
      "stateMutability": "view",
      "type": "function"
    },
    {
      "inputs": [],
      "name": "getRateFee",
      "outputs": [
        {
          "internalType": "uint256",
          "name": "",
          "type": "uint256"
        }
      ],
      "stateMutability": "view",
      "type": "function"
    },
    {
      "inputs": [
        {
          "internalType": "address",
          "name": "tokenAddress",
          "type": "address"
        }
      ],
      "name": "getTokenFee",
      "outputs": [
        {
          "internalType": "uint256",
          "name": "",
          "type": "uint256"
        }
      ],
      "stateMutability": "view",
      "type": "function"
    },
    {
      "inputs": [],
      "name": "getWhitelist",
      "outputs": [
        {
          "components": [
            {
              "internalType": "address",
              "name": "addr",
              "type": "address"
            },
            {
              "internalType": "uint256",
              "name": "fee",
              "type": "uint256"
            }
          ],
          "internalType": "struct IHubChild.WhitelistVars[]",
          "name": "",
          "type": "tuple[]"
        }
      ],
      "stateMutability": "view",
      "type": "function"
    },
    {
      "inputs": [],
      "name": "hubAddr",
      "outputs": [
        {
          "internalType": "address",
          "name": "",
          "type": "address"
        }
      ],
      "stateMutability": "view",
      "type": "function"
    },
    {
      "inputs": [],
      "name": "owner",
      "outputs": [
        {
          "internalType": "address",
          "name": "",
          "type": "address"
        }
      ],
      "stateMutability": "view",
      "type": "function"
    },
    {
      "inputs": [
        {
          "internalType": "address",
          "name": "tokenAddr",
          "type": "address"
        }
      ],
      "name": "removeToken",
      "outputs": [],
      "stateMutability": "nonpayable",
      "type": "function"
    },
    {
      "inputs": [
        {
          "internalType": "address",
          "name": "whitelistAddress",
          "type": "address"
        }
      ],
      "name": "removeWhitelistAddress",
      "outputs": [],
      "stateMutability": "nonpayable",
      "type": "function"
    },
    {
      "inputs": [],
      "name": "renounceOwnership",
      "outputs": [],
      "stateMutability": "nonpayable",
      "type": "function"
    },
    {
      "inputs": [
        {
          "internalType": "address",
          "name": "hub",
          "type": "address"
        }
      ],
      "name": "setHub",
      "outputs": [],
      "stateMutability": "nonpayable",
      "type": "function"
    },
    {
      "inputs": [
        {
          "internalType": "uint256",
          "name": "rateFee",
          "type": "uint256"
        }
      ],
      "name": "setRateFee",
      "outputs": [],
      "stateMutability": "nonpayable",
      "type": "function"
    },
    {
      "inputs": [
        {
          "internalType": "address",
          "name": "newOwner",
          "type": "address"
        }
      ],
      "name": "transferOwnership",
      "outputs": [],
      "stateMutability": "nonpayable",
      "type": "function"
    },
    {
      "inputs": [
        {
          "internalType": "address",
          "name": "nftContract",
          "type": "address"
        },
        {
          "internalType": "uint256",
          "name": "tokenId",
          "type": "uint256"
        },
        {
          "internalType": "address",
          "name": "ftContract",
          "type": "address"
        },
        {
          "internalType": "uint256",
          "name": "amount",
          "type": "uint256"
        },
        {
          "internalType": "uint256",
          "name": "profit",
          "type": "uint256"
        },
        {
          "internalType": "uint256",
          "name": "duration",
          "type": "uint256"
        }
      ],
      "name": "list",
      "outputs": [],
      "stateMutability": "nonpayable",
      "type": "function"
    },
    {
      "inputs": [
        {
          "internalType": "uint256",
          "name": "itemId",
          "type": "uint256"
        }
      ],
      "name": "unlist",
      "outputs": [],
      "stateMutability": "nonpayable",
      "type": "function"
    },
    {
      "inputs": [
        {
          "internalType": "uint256",
          "name": "itemId",
          "type": "uint256"
        },
        {
          "internalType": "address",
          "name": "ftContract",
          "type": "address"
        },
        {
          "internalType": "uint256",
          "name": "amount",
          "type": "uint256"
        },
        {
          "internalType": "uint256",
          "name": "profit",
          "type": "uint256"
        },
        {
          "internalType": "uint256",
          "name": "duration",
          "type": "uint256"
        }
      ],
      "name": "edit",
      "outputs": [],
      "stateMutability": "nonpayable",
      "type": "function"
    },
    {
      "inputs": [
        {
          "internalType": "uint256",
          "name": "itemId",
          "type": "uint256"
        },
        {
          "internalType": "uint256",
          "name": "profit",
          "type": "uint256"
        },
        {
          "internalType": "uint256",
          "name": "timeAdd",
          "type": "uint256"
        }
      ],
      "name": "extend",
      "outputs": [],
      "stateMutability": "nonpayable",
      "type": "function"
    },
    {
      "inputs": [
        {
          "internalType": "uint256",
          "name": "itemId",
          "type": "uint256"
        }
      ],
      "name": "accept",
      "outputs": [],
      "stateMutability": "nonpayable",
      "type": "function"
    },
    {
      "inputs": [
        {
          "internalType": "uint256",
          "name": "itemId",
          "type": "uint256"
        }
      ],
      "name": "lend",
      "outputs": [],
      "stateMutability": "payable",
      "type": "function"
    },
    {
      "inputs": [
        {
          "internalType": "uint256",
          "name": "itemId",
          "type": "uint256"
        }
      ],
      "name": "payoff",
      "outputs": [],
      "stateMutability": "payable",
      "type": "function"
    },
    {
      "inputs": [
        {
          "internalType": "uint256",
          "name": "itemId",
          "type": "uint256"
        }
      ],
      "name": "liquidate",
      "outputs": [],
      "stateMutability": "payable",
      "type": "function"
    },
    {
      "inputs": [],
      "name": "getCovenants",
      "outputs": [
        {
          "components": [
            {
              "internalType": "uint256",
              "name": "itemId",
              "type": "uint256"
            },
            {
              "internalType": "address",
              "name": "nftContract",
              "type": "address"
            },
            {
              "internalType": "uint256",
              "name": "tokenId",
              "type": "uint256"
            },
            {
              "internalType": "address",
              "name": "ftContract",
              "type": "address"
            },
            {
              "internalType": "uint256",
              "name": "amount",
              "type": "uint256"
            },
            {
              "internalType": "uint256",
              "name": "profit",
              "type": "uint256"
            },
            {
              "internalType": "uint256",
              "name": "timeExpired",
              "type": "uint256"
            },
            {
              "internalType": "uint256",
              "name": "duration",
              "type": "uint256"
            },
            {
              "internalType": "enum NFTLoan.CovenantStatus",
              "name": "status",
              "type": "uint8"
            },
            {
              "internalType": "address",
              "name": "borrower",
              "type": "address"
            },
            {
              "internalType": "address",
              "name": "lender",
              "type": "address"
            },
            {
              "internalType": "bool",
              "name": "isLatest",
              "type": "bool"
            }
          ],
          "internalType": "struct NFTLoan.Covenant[]",
          "name": "",
          "type": "tuple[]"
        }
      ],
      "stateMutability": "view",
      "type": "function"
    },
    {
      "inputs": [
        {
          "internalType": "address",
          "name": "addr",
          "type": "address"
        }
      ],
      "name": "getCovenantsByAddress",
      "outputs": [
        {
          "components": [
            {
              "internalType": "uint256",
              "name": "itemId",
              "type": "uint256"
            },
            {
              "internalType": "address",
              "name": "nftContract",
              "type": "address"
            },
            {
              "internalType": "uint256",
              "name": "tokenId",
              "type": "uint256"
            },
            {
              "internalType": "address",
              "name": "ftContract",
              "type": "address"
            },
            {
              "internalType": "uint256",
              "name": "amount",
              "type": "uint256"
            },
            {
              "internalType": "uint256",
              "name": "profit",
              "type": "uint256"
            },
            {
              "internalType": "uint256",
              "name": "timeExpired",
              "type": "uint256"
            },
            {
              "internalType": "uint256",
              "name": "duration",
              "type": "uint256"
            },
            {
              "internalType": "enum NFTLoan.CovenantStatus",
              "name": "status",
              "type": "uint8"
            },
            {
              "internalType": "address",
              "name": "borrower",
              "type": "address"
            },
            {
              "internalType": "address",
              "name": "lender",
              "type": "address"
            },
            {
              "internalType": "bool",
              "name": "isLatest",
              "type": "bool"
            }
          ],
          "internalType": "struct NFTLoan.Covenant[]",
          "name": "",
          "type": "tuple[]"
        }
      ],
      "stateMutability": "view",
      "type": "function"
    },
    {
      "inputs": [
        {
          "internalType": "uint256",
          "name": "itemId",
          "type": "uint256"
        }
      ],
      "name": "getCovenant",
      "outputs": [
        {
          "components": [
            {
              "internalType": "uint256",
              "name": "itemId",
              "type": "uint256"
            },
            {
              "internalType": "address",
              "name": "nftContract",
              "type": "address"
            },
            {
              "internalType": "uint256",
              "name": "tokenId",
              "type": "uint256"
            },
            {
              "internalType": "address",
              "name": "ftContract",
              "type": "address"
            },
            {
              "internalType": "uint256",
              "name": "amount",
              "type": "uint256"
            },
            {
              "internalType": "uint256",
              "name": "profit",
              "type": "uint256"
            },
            {
              "internalType": "uint256",
              "name": "timeExpired",
              "type": "uint256"
            },
            {
              "internalType": "uint256",
              "name": "duration",
              "type": "uint256"
            },
            {
              "internalType": "enum NFTLoan.CovenantStatus",
              "name": "status",
              "type": "uint8"
            },
            {
              "internalType": "address",
              "name": "borrower",
              "type": "address"
            },
            {
              "internalType": "address",
              "name": "lender",
              "type": "address"
            },
            {
              "internalType": "bool",
              "name": "isLatest",
              "type": "bool"
            }
          ],
          "internalType": "struct NFTLoan.Covenant",
          "name": "",
          "type": "tuple"
        },
        {
          "components": [
            {
              "internalType": "uint256",
              "name": "itemId",
              "type": "uint256"
            },
            {
              "internalType": "uint256",
              "name": "profit",
              "type": "uint256"
            },
            {
              "internalType": "uint256",
              "name": "timeExpired",
              "type": "uint256"
            }
          ],
          "internalType": "struct NFTLoan.Proposal",
          "name": "",
          "type": "tuple"
        }
      ],
      "stateMutability": "view",
      "type": "function"
    },
    {
      "inputs": [
        {
          "internalType": "address",
          "name": "addr",
          "type": "address"
        }
      ],
      "name": "getUserHealth",
      "outputs": [
        {
          "internalType": "uint256",
          "name": "",
          "type": "uint256"
        },
        {
          "internalType": "uint256",
          "name": "",
          "type": "uint256"
        }
      ],
      "stateMutability": "view",
      "type": "function"
    },
    {
      "inputs": [
        {
          "internalType": "address",
          "name": "contractAddress",
          "type": "address"
        },
        {
          "internalType": "uint256",
          "name": "tokenId",
          "type": "uint256"
        }
      ],
      "name": "getLoanData",
      "outputs": [
        {
          "components": [
            {
              "internalType": "uint256",
              "name": "itemId",
              "type": "uint256"
            },
            {
              "internalType": "address",
              "name": "nftContract",
              "type": "address"
            },
            {
              "internalType": "uint256",
              "name": "tokenId",
              "type": "uint256"
            },
            {
              "internalType": "address",
              "name": "ftContract",
              "type": "address"
            },
            {
              "internalType": "uint256",
              "name": "amount",
              "type": "uint256"
            },
            {
              "internalType": "uint256",
              "name": "profit",
              "type": "uint256"
            },
            {
              "internalType": "uint256",
              "name": "timeExpired",
              "type": "uint256"
            },
            {
              "internalType": "uint256",
              "name": "duration",
              "type": "uint256"
            },
            {
              "internalType": "enum NFTLoan.CovenantStatus",
              "name": "status",
              "type": "uint8"
            },
            {
              "internalType": "address",
              "name": "borrower",
              "type": "address"
            },
            {
              "internalType": "address",
              "name": "lender",
              "type": "address"
            },
            {
              "internalType": "bool",
              "name": "isLatest",
              "type": "bool"
            }
          ],
          "internalType": "struct NFTLoan.Covenant",
          "name": "",
          "type": "tuple"
        }
      ],
      "stateMutability": "view",
      "type": "function"
    }
  ],
  "bytecode": "0x60806040523480156200001157600080fd5b50604051620035cd380380620035cd83398101604081905262000034916200012c565b6200003f336200005b565b6001805560078290556200005381620000ab565b505062000169565b600080546001600160a01b038381166001600160a01b0319831681178455604051919092169283917f8be0079c531659141344cd1fd0a4f28419497f9722a3daafe3b4186f6b6457e09190a35050565b6000546001600160a01b031633146200010a5760405162461bcd60e51b815260206004820181905260248201527f4f776e61626c653a2063616c6c6572206973206e6f7420746865206f776e6572604482015260640160405180910390fd5b600880546001600160a01b0319166001600160a01b0392909216919091179055565b600080604083850312156200013f578182fd5b825160208401519092506001600160a01b03811681146200015e578182fd5b809150509250929050565b61345480620001796000396000f3fe6080604052600436106101e35760003560e01c80637fa084a211610102578063b1c005fa11610095578063ddddca1111610064578063ddddca1114610576578063debd227214610596578063f2fde38b146105b6578063f9d6c03b146105d657600080fd5b8063b1c005fa146104e6578063b7ecbaae14610514578063bf5a4dd314610534578063d01f63f51461055457600080fd5b8063918f8674116100d1578063918f86741461048857806393e4626e1461049e578063a6aa57ce146104b3578063a89eccfd146104c657600080fd5b80637fa084a2146104205780638563e10e1461043357806386c3b08a146104555780638da5cb5b1461046a57600080fd5b806349095a211161017a5780635a24a0b5116101495780635a24a0b5146103ab5780635fa7b584146103cb5780636eeaa63c146103eb578063715018a61461040b57600080fd5b806349095a2114610310578063502a676c146103485780635254aca91461035e578063568744801461037e57600080fd5b806319b05f49116101b657806319b05f491461028f578063252154fa146102af57806331962cdc146102dd578063415f1240146102fd57600080fd5b8063042ca242146101e857806307cb1a6e1461021e5780630f15e9be146102525780631879c75014610274575b600080fd5b3480156101f457600080fd5b50610208610203366004612e4c565b61062e565b604051610215919061318b565b60405180910390f35b34801561022a57600080fd5b506102396380ac58cd60e01b81565b6040516001600160e01b03199091168152602001610215565b34801561025e57600080fd5b5061027261026d366004612f73565b6108dc565b005b34801561028057600080fd5b5061023963152a902d60e11b81565b34801561029b57600080fd5b506102726102aa366004612f73565b61096f565b3480156102bb57600080fd5b506102cf6102ca366004612e4c565b610b90565b604051908152602001610215565b3480156102e957600080fd5b506102726102f8366004612e4c565b610ba3565b61027261030b366004612f73565b610bef565b34801561031c57600080fd5b50600854610330906001600160a01b031681565b6040516001600160a01b039091168152602001610215565b34801561035457600080fd5b506102cf60075481565b34801561036a57600080fd5b50610272610379366004612ea0565b610e43565b34801561038a57600080fd5b5061039e610399366004612ea0565b610e7e565b6040516102159190613327565b3480156103b757600080fd5b506102726103c6366004612f8b565b611034565b3480156103d757600080fd5b506102726103e6366004612e4c565b61118c565b3480156103f757600080fd5b50610272610406366004612ef8565b6111c5565b34801561041757600080fd5b506102726115a8565b61027261042e366004612f73565b6115de565b34801561043f57600080fd5b50610448611a6b565b604051610215919061313e565b34801561046157600080fd5b506007546102cf565b34801561047657600080fd5b506000546001600160a01b0316610330565b34801561049457600080fd5b506102cf61271081565b3480156104aa57600080fd5b50610208611b37565b6102726104c1366004612f73565b611d14565b3480156104d257600080fd5b506102cf6104e1366004612e68565b611ffd565b3480156104f257600080fd5b50610506610501366004612f73565b612010565b604051610215929190613336565b34801561052057600080fd5b5061027261052f366004612e4c565b61217d565b34801561054057600080fd5b5061027261054f366004612f73565b6121b2565b34801561056057600080fd5b50610569612336565b60405161021591906131ce565b34801561058257600080fd5b50610272610591366004612fd2565b612432565b3480156105a257600080fd5b506102726105b1366004612e4c565b61259f565b3480156105c257600080fd5b506102726105d1366004612e4c565b6125d4565b3480156105e257600080fd5b506106196105f1366004612e4c565b6001600160a01b03166000908152600c6020908152604080832054600d909252909120549091565b60408051928352602083019190915201610215565b6060600061063b60095490565b90506000805b828110156106ba576000818152600a60205260409020600801546001600160a01b0386811661010090920416148061069557506000818152600a60205260409020600901546001600160a01b038681169116145b156106a857816106a4816133d8565b9250505b806106b2816133d8565b915050610641565b5060008267ffffffffffffffff8111156106e457634e487b7160e01b600052604160045260246000fd5b60405190808252806020026020018201604052801561071d57816020015b61070a612dba565b8152602001906001900390816107025790505b5090506000805b838110156108d1576000818152600a60205260409020600801546001600160a01b0388811661010090920416148061077857506000818152600a60205260409020600901546001600160a01b038881169116145b156108bf576000818152600a60209081526040918290208251610180810184528154815260018201546001600160a01b0390811693820193909352600280830154948201949094526003820154909216606083015260048101546080830152600581015460a0830152600681015460c0830152600781015460e083015260088101549192909161010084019160ff9091169081111561082757634e487b7160e01b600052602160045260246000fd5b600281111561084657634e487b7160e01b600052602160045260246000fd5b8152600882015461010090046001600160a01b0390811660208301526009909201549182166040820152600160a01b90910460ff16151560609091015283518490849081106108a557634e487b7160e01b600052603260045260246000fd5b602002602001018190525081806108bb906133d8565b9250505b806108c9816133d8565b915050610724565b509095945050505050565b6008546001600160a01b0316331461090f5760405162461bcd60e51b8152600401610906906132c2565b60405180910390fd5b612710811061096a5760405162461bcd60e51b815260206004820152602160248201527f466565206e756d657261746f72206d757374206c657373207468616e203130306044820152602560f81b6064820152608401610906565b600755565b6000818152600a602052604090206009015481906001600160a01b031633146109d15760405162461bcd60e51b815260206004820152601460248201527329b2b73232b91034b9903737ba103632b73232b960611b6044820152606401610906565b600260015414156109f45760405162461bcd60e51b8152600401610906906132f0565b600260019081556000838152600a602052604090206008015460ff166002811115610a2f57634e487b7160e01b600052602160045260246000fd5b14610a7c5760405162461bcd60e51b815260206004820152601c60248201527f4c6f616e20636f76656e616e74206973206e6f74206c6f636b65642e000000006044820152606401610906565b6000828152600b6020526040902060020154610ae95760405162461bcd60e51b815260206004820152602660248201527f5468657265206973206e6f2070726f706f73616c20666f72207468697320636f6044820152651d995b985b9d60d21b6064820152608401610906565b6000828152600a60209081526040808320600b90925290912060018101546005830154610b1790829061266f565b600584019081556000868152600b60209081526040808320600290810154600689019081559087019390935592549154835189815291820192909252918201527f4e26d2058422e671478446da4522b7c1527f240c0b68519a064219769b062dce906060015b60405180910390a1505060018055505050565b6000610b9d60048361267b565b92915050565b6000546001600160a01b03163314610bcd5760405162461bcd60e51b81526004016109069061328d565b600880546001600160a01b0319166001600160a01b0392909216919091179055565b6000818152600a602052604090206009015481906001600160a01b03163314610c515760405162461bcd60e51b815260206004820152601460248201527329b2b73232b91034b9903737ba103632b73232b960611b6044820152606401610906565b60026001541415610c745760405162461bcd60e51b8152600401610906906132f0565b600260019081556000838152600a602052604090206008015460ff166002811115610caf57634e487b7160e01b600052602160045260246000fd5b148015610ccc57506000828152600a602052604090206006015442115b610d185760405162461bcd60e51b815260206004820152601f60248201527f4e6f742074696d6520666f72206c697175696461746520636f76656e616e74006044820152606401610906565b6000828152600a6020526040908190206001810154600282015492516323b872dd60e01b815291926001600160a01b03909116916323b872dd91610d62913091339160040161311a565b600060405180830381600087803b158015610d7c57600080fd5b505af1158015610d90573d6000803e3d6000fd5b5050505060088101805460ff1916600217905560098101805460ff60a01b19169055336000908152600d6020526040902054610dcd90600161266f565b336000908152600d6020908152604091829020929092556001830154600284015482518781526001600160a01b0390921693820193909352908101919091527f7e4e6bd95b1f1a8350d728e47e6f4708166dd069a9fe805fbff548ec13f8fac3906060015b60405180910390a150506001805550565b6008546001600160a01b03163314610e6d5760405162461bcd60e51b8152600401610906906132c2565b610e7960048383612690565b505050565b610e86612dba565b610e8e612dba565b6000610e9960095490565b905060005b8181101561102a576000818152600a60205260409020600101546001600160a01b038781169116148015610ee257506000818152600a602052604090206002015485145b8015610f0657506000818152600a6020526040902060090154600160a01b900460ff165b15611018576000818152600a60209081526040918290208251610180810184528154815260018201546001600160a01b0390811693820193909352600280830154948201949094526003820154909216606083015260048101546080830152600581015460a0830152600681015460c0830152600781015460e083015260088101549192909161010084019160ff90911690811115610fb557634e487b7160e01b600052602160045260246000fd5b6002811115610fd457634e487b7160e01b600052602160045260246000fd5b8152600882015461010090046001600160a01b0390811660208301526009909201549182166040820152600160a01b90910460ff161515606090910152925061102a565b80611022816133d8565b915050610e9e565b5090949350505050565b6000858152600a6020526040902060080154859061010090046001600160a01b031633146110745760405162461bcd60e51b815260040161090690613226565b600260015414156110975760405162461bcd60e51b8152600401610906906132f0565b6002600155600080878152600a602052604090206008015460ff1660028111156110d157634e487b7160e01b600052602160045260246000fd5b146110ee5760405162461bcd60e51b815260040161090690613256565b6000868152600a60209081526040918290206003810180546001600160a01b0319166001600160a01b038a1690811790915560048201889055600582018790556007820186905583518a81529283015291810186905260608101859052608081018490527ff9446b7a84a28ecf6763156215f0e6d3497ffb8c67b25c2c90c6c7afdbefe3e39060a00160405180910390a15050600180555050505050565b6008546001600160a01b031633146111b65760405162461bcd60e51b8152600401610906906132c2565b6111c16002826126ae565b5050565b600260015414156111e85760405162461bcd60e51b8152600401610906906132f0565b600260015582158015906111fc5750600082115b61125a5760405162461bcd60e51b815260206004820152602960248201527f4c6f616e20616d6f756e7420616e642070726f666974206d757374206265206160448201526874206c65617374203160b81b6064820152608401610906565b61126b866380ac58cd60e01b6126c3565b6112b75760405162461bcd60e51b815260206004820152601b60248201527f436f6e7472616374206e6565647320746f2062652045524337323100000000006044820152606401610906565b6040516323b872dd60e01b81526001600160a01b038716906323b872dd906112e790339030908a9060040161311a565b600060405180830381600087803b15801561130157600080fd5b505af1158015611315573d6000803e3d6000fd5b50505050600061132460095490565b9050604051806101800160405280828152602001886001600160a01b03168152602001878152602001866001600160a01b03168152602001858152602001848152602001600081526020018381526020016000600281111561139657634e487b7160e01b600052602160045260246000fd5b8152336020808301919091526000604080840182905260016060948501819052868352600a845291819020855181559285015183830180546001600160a01b03199081166001600160a01b0393841617909155918601516002808601919091559486015160038501805490931691161790556080840151600483015560a0840151600583015560c0840151600683015560e0840151600783015561010084015160088301805493949193909260ff1990911691849081111561146857634e487b7160e01b600052602160045260246000fd5b02179055506101208201516008820180546001600160a01b0392831661010002610100600160a81b031990911617905561014083015160099283018054610160909501511515600160a01b026001600160a81b03199095169190921617929092179091556040805160608101825283815260006020808301828152838501838152878452600b90925293909120915182559151600182015590516002909101557f62a6f84d842436bc5e66e743bb90f02cc4c336f059709a5e6df843d402ca4c8590611532905490565b604080519182526001600160a01b03808b166020840152908201899052871660608201526080810186905260a0810185905260c08101849052600060e08201819052336101008301526101208201526101400160405180910390a161159b600980546001019055565b5050600180555050505050565b6000546001600160a01b031633146115d25760405162461bcd60e51b81526004016109069061328d565b6115dc60006126df565b565b6000818152600a6020526040902060080154819061010090046001600160a01b0316331461161e5760405162461bcd60e51b815260040161090690613226565b600260015414156116415760405162461bcd60e51b8152600401610906906132f0565b600260019081556000838152600a602052604090206008015460ff16600281111561167c57634e487b7160e01b600052602160045260246000fd5b14801561169957506000828152600a602052604090206006015442105b6116f95760405162461bcd60e51b815260206004820152602b60248201527f54696d652069732075702e20436f6e74616374206c656e64657220666f72206560448201526a3c3a32b732103a34b6b29760a91b6064820152608401610906565b6000828152600a602052604090206004810154600582015461171c90829061266f565b600383015490915060009061173b9033906001600160a01b031661272f565b905061176061271061175a83866005015461279990919063ffffffff16565b906127a5565b60038401549091506001600160a01b03166117d2578134146117d25760405162461bcd60e51b815260206004820152602560248201527f596f75206d7573742061646420657861637420616d6f756e7420616e6420707260448201526437b334ba1760d91b6064820152608401610906565b60018301546117f1906001600160a01b031663152a902d60e11b6126c3565b156119185760018301546002840154600585015460405163152a902d60e11b81526004810192909252602482015260009182916001600160a01b0390911690632a55205a90604401604080518083038186803b15801561185057600080fd5b505afa158015611864573d6000803e3d6000fd5b505050506040513d601f19601f820116820180604052508101906118889190612ecb565b909250905080156118ea5760038501546118af90339084906001600160a01b0316846127b1565b600985015460038601546118e59133916001600160a01b0391821691166118e06118d9868961266f565b8990612917565b6127b1565b611911565b600985015460038601546119119133916001600160a01b0391821691166118e08888612917565b505061193f565b6009830154600384015461193f9133916001600160a01b0391821691166118e08686612917565b611969336119556000546001600160a01b031690565b60038601546001600160a01b0316846127b1565b600183015460028401546040516323b872dd60e01b81526001600160a01b03909216916323b872dd916119a2913091339160040161311a565b600060405180830381600087803b1580156119bc57600080fd5b505af11580156119d0573d6000803e3d6000fd5b5050505060088301805460ff1916600290811790915560098401805460ff60a01b19169055600184015490840154600385015460048601546005870154604080518b81526001600160a01b03968716602082015290810194909452939091166060830152608082015260a08101919091527fbfd8ce7cf08422e89b830095bc43e7a55d15c9766d431c5d7500eb024b33a9819060c001610b7d565b60606000611a796002612923565b905060008167ffffffffffffffff811115611aa457634e487b7160e01b600052604160045260246000fd5b604051908082528060200260200182016040528015611acd578160200160208202803683370190505b50905060005b82811015611b3057611ae660028261292d565b828281518110611b0657634e487b7160e01b600052603260045260246000fd5b6001600160a01b039092166020928302919091019091015280611b28816133d8565b915050611ad3565b5092915050565b60606000611b4460095490565b905060008167ffffffffffffffff811115611b6f57634e487b7160e01b600052604160045260246000fd5b604051908082528060200260200182016040528015611ba857816020015b611b95612dba565b815260200190600190039081611b8d5790505b5090506000805b83811015611d0b576000818152600a60209081526040918290208251610180810184528154815260018201546001600160a01b0390811693820193909352600280830154948201949094526003820154909216606083015260048101546080830152600581015460a0830152600681015460c0830152600781015460e083015260088101549192909161010084019160ff90911690811115611c6157634e487b7160e01b600052602160045260246000fd5b6002811115611c8057634e487b7160e01b600052602160045260246000fd5b8152600882015461010090046001600160a01b0390811660208301526009909201549182166040820152600160a01b90910460ff1615156060909101528351849084908110611cdf57634e487b7160e01b600052603260045260246000fd5b60200260200101819052508180611cf5906133d8565b9250508080611d03906133d8565b915050611baf565b50909392505050565b60026001541415611d375760405162461bcd60e51b8152600401610906906132f0565b60026001556000818152600a602052604090206008015461010090046001600160a01b0316331415611dab5760405162461bcd60e51b815260206004820152601b60248201527f53656e646572206d757374206265206e6f7420626f72726f77657200000000006044820152606401610906565b6000818152600a602052604090206008015461010090046001600160a01b0316611e175760405162461bcd60e51b815260206004820152601d60248201527f4c6f616e20636f76656e616e74206973206e6f7420657869737465642e0000006044820152606401610906565b6000818152600a60205260409020600901546001600160a01b0316158015611e7057506000818152600a602052604081206008015460ff166002811115611e6e57634e487b7160e01b600052602160045260246000fd5b145b611e8c5760405162461bcd60e51b815260040161090690613256565b6000818152600a6020526040902060038101546001600160a01b0316611ef75780600401543414611ef75760405162461bcd60e51b8152602060048201526015602482015274131bd85b88185b5bdd5b9d081b9bdd08195e1858dd605a1b6044820152606401610906565b600881015460038201546004830154611f259233926001600160a01b036101009092048216929116906127b1565b6009810180546001600160a01b031916331790556007810154611f48428261336a565b600683015560088201805460ff19166001908117909155336000908152600c6020526040902054611f789161266f565b336000818152600c602090815260409182902093909355600385015460048601546005870154600688015484518a8152968701959095526001600160a01b03909216928501929092526060840191909152608083015260a08201527f873c2e990e36955ded4605af1422f36b25a935eca109df3743cfb4ed2627b8fe9060c001610e32565b6000612009838361272f565b9392505050565b612018612dba565b61203c60405180606001604052806000815260200160008152602001600081525090565b6000838152600a602090815260408083208151610180810183528154815260018201546001600160a01b0390811694820194909452600280830154938201939093526003820154909316606084015260048101546080840152600581015460a0840152600681015460c0840152600781015460e08401526008810154909161010084019160ff16908111156120e157634e487b7160e01b600052602160045260246000fd5b600281111561210057634e487b7160e01b600052602160045260246000fd5b8152600882015461010090046001600160a01b03908116602080840191909152600990930154908116604080840191909152600160a01b90910460ff1615156060928301526000978852600b8352968790208751918201885280548252600181015492820192909252600290910154958101959095529492505050565b6008546001600160a01b031633146121a75760405162461bcd60e51b8152600401610906906132c2565b6111c1600482612939565b6000818152600a6020526040902060080154819061010090046001600160a01b031633146121f25760405162461bcd60e51b815260040161090690613226565b600260015414156122155760405162461bcd60e51b8152600401610906906132f0565b6002600155600080838152600a602052604090206008015460ff16600281111561224f57634e487b7160e01b600052602160045260246000fd5b1461226c5760405162461bcd60e51b815260040161090690613256565b6000828152600a6020526040908190206001810154600282015492516323b872dd60e01b815291926001600160a01b03909116916323b872dd916122b6913091339160040161311a565b600060405180830381600087803b1580156122d057600080fd5b505af11580156122e4573d6000803e3d6000fd5b5050505060088101805460ff1916600217905560098101805460ff60a01b191690556040518381527fcb2ea16eda1f7cedbfb69b422f48b5b5e71d11e0b1407a517dff82db913fdbce90602001610e32565b60606000612344600461294e565b905060008167ffffffffffffffff81111561236f57634e487b7160e01b600052604160045260246000fd5b6040519080825280602002602001820160405280156123b457816020015b604080518082019091526000808252602082015281526020019060019003908161238d5790505b50905060005b82811015611b30576000806123d0600484612959565b915091506040518060400160405280836001600160a01b031681526020018281525084848151811061241257634e487b7160e01b600052603260045260246000fd5b60200260200101819052505050808061242a906133d8565b9150506123ba565b6000838152600a6020526040902060080154839061010090046001600160a01b031633146124725760405162461bcd60e51b815260040161090690613226565b600260015414156124955760405162461bcd60e51b8152600401610906906132f0565b600260019081556000858152600b60205260409020906000868152600a602052604090206008015460ff1660028111156124df57634e487b7160e01b600052602160045260246000fd5b1461252c5760405162461bcd60e51b815260206004820152601c60248201527f4c6f616e20636f76656e616e74206973206e6f74206c6f636b65642e000000006044820152606401610906565b6001810184905561255961254184603c612799565b6000878152600a60205260409020600601549061266f565b600282018190556040805187815260208101879052908101919091527f41be7a7eec331566aaa888f4e2b06e04bff79d31fa0caa0dadff2fb85bd2f20a90606001610b7d565b6008546001600160a01b031633146125c95760405162461bcd60e51b8152600401610906906132c2565b6111c1600282612977565b6000546001600160a01b031633146125fe5760405162461bcd60e51b81526004016109069061328d565b6001600160a01b0381166126635760405162461bcd60e51b815260206004820152602660248201527f4f776e61626c653a206e6577206f776e657220697320746865207a65726f206160448201526564647265737360d01b6064820152608401610906565b61266c816126df565b50565b6000612009828461336a565b6000612009836001600160a01b03841661298c565b60006126a6846001600160a01b038516846129fc565b949350505050565b6000612009836001600160a01b038416612a19565b60006126ce83612b36565b801561200957506120098383612b69565b600080546001600160a01b038381166001600160a01b0319831681178455604051919092169283917f8be0079c531659141344cd1fd0a4f28419497f9722a3daafe3b4186f6b6457e09190a35050565b6040805180820190915260008082526020820181905290612751600485612c52565b6020830152158015825261276a57602001519050610b9d565b612775600484612c52565b6020830152158015825261278e57602001519050610b9d565b505060075492915050565b600061200982846133a2565b60006120098284613382565b6001600160a01b0382166127fb576040516001600160a01b0384169082156108fc029083906000818181858888f193505050501580156127f5573d6000803e3d6000fd5b50612911565b6001600160a01b038416301461288d576040516323b872dd60e01b81526001600160a01b038316906323b872dd9061283b9087908790869060040161311a565b602060405180830381600087803b15801561285557600080fd5b505af1158015612869573d6000803e3d6000fd5b505050506040513d601f19601f820116820180604052508101906127f59190612f53565b60405163a9059cbb60e01b81526001600160a01b0384811660048301526024820183905283169063a9059cbb90604401602060405180830381600087803b1580156128d757600080fd5b505af11580156128eb573d6000803e3d6000fd5b505050506040513d601f19601f8201168201806040525081019061290f9190612f53565b505b50505050565b600061200982846133c1565b6000610b9d825490565b60006120098383612c6a565b6000612009836001600160a01b038416612ca2565b6000610b9d82612cbf565b60008080806129688686612cca565b909450925050505b9250929050565b6000612009836001600160a01b038416612cf5565b6000818152600283016020526040812054801515806129b057506129b08484612d44565b6120095760405162461bcd60e51b815260206004820152601e60248201527f456e756d657261626c654d61703a206e6f6e6578697374656e74206b657900006044820152606401610906565b600082815260028401602052604081208290556126a68484612d50565b60008181526001830160205260408120548015612b2c576000612a3d6001836133c1565b8554909150600090612a51906001906133c1565b9050818114612ad2576000866000018281548110612a7f57634e487b7160e01b600052603260045260246000fd5b9060005260206000200154905080876000018481548110612ab057634e487b7160e01b600052603260045260246000fd5b6000918252602080832090910192909255918252600188019052604090208390555b8554869080612af157634e487b7160e01b600052603160045260246000fd5b600190038181906000526020600020016000905590558560010160008681526020019081526020016000206000905560019350505050610b9d565b6000915050610b9d565b6000612b49826301ffc9a760e01b612b69565b8015610b9d5750612b62826001600160e01b0319612b69565b1592915050565b604080516001600160e01b0319831660248083019190915282518083039091018152604490910182526020810180516001600160e01b03166301ffc9a760e01b179052905160009190829081906001600160a01b0387169061753090612bd09086906130e1565b6000604051808303818686fa925050503d8060008114612c0c576040519150601f19603f3d011682016040523d82523d6000602084013e612c11565b606091505b5091509150602081511015612c2c5760009350505050610b9d565b818015612c48575080806020019051810190612c489190612f53565b9695505050505050565b6000808080612968866001600160a01b038716612d5c565b6000826000018281548110612c8f57634e487b7160e01b600052603260045260246000fd5b9060005260206000200154905092915050565b600081815260028301602052604081208190556120098383612d96565b6000610b9d82612923565b60008080612cd8858561292d565b600081815260029690960160205260409095205494959350505050565b6000818152600183016020526040812054612d3c57508154600181810184556000848152602080822090930184905584548482528286019093526040902091909155610b9d565b506000610b9d565b60006120098383612da2565b60006120098383612cf5565b6000818152600283016020526040812054819080612d8b57612d7e8585612d44565b9250600091506129709050565b600192509050612970565b60006120098383612a19565b60008181526001830160205260408120541515612009565b6040518061018001604052806000815260200160006001600160a01b031681526020016000815260200160006001600160a01b031681526020016000815260200160008152602001600081526020016000815260200160006002811115612e3157634e487b7160e01b600052602160045260246000fd5b81526000602082018190526040820181905260609091015290565b600060208284031215612e5d578081fd5b813561200981613409565b60008060408385031215612e7a578081fd5b8235612e8581613409565b91506020830135612e9581613409565b809150509250929050565b60008060408385031215612eb2578182fd5b8235612ebd81613409565b946020939093013593505050565b60008060408385031215612edd578182fd5b8251612ee881613409565b6020939093015192949293505050565b60008060008060008060c08789031215612f10578182fd5b8635612f1b81613409565b9550602087013594506040870135612f3281613409565b959894975094956060810135955060808101359460a0909101359350915050565b600060208284031215612f64578081fd5b81518015158114612009578182fd5b600060208284031215612f84578081fd5b5035919050565b600080600080600060a08688031215612fa2578081fd5b853594506020860135612fb481613409565b94979496505050506040830135926060810135926080909101359150565b600080600060608486031215612fe6578283fd5b505081359360208301359350604090920135919050565b6003811061301b57634e487b7160e01b600052602160045260246000fd5b9052565b80518252602081015161303d60208401826001600160a01b03169052565b5060408101516040830152606081015161306260608401826001600160a01b03169052565b506080810151608083015260a081015160a083015260c081015160c083015260e081015160e08301526101008082015161309e82850182612ffd565b5050610120818101516001600160a01b038116848301525050610140818101516001600160a01b0381168483015250506101608181015180151584830152612911565b60008251815b8181101561310157602081860181015185830152016130e7565b8181111561310f5782828501525b509190910192915050565b6001600160a01b039384168152919092166020820152604081019190915260600190565b6020808252825182820181905260009190848201906040850190845b8181101561317f5783516001600160a01b03168352928401929184019160010161315a565b50909695505050505050565b6020808252825182820181905260009190848201906040850190845b8181101561317f576131ba83855161301f565b9284019261018092909201916001016131a7565b602080825282518282018190526000919060409081850190868401855b8281101561321957815180516001600160a01b031685528601518685015292840192908501906001016131eb565b5091979650505050505050565b60208082526016908201527529b2b73232b91034b9903737ba103137b93937bbb2b960511b604082015260600190565b6020808252601d908201527f4c6f616e20636f76656e616e74206973206e6f74206c697374696e672e000000604082015260600190565b6020808252818101527f4f776e61626c653a2063616c6c6572206973206e6f7420746865206f776e6572604082015260600190565b602080825260149082015273135d5cdd081899481a1d588818dbdb9d1c9858dd60621b604082015260600190565b6020808252601f908201527f5265656e7472616e637947756172643a207265656e7472616e742063616c6c00604082015260600190565b6101808101610b9d828461301f565b6101e08101613345828561301f565b825161018083015260208301516101a083015260408301516101c08301529392505050565b6000821982111561337d5761337d6133f3565b500190565b60008261339d57634e487b7160e01b81526012600452602481fd5b500490565b60008160001904831182151516156133bc576133bc6133f3565b500290565b6000828210156133d3576133d36133f3565b500390565b60006000198214156133ec576133ec6133f3565b5060010190565b634e487b7160e01b600052601160045260246000fd5b6001600160a01b038116811461266c57600080fdfea26469706673582212201efa2ca56776b754ce7c2f82df6a24308318b8c8fc1da8da65e61c40276e8dab64736f6c63430008040033",
  "immutableReferences": {},
  "source": "// SPDX-License-Identifier: MIT\r\npragma solidity ^0.8.4;\r\n\r\nimport \"@openzeppelin/contracts/utils/Counters.sol\";\r\nimport \"@openzeppelin/contracts/token/ERC721/ERC721.sol\";\r\nimport \"@openzeppelin/contracts/token/ERC721/IERC721.sol\";\r\nimport \"@openzeppelin/contracts/interfaces/IERC2981.sol\";\r\nimport \"@openzeppelin/contracts/token/ERC20/IERC20.sol\";\r\nimport \"@openzeppelin/contracts/utils/introspection/ERC165Checker.sol\";\r\nimport \"@openzeppelin/contracts/utils/math/SafeMath.sol\";\r\nimport \"./HubChild.sol\";\r\n\r\ncontract NFTLoan is HubChild {\r\n    using Counters for Counters.Counter;\r\n    using SafeMath for uint256;\r\n    Counters.Counter private _itemCount;\r\n\r\n    mapping(uint256 => Covenant) private _idToCovenant;\r\n    mapping(uint256 => Proposal) private _idToProposal;\r\n    mapping(address => uint256) private _loanAccepted;\r\n    mapping(address => uint256) private _loanLiquidated;\r\n    \r\n    bytes4 public constant ERC721INTERFACE = type(IERC721).interfaceId;\r\n    bytes4 public constant ERC2981INTERFACE = type(IERC2981).interfaceId;\r\n\r\n    enum CovenantStatus {\r\n        LISTING,\r\n        LOCKED,\r\n        ENDED\r\n    }\r\n\r\n    struct Covenant {\r\n        uint256 itemId;\r\n        address nftContract;\r\n        uint256 tokenId;\r\n        address ftContract;\r\n        uint256 amount;\r\n        uint256 profit;\r\n        uint256 timeExpired;\r\n        uint256 duration;\r\n        CovenantStatus status;\r\n        address borrower;\r\n        address lender;\r\n        bool isLatest;\r\n    }\r\n\r\n    struct Proposal {\r\n        uint256 itemId;\r\n        uint256 profit;\r\n        uint256 timeExpired;\r\n    }\r\n\r\n    event CovenantListed(\r\n        uint256 itemId,\r\n        address nftContract,\r\n        uint256 tokenId,\r\n        address ftContract,\r\n        uint256 amount,\r\n        uint256 profit,\r\n        uint256 duration,\r\n        uint8 status,\r\n        address borrower,\r\n        address lender\r\n    );\r\n\r\n    event CovenantUnlisted(uint256 itemId);\r\n\r\n    event CovenantEdited(\r\n        uint256 itemId,\r\n        address ftContract,\r\n        uint256 amount,\r\n        uint256 profit,\r\n        uint256 duration\r\n    );\r\n\r\n    event CovenantPayOff(\r\n        uint256 itemId,\r\n        address nftContract,\r\n        uint256 tokenId,\r\n        address ftContract,\r\n        uint256 amount,\r\n        uint256 profit\r\n    );\r\n\r\n    event CovenantLiquidate(\r\n        uint256 itemId,\r\n        address nftContract,\r\n        uint256 tokenId\r\n    );\r\n\r\n    event CovenantAccept(\r\n        uint256 itemId,\r\n        address lender,\r\n        address ftContract,\r\n        uint256 amount,\r\n        uint256 profit,\r\n        uint256 timeExpired\r\n    );\r\n\r\n    event ProposalEdited(uint256 itemId, uint256 profit, uint256 timeExpired);\r\n\r\n    event ProposalAccepted(uint256 itemId, uint256 profit, uint256 timeExpired);\r\n\r\n    constructor(uint256 fee, address hub) {\r\n        RATE_FEE = fee;\r\n        setHub(hub);\r\n    }\r\n\r\n    modifier onlyBorrower(uint256 itemId) {\r\n        require(\r\n            _idToCovenant[itemId].borrower == msg.sender,\r\n            \"Sender is not borrower\"\r\n        );\r\n        _;\r\n    }\r\n\r\n    modifier onlyLender(uint256 itemId) {\r\n        require(\r\n            _idToCovenant[itemId].lender == msg.sender,\r\n            \"Sender is not lender\"\r\n        );\r\n        _;\r\n    }\r\n\r\n    // List the NFT on the marketplace\r\n    function list(\r\n        address nftContract,\r\n        uint256 tokenId,\r\n        address ftContract,\r\n        uint256 amount,\r\n        uint256 profit,\r\n        uint256 duration\r\n    ) public nonReentrant {\r\n        require(\r\n            amount > 0 && profit > 0,\r\n            \"Loan amount and profit must be at least 1\"\r\n        );\r\n        require(\r\n            ERC165Checker.supportsInterface(nftContract, ERC721INTERFACE),\r\n            \"Contract needs to be ERC721\"\r\n        );\r\n\r\n        IERC721(nftContract).transferFrom(msg.sender, address(this), tokenId);\r\n\r\n        uint256 itemId = _itemCount.current();\r\n        _idToCovenant[itemId] = Covenant(\r\n            itemId,\r\n            nftContract,\r\n            tokenId,\r\n            ftContract,\r\n            amount,\r\n            profit,\r\n            0,\r\n            duration,\r\n            CovenantStatus.LISTING,\r\n            msg.sender,\r\n            address(0),\r\n            true\r\n        );\r\n\r\n        _idToProposal[itemId] = Proposal(itemId, 0, 0);\r\n\r\n        emit CovenantListed(\r\n            _itemCount.current(),\r\n            nftContract,\r\n            tokenId,\r\n            ftContract,\r\n            amount,\r\n            profit,\r\n            duration,\r\n            uint8(CovenantStatus.LISTING),\r\n            msg.sender,\r\n            address(0)\r\n        );\r\n        _itemCount.increment();\r\n    }\r\n\r\n    function unlist(uint256 itemId)\r\n        external\r\n        onlyBorrower(itemId)\r\n        nonReentrant\r\n    {\r\n        require(\r\n            _idToCovenant[itemId].status == CovenantStatus.LISTING,\r\n            \"Loan covenant is not listing.\"\r\n        );\r\n        Covenant storage loanCovenant = _idToCovenant[itemId];\r\n        IERC721(loanCovenant.nftContract).transferFrom(\r\n            address(this),\r\n            msg.sender,\r\n            loanCovenant.tokenId\r\n        );\r\n        loanCovenant.status = CovenantStatus.ENDED;\r\n        loanCovenant.isLatest = false;\r\n        emit CovenantUnlisted(itemId);\r\n    }\r\n\r\n    function edit(\r\n        uint256 itemId,\r\n        address ftContract,\r\n        uint256 amount,\r\n        uint256 profit,\r\n        uint256 duration\r\n    ) external onlyBorrower(itemId) nonReentrant {\r\n        require(\r\n            _idToCovenant[itemId].status == CovenantStatus.LISTING,\r\n            \"Loan covenant is not listing.\"\r\n        );\r\n        Covenant storage loanCovenant = _idToCovenant[itemId];\r\n\r\n        loanCovenant.ftContract = ftContract;\r\n        loanCovenant.amount = amount;\r\n        loanCovenant.profit = profit;\r\n        loanCovenant.duration = duration;\r\n        emit CovenantEdited(itemId, ftContract, amount, profit, duration);\r\n    }\r\n\r\n    function extend(\r\n        uint256 itemId,\r\n        uint256 profit,\r\n        uint256 timeAdd\r\n    ) external onlyBorrower(itemId) nonReentrant {\r\n        Proposal storage proposal = _idToProposal[itemId];\r\n        require(\r\n            _idToCovenant[itemId].status == CovenantStatus.LOCKED,\r\n            \"Loan covenant is not locked.\"\r\n        );\r\n\r\n        proposal.profit = profit;\r\n        proposal.timeExpired = _idToCovenant[itemId].timeExpired.add(\r\n            timeAdd.mul(1 minutes)\r\n        );\r\n        emit ProposalEdited(itemId, profit, proposal.timeExpired);\r\n    }\r\n\r\n    function accept(uint256 itemId)\r\n        external\r\n        onlyLender(itemId)\r\n        nonReentrant\r\n    {\r\n        require(\r\n            _idToCovenant[itemId].status == CovenantStatus.LOCKED,\r\n            \"Loan covenant is not locked.\"\r\n        );\r\n        require(\r\n            _idToProposal[itemId].timeExpired != 0,\r\n            \"There is no proposal for this covenant\"\r\n        );\r\n\r\n        Covenant storage loanCovenant = _idToCovenant[itemId];\r\n        Proposal storage proposal = _idToProposal[itemId];\r\n        uint256 newProfit = proposal.profit;\r\n        loanCovenant.profit = newProfit.add(loanCovenant.profit);\r\n        loanCovenant.timeExpired = _idToProposal[itemId].timeExpired;\r\n        proposal.timeExpired = 0;\r\n        emit ProposalAccepted(\r\n            itemId,\r\n            loanCovenant.profit,\r\n            loanCovenant.timeExpired\r\n        );\r\n    }\r\n\r\n    function lend(uint256 itemId) public payable nonReentrant {\r\n        require(\r\n            _idToCovenant[itemId].borrower != msg.sender,\r\n            \"Sender must be not borrower\"\r\n        );\r\n        require(\r\n            _idToCovenant[itemId].borrower != address(0),\r\n            \"Loan covenant is not existed.\"\r\n        );\r\n        require(\r\n            _idToCovenant[itemId].lender == address(0) &&\r\n                _idToCovenant[itemId].status == CovenantStatus.LISTING,\r\n            \"Loan covenant is not listing.\"\r\n        );\r\n        Covenant storage loanCovenant = _idToCovenant[itemId];\r\n\r\n        if (loanCovenant.ftContract == address(0)) {\r\n            require(msg.value == loanCovenant.amount, \"Loan amount not exact\");\r\n        }\r\n        sendAssets(\r\n            msg.sender,\r\n            loanCovenant.borrower,\r\n            loanCovenant.ftContract,\r\n            loanCovenant.amount\r\n        );\r\n\r\n        loanCovenant.lender = msg.sender;\r\n        uint256 timeAdd = loanCovenant.duration;\r\n        loanCovenant.timeExpired = timeAdd+block.timestamp;\r\n        loanCovenant.status = CovenantStatus.LOCKED;\r\n        _loanAccepted[msg.sender] = _loanAccepted[msg.sender].add(1);\r\n        emit CovenantAccept(\r\n            itemId,\r\n            msg.sender,\r\n            loanCovenant.ftContract,\r\n            loanCovenant.amount,\r\n            loanCovenant.profit,\r\n            loanCovenant.timeExpired\r\n        );\r\n    }\r\n\r\n    function payoff(uint256 itemId)\r\n        external\r\n        payable\r\n        onlyBorrower(itemId)\r\n        nonReentrant\r\n    {\r\n        require(\r\n            _idToCovenant[itemId].status == CovenantStatus.LOCKED &&\r\n                _idToCovenant[itemId].timeExpired > block.timestamp,\r\n            \"Time is up. Contact lender for extend time.\"\r\n        );\r\n        Covenant storage loanCovenant = _idToCovenant[itemId];\r\n        uint256 totalPaid = loanCovenant.amount;\r\n        totalPaid = totalPaid.add(loanCovenant.profit);\r\n        uint256 fee = _feeOf(msg.sender, loanCovenant.ftContract);\r\n        fee = loanCovenant.profit.mul(fee).div(DENOMINATOR);\r\n        if (loanCovenant.ftContract == address(0)) {\r\n            require(\r\n                msg.value == totalPaid,\r\n                \"You must add exact amount and profit.\"\r\n            );\r\n        }\r\n        if (\r\n            ERC165Checker.supportsInterface(\r\n                loanCovenant.nftContract,\r\n                ERC2981INTERFACE\r\n            )\r\n        ) {\r\n            (address creator, uint256 royaltyAmount) = IERC2981(\r\n                loanCovenant.nftContract\r\n            ).royaltyInfo(loanCovenant.tokenId, loanCovenant.profit);\r\n            if (royaltyAmount > 0) {\r\n                sendAssets(\r\n                    msg.sender,\r\n                    creator,\r\n                    loanCovenant.ftContract,\r\n                    royaltyAmount\r\n                );\r\n                sendAssets(\r\n                    msg.sender,\r\n                    loanCovenant.lender,\r\n                    loanCovenant.ftContract,\r\n                    totalPaid.sub(royaltyAmount.add(fee))\r\n                );\r\n            } else {\r\n                sendAssets(\r\n                    msg.sender,\r\n                    loanCovenant.lender,\r\n                    loanCovenant.ftContract,\r\n                    totalPaid.sub(fee)\r\n                );\r\n            }\r\n        } else {\r\n            sendAssets(\r\n                msg.sender,\r\n                loanCovenant.lender,\r\n                loanCovenant.ftContract,\r\n                totalPaid.sub(fee)\r\n            );\r\n        }\r\n\r\n        sendAssets(msg.sender, owner(), loanCovenant.ftContract, fee);\r\n\r\n        IERC721(loanCovenant.nftContract).transferFrom(\r\n            address(this),\r\n            msg.sender,\r\n            loanCovenant.tokenId\r\n        );\r\n        loanCovenant.status = CovenantStatus.ENDED;\r\n        loanCovenant.isLatest = false;\r\n        emit CovenantPayOff(\r\n            itemId,\r\n            loanCovenant.nftContract,\r\n            loanCovenant.tokenId,\r\n            loanCovenant.ftContract,\r\n            loanCovenant.amount,\r\n            loanCovenant.profit\r\n        );\r\n    }\r\n\r\n    function liquidate(uint256 itemId)\r\n        external\r\n        payable\r\n        onlyLender(itemId)\r\n        nonReentrant\r\n    {\r\n        require(\r\n            _idToCovenant[itemId].status == CovenantStatus.LOCKED &&\r\n                _idToCovenant[itemId].timeExpired < block.timestamp,\r\n            \"Not time for liquidate covenant\"\r\n        );\r\n        Covenant storage loanCovenant = _idToCovenant[itemId];\r\n        IERC721(loanCovenant.nftContract).transferFrom(\r\n            address(this),\r\n            msg.sender,\r\n            loanCovenant.tokenId\r\n        );\r\n        loanCovenant.status = CovenantStatus.ENDED;\r\n        loanCovenant.isLatest = false;\r\n        _loanLiquidated[msg.sender] = _loanLiquidated[msg.sender].add(1);\r\n        emit CovenantLiquidate(\r\n            itemId,\r\n            loanCovenant.nftContract,\r\n            loanCovenant.tokenId\r\n        );\r\n    }\r\n\r\n    function getCovenants() public view returns (Covenant[] memory) {\r\n        uint256 covenantCount = _itemCount.current();\r\n\r\n        Covenant[] memory covenants = new Covenant[](covenantCount);\r\n        uint256 covenantIndex = 0;\r\n        for (uint256 i = 0; i < covenantCount; i++) {\r\n            covenants[covenantIndex] = _idToCovenant[i];\r\n            covenantIndex++;\r\n        }\r\n        return covenants;\r\n    }\r\n\r\n    function getCovenantsByAddress(address addr)\r\n        public\r\n        view\r\n        returns (Covenant[] memory)\r\n    {\r\n        uint256 covenantCount = _itemCount.current();\r\n        uint256 myListedCovenantCount = 0;\r\n        for (uint256 i = 0; i < covenantCount; i++) {\r\n            if (\r\n                _idToCovenant[i].borrower == addr ||\r\n                _idToCovenant[i].lender == addr\r\n            ) {\r\n                myListedCovenantCount++;\r\n            }\r\n        }\r\n\r\n        Covenant[] memory covenants = new Covenant[](covenantCount);\r\n        uint256 covenantIndex = 0;\r\n        for (uint256 i = 0; i < myListedCovenantCount; i++) {\r\n            if (\r\n                _idToCovenant[i].borrower == addr ||\r\n                _idToCovenant[i].lender == addr\r\n            ) {\r\n                covenants[covenantIndex] = _idToCovenant[i];\r\n                covenantIndex++;\r\n            }\r\n        }\r\n        return covenants;\r\n    }\r\n\r\n    function getCovenant(uint256 itemId)\r\n        public\r\n        view\r\n        returns (Covenant memory, Proposal memory)\r\n    {\r\n        Covenant memory covenant = _idToCovenant[itemId];\r\n        Proposal memory proposal = _idToProposal[itemId];\r\n        return (covenant, proposal);\r\n    }\r\n\r\n    function getUserHealth(address addr)\r\n        public\r\n        view\r\n        returns (uint256, uint256)\r\n    {\r\n        return (_loanAccepted[addr], _loanLiquidated[addr]);\r\n    }\r\n\r\n    function getLoanData(address contractAddress, uint256 tokenId)\r\n        public\r\n        view\r\n        returns (Covenant memory)\r\n    {\r\n        Covenant memory covenant;\r\n        uint256 cCount = _itemCount.current();\r\n        for (uint256 i = 0; i < cCount; i++) {\r\n            if (\r\n                _idToCovenant[i].nftContract == contractAddress &&\r\n                _idToCovenant[i].tokenId == tokenId &&\r\n                _idToCovenant[i].isLatest\r\n            ) {\r\n                covenant = _idToCovenant[i];\r\n                break;\r\n            }\r\n        }\r\n\r\n        return covenant;\r\n    }\r\n\r\n    function sendAssets(\r\n        address from,\r\n        address to,\r\n        address ftToken,\r\n        uint256 value\r\n    ) private {\r\n        if (ftToken == address(0)) {\r\n            payable(to).transfer(value);\r\n        } else {\r\n            if (from != address(this)) {\r\n                IERC20(ftToken).transferFrom(from, to, value);\r\n            } else {\r\n                IERC20(ftToken).transfer(to, value);\r\n            }\r\n        }\r\n    }\r\n}\r\n",
  "sourcePath": "G:\\Learning\\Project\\source\\picasarts-contracts\\contracts\\NFTLoan.sol",
  "compiler": {
    "name": "solc",
    "version": "0.8.4+commit.c7e474f2.Emscripten.clang"
  },
  "schemaVersion": "3.4.10",
  "updatedAt": "2023-03-09T13:10:18.540Z",
  "devdoc": {
    "kind": "dev",
    "methods": {
      "owner()": {
        "details": "Returns the address of the current owner."
      },
      "renounceOwnership()": {
        "details": "Leaves the contract without owner. It will not be possible to call `onlyOwner` functions anymore. Can only be called by the current owner. NOTE: Renouncing ownership will leave the contract without an owner, thereby removing any functionality that is only available to the owner."
      },
      "transferOwnership(address)": {
        "details": "Transfers ownership of the contract to a new account (`newOwner`). Can only be called by the current owner."
      }
    },
    "version": 1
  },
  "userdoc": {
    "kind": "user",
    "methods": {},
    "version": 1
  }
}