{
  "contractName": "NFTLoan",
  "abi": [
    {
      "inputs": [
        {
          "internalType": "uint256",
          "name": "fee",
          "type": "uint256"
        },
        {
          "internalType": "address",
          "name": "hub",
          "type": "address"
        }
      ],
      "stateMutability": "nonpayable",
      "type": "constructor"
    },
    {
      "anonymous": false,
      "inputs": [
        {
          "indexed": false,
          "internalType": "uint256",
          "name": "itemId",
          "type": "uint256"
        },
        {
          "indexed": false,
          "internalType": "address",
          "name": "lender",
          "type": "address"
        },
        {
          "indexed": false,
          "internalType": "address",
          "name": "ftContract",
          "type": "address"
        },
        {
          "indexed": false,
          "internalType": "uint256",
          "name": "amount",
          "type": "uint256"
        },
        {
          "indexed": false,
          "internalType": "uint256",
          "name": "profit",
          "type": "uint256"
        },
        {
          "indexed": false,
          "internalType": "uint256",
          "name": "timeExpired",
          "type": "uint256"
        }
      ],
      "name": "CovenantAccept",
      "type": "event"
    },
    {
      "anonymous": false,
      "inputs": [
        {
          "indexed": false,
          "internalType": "uint256",
          "name": "itemId",
          "type": "uint256"
        },
        {
          "indexed": false,
          "internalType": "address",
          "name": "ftContract",
          "type": "address"
        },
        {
          "indexed": false,
          "internalType": "uint256",
          "name": "amount",
          "type": "uint256"
        },
        {
          "indexed": false,
          "internalType": "uint256",
          "name": "profit",
          "type": "uint256"
        },
        {
          "indexed": false,
          "internalType": "uint256",
          "name": "timeDays",
          "type": "uint256"
        }
      ],
      "name": "CovenantEdited",
      "type": "event"
    },
    {
      "anonymous": false,
      "inputs": [
        {
          "indexed": false,
          "internalType": "uint256",
          "name": "itemId",
          "type": "uint256"
        },
        {
          "indexed": false,
          "internalType": "address",
          "name": "nftContract",
          "type": "address"
        },
        {
          "indexed": false,
          "internalType": "uint256",
          "name": "tokenId",
          "type": "uint256"
        }
      ],
      "name": "CovenantLiquidate",
      "type": "event"
    },
    {
      "anonymous": false,
      "inputs": [
        {
          "indexed": false,
          "internalType": "uint256",
          "name": "itemId",
          "type": "uint256"
        },
        {
          "indexed": false,
          "internalType": "address",
          "name": "nftContract",
          "type": "address"
        },
        {
          "indexed": false,
          "internalType": "uint256",
          "name": "tokenId",
          "type": "uint256"
        },
        {
          "indexed": false,
          "internalType": "address",
          "name": "ftContract",
          "type": "address"
        },
        {
          "indexed": false,
          "internalType": "uint256",
          "name": "amount",
          "type": "uint256"
        },
        {
          "indexed": false,
          "internalType": "uint256",
          "name": "profit",
          "type": "uint256"
        },
        {
          "indexed": false,
          "internalType": "uint256",
          "name": "timeDays",
          "type": "uint256"
        },
        {
          "indexed": false,
          "internalType": "uint8",
          "name": "status",
          "type": "uint8"
        },
        {
          "indexed": false,
          "internalType": "address",
          "name": "borrower",
          "type": "address"
        },
        {
          "indexed": false,
          "internalType": "address",
          "name": "lender",
          "type": "address"
        }
      ],
      "name": "CovenantListed",
      "type": "event"
    },
    {
      "anonymous": false,
      "inputs": [
        {
          "indexed": false,
          "internalType": "uint256",
          "name": "itemId",
          "type": "uint256"
        },
        {
          "indexed": false,
          "internalType": "address",
          "name": "nftContract",
          "type": "address"
        },
        {
          "indexed": false,
          "internalType": "uint256",
          "name": "tokenId",
          "type": "uint256"
        },
        {
          "indexed": false,
          "internalType": "address",
          "name": "ftContract",
          "type": "address"
        },
        {
          "indexed": false,
          "internalType": "uint256",
          "name": "amount",
          "type": "uint256"
        },
        {
          "indexed": false,
          "internalType": "uint256",
          "name": "profit",
          "type": "uint256"
        }
      ],
      "name": "CovenantPayOff",
      "type": "event"
    },
    {
      "anonymous": false,
      "inputs": [
        {
          "indexed": false,
          "internalType": "uint256",
          "name": "itemId",
          "type": "uint256"
        }
      ],
      "name": "CovenantUnlisted",
      "type": "event"
    },
    {
      "anonymous": false,
      "inputs": [
        {
          "indexed": true,
          "internalType": "address",
          "name": "previousOwner",
          "type": "address"
        },
        {
          "indexed": true,
          "internalType": "address",
          "name": "newOwner",
          "type": "address"
        }
      ],
      "name": "OwnershipTransferred",
      "type": "event"
    },
    {
      "anonymous": false,
      "inputs": [
        {
          "indexed": false,
          "internalType": "uint256",
          "name": "itemId",
          "type": "uint256"
        },
        {
          "indexed": false,
          "internalType": "uint256",
          "name": "profit",
          "type": "uint256"
        },
        {
          "indexed": false,
          "internalType": "uint256",
          "name": "timeExpired",
          "type": "uint256"
        }
      ],
      "name": "ProposalAccepted",
      "type": "event"
    },
    {
      "anonymous": false,
      "inputs": [
        {
          "indexed": false,
          "internalType": "uint256",
          "name": "itemId",
          "type": "uint256"
        },
        {
          "indexed": false,
          "internalType": "uint256",
          "name": "profit",
          "type": "uint256"
        },
        {
          "indexed": false,
          "internalType": "uint256",
          "name": "timeExpired",
          "type": "uint256"
        }
      ],
      "name": "ProposalEdited",
      "type": "event"
    },
    {
      "inputs": [],
      "name": "DENOMINATOR",
      "outputs": [
        {
          "internalType": "uint256",
          "name": "",
          "type": "uint256"
        }
      ],
      "stateMutability": "view",
      "type": "function"
    },
    {
      "inputs": [],
      "name": "ERC2981INTERFACE",
      "outputs": [
        {
          "internalType": "bytes4",
          "name": "",
          "type": "bytes4"
        }
      ],
      "stateMutability": "view",
      "type": "function"
    },
    {
      "inputs": [],
      "name": "ERC721INTERFACE",
      "outputs": [
        {
          "internalType": "bytes4",
          "name": "",
          "type": "bytes4"
        }
      ],
      "stateMutability": "view",
      "type": "function"
    },
    {
      "inputs": [],
      "name": "RATE_FEE",
      "outputs": [
        {
          "internalType": "uint256",
          "name": "",
          "type": "uint256"
        }
      ],
      "stateMutability": "view",
      "type": "function"
    },
    {
      "inputs": [
        {
          "internalType": "address",
          "name": "tokenAddr",
          "type": "address"
        }
      ],
      "name": "addAcceptToken",
      "outputs": [],
      "stateMutability": "nonpayable",
      "type": "function"
    },
    {
      "inputs": [
        {
          "internalType": "address",
          "name": "whitelistAddress",
          "type": "address"
        },
        {
          "internalType": "uint256",
          "name": "fee",
          "type": "uint256"
        }
      ],
      "name": "addWhitelistAddress",
      "outputs": [],
      "stateMutability": "nonpayable",
      "type": "function"
    },
    {
      "inputs": [
        {
          "internalType": "address",
          "name": "walletAddress",
          "type": "address"
        },
        {
          "internalType": "address",
          "name": "tokenAddress",
          "type": "address"
        }
      ],
      "name": "feeOf",
      "outputs": [
        {
          "internalType": "uint256",
          "name": "",
          "type": "uint256"
        }
      ],
      "stateMutability": "view",
      "type": "function"
    },
    {
      "inputs": [],
      "name": "getAcceptTokens",
      "outputs": [
        {
          "internalType": "address[]",
          "name": "",
          "type": "address[]"
        }
      ],
      "stateMutability": "view",
      "type": "function"
    },
    {
      "inputs": [],
      "name": "getRateFee",
      "outputs": [
        {
          "internalType": "uint256",
          "name": "",
          "type": "uint256"
        }
      ],
      "stateMutability": "view",
      "type": "function"
    },
    {
      "inputs": [
        {
          "internalType": "address",
          "name": "tokenAddress",
          "type": "address"
        }
      ],
      "name": "getTokenFee",
      "outputs": [
        {
          "internalType": "uint256",
          "name": "",
          "type": "uint256"
        }
      ],
      "stateMutability": "view",
      "type": "function"
    },
    {
      "inputs": [],
      "name": "getWhitelist",
      "outputs": [
        {
          "components": [
            {
              "internalType": "address",
              "name": "addr",
              "type": "address"
            },
            {
              "internalType": "uint256",
              "name": "fee",
              "type": "uint256"
            }
          ],
          "internalType": "struct IHubChild.WhitelistVars[]",
          "name": "",
          "type": "tuple[]"
        }
      ],
      "stateMutability": "view",
      "type": "function"
    },
    {
      "inputs": [],
      "name": "hubAddr",
      "outputs": [
        {
          "internalType": "address",
          "name": "",
          "type": "address"
        }
      ],
      "stateMutability": "view",
      "type": "function"
    },
    {
      "inputs": [],
      "name": "owner",
      "outputs": [
        {
          "internalType": "address",
          "name": "",
          "type": "address"
        }
      ],
      "stateMutability": "view",
      "type": "function"
    },
    {
      "inputs": [
        {
          "internalType": "address",
          "name": "tokenAddr",
          "type": "address"
        }
      ],
      "name": "removeToken",
      "outputs": [],
      "stateMutability": "nonpayable",
      "type": "function"
    },
    {
      "inputs": [
        {
          "internalType": "address",
          "name": "whitelistAddress",
          "type": "address"
        }
      ],
      "name": "removeWhitelistAddress",
      "outputs": [],
      "stateMutability": "nonpayable",
      "type": "function"
    },
    {
      "inputs": [],
      "name": "renounceOwnership",
      "outputs": [],
      "stateMutability": "nonpayable",
      "type": "function"
    },
    {
      "inputs": [
        {
          "internalType": "address",
          "name": "hub",
          "type": "address"
        }
      ],
      "name": "setHub",
      "outputs": [],
      "stateMutability": "nonpayable",
      "type": "function"
    },
    {
      "inputs": [
        {
          "internalType": "uint256",
          "name": "rateFee",
          "type": "uint256"
        }
      ],
      "name": "setRateFee",
      "outputs": [],
      "stateMutability": "nonpayable",
      "type": "function"
    },
    {
      "inputs": [
        {
          "internalType": "address",
          "name": "newOwner",
          "type": "address"
        }
      ],
      "name": "transferOwnership",
      "outputs": [],
      "stateMutability": "nonpayable",
      "type": "function"
    },
    {
      "inputs": [
        {
          "internalType": "address",
          "name": "nftContract",
          "type": "address"
        },
        {
          "internalType": "uint256",
          "name": "tokenId",
          "type": "uint256"
        },
        {
          "internalType": "address",
          "name": "ftContract",
          "type": "address"
        },
        {
          "internalType": "uint256",
          "name": "amount",
          "type": "uint256"
        },
        {
          "internalType": "uint256",
          "name": "profit",
          "type": "uint256"
        },
        {
          "internalType": "uint256",
          "name": "timeDays",
          "type": "uint256"
        }
      ],
      "name": "listCovenant",
      "outputs": [],
      "stateMutability": "nonpayable",
      "type": "function"
    },
    {
      "inputs": [
        {
          "internalType": "uint256",
          "name": "itemId",
          "type": "uint256"
        }
      ],
      "name": "endListedItem",
      "outputs": [],
      "stateMutability": "nonpayable",
      "type": "function"
    },
    {
      "inputs": [
        {
          "internalType": "uint256",
          "name": "itemId",
          "type": "uint256"
        },
        {
          "internalType": "address",
          "name": "ftContract",
          "type": "address"
        },
        {
          "internalType": "uint256",
          "name": "amount",
          "type": "uint256"
        },
        {
          "internalType": "uint256",
          "name": "profit",
          "type": "uint256"
        },
        {
          "internalType": "uint256",
          "name": "timeDays",
          "type": "uint256"
        }
      ],
      "name": "editListingItem",
      "outputs": [],
      "stateMutability": "nonpayable",
      "type": "function"
    },
    {
      "inputs": [
        {
          "internalType": "uint256",
          "name": "itemId",
          "type": "uint256"
        },
        {
          "internalType": "uint256",
          "name": "profit",
          "type": "uint256"
        },
        {
          "internalType": "uint256",
          "name": "timeAdd",
          "type": "uint256"
        }
      ],
      "name": "editProposal",
      "outputs": [],
      "stateMutability": "nonpayable",
      "type": "function"
    },
    {
      "inputs": [
        {
          "internalType": "uint256",
          "name": "itemId",
          "type": "uint256"
        }
      ],
      "name": "acceptProposal",
      "outputs": [],
      "stateMutability": "nonpayable",
      "type": "function"
    },
    {
      "inputs": [
        {
          "internalType": "uint256",
          "name": "itemId",
          "type": "uint256"
        }
      ],
      "name": "acceptCovenant",
      "outputs": [],
      "stateMutability": "payable",
      "type": "function"
    },
    {
      "inputs": [
        {
          "internalType": "uint256",
          "name": "itemId",
          "type": "uint256"
        }
      ],
      "name": "payOff",
      "outputs": [],
      "stateMutability": "payable",
      "type": "function"
    },
    {
      "inputs": [
        {
          "internalType": "uint256",
          "name": "itemId",
          "type": "uint256"
        }
      ],
      "name": "liquidate",
      "outputs": [],
      "stateMutability": "payable",
      "type": "function"
    },
    {
      "inputs": [],
      "name": "getCovenants",
      "outputs": [
        {
          "components": [
            {
              "internalType": "uint256",
              "name": "itemId",
              "type": "uint256"
            },
            {
              "internalType": "address",
              "name": "nftContract",
              "type": "address"
            },
            {
              "internalType": "uint256",
              "name": "tokenId",
              "type": "uint256"
            },
            {
              "internalType": "address",
              "name": "ftContract",
              "type": "address"
            },
            {
              "internalType": "uint256",
              "name": "amount",
              "type": "uint256"
            },
            {
              "internalType": "uint256",
              "name": "profit",
              "type": "uint256"
            },
            {
              "internalType": "uint256",
              "name": "timeExpired",
              "type": "uint256"
            },
            {
              "internalType": "uint256",
              "name": "timeDays",
              "type": "uint256"
            },
            {
              "internalType": "enum NFTLoan.CovenantStatus",
              "name": "status",
              "type": "uint8"
            },
            {
              "internalType": "address",
              "name": "borrower",
              "type": "address"
            },
            {
              "internalType": "address",
              "name": "lender",
              "type": "address"
            },
            {
              "internalType": "bool",
              "name": "isLatest",
              "type": "bool"
            }
          ],
          "internalType": "struct NFTLoan.Covenant[]",
          "name": "",
          "type": "tuple[]"
        }
      ],
      "stateMutability": "view",
      "type": "function"
    },
    {
      "inputs": [
        {
          "internalType": "address",
          "name": "addr",
          "type": "address"
        }
      ],
      "name": "getCovenantsByAddress",
      "outputs": [
        {
          "components": [
            {
              "internalType": "uint256",
              "name": "itemId",
              "type": "uint256"
            },
            {
              "internalType": "address",
              "name": "nftContract",
              "type": "address"
            },
            {
              "internalType": "uint256",
              "name": "tokenId",
              "type": "uint256"
            },
            {
              "internalType": "address",
              "name": "ftContract",
              "type": "address"
            },
            {
              "internalType": "uint256",
              "name": "amount",
              "type": "uint256"
            },
            {
              "internalType": "uint256",
              "name": "profit",
              "type": "uint256"
            },
            {
              "internalType": "uint256",
              "name": "timeExpired",
              "type": "uint256"
            },
            {
              "internalType": "uint256",
              "name": "timeDays",
              "type": "uint256"
            },
            {
              "internalType": "enum NFTLoan.CovenantStatus",
              "name": "status",
              "type": "uint8"
            },
            {
              "internalType": "address",
              "name": "borrower",
              "type": "address"
            },
            {
              "internalType": "address",
              "name": "lender",
              "type": "address"
            },
            {
              "internalType": "bool",
              "name": "isLatest",
              "type": "bool"
            }
          ],
          "internalType": "struct NFTLoan.Covenant[]",
          "name": "",
          "type": "tuple[]"
        }
      ],
      "stateMutability": "view",
      "type": "function"
    },
    {
      "inputs": [
        {
          "internalType": "uint256",
          "name": "itemId",
          "type": "uint256"
        }
      ],
      "name": "getCovenant",
      "outputs": [
        {
          "components": [
            {
              "internalType": "uint256",
              "name": "itemId",
              "type": "uint256"
            },
            {
              "internalType": "address",
              "name": "nftContract",
              "type": "address"
            },
            {
              "internalType": "uint256",
              "name": "tokenId",
              "type": "uint256"
            },
            {
              "internalType": "address",
              "name": "ftContract",
              "type": "address"
            },
            {
              "internalType": "uint256",
              "name": "amount",
              "type": "uint256"
            },
            {
              "internalType": "uint256",
              "name": "profit",
              "type": "uint256"
            },
            {
              "internalType": "uint256",
              "name": "timeExpired",
              "type": "uint256"
            },
            {
              "internalType": "uint256",
              "name": "timeDays",
              "type": "uint256"
            },
            {
              "internalType": "enum NFTLoan.CovenantStatus",
              "name": "status",
              "type": "uint8"
            },
            {
              "internalType": "address",
              "name": "borrower",
              "type": "address"
            },
            {
              "internalType": "address",
              "name": "lender",
              "type": "address"
            },
            {
              "internalType": "bool",
              "name": "isLatest",
              "type": "bool"
            }
          ],
          "internalType": "struct NFTLoan.Covenant",
          "name": "",
          "type": "tuple"
        },
        {
          "components": [
            {
              "internalType": "uint256",
              "name": "itemId",
              "type": "uint256"
            },
            {
              "internalType": "uint256",
              "name": "profit",
              "type": "uint256"
            },
            {
              "internalType": "uint256",
              "name": "timeExpired",
              "type": "uint256"
            }
          ],
          "internalType": "struct NFTLoan.Proposal",
          "name": "",
          "type": "tuple"
        }
      ],
      "stateMutability": "view",
      "type": "function"
    },
    {
      "inputs": [
        {
          "internalType": "address",
          "name": "addr",
          "type": "address"
        }
      ],
      "name": "getUserHealth",
      "outputs": [
        {
          "internalType": "uint256",
          "name": "",
          "type": "uint256"
        },
        {
          "internalType": "uint256",
          "name": "",
          "type": "uint256"
        }
      ],
      "stateMutability": "view",
      "type": "function"
    },
    {
      "inputs": [
        {
          "internalType": "address",
          "name": "contractAddress",
          "type": "address"
        },
        {
          "internalType": "uint256",
          "name": "tokenId",
          "type": "uint256"
        }
      ],
      "name": "getLoanData",
      "outputs": [
        {
          "components": [
            {
              "internalType": "uint256",
              "name": "itemId",
              "type": "uint256"
            },
            {
              "internalType": "address",
              "name": "nftContract",
              "type": "address"
            },
            {
              "internalType": "uint256",
              "name": "tokenId",
              "type": "uint256"
            },
            {
              "internalType": "address",
              "name": "ftContract",
              "type": "address"
            },
            {
              "internalType": "uint256",
              "name": "amount",
              "type": "uint256"
            },
            {
              "internalType": "uint256",
              "name": "profit",
              "type": "uint256"
            },
            {
              "internalType": "uint256",
              "name": "timeExpired",
              "type": "uint256"
            },
            {
              "internalType": "uint256",
              "name": "timeDays",
              "type": "uint256"
            },
            {
              "internalType": "enum NFTLoan.CovenantStatus",
              "name": "status",
              "type": "uint8"
            },
            {
              "internalType": "address",
              "name": "borrower",
              "type": "address"
            },
            {
              "internalType": "address",
              "name": "lender",
              "type": "address"
            },
            {
              "internalType": "bool",
              "name": "isLatest",
              "type": "bool"
            }
          ],
          "internalType": "struct NFTLoan.Covenant",
          "name": "",
          "type": "tuple"
        }
      ],
      "stateMutability": "view",
      "type": "function"
    }
  ],
  "bytecode": "0x60806040523480156200001157600080fd5b50604051620039b5380380620039b58339810160408190526200003491620001a8565b6200005a6200004b6401000000006200007f810204565b64010000000062000083810204565b6001805560078290556200007781640100000000620000d3810204565b5050620001e5565b3390565b60008054600160a060020a03838116600160a060020a0319831681178455604051919092169283917f8be0079c531659141344cd1fd0a4f28419497f9722a3daafe3b4186f6b6457e09190a35050565b620000e66401000000006200007f810204565b600160a060020a03166200010264010000000062000199810204565b600160a060020a03161462000177576040517f08c379a000000000000000000000000000000000000000000000000000000000815260206004820181905260248201527f4f776e61626c653a2063616c6c6572206973206e6f7420746865206f776e6572604482015260640160405180910390fd5b60088054600160a060020a031916600160a060020a0392909216919091179055565b600054600160a060020a031690565b60008060408385031215620001bb578182fd5b82516020840151909250600160a060020a0381168114620001da578182fd5b809150509250929050565b6137c080620001f56000396000f3fe608060405260043610610200576000357c01000000000000000000000000000000000000000000000000000000009004806360373f5c1161011f578063a89eccfd116100b2578063d01f63f511610081578063d01f63f5146105d8578063debd2272146105fa578063f2fde38b1461061a578063f9d6c03b1461063a57600080fd5b8063a89eccfd1461054a578063b1c005fa1461056a578063b40e38e914610598578063b7ecbaae146105b857600080fd5b806386c3b08a116100ee57806386c3b08a146104ec5780638da5cb5b14610501578063918f86741461051f57806393e4626e1461053557600080fd5b806360373f5c1461048257806360c5cc3a14610495578063715018a6146104b55780638563e10e146104ca57600080fd5b8063415f124011610197578063543244561161016657806354324456146103f5578063566207af1461041557806356874480146104355780635fa7b5841461046257600080fd5b8063415f12401461037457806349095a2114610387578063502a676c146103bf5780635254aca9146103d557600080fd5b8063243582ff116101d3578063243582ff146102f3578063252154fa1461030657806331962cdc14610334578063321c5e841461035457600080fd5b8063042ca2421461020557806307cb1a6e1461023b5780630f15e9be1461029d5780631879c750146102bf575b600080fd5b34801561021157600080fd5b5061022561022036600461319f565b610692565b60405161023291906134e1565b60405180910390f35b34801561024757600080fd5b5061026f7f80ac58cd0000000000000000000000000000000000000000000000000000000081565b6040517bffffffffffffffffffffffffffffffffffffffffffffffffffffffff199091168152602001610232565b3480156102a957600080fd5b506102bd6102b83660046132c6565b61094c565b005b3480156102cb57600080fd5b5061026f7f2a55205a0000000000000000000000000000000000000000000000000000000081565b6102bd6103013660046132c6565b610a01565b34801561031257600080fd5b5061032661032136600461319f565b610f1c565b604051908152602001610232565b34801561034057600080fd5b506102bd61034f36600461319f565b610f2f565b34801561036057600080fd5b506102bd61036f366004613325565b610f8b565b6102bd6103823660046132c6565b611104565b34801561039357600080fd5b506008546103a790600160a060020a031681565b604051600160a060020a039091168152602001610232565b3480156103cb57600080fd5b5061032660075481565b3480156103e157600080fd5b506102bd6103f03660046131f3565b611381565b34801561040157600080fd5b506102bd6104103660046132c6565b6113bf565b34801561042157600080fd5b506102bd61043036600461324b565b611563565b34801561044157600080fd5b506104556104503660046131f3565b6119ad565b604051610232919061368d565b34801561046e57600080fd5b506102bd61047d36600461319f565b611b69565b6102bd6104903660046132c6565b611ba5565b3480156104a157600080fd5b506102bd6104b03660046132c6565b611ec0565b3480156104c157600080fd5b506102bd612101565b3480156104d657600080fd5b506104df61213a565b6040516102329190613494565b3480156104f857600080fd5b50600754610326565b34801561050d57600080fd5b50600054600160a060020a03166103a7565b34801561052b57600080fd5b5061032661271081565b34801561054157600080fd5b5061022561220c565b34801561055657600080fd5b506103266105653660046131bb565b6123f5565b34801561057657600080fd5b5061058a6105853660046132c6565b612408565b60405161023292919061369c565b3480156105a457600080fd5b506102bd6105b33660046132de565b61257b565b3480156105c457600080fd5b506102bd6105d336600461319f565b6126ec565b3480156105e457600080fd5b506105ed612724565b6040516102329190613524565b34801561060657600080fd5b506102bd61061536600461319f565b612826565b34801561062657600080fd5b506102bd61063536600461319f565b61285e565b34801561064657600080fd5b5061067d61065536600461319f565b600160a060020a03166000908152600c6020908152604080832054600d909252909120549091565b60408051928352602083019190915201610232565b6060600061069f60095490565b90506000805b8281101561071e576000818152600a6020526040902060080154600160a060020a038681166101009092041614806106f957506000818152600a6020526040902060090154600160a060020a038681169116145b1561070c578161070881613741565b9250505b8061071681613741565b9150506106a5565b5060008267ffffffffffffffff81111561074b5760e060020a634e487b7102600052604160045260246000fd5b60405190808252806020026020018201604052801561078457816020015b61077161310a565b8152602001906001900390816107695790505b5090506000805b83811015610941576000818152600a6020526040902060080154600160a060020a038881166101009092041614806107df57506000818152600a6020526040902060090154600160a060020a038881169116145b1561092f576000818152600a6020908152604091829020825161018081018452815481526001820154600160a060020a0390811693820193909352600280830154948201949094526003820154909216606083015260048101546080830152600581015460a0830152600681015460c0830152600781015460e083015260088101549192909161010084019160ff909116908111156108915760e060020a634e487b7102600052602160045260246000fd5b60028111156108b35760e060020a634e487b7102600052602160045260246000fd5b815260088201546101009004600160a060020a039081166020830152600990920154918216604082015260a060020a90910460ff16151560609091015283518490849081106109155760e060020a634e487b7102600052603260045260246000fd5b6020026020010181905250818061092b90613741565b9250505b8061093981613741565b91505061078b565b509095945050505050565b600854600160a060020a031633146109825760405160e560020a62461bcd0281526004016109799061361f565b60405180910390fd5b61271081106109fc5760405160e560020a62461bcd02815260206004820152602160248201527f466565206e756d657261746f72206d757374206c657373207468616e2031303060448201527f25000000000000000000000000000000000000000000000000000000000000006064820152608401610979565b600755565b6000818152600a602052604090206008015481906101009004600160a060020a03163314610a445760405160e560020a62461bcd0281526004016109799061357c565b60026001541415610a6a5760405160e560020a62461bcd02815260040161097990613656565b600260019081556000838152600a602052604090206008015460ff166002811115610aa85760e060020a634e487b7102600052602160045260246000fd5b148015610ac557506000828152600a602052604090206006015442105b610b3a5760405160e560020a62461bcd02815260206004820152602b60248201527f54696d652069732075702e20436f6e74616374206c656e64657220666f72206560448201527f7874656e642074696d652e0000000000000000000000000000000000000000006064820152608401610979565b6000828152600a6020526040902060048101546005820154610b5d908290612916565b6003830154909150600090610b7c903390600160a060020a0316612922565b9050610ba1612710610b9b83866005015461298c90919063ffffffff16565b90612998565b6003840154909150600160a060020a0316610c2e57813414610c2e5760405160e560020a62461bcd02815260206004820152602560248201527f596f75206d7573742061646420657861637420616d6f756e7420616e6420707260448201527f6f6669742e0000000000000000000000000000000000000000000000000000006064820152608401610979565b6001830154610c6690600160a060020a03167f2a55205a000000000000000000000000000000000000000000000000000000006129a4565b15610da6576001830154600284015460058501546040517f2a55205a000000000000000000000000000000000000000000000000000000008152600481019290925260248201526000918291600160a060020a0390911690632a55205a90604401604080518083038186803b158015610cde57600080fd5b505afa158015610cf2573d6000803e3d6000fd5b505050506040513d601f19601f82011682018060405250810190610d16919061321e565b90925090508015610d78576003850154610d3d9033908490600160a060020a0316846129c0565b60098501546003860154610d73913391600160a060020a039182169116610d6e610d678689612916565b8990612b42565b6129c0565b610d9f565b60098501546003860154610d9f913391600160a060020a039182169116610d6e8888612b42565b5050610dcd565b60098301546003840154610dcd913391600160a060020a039182169116610d6e8686612b42565b610df733610de3600054600160a060020a031690565b6003860154600160a060020a0316846129c0565b6001830154600284015460405160e060020a6323b872dd028152600160a060020a03909216916323b872dd91610e339130913391600401613470565b600060405180830381600087803b158015610e4d57600080fd5b505af1158015610e61573d6000803e3d6000fd5b5050505060088301805460ff1916600290811790915560098401805474ff000000000000000000000000000000000000000019169055600184015490840154600385015460048601546005870154604080518b8152600160a060020a03968716602082015290810194909452939091166060830152608082015260a08101919091527fbfd8ce7cf08422e89b830095bc43e7a55d15c9766d431c5d7500eb024b33a9819060c0015b60405180910390a1505060018055505050565b6000610f29600483612b4e565b92915050565b600054600160a060020a03163314610f5c5760405160e560020a62461bcd028152600401610979906135ea565b6008805473ffffffffffffffffffffffffffffffffffffffff1916600160a060020a0392909216919091179055565b6000838152600a602052604090206008015483906101009004600160a060020a03163314610fce5760405160e560020a62461bcd0281526004016109799061357c565b60026001541415610ff45760405160e560020a62461bcd02815260040161097990613656565b600260019081556000858152600b60205260409020906000868152600a602052604090206008015460ff1660028111156110415760e060020a634e487b7102600052602160045260246000fd5b146110915760405160e560020a62461bcd02815260206004820152601c60248201527f4c6f616e20636f76656e616e74206973206e6f74206c6f636b65642e000000006044820152606401610979565b600181018490556110be6110a684603c61298c565b6000878152600a602052604090206006015490612916565b600282018190556040805187815260208101879052908101919091527f41be7a7eec331566aaa888f4e2b06e04bff79d31fa0caa0dadff2fb85bd2f20a90606001610f09565b6000818152600a60205260409020600901548190600160a060020a031633146111725760405160e560020a62461bcd02815260206004820152601460248201527f53656e646572206973206e6f74206c656e6465720000000000000000000000006044820152606401610979565b600260015414156111985760405160e560020a62461bcd02815260040161097990613656565b600260019081556000838152600a602052604090206008015460ff1660028111156111d65760e060020a634e487b7102600052602160045260246000fd5b1480156111f357506000828152600a602052604090206006015442115b6112425760405160e560020a62461bcd02815260206004820152601f60248201527f4e6f742074696d6520666f72206c697175696461746520636f76656e616e74006044820152606401610979565b6000828152600a60205260409081902060018101546002820154925160e060020a6323b872dd0281529192600160a060020a03909116916323b872dd9161128f9130913391600401613470565b600060405180830381600087803b1580156112a957600080fd5b505af11580156112bd573d6000803e3d6000fd5b5050505060088101805460ff1916600217905560098101805474ff000000000000000000000000000000000000000019169055336000908152600d602052604090205461130b906001612916565b336000908152600d602090815260409182902092909255600183015460028401548251878152600160a060020a0390921693820193909352908101919091527f7e4e6bd95b1f1a8350d728e47e6f4708166dd069a9fe805fbff548ec13f8fac3906060015b60405180910390a150506001805550565b600854600160a060020a031633146113ae5760405160e560020a62461bcd0281526004016109799061361f565b6113ba60048383612b63565b505050565b6000818152600a602052604090206008015481906101009004600160a060020a031633146114025760405160e560020a62461bcd0281526004016109799061357c565b600260015414156114285760405160e560020a62461bcd02815260040161097990613656565b6002600155600080838152600a602052604090206008015460ff1660028111156114655760e060020a634e487b7102600052602160045260246000fd5b146114855760405160e560020a62461bcd028152600401610979906135b3565b6000828152600a60205260409081902060018101546002820154925160e060020a6323b872dd0281529192600160a060020a03909116916323b872dd916114d29130913391600401613470565b600060405180830381600087803b1580156114ec57600080fd5b505af1158015611500573d6000803e3d6000fd5b5050505060088101805460ff1916600217905560098101805474ff0000000000000000000000000000000000000000191690556040518381527fcb2ea16eda1f7cedbfb69b422f48b5b5e71d11e0b1407a517dff82db913fdbce90602001611370565b600260015414156115895760405160e560020a62461bcd02815260040161097990613656565b6002600155821580159061159d5750600082115b6116125760405160e560020a62461bcd02815260206004820152602960248201527f4c6f616e20616d6f756e7420616e642070726f666974206d757374206265206160448201527f74206c65617374203100000000000000000000000000000000000000000000006064820152608401610979565b61163c867f80ac58cd000000000000000000000000000000000000000000000000000000006129a4565b61168b5760405160e560020a62461bcd02815260206004820152601b60248201527f436f6e7472616374206e6565647320746f2062652045524337323100000000006044820152606401610979565b60405160e060020a6323b872dd028152600160a060020a038716906323b872dd906116be90339030908a90600401613470565b600060405180830381600087803b1580156116d857600080fd5b505af11580156116ec573d6000803e3d6000fd5b5050505060006116fb60095490565b905060405180610180016040528082815260200188600160a060020a0316815260200187815260200186600160a060020a0316815260200185815260200184815260200160008152602001838152602001600060028111156117705760e060020a634e487b7102600052602160045260246000fd5b8152336020808301919091526000604080840182905260016060948501819052868352600a8452918190208551815592850151838301805473ffffffffffffffffffffffffffffffffffffffff19908116600160a060020a0393841617909155918601516002808601919091559486015160038501805490931691161790556080840151600483015560a0840151600583015560c0840151600683015560e0840151600783015561010084015160088301805493949193909260ff199091169184908111156118525760e060020a634e487b7102600052602160045260246000fd5b0217905550610120820151600882018054600160a060020a039283166101000274ffffffffffffffffffffffffffffffffffffffff00199091161790556101408301516009928301805461016090950151151560a060020a0274ffffffffffffffffffffffffffffffffffffffffff199095169190921617929092179091556040805160608101825283815260006020808301828152838501838152878452600b90925293909120915182559151600182015590516002909101557f62a6f84d842436bc5e66e743bb90f02cc4c336f059709a5e6df843d402ca4c8590611937905490565b60408051918252600160a060020a03808b166020840152908201899052871660608201526080810186905260a0810185905260c08101849052600060e08201819052336101008301526101208201526101400160405180910390a16119a0600980546001019055565b5050600180555050505050565b6119b561310a565b6119bd61310a565b60006119c860095490565b905060005b81811015611b5f576000818152600a6020526040902060010154600160a060020a038781169116148015611a1157506000818152600a602052604090206002015485145b8015611a3557506000818152600a602052604090206009015460a060020a900460ff165b15611b4d576000818152600a6020908152604091829020825161018081018452815481526001820154600160a060020a0390811693820193909352600280830154948201949094526003820154909216606083015260048101546080830152600581015460a0830152600681015460c0830152600781015460e083015260088101549192909161010084019160ff90911690811115611ae75760e060020a634e487b7102600052602160045260246000fd5b6002811115611b095760e060020a634e487b7102600052602160045260246000fd5b815260088201546101009004600160a060020a039081166020830152600990920154918216604082015260a060020a90910460ff1615156060909101529250611b5f565b80611b5781613741565b9150506119cd565b5090949350505050565b600854600160a060020a03163314611b965760405160e560020a62461bcd0281526004016109799061361f565b611ba1600282612b81565b5050565b60026001541415611bcb5760405160e560020a62461bcd02815260040161097990613656565b60026001556000818152600a60205260409020600801546101009004600160a060020a0316331415611c425760405160e560020a62461bcd02815260206004820152601b60248201527f53656e646572206d757374206265206e6f7420626f72726f77657200000000006044820152606401610979565b6000818152600a60205260409020600801546101009004600160a060020a0316611cb15760405160e560020a62461bcd02815260206004820152601d60248201527f4c6f616e20636f76656e616e74206973206e6f7420657869737465642e0000006044820152606401610979565b6000818152600a6020526040902060090154600160a060020a0316158015611d0d57506000818152600a602052604081206008015460ff166002811115611d0b5760e060020a634e487b7102600052602160045260246000fd5b145b611d2c5760405160e560020a62461bcd028152600401610979906135b3565b6000818152600a602052604090206003810154600160a060020a0316611da25780600401543414611da25760405160e560020a62461bcd02815260206004820152601560248201527f4c6f616e20616d6f756e74206e6f7420657861637400000000000000000000006044820152606401610979565b600881015460038201546004830154611dd0923392600160a060020a036101009092048216929116906129c0565b60098101805473ffffffffffffffffffffffffffffffffffffffff1916331790556007810154611e0b42611e0583603c61298c565b90612916565b600683015560088201805460ff19166001908117909155336000908152600c6020526040902054611e3b91612916565b336000818152600c602090815260409182902093909355600385015460048601546005870154600688015484518a815296870195909552600160a060020a03909216928501929092526060840191909152608083015260a08201527f873c2e990e36955ded4605af1422f36b25a935eca109df3743cfb4ed2627b8fe9060c001611370565b6000818152600a60205260409020600901548190600160a060020a03163314611f2e5760405160e560020a62461bcd02815260206004820152601460248201527f53656e646572206973206e6f74206c656e6465720000000000000000000000006044820152606401610979565b60026001541415611f545760405160e560020a62461bcd02815260040161097990613656565b600260019081556000838152600a602052604090206008015460ff166002811115611f925760e060020a634e487b7102600052602160045260246000fd5b14611fe25760405160e560020a62461bcd02815260206004820152601c60248201527f4c6f616e20636f76656e616e74206973206e6f74206c6f636b65642e000000006044820152606401610979565b6000828152600b60205260409020600201546120695760405160e560020a62461bcd02815260206004820152602660248201527f5468657265206973206e6f2070726f706f73616c20666f72207468697320636f60448201527f76656e616e7400000000000000000000000000000000000000000000000000006064820152608401610979565b6000828152600a60209081526040808320600b90925290912060018101546005830154612097908290612916565b600584019081556000868152600b60209081526040808320600290810154600689019081559087019390935592549154835189815291820192909252918201527f4e26d2058422e671478446da4522b7c1527f240c0b68519a064219769b062dce90606001610f09565b600054600160a060020a0316331461212e5760405160e560020a62461bcd028152600401610979906135ea565b6121386000612b96565b565b606060006121486002612bf3565b905060008167ffffffffffffffff8111156121765760e060020a634e487b7102600052604160045260246000fd5b60405190808252806020026020018201604052801561219f578160200160208202803683370190505b50905060005b82811015612205576121b8600282612bfd565b8282815181106121db5760e060020a634e487b7102600052603260045260246000fd5b600160a060020a0390921660209283029190910190910152806121fd81613741565b9150506121a5565b5092915050565b6060600061221960095490565b905060008167ffffffffffffffff8111156122475760e060020a634e487b7102600052604160045260246000fd5b60405190808252806020026020018201604052801561228057816020015b61226d61310a565b8152602001906001900390816122655790505b5090506000805b838110156123ec576000818152600a6020908152604091829020825161018081018452815481526001820154600160a060020a0390811693820193909352600280830154948201949094526003820154909216606083015260048101546080830152600581015460a0830152600681015460c0830152600781015460e083015260088101549192909161010084019160ff9091169081111561233c5760e060020a634e487b7102600052602160045260246000fd5b600281111561235e5760e060020a634e487b7102600052602160045260246000fd5b815260088201546101009004600160a060020a039081166020830152600990920154918216604082015260a060020a90910460ff16151560609091015283518490849081106123c05760e060020a634e487b7102600052603260045260246000fd5b602002602001018190525081806123d690613741565b92505080806123e490613741565b915050612287565b50909392505050565b60006124018383612922565b9392505050565b61241061310a565b61243460405180606001604052806000815260200160008152602001600081525090565b6000838152600a60209081526040808320815161018081018352815481526001820154600160a060020a0390811694820194909452600280830154938201939093526003820154909316606084015260048101546080840152600581015460a0840152600681015460c0840152600781015460e08401526008810154909161010084019160ff16908111156124dc5760e060020a634e487b7102600052602160045260246000fd5b60028111156124fe5760e060020a634e487b7102600052602160045260246000fd5b815260088201546101009004600160a060020a0390811660208084019190915260099093015490811660408084019190915260a060020a90910460ff1615156060928301526000978852600b8352968790208751918201885280548252600181015492820192909252600290910154958101959095529492505050565b6000858152600a602052604090206008015485906101009004600160a060020a031633146125be5760405160e560020a62461bcd0281526004016109799061357c565b600260015414156125e45760405160e560020a62461bcd02815260040161097990613656565b6002600155600080878152600a602052604090206008015460ff1660028111156126215760e060020a634e487b7102600052602160045260246000fd5b146126415760405160e560020a62461bcd028152600401610979906135b3565b6000868152600a602090815260409182902060038101805473ffffffffffffffffffffffffffffffffffffffff1916600160a060020a038a1690811790915560048201889055600582018790556007820186905583518a81529283015291810186905260608101859052608081018490527ff9446b7a84a28ecf6763156215f0e6d3497ffb8c67b25c2c90c6c7afdbefe3e39060a00160405180910390a15050600180555050505050565b600854600160a060020a031633146127195760405160e560020a62461bcd0281526004016109799061361f565b611ba1600482612c09565b606060006127326004612c1e565b905060008167ffffffffffffffff8111156127605760e060020a634e487b7102600052604160045260246000fd5b6040519080825280602002602001820160405280156127a557816020015b604080518082019091526000808252602082015281526020019060019003908161277e5790505b50905060005b82811015612205576000806127c1600484612c29565b91509150604051806040016040528083600160a060020a03168152602001828152508484815181106128065760e060020a634e487b7102600052603260045260246000fd5b60200260200101819052505050808061281e90613741565b9150506127ab565b600854600160a060020a031633146128535760405160e560020a62461bcd0281526004016109799061361f565b611ba1600282612c47565b600054600160a060020a0316331461288b5760405160e560020a62461bcd028152600401610979906135ea565b600160a060020a03811661290a5760405160e560020a62461bcd02815260206004820152602660248201527f4f776e61626c653a206e6577206f776e657220697320746865207a65726f206160448201527f64647265737300000000000000000000000000000000000000000000000000006064820152608401610979565b61291381612b96565b50565b600061240182846136d0565b6040805180820190915260008082526020820181905290612944600485612c5c565b6020830152158015825261295d57602001519050610f29565b612968600484612c5c565b6020830152158015825261298157602001519050610f29565b505060075492915050565b6000612401828461370b565b600061240182846136e8565b60006129af83612c74565b801561240157506124018383612cd5565b600160a060020a038216612a0a57604051600160a060020a0384169082156108fc029083906000818181858888f19350505050158015612a04573d6000803e3d6000fd5b50612b3c565b600160a060020a0384163014612a9f5760405160e060020a6323b872dd028152600160a060020a038316906323b872dd90612a4d90879087908690600401613470565b602060405180830381600087803b158015612a6757600080fd5b505af1158015612a7b573d6000803e3d6000fd5b505050506040513d601f19601f82011682018060405250810190612a0491906132a6565b6040517fa9059cbb000000000000000000000000000000000000000000000000000000008152600160a060020a0384811660048301526024820183905283169063a9059cbb90604401602060405180830381600087803b158015612b0257600080fd5b505af1158015612b16573d6000803e3d6000fd5b505050506040513d601f19601f82011682018060405250810190612b3a91906132a6565b505b50505050565b6000612401828461372a565b600061240183600160a060020a038416612e01565b6000612b7984600160a060020a03851684612e74565b949350505050565b600061240183600160a060020a038416612e91565b60008054600160a060020a0383811673ffffffffffffffffffffffffffffffffffffffff19831681178455604051919092169283917f8be0079c531659141344cd1fd0a4f28419497f9722a3daafe3b4186f6b6457e09190a35050565b6000610f29825490565b60006124018383612fb7565b600061240183600160a060020a038416612ff2565b6000610f298261300f565b6000808080612c38868661301a565b909450925050505b9250929050565b600061240183600160a060020a038416613045565b6000808080612c3886600160a060020a038716613094565b6000612ca0827f01ffc9a700000000000000000000000000000000000000000000000000000000612cd5565b8015610f295750612cce827bffffffffffffffffffffffffffffffffffffffffffffffffffffffff19612cd5565b1592915050565b604080517bffffffffffffffffffffffffffffffffffffffffffffffffffffffff19831660248083019190915282518083039091018152604490910182526020810180517bffffffffffffffffffffffffffffffffffffffffffffffffffffffff167f01ffc9a70000000000000000000000000000000000000000000000000000000017905290516000919082908190600160a060020a0387169061753090612d7f908690613437565b6000604051808303818686fa925050503d8060008114612dbb576040519150601f19603f3d011682016040523d82523d6000602084013e612dc0565b606091505b5091509150602081511015612ddb5760009350505050610f29565b818015612df7575080806020019051810190612df791906132a6565b9695505050505050565b600081815260028301602052604081205480151580612e255750612e2584846130ce565b6124015760405160e560020a62461bcd02815260206004820152601e60248201527f456e756d657261626c654d61703a206e6f6e6578697374656e74206b657900006044820152606401610979565b60008281526002840160205260408120829055612b7984846130da565b60008181526001830160205260408120548015612fad576000612eb560018361372a565b8554909150600090612ec99060019061372a565b9050818114612f50576000866000018281548110612efa5760e060020a634e487b7102600052603260045260246000fd5b9060005260206000200154905080876000018481548110612f2e5760e060020a634e487b7102600052603260045260246000fd5b6000918252602080832090910192909255918252600188019052604090208390555b8554869080612f725760e060020a634e487b7102600052603160045260246000fd5b600190038181906000526020600020016000905590558560010160008681526020019081526020016000206000905560019350505050610f29565b6000915050610f29565b6000826000018281548110612fdf5760e060020a634e487b7102600052603260045260246000fd5b9060005260206000200154905092915050565b6000818152600283016020526040812081905561240183836130e6565b6000610f2982612bf3565b600080806130288585612bfd565b600081815260029690960160205260409095205494959350505050565b600081815260018301602052604081205461308c57508154600181810184556000848152602080822090930184905584548482528286019093526040902091909155610f29565b506000610f29565b60008181526002830160205260408120548190806130c3576130b685856130ce565b925060009150612c409050565b600192509050612c40565b600061240183836130f2565b60006124018383613045565b60006124018383612e91565b60008181526001830160205260408120541515612401565b604051806101800160405280600081526020016000600160a060020a03168152602001600081526020016000600160a060020a0316815260200160008152602001600081526020016000815260200160008152602001600060028111156131845760e060020a634e487b7102600052602160045260246000fd5b81526000602082018190526040820181905260609091015290565b6000602082840312156131b0578081fd5b813561240181613775565b600080604083850312156131cd578081fd5b82356131d881613775565b915060208301356131e881613775565b809150509250929050565b60008060408385031215613205578182fd5b823561321081613775565b946020939093013593505050565b60008060408385031215613230578182fd5b825161323b81613775565b6020939093015192949293505050565b60008060008060008060c08789031215613263578182fd5b863561326e81613775565b955060208701359450604087013561328581613775565b959894975094956060810135955060808101359460a0909101359350915050565b6000602082840312156132b7578081fd5b81518015158114612401578182fd5b6000602082840312156132d7578081fd5b5035919050565b600080600080600060a086880312156132f5578081fd5b85359450602086013561330781613775565b94979496505050506040830135926060810135926080909101359150565b600080600060608486031215613339578283fd5b505081359360208301359350604090920135919050565b600381106133715760e060020a634e487b7102600052602160045260246000fd5b9052565b8051825260208101516133936020840182600160a060020a03169052565b506040810151604083015260608101516133b86060840182600160a060020a03169052565b506080810151608083015260a081015160a083015260c081015160c083015260e081015160e0830152610100808201516133f482850182613350565b505061012081810151600160a060020a03811684830152505061014081810151600160a060020a0381168483015250506101608181015180151584830152612b3c565b60008251815b81811015613457576020818601810151858301520161343d565b818111156134655782828501525b509190910192915050565b600160a060020a039384168152919092166020820152604081019190915260600190565b6020808252825182820181905260009190848201906040850190845b818110156134d5578351600160a060020a0316835292840192918401916001016134b0565b50909695505050505050565b6020808252825182820181905260009190848201906040850190845b818110156134d557613510838551613375565b9284019261018092909201916001016134fd565b602080825282518282018190526000919060409081850190868401855b8281101561356f5781518051600160a060020a03168552860151868501529284019290850190600101613541565b5091979650505050505050565b60208082526016908201527f53656e646572206973206e6f7420626f72726f77657200000000000000000000604082015260600190565b6020808252601d908201527f4c6f616e20636f76656e616e74206973206e6f74206c697374696e672e000000604082015260600190565b6020808252818101527f4f776e61626c653a2063616c6c6572206973206e6f7420746865206f776e6572604082015260600190565b60208082526014908201527f4d7573742062652068756220636f6e7472616374000000000000000000000000604082015260600190565b6020808252601f908201527f5265656e7472616e637947756172643a207265656e7472616e742063616c6c00604082015260600190565b6101808101610f298284613375565b6101e081016136ab8285613375565b825161018083015260208301516101a083015260408301516101c08301529392505050565b600082198211156136e3576136e361375c565b500190565b6000826137065760e060020a634e487b710281526012600452602481fd5b500490565b60008160001904831182151516156137255761372561375c565b500290565b60008282101561373c5761373c61375c565b500390565b60006000198214156137555761375561375c565b5060010190565b60e060020a634e487b7102600052601160045260246000fd5b600160a060020a038116811461291357600080fdfea26469706673582212205fa740f83aed18aeaa464f8bf9463fa90fb324fbe3ed19378b3864cf2d64367b64736f6c63430008040033",
  "immutableReferences": {},
  "source": "// SPDX-License-Identifier: MIT\r\npragma solidity ^0.8.4;\r\n\r\nimport \"@openzeppelin/contracts/utils/Counters.sol\";\r\nimport \"@openzeppelin/contracts/token/ERC721/ERC721.sol\";\r\nimport \"@openzeppelin/contracts/token/ERC721/IERC721.sol\";\r\nimport \"@openzeppelin/contracts/interfaces/IERC2981.sol\";\r\nimport \"@openzeppelin/contracts/token/ERC20/IERC20.sol\";\r\nimport \"@openzeppelin/contracts/utils/introspection/ERC165Checker.sol\";\r\nimport \"@openzeppelin/contracts/utils/math/SafeMath.sol\";\r\nimport \"./HubChild.sol\";\r\n\r\ncontract NFTLoan is HubChild {\r\n    using Counters for Counters.Counter;\r\n    using SafeMath for uint256;\r\n    Counters.Counter private _itemCount;\r\n\r\n    mapping(uint256 => Covenant) private _idToCovenant;\r\n    mapping(uint256 => Proposal) private _idToProposal;\r\n    mapping(address => uint256) private _loanAccepted;\r\n    mapping(address => uint256) private _loanLiquidated;\r\n    \r\n    bytes4 public constant ERC721INTERFACE = type(IERC721).interfaceId;\r\n    bytes4 public constant ERC2981INTERFACE = type(IERC2981).interfaceId;\r\n\r\n    enum CovenantStatus {\r\n        LISTING,\r\n        LOCKED,\r\n        ENDED\r\n    }\r\n\r\n    struct Covenant {\r\n        uint256 itemId;\r\n        address nftContract;\r\n        uint256 tokenId;\r\n        address ftContract;\r\n        uint256 amount;\r\n        uint256 profit;\r\n        uint256 timeExpired;\r\n        uint256 timeDays;\r\n        CovenantStatus status;\r\n        address borrower;\r\n        address lender;\r\n        bool isLatest;\r\n    }\r\n\r\n    struct Proposal {\r\n        uint256 itemId;\r\n        uint256 profit;\r\n        uint256 timeExpired;\r\n    }\r\n\r\n    event CovenantListed(\r\n        uint256 itemId,\r\n        address nftContract,\r\n        uint256 tokenId,\r\n        address ftContract,\r\n        uint256 amount,\r\n        uint256 profit,\r\n        uint256 timeDays,\r\n        uint8 status,\r\n        address borrower,\r\n        address lender\r\n    );\r\n\r\n    event CovenantUnlisted(uint256 itemId);\r\n\r\n    event CovenantEdited(\r\n        uint256 itemId,\r\n        address ftContract,\r\n        uint256 amount,\r\n        uint256 profit,\r\n        uint256 timeDays\r\n    );\r\n\r\n    event CovenantPayOff(\r\n        uint256 itemId,\r\n        address nftContract,\r\n        uint256 tokenId,\r\n        address ftContract,\r\n        uint256 amount,\r\n        uint256 profit\r\n    );\r\n\r\n    event CovenantLiquidate(\r\n        uint256 itemId,\r\n        address nftContract,\r\n        uint256 tokenId\r\n    );\r\n\r\n    event CovenantAccept(\r\n        uint256 itemId,\r\n        address lender,\r\n        address ftContract,\r\n        uint256 amount,\r\n        uint256 profit,\r\n        uint256 timeExpired\r\n    );\r\n\r\n    event ProposalEdited(uint256 itemId, uint256 profit, uint256 timeExpired);\r\n\r\n    event ProposalAccepted(uint256 itemId, uint256 profit, uint256 timeExpired);\r\n\r\n    constructor(uint256 fee, address hub) {\r\n        RATE_FEE = fee;\r\n        setHub(hub);\r\n    }\r\n\r\n    modifier onlyBorrower(uint256 itemId) {\r\n        require(\r\n            _idToCovenant[itemId].borrower == msg.sender,\r\n            \"Sender is not borrower\"\r\n        );\r\n        _;\r\n    }\r\n\r\n    modifier onlyLender(uint256 itemId) {\r\n        require(\r\n            _idToCovenant[itemId].lender == msg.sender,\r\n            \"Sender is not lender\"\r\n        );\r\n        _;\r\n    }\r\n\r\n    // List the NFT on the marketplace\r\n    function listCovenant(\r\n        address nftContract,\r\n        uint256 tokenId,\r\n        address ftContract,\r\n        uint256 amount,\r\n        uint256 profit,\r\n        uint256 timeDays\r\n    ) public nonReentrant {\r\n        require(\r\n            amount > 0 && profit > 0,\r\n            \"Loan amount and profit must be at least 1\"\r\n        );\r\n        require(\r\n            ERC165Checker.supportsInterface(nftContract, ERC721INTERFACE),\r\n            \"Contract needs to be ERC721\"\r\n        );\r\n\r\n        IERC721(nftContract).transferFrom(msg.sender, address(this), tokenId);\r\n\r\n        uint256 itemId = _itemCount.current();\r\n        _idToCovenant[itemId] = Covenant(\r\n            itemId,\r\n            nftContract,\r\n            tokenId,\r\n            ftContract,\r\n            amount,\r\n            profit,\r\n            0,\r\n            timeDays,\r\n            CovenantStatus.LISTING,\r\n            msg.sender,\r\n            address(0),\r\n            true\r\n        );\r\n\r\n        _idToProposal[itemId] = Proposal(itemId, 0, 0);\r\n\r\n        emit CovenantListed(\r\n            _itemCount.current(),\r\n            nftContract,\r\n            tokenId,\r\n            ftContract,\r\n            amount,\r\n            profit,\r\n            timeDays,\r\n            uint8(CovenantStatus.LISTING),\r\n            msg.sender,\r\n            address(0)\r\n        );\r\n        _itemCount.increment();\r\n    }\r\n\r\n    function endListedItem(uint256 itemId)\r\n        external\r\n        onlyBorrower(itemId)\r\n        nonReentrant\r\n    {\r\n        require(\r\n            _idToCovenant[itemId].status == CovenantStatus.LISTING,\r\n            \"Loan covenant is not listing.\"\r\n        );\r\n        Covenant storage loanCovenant = _idToCovenant[itemId];\r\n        IERC721(loanCovenant.nftContract).transferFrom(\r\n            address(this),\r\n            msg.sender,\r\n            loanCovenant.tokenId\r\n        );\r\n        loanCovenant.status = CovenantStatus.ENDED;\r\n        loanCovenant.isLatest = false;\r\n        emit CovenantUnlisted(itemId);\r\n    }\r\n\r\n    function editListingItem(\r\n        uint256 itemId,\r\n        address ftContract,\r\n        uint256 amount,\r\n        uint256 profit,\r\n        uint256 timeDays\r\n    ) external onlyBorrower(itemId) nonReentrant {\r\n        require(\r\n            _idToCovenant[itemId].status == CovenantStatus.LISTING,\r\n            \"Loan covenant is not listing.\"\r\n        );\r\n        Covenant storage loanCovenant = _idToCovenant[itemId];\r\n\r\n        loanCovenant.ftContract = ftContract;\r\n        loanCovenant.amount = amount;\r\n        loanCovenant.profit = profit;\r\n        loanCovenant.timeDays = timeDays;\r\n        emit CovenantEdited(itemId, ftContract, amount, profit, timeDays);\r\n    }\r\n\r\n    function editProposal(\r\n        uint256 itemId,\r\n        uint256 profit,\r\n        uint256 timeAdd\r\n    ) external onlyBorrower(itemId) nonReentrant {\r\n        Proposal storage proposal = _idToProposal[itemId];\r\n        require(\r\n            _idToCovenant[itemId].status == CovenantStatus.LOCKED,\r\n            \"Loan covenant is not locked.\"\r\n        );\r\n\r\n        proposal.profit = profit;\r\n        proposal.timeExpired = _idToCovenant[itemId].timeExpired.add(\r\n            timeAdd.mul(1 minutes)\r\n        );\r\n        emit ProposalEdited(itemId, profit, proposal.timeExpired);\r\n    }\r\n\r\n    function acceptProposal(uint256 itemId)\r\n        external\r\n        onlyLender(itemId)\r\n        nonReentrant\r\n    {\r\n        require(\r\n            _idToCovenant[itemId].status == CovenantStatus.LOCKED,\r\n            \"Loan covenant is not locked.\"\r\n        );\r\n        require(\r\n            _idToProposal[itemId].timeExpired != 0,\r\n            \"There is no proposal for this covenant\"\r\n        );\r\n\r\n        Covenant storage loanCovenant = _idToCovenant[itemId];\r\n        Proposal storage proposal = _idToProposal[itemId];\r\n        uint256 newProfit = proposal.profit;\r\n        loanCovenant.profit = newProfit.add(loanCovenant.profit);\r\n        loanCovenant.timeExpired = _idToProposal[itemId].timeExpired;\r\n        proposal.timeExpired = 0;\r\n        emit ProposalAccepted(\r\n            itemId,\r\n            loanCovenant.profit,\r\n            loanCovenant.timeExpired\r\n        );\r\n    }\r\n\r\n    function acceptCovenant(uint256 itemId) public payable nonReentrant {\r\n        require(\r\n            _idToCovenant[itemId].borrower != msg.sender,\r\n            \"Sender must be not borrower\"\r\n        );\r\n        require(\r\n            _idToCovenant[itemId].borrower != address(0),\r\n            \"Loan covenant is not existed.\"\r\n        );\r\n        require(\r\n            _idToCovenant[itemId].lender == address(0) &&\r\n                _idToCovenant[itemId].status == CovenantStatus.LISTING,\r\n            \"Loan covenant is not listing.\"\r\n        );\r\n        Covenant storage loanCovenant = _idToCovenant[itemId];\r\n\r\n        if (loanCovenant.ftContract == address(0)) {\r\n            require(msg.value == loanCovenant.amount, \"Loan amount not exact\");\r\n        }\r\n        sendAssets(\r\n            msg.sender,\r\n            loanCovenant.borrower,\r\n            loanCovenant.ftContract,\r\n            loanCovenant.amount\r\n        );\r\n\r\n        loanCovenant.lender = msg.sender;\r\n        uint256 timeAdd = loanCovenant.timeDays;\r\n        loanCovenant.timeExpired = timeAdd.mul(1 minutes).add(block.timestamp);\r\n        loanCovenant.status = CovenantStatus.LOCKED;\r\n        _loanAccepted[msg.sender] = _loanAccepted[msg.sender].add(1);\r\n        emit CovenantAccept(\r\n            itemId,\r\n            msg.sender,\r\n            loanCovenant.ftContract,\r\n            loanCovenant.amount,\r\n            loanCovenant.profit,\r\n            loanCovenant.timeExpired\r\n        );\r\n    }\r\n\r\n    function payOff(uint256 itemId)\r\n        external\r\n        payable\r\n        onlyBorrower(itemId)\r\n        nonReentrant\r\n    {\r\n        require(\r\n            _idToCovenant[itemId].status == CovenantStatus.LOCKED &&\r\n                _idToCovenant[itemId].timeExpired > block.timestamp,\r\n            \"Time is up. Contact lender for extend time.\"\r\n        );\r\n        Covenant storage loanCovenant = _idToCovenant[itemId];\r\n        uint256 totalPaid = loanCovenant.amount;\r\n        totalPaid = totalPaid.add(loanCovenant.profit);\r\n        uint256 fee = _feeOf(msg.sender, loanCovenant.ftContract);\r\n        fee = loanCovenant.profit.mul(fee).div(DENOMINATOR);\r\n        if (loanCovenant.ftContract == address(0)) {\r\n            require(\r\n                msg.value == totalPaid,\r\n                \"You must add exact amount and profit.\"\r\n            );\r\n        }\r\n        if (\r\n            ERC165Checker.supportsInterface(\r\n                loanCovenant.nftContract,\r\n                ERC2981INTERFACE\r\n            )\r\n        ) {\r\n            (address creator, uint256 royaltyAmount) = IERC2981(\r\n                loanCovenant.nftContract\r\n            ).royaltyInfo(loanCovenant.tokenId, loanCovenant.profit);\r\n            if (royaltyAmount > 0) {\r\n                sendAssets(\r\n                    msg.sender,\r\n                    creator,\r\n                    loanCovenant.ftContract,\r\n                    royaltyAmount\r\n                );\r\n                sendAssets(\r\n                    msg.sender,\r\n                    loanCovenant.lender,\r\n                    loanCovenant.ftContract,\r\n                    totalPaid.sub(royaltyAmount.add(fee))\r\n                );\r\n            } else {\r\n                sendAssets(\r\n                    msg.sender,\r\n                    loanCovenant.lender,\r\n                    loanCovenant.ftContract,\r\n                    totalPaid.sub(fee)\r\n                );\r\n            }\r\n        } else {\r\n            sendAssets(\r\n                msg.sender,\r\n                loanCovenant.lender,\r\n                loanCovenant.ftContract,\r\n                totalPaid.sub(fee)\r\n            );\r\n        }\r\n\r\n        sendAssets(msg.sender, owner(), loanCovenant.ftContract, fee);\r\n\r\n        IERC721(loanCovenant.nftContract).transferFrom(\r\n            address(this),\r\n            msg.sender,\r\n            loanCovenant.tokenId\r\n        );\r\n        loanCovenant.status = CovenantStatus.ENDED;\r\n        loanCovenant.isLatest = false;\r\n        emit CovenantPayOff(\r\n            itemId,\r\n            loanCovenant.nftContract,\r\n            loanCovenant.tokenId,\r\n            loanCovenant.ftContract,\r\n            loanCovenant.amount,\r\n            loanCovenant.profit\r\n        );\r\n    }\r\n\r\n    function liquidate(uint256 itemId)\r\n        external\r\n        payable\r\n        onlyLender(itemId)\r\n        nonReentrant\r\n    {\r\n        require(\r\n            _idToCovenant[itemId].status == CovenantStatus.LOCKED &&\r\n                _idToCovenant[itemId].timeExpired < block.timestamp,\r\n            \"Not time for liquidate covenant\"\r\n        );\r\n        Covenant storage loanCovenant = _idToCovenant[itemId];\r\n        IERC721(loanCovenant.nftContract).transferFrom(\r\n            address(this),\r\n            msg.sender,\r\n            loanCovenant.tokenId\r\n        );\r\n        loanCovenant.status = CovenantStatus.ENDED;\r\n        loanCovenant.isLatest = false;\r\n        _loanLiquidated[msg.sender] = _loanLiquidated[msg.sender].add(1);\r\n        emit CovenantLiquidate(\r\n            itemId,\r\n            loanCovenant.nftContract,\r\n            loanCovenant.tokenId\r\n        );\r\n    }\r\n\r\n    function getCovenants() public view returns (Covenant[] memory) {\r\n        uint256 covenantCount = _itemCount.current();\r\n\r\n        Covenant[] memory covenants = new Covenant[](covenantCount);\r\n        uint256 covenantIndex = 0;\r\n        for (uint256 i = 0; i < covenantCount; i++) {\r\n            covenants[covenantIndex] = _idToCovenant[i];\r\n            covenantIndex++;\r\n        }\r\n        return covenants;\r\n    }\r\n\r\n    function getCovenantsByAddress(address addr)\r\n        public\r\n        view\r\n        returns (Covenant[] memory)\r\n    {\r\n        uint256 covenantCount = _itemCount.current();\r\n        uint256 myListedCovenantCount = 0;\r\n        for (uint256 i = 0; i < covenantCount; i++) {\r\n            if (\r\n                _idToCovenant[i].borrower == addr ||\r\n                _idToCovenant[i].lender == addr\r\n            ) {\r\n                myListedCovenantCount++;\r\n            }\r\n        }\r\n\r\n        Covenant[] memory covenants = new Covenant[](covenantCount);\r\n        uint256 covenantIndex = 0;\r\n        for (uint256 i = 0; i < myListedCovenantCount; i++) {\r\n            if (\r\n                _idToCovenant[i].borrower == addr ||\r\n                _idToCovenant[i].lender == addr\r\n            ) {\r\n                covenants[covenantIndex] = _idToCovenant[i];\r\n                covenantIndex++;\r\n            }\r\n        }\r\n        return covenants;\r\n    }\r\n\r\n    function getCovenant(uint256 itemId)\r\n        public\r\n        view\r\n        returns (Covenant memory, Proposal memory)\r\n    {\r\n        Covenant memory covenant = _idToCovenant[itemId];\r\n        Proposal memory proposal = _idToProposal[itemId];\r\n        return (covenant, proposal);\r\n    }\r\n\r\n    function getUserHealth(address addr)\r\n        public\r\n        view\r\n        returns (uint256, uint256)\r\n    {\r\n        return (_loanAccepted[addr], _loanLiquidated[addr]);\r\n    }\r\n\r\n    function getLoanData(address contractAddress, uint256 tokenId)\r\n        public\r\n        view\r\n        returns (Covenant memory)\r\n    {\r\n        Covenant memory covenant;\r\n        uint256 cCount = _itemCount.current();\r\n        for (uint256 i = 0; i < cCount; i++) {\r\n            if (\r\n                _idToCovenant[i].nftContract == contractAddress &&\r\n                _idToCovenant[i].tokenId == tokenId &&\r\n                _idToCovenant[i].isLatest\r\n            ) {\r\n                covenant = _idToCovenant[i];\r\n                break;\r\n            }\r\n        }\r\n\r\n        return covenant;\r\n    }\r\n\r\n    function sendAssets(\r\n        address from,\r\n        address to,\r\n        address ftToken,\r\n        uint256 value\r\n    ) private {\r\n        if (ftToken == address(0)) {\r\n            payable(to).transfer(value);\r\n        } else {\r\n            if (from != address(this)) {\r\n                IERC20(ftToken).transferFrom(from, to, value);\r\n            } else {\r\n                IERC20(ftToken).transfer(to, value);\r\n            }\r\n        }\r\n    }\r\n}\r\n",
  "sourcePath": "G:\\Learning\\Project\\source\\picasarts-contracts\\contracts\\NFTLoan.sol",
  "compiler": {
    "name": "solc",
    "version": "0.8.4+commit.c7e474f2.Emscripten.clang"
  },
  "schemaVersion": "3.4.10",
  "updatedAt": "2023-02-24T17:19:21.445Z",
  "devdoc": {
    "kind": "dev",
    "methods": {
      "owner()": {
        "details": "Returns the address of the current owner."
      },
      "renounceOwnership()": {
        "details": "Leaves the contract without owner. It will not be possible to call `onlyOwner` functions anymore. Can only be called by the current owner. NOTE: Renouncing ownership will leave the contract without an owner, thereby removing any functionality that is only available to the owner."
      },
      "transferOwnership(address)": {
        "details": "Transfers ownership of the contract to a new account (`newOwner`). Can only be called by the current owner."
      }
    },
    "version": 1
  },
  "userdoc": {
    "kind": "user",
    "methods": {},
    "version": 1
  }
}