{
  "contractName": "PNFT",
  "abi": [
    {
      "inputs": [
        {
          "internalType": "string",
          "name": "name",
          "type": "string"
        },
        {
          "internalType": "string",
          "name": "symbol",
          "type": "string"
        },
        {
          "internalType": "address",
          "name": "owner",
          "type": "address"
        }
      ],
      "stateMutability": "nonpayable",
      "type": "constructor"
    },
    {
      "anonymous": false,
      "inputs": [
        {
          "indexed": true,
          "internalType": "address",
          "name": "owner",
          "type": "address"
        },
        {
          "indexed": true,
          "internalType": "address",
          "name": "approved",
          "type": "address"
        },
        {
          "indexed": true,
          "internalType": "uint256",
          "name": "tokenId",
          "type": "uint256"
        }
      ],
      "name": "Approval",
      "type": "event"
    },
    {
      "anonymous": false,
      "inputs": [
        {
          "indexed": true,
          "internalType": "address",
          "name": "owner",
          "type": "address"
        },
        {
          "indexed": true,
          "internalType": "address",
          "name": "operator",
          "type": "address"
        },
        {
          "indexed": false,
          "internalType": "bool",
          "name": "approved",
          "type": "bool"
        }
      ],
      "name": "ApprovalForAll",
      "type": "event"
    },
    {
      "anonymous": false,
      "inputs": [
        {
          "indexed": true,
          "internalType": "address",
          "name": "previousOwner",
          "type": "address"
        },
        {
          "indexed": true,
          "internalType": "address",
          "name": "newOwner",
          "type": "address"
        }
      ],
      "name": "OwnershipTransferred",
      "type": "event"
    },
    {
      "anonymous": false,
      "inputs": [
        {
          "indexed": true,
          "internalType": "address",
          "name": "from",
          "type": "address"
        },
        {
          "indexed": true,
          "internalType": "address",
          "name": "to",
          "type": "address"
        },
        {
          "indexed": true,
          "internalType": "uint256",
          "name": "tokenId",
          "type": "uint256"
        }
      ],
      "name": "Transfer",
      "type": "event"
    },
    {
      "anonymous": false,
      "inputs": [
        {
          "indexed": true,
          "internalType": "uint256",
          "name": "tokenId",
          "type": "uint256"
        },
        {
          "indexed": true,
          "internalType": "address",
          "name": "user",
          "type": "address"
        },
        {
          "indexed": false,
          "internalType": "uint96",
          "name": "expires",
          "type": "uint96"
        }
      ],
      "name": "UpdateUser",
      "type": "event"
    },
    {
      "inputs": [
        {
          "internalType": "address",
          "name": "to",
          "type": "address"
        },
        {
          "internalType": "uint256",
          "name": "tokenId",
          "type": "uint256"
        }
      ],
      "name": "approve",
      "outputs": [],
      "stateMutability": "nonpayable",
      "type": "function"
    },
    {
      "inputs": [
        {
          "internalType": "address",
          "name": "owner",
          "type": "address"
        }
      ],
      "name": "balanceOf",
      "outputs": [
        {
          "internalType": "uint256",
          "name": "",
          "type": "uint256"
        }
      ],
      "stateMutability": "view",
      "type": "function"
    },
    {
      "inputs": [
        {
          "internalType": "uint256",
          "name": "tokenId",
          "type": "uint256"
        }
      ],
      "name": "burn",
      "outputs": [],
      "stateMutability": "nonpayable",
      "type": "function"
    },
    {
      "inputs": [
        {
          "internalType": "uint256",
          "name": "tokenId",
          "type": "uint256"
        }
      ],
      "name": "getApproved",
      "outputs": [
        {
          "internalType": "address",
          "name": "",
          "type": "address"
        }
      ],
      "stateMutability": "view",
      "type": "function"
    },
    {
      "inputs": [
        {
          "internalType": "address",
          "name": "owner",
          "type": "address"
        },
        {
          "internalType": "address",
          "name": "operator",
          "type": "address"
        }
      ],
      "name": "isApprovedForAll",
      "outputs": [
        {
          "internalType": "bool",
          "name": "",
          "type": "bool"
        }
      ],
      "stateMutability": "view",
      "type": "function"
    },
    {
      "inputs": [],
      "name": "name",
      "outputs": [
        {
          "internalType": "string",
          "name": "",
          "type": "string"
        }
      ],
      "stateMutability": "view",
      "type": "function"
    },
    {
      "inputs": [],
      "name": "owner",
      "outputs": [
        {
          "internalType": "address",
          "name": "",
          "type": "address"
        }
      ],
      "stateMutability": "view",
      "type": "function"
    },
    {
      "inputs": [
        {
          "internalType": "uint256",
          "name": "tokenId",
          "type": "uint256"
        }
      ],
      "name": "ownerOf",
      "outputs": [
        {
          "internalType": "address",
          "name": "",
          "type": "address"
        }
      ],
      "stateMutability": "view",
      "type": "function"
    },
    {
      "inputs": [],
      "name": "renounceOwnership",
      "outputs": [],
      "stateMutability": "nonpayable",
      "type": "function"
    },
    {
      "inputs": [
        {
          "internalType": "uint256",
          "name": "_tokenId",
          "type": "uint256"
        },
        {
          "internalType": "uint256",
          "name": "_salePrice",
          "type": "uint256"
        }
      ],
      "name": "royaltyInfo",
      "outputs": [
        {
          "internalType": "address",
          "name": "",
          "type": "address"
        },
        {
          "internalType": "uint256",
          "name": "",
          "type": "uint256"
        }
      ],
      "stateMutability": "view",
      "type": "function"
    },
    {
      "inputs": [
        {
          "internalType": "address",
          "name": "from",
          "type": "address"
        },
        {
          "internalType": "address",
          "name": "to",
          "type": "address"
        },
        {
          "internalType": "uint256",
          "name": "tokenId",
          "type": "uint256"
        }
      ],
      "name": "safeTransferFrom",
      "outputs": [],
      "stateMutability": "nonpayable",
      "type": "function"
    },
    {
      "inputs": [
        {
          "internalType": "address",
          "name": "from",
          "type": "address"
        },
        {
          "internalType": "address",
          "name": "to",
          "type": "address"
        },
        {
          "internalType": "uint256",
          "name": "tokenId",
          "type": "uint256"
        },
        {
          "internalType": "bytes",
          "name": "_data",
          "type": "bytes"
        }
      ],
      "name": "safeTransferFrom",
      "outputs": [],
      "stateMutability": "nonpayable",
      "type": "function"
    },
    {
      "inputs": [
        {
          "internalType": "address",
          "name": "operator",
          "type": "address"
        },
        {
          "internalType": "bool",
          "name": "approved",
          "type": "bool"
        }
      ],
      "name": "setApprovalForAll",
      "outputs": [],
      "stateMutability": "nonpayable",
      "type": "function"
    },
    {
      "inputs": [],
      "name": "symbol",
      "outputs": [
        {
          "internalType": "string",
          "name": "",
          "type": "string"
        }
      ],
      "stateMutability": "view",
      "type": "function"
    },
    {
      "inputs": [
        {
          "internalType": "uint256",
          "name": "index",
          "type": "uint256"
        }
      ],
      "name": "tokenByIndex",
      "outputs": [
        {
          "internalType": "uint256",
          "name": "",
          "type": "uint256"
        }
      ],
      "stateMutability": "view",
      "type": "function"
    },
    {
      "inputs": [
        {
          "internalType": "address",
          "name": "owner",
          "type": "address"
        },
        {
          "internalType": "uint256",
          "name": "index",
          "type": "uint256"
        }
      ],
      "name": "tokenOfOwnerByIndex",
      "outputs": [
        {
          "internalType": "uint256",
          "name": "",
          "type": "uint256"
        }
      ],
      "stateMutability": "view",
      "type": "function"
    },
    {
      "inputs": [],
      "name": "totalSupply",
      "outputs": [
        {
          "internalType": "uint256",
          "name": "",
          "type": "uint256"
        }
      ],
      "stateMutability": "view",
      "type": "function"
    },
    {
      "inputs": [
        {
          "internalType": "address",
          "name": "from",
          "type": "address"
        },
        {
          "internalType": "address",
          "name": "to",
          "type": "address"
        },
        {
          "internalType": "uint256",
          "name": "tokenId",
          "type": "uint256"
        }
      ],
      "name": "transferFrom",
      "outputs": [],
      "stateMutability": "nonpayable",
      "type": "function"
    },
    {
      "inputs": [
        {
          "internalType": "address",
          "name": "newOwner",
          "type": "address"
        }
      ],
      "name": "transferOwnership",
      "outputs": [],
      "stateMutability": "nonpayable",
      "type": "function"
    },
    {
      "inputs": [
        {
          "internalType": "address",
          "name": "to",
          "type": "address"
        },
        {
          "internalType": "string",
          "name": "uri",
          "type": "string"
        },
        {
          "internalType": "uint96",
          "name": "royaltyFeeNumerator",
          "type": "uint96"
        }
      ],
      "name": "safeMint",
      "outputs": [],
      "stateMutability": "nonpayable",
      "type": "function"
    },
    {
      "inputs": [
        {
          "internalType": "uint256",
          "name": "tokenId",
          "type": "uint256"
        },
        {
          "internalType": "address",
          "name": "user",
          "type": "address"
        },
        {
          "internalType": "uint96",
          "name": "expires",
          "type": "uint96"
        }
      ],
      "name": "setUser",
      "outputs": [],
      "stateMutability": "nonpayable",
      "type": "function"
    },
    {
      "inputs": [
        {
          "internalType": "uint256",
          "name": "tokenId",
          "type": "uint256"
        }
      ],
      "name": "userOf",
      "outputs": [
        {
          "internalType": "address",
          "name": "",
          "type": "address"
        }
      ],
      "stateMutability": "view",
      "type": "function"
    },
    {
      "inputs": [
        {
          "internalType": "uint256",
          "name": "tokenId",
          "type": "uint256"
        }
      ],
      "name": "userExpires",
      "outputs": [
        {
          "internalType": "uint96",
          "name": "",
          "type": "uint96"
        }
      ],
      "stateMutability": "view",
      "type": "function"
    },
    {
      "inputs": [
        {
          "internalType": "uint256",
          "name": "tokenId",
          "type": "uint256"
        }
      ],
      "name": "tokenURI",
      "outputs": [
        {
          "internalType": "string",
          "name": "",
          "type": "string"
        }
      ],
      "stateMutability": "view",
      "type": "function"
    },
    {
      "inputs": [
        {
          "internalType": "bytes4",
          "name": "interfaceId",
          "type": "bytes4"
        }
      ],
      "name": "supportsInterface",
      "outputs": [
        {
          "internalType": "bool",
          "name": "",
          "type": "bool"
        }
      ],
      "stateMutability": "view",
      "type": "function"
    }
  ],
  "bytecode": "0x60806040523480156200001157600080fd5b5060405162002b2738038062002b2783398101604081905262000034916200025e565b8251839083906200004d90600290602085019062000105565b5080516200006390600390602084019062000105565b5050506200009262000083620000af640100000000026401000000009004565b640100000000620000b3810204565b620000a681640100000000620000b3810204565b5050506200036c565b3390565b600d8054600160a060020a03838116600160a060020a0319831681179093556040519116919082907f8be0079c531659141344cd1fd0a4f28419497f9722a3daafe3b4186f6b6457e090600090a35050565b8280546200011390620002e7565b90600052602060002090601f01602090048101928262000137576000855562000182565b82601f106200015257805160ff191683800117855562000182565b8280016001018555821562000182579182015b828111156200018257825182559160200191906001019062000165565b506200019092915062000194565b5090565b5b8082111562000190576000815560010162000195565b600082601f830112620001bc578081fd5b81516001604060020a0380821115620001d957620001d96200033d565b604051601f8301601f19908116603f011681019082821181831017156200020457620002046200033d565b8160405283815260209250868385880101111562000220578485fd5b8491505b8382101562000243578582018301518183018401529082019062000224565b838211156200025457848385830101525b9695505050505050565b60008060006060848603121562000273578283fd5b83516001604060020a03808211156200028a578485fd5b6200029887838801620001ab565b94506020860151915080821115620002ae578384fd5b50620002bd86828701620001ab565b60408601519093509050600160a060020a0381168114620002dc578182fd5b809150509250925092565b600281046001821680620002fc57607f821691505b6020821081141562000337577f4e487b7100000000000000000000000000000000000000000000000000000000600052602260045260246000fd5b50919050565b7f4e487b7100000000000000000000000000000000000000000000000000000000600052604160045260246000fd5b6127ab806200037c6000396000f3fe608060405234801561001057600080fd5b5060043610610190576000357c0100000000000000000000000000000000000000000000000000000000900480636352211e116100fb578063a22cb465116100b4578063c87b56dd1161008e578063c87b56dd1461039a578063e985e9c5146103ad578063eaf05b16146103e9578063f2fde38b146103fc57600080fd5b8063a22cb46514610361578063b88d4fde14610374578063c2f1f14a1461038757600080fd5b80636352211e146102c857806370a08231146102db578063715018a6146102ee5780638da5cb5b146102f65780638fc88c481461030757806395d89b411461035957600080fd5b806323b872dd1161014d57806323b872dd146102375780632a55205a1461024a5780632f745c591461027c57806342842e0e1461028f57806342966c68146102a25780634f6ccce7146102b557600080fd5b806301ffc9a71461019557806306fdde03146101bd578063081812fc146101d2578063095ea7b3146101fd57806318160ddd146102125780631b2a61b714610224575b600080fd5b6101a86101a33660046123dd565b61040f565b60405190151581526020015b60405180910390f35b6101c5610453565b6040516101b49190612517565b6101e56101e0366004612415565b6104e5565b604051600160a060020a0390911681526020016101b4565b61021061020b3660046123b4565b610586565b005b600a545b6040519081526020016101b4565b610210610232366004612345565b6106be565b610210610245366004612257565b61072b565b61025d61025836600461245f565b610760565b60408051600160a060020a0390931683526020830191909152016101b4565b61021661028a3660046123b4565b61081b565b61021061029d366004612257565b6108c6565b6102106102b0366004612415565b6108e1565b6102166102c3366004612415565b61096b565b6101e56102d6366004612415565b610a23565b6102166102e936600461220b565b610ab1565b610210610b4e565b600d54600160a060020a03166101e5565b61033c610315366004612415565b6000908152600f602052604090205460a060020a90046bffffffffffffffffffffffff1690565b6040516bffffffffffffffffffffffff90911681526020016101b4565b6101c5610b87565b61021061036f36600461230b565b610b96565b610210610382366004612292565b610ba5565b6101e5610395366004612415565b610bda565b6101c56103a8366004612415565b610c2f565b6101a86103bb366004612225565b600160a060020a03918216600090815260076020908152604080832093909416825291909152205460ff1690565b6102106103f736600461242d565b610c3a565b61021061040a36600461220b565b610d2b565b6000600160e060020a031982167fa7c9261400000000000000000000000000000000000000000000000000000000148061044d575061044d82610de0565b92915050565b606060028054610462906126a7565b80601f016020809104026020016040519081016040528092919081815260200182805461048e906126a7565b80156104db5780601f106104b0576101008083540402835291602001916104db565b820191906000526020600020905b8154815290600101906020018083116104be57829003601f168201915b5050505050905090565b60006104f082610deb565b61056a5760405160e560020a62461bcd02815260206004820152602c60248201527f4552433732313a20617070726f76656420717565727920666f72206e6f6e657860448201527f697374656e7420746f6b656e000000000000000000000000000000000000000060648201526084015b60405180910390fd5b50600090815260066020526040902054600160a060020a031690565b600061059182610a23565b905080600160a060020a031683600160a060020a0316141561061e5760405160e560020a62461bcd02815260206004820152602160248201527f4552433732313a20617070726f76616c20746f2063757272656e74206f776e6560448201527f72000000000000000000000000000000000000000000000000000000000000006064820152608401610561565b33600160a060020a038216148061063a575061063a81336103bb565b6106af5760405160e560020a62461bcd02815260206004820152603860248201527f4552433732313a20617070726f76652063616c6c6572206973206e6f74206f7760448201527f6e6572206e6f7220617070726f76656420666f7220616c6c00000000000000006064820152608401610561565b6106b98383610e08565b505050565b600d54600160a060020a031633146106eb5760405160e560020a62461bcd02815260040161056190612587565b60006106f6600e5490565b9050610706600e80546001019055565b6107108482610e83565b61071a8184610e9d565b610725818584610f3a565b50505050565b610736335b8261106b565b6107555760405160e560020a62461bcd028152600401610561906125bc565b6106b9838383611169565b6000828152600160209081526040808320815180830190925254600160a060020a03811680835260a060020a9091046bffffffffffffffffffffffff169282019290925282916107df575060408051808201909152600054600160a060020a038116825260a060020a90046bffffffffffffffffffffffff1660208201525b60208101516000906107d090610803906bffffffffffffffffffffffff1687612645565b61080d9190612631565b915196919550909350505050565b600061082683610ab1565b821061089d5760405160e560020a62461bcd02815260206004820152602b60248201527f455243373231456e756d657261626c653a206f776e657220696e646578206f7560448201527f74206f6620626f756e64730000000000000000000000000000000000000000006064820152608401610561565b50600160a060020a03919091166000908152600860209081526040808320938352929052205490565b6106b983838360405180602001604052806000815250610ba5565b6108ea33610730565b61095f5760405160e560020a62461bcd02815260206004820152603060248201527f4552433732314275726e61626c653a2063616c6c6572206973206e6f74206f7760448201527f6e6572206e6f7220617070726f766564000000000000000000000000000000006064820152608401610561565b61096881611354565b50565b6000610976600a5490565b82106109ed5760405160e560020a62461bcd02815260206004820152602c60248201527f455243373231456e756d657261626c653a20676c6f62616c20696e646578206f60448201527f7574206f6620626f756e647300000000000000000000000000000000000000006064820152608401610561565b600a8281548110610a115760e060020a634e487b7102600052603260045260246000fd5b90600052602060002001549050919050565b600081815260046020526040812054600160a060020a03168061044d5760405160e560020a62461bcd02815260206004820152602960248201527f4552433732313a206f776e657220717565727920666f72206e6f6e657869737460448201527f656e7420746f6b656e00000000000000000000000000000000000000000000006064820152608401610561565b6000600160a060020a038216610b325760405160e560020a62461bcd02815260206004820152602a60248201527f4552433732313a2062616c616e636520717565727920666f7220746865207a6560448201527f726f2061646472657373000000000000000000000000000000000000000000006064820152608401610561565b50600160a060020a031660009081526005602052604090205490565b600d54600160a060020a03163314610b7b5760405160e560020a62461bcd02815260040161056190612587565b610b85600061135d565b565b606060038054610462906126a7565b610ba13383836113bc565b5050565b610baf338361106b565b610bce5760405160e560020a62461bcd028152600401610561906125bc565b6107258484848461148f565b6000818152600f60205260408120544260a060020a9091046bffffffffffffffffffffffff1610610c2157506000908152600f6020526040902054600160a060020a031690565b61044d82610a23565b919050565b606061044d826114c5565b610c44338461106b565b610cb95760405160e560020a62461bcd02815260206004820152603260248201527f455243343930373a207472616e736665722063616c6c6572206973206e6f742060448201527f6f776e6572206e6f7220617070726f76656400000000000000000000000000006064820152608401610561565b6000838152600f60209081526040918290206bffffffffffffffffffffffff841660a060020a8102600160a060020a0387169081178355935190815290929186917ff3eadda1a229156f3f0f663b8e3b1f2409cb8d447391afe7a1221b52401529ae910160405180910390a350505050565b600d54600160a060020a03163314610d585760405160e560020a62461bcd02815260040161056190612587565b600160a060020a038116610dd75760405160e560020a62461bcd02815260206004820152602660248201527f4f776e61626c653a206e6577206f776e657220697320746865207a65726f206160448201527f64647265737300000000000000000000000000000000000000000000000000006064820152608401610561565b6109688161135d565b600061044d82611643565b600090815260046020526040902054600160a060020a0316151590565b6000818152600660205260409020805473ffffffffffffffffffffffffffffffffffffffff1916600160a060020a0384169081179091558190610e4a82610a23565b600160a060020a03167f8c5be1e5ebec7d5bd14f71427d1e84f3dd0314c0f7b2291e5b200ac8c7c3b92560405160405180910390a45050565b610ba1828260405180602001604052806000815250611681565b610ea682610deb565b610f1b5760405160e560020a62461bcd02815260206004820152602e60248201527f45524337323155524953746f726167653a2055524920736574206f66206e6f6e60448201527f6578697374656e7420746f6b656e0000000000000000000000000000000000006064820152608401610561565b6000828152600c6020908152604090912082516106b992840190612093565b6107d06bffffffffffffffffffffffff82161115610fc35760405160e560020a62461bcd02815260206004820152602a60248201527f455243323938313a20726f79616c7479206665652077696c6c2065786365656460448201527f2073616c655072696365000000000000000000000000000000000000000000006064820152608401610561565b600160a060020a03821661101c5760405160e560020a62461bcd02815260206004820152601b60248201527f455243323938313a20496e76616c696420706172616d657465727300000000006044820152606401610561565b604080518082018252600160a060020a0393841681526bffffffffffffffffffffffff9283166020808301918252600096875260019052919094209351905190911660a060020a029116179055565b600061107682610deb565b6110eb5760405160e560020a62461bcd02815260206004820152602c60248201527f4552433732313a206f70657261746f7220717565727920666f72206e6f6e657860448201527f697374656e7420746f6b656e00000000000000000000000000000000000000006064820152608401610561565b60006110f683610a23565b905080600160a060020a031684600160a060020a0316148061113d5750600160a060020a0380821660009081526007602090815260408083209388168352929052205460ff165b80611161575083600160a060020a0316611156846104e5565b600160a060020a0316145b949350505050565b82600160a060020a031661117c82610a23565b600160a060020a0316146111fb5760405160e560020a62461bcd02815260206004820152602560248201527f4552433732313a207472616e736665722066726f6d20696e636f72726563742060448201527f6f776e65720000000000000000000000000000000000000000000000000000006064820152608401610561565b600160a060020a0382166112795760405160e560020a62461bcd028152602060048201526024808201527f4552433732313a207472616e7366657220746f20746865207a65726f2061646460448201527f72657373000000000000000000000000000000000000000000000000000000006064820152608401610561565b6112848383836116b7565b61128f600082610e08565b600160a060020a03831660009081526005602052604081208054600192906112b8908490612664565b9091555050600160a060020a03821660009081526005602052604081208054600192906112e6908490612619565b9091555050600081815260046020526040808220805473ffffffffffffffffffffffffffffffffffffffff1916600160a060020a0386811691821790925591518493918716917fddf252ad1be2c89b69c2b068fc378daa952ba7f163c4a11628f55a4df523b3ef91a4505050565b61096881611741565b600d8054600160a060020a0383811673ffffffffffffffffffffffffffffffffffffffff19831681179093556040519116919082907f8be0079c531659141344cd1fd0a4f28419497f9722a3daafe3b4186f6b6457e090600090a35050565b81600160a060020a031683600160a060020a031614156114215760405160e560020a62461bcd02815260206004820152601960248201527f4552433732313a20617070726f766520746f2063616c6c6572000000000000006044820152606401610561565b600160a060020a03838116600081815260076020908152604080832094871680845294825291829020805460ff191686151590811790915591519182527f17307eab39ab6107e8899845ad3d59bd9653f200f220920489ca2b5937696c3191015b60405180910390a3505050565b61149a848484611169565b6114a68484848461175b565b6107255760405160e560020a62461bcd0281526004016105619061252a565b60606114d082610deb565b6115455760405160e560020a62461bcd02815260206004820152603160248201527f45524337323155524953746f726167653a2055524920717565727920666f722060448201527f6e6f6e6578697374656e7420746f6b656e0000000000000000000000000000006064820152608401610561565b6000828152600c60205260408120805461155e906126a7565b80601f016020809104026020016040519081016040528092919081815260200182805461158a906126a7565b80156115d75780601f106115ac576101008083540402835291602001916115d7565b820191906000526020600020905b8154815290600101906020018083116115ba57829003601f168201915b5050505050905060006115f560408051602081019091526000815290565b9050805160001415611608575092915050565b81511561163a5780826040516020016116229291906124ac565b60405160208183030381529060405292505050919050565b6111618461189d565b6000600160e060020a031982167f780e9d6300000000000000000000000000000000000000000000000000000000148061044d575061044d82611986565b61168b83836119f8565b611698600084848461175b565b6106b95760405160e560020a62461bcd0281526004016105619061252a565b6116c2838383611b4a565b81600160a060020a031683600160a060020a0316141580156116fa57506000818152600f6020526040902054600160a060020a031615155b156106b9576000818152600f602090815260408083208390555182815283917ff3eadda1a229156f3f0f663b8e3b1f2409cb8d447391afe7a1221b52401529ae9101611482565b61174a81611c02565b600090815260016020526040812055565b6000600160a060020a0384163b15611892576040517f150b7a02000000000000000000000000000000000000000000000000000000008152600160a060020a0385169063150b7a02906117b89033908990889088906004016124db565b602060405180830381600087803b1580156117d257600080fd5b505af1925050508015611802575060408051601f3d908101601f191682019092526117ff918101906123f9565b60015b61185f573d808015611830576040519150601f19603f3d011682016040523d82523d6000602084013e611835565b606091505b5080516118575760405160e560020a62461bcd0281526004016105619061252a565b805181602001fd5b600160e060020a0319167f150b7a0200000000000000000000000000000000000000000000000000000000149050611161565b506001949350505050565b60606118a882610deb565b61191d5760405160e560020a62461bcd02815260206004820152602f60248201527f4552433732314d657461646174613a2055524920717565727920666f72206e6f60448201527f6e6578697374656e7420746f6b656e00000000000000000000000000000000006064820152608401610561565b600061193460408051602081019091526000815290565b90506000815111611954576040518060200160405280600081525061197f565b8061195e84611c42565b60405160200161196f9291906124ac565b6040516020818303038152906040525b9392505050565b6000600160e060020a031982167f80ac58cd0000000000000000000000000000000000000000000000000000000014806119e95750600160e060020a031982167f5b5e139f00000000000000000000000000000000000000000000000000000000145b8061044d575061044d82611db5565b600160a060020a038216611a515760405160e560020a62461bcd02815260206004820181905260248201527f4552433732313a206d696e7420746f20746865207a65726f20616464726573736044820152606401610561565b611a5a81610deb565b15611aaa5760405160e560020a62461bcd02815260206004820152601c60248201527f4552433732313a20746f6b656e20616c7265616479206d696e746564000000006044820152606401610561565b611ab6600083836116b7565b600160a060020a0382166000908152600560205260408120805460019290611adf908490612619565b9091555050600081815260046020526040808220805473ffffffffffffffffffffffffffffffffffffffff1916600160a060020a03861690811790915590518392907fddf252ad1be2c89b69c2b068fc378daa952ba7f163c4a11628f55a4df523b3ef908290a45050565b600160a060020a038316611ba557611ba081600a80546000838152600b60205260408120829055600182018355919091527fc65a7bb8d6351c1cf70c95a316cc6a92839c986682d98bc35f958f4883f9d2a80155565b611bc8565b81600160a060020a031683600160a060020a031614611bc857611bc88382611e1c565b600160a060020a038216611bdf576106b981611eb9565b82600160a060020a031682600160a060020a0316146106b9576106b98282611f9b565b611c0b81611fdf565b6000818152600c602052604090208054611c24906126a7565b159050610968576000818152600c6020526040812061096891612117565b606081611c8257505060408051808201909152600181527f3000000000000000000000000000000000000000000000000000000000000000602082015290565b8160005b8115611cac5780611c96816126e5565b9150611ca59050600a83612631565b9150611c86565b60008167ffffffffffffffff811115611cd85760e060020a634e487b7102600052604160045260246000fd5b6040519080825280601f01601f191660200182016040528015611d02576020820181803683370190505b5090505b841561116157611d17600183612664565b9150611d24600a86612700565b611d2f906030612619565b7f010000000000000000000000000000000000000000000000000000000000000002818381518110611d745760e060020a634e487b7102600052603260045260246000fd5b60200101907effffffffffffffffffffffffffffffffffffffffffffffffffffffffffffff1916908160001a905350611dae600a86612631565b9450611d06565b6000600160e060020a031982167f2a55205a00000000000000000000000000000000000000000000000000000000148061044d57507f01ffc9a700000000000000000000000000000000000000000000000000000000600160e060020a031983161461044d565b60006001611e2984610ab1565b611e339190612664565b600083815260096020526040902054909150808214611e8657600160a060020a03841660009081526008602090815260408083208584528252808320548484528184208190558352600990915290208190555b506000918252600960209081526040808420849055600160a060020a039094168352600881528383209183525290812055565b600a54600090611ecb90600190612664565b6000838152600b6020526040812054600a8054939450909284908110611f045760e060020a634e487b7102600052603260045260246000fd5b9060005260206000200154905080600a8381548110611f365760e060020a634e487b7102600052603260045260246000fd5b6000918252602080832090910192909255828152600b9091526040808220849055858252812055600a805480611f7f5760e060020a634e487b7102600052603160045260246000fd5b6001900381819060005260206000200160009055905550505050565b6000611fa683610ab1565b600160a060020a039093166000908152600860209081526040808320868452825280832085905593825260099052919091209190915550565b6000611fea82610a23565b9050611ff8816000846116b7565b612003600083610e08565b600160a060020a038116600090815260056020526040812080546001929061202c908490612664565b9091555050600082815260046020526040808220805473ffffffffffffffffffffffffffffffffffffffff1916905551839190600160a060020a038416907fddf252ad1be2c89b69c2b068fc378daa952ba7f163c4a11628f55a4df523b3ef908390a45050565b82805461209f906126a7565b90600052602060002090601f0160209004810192826120c15760008555612107565b82601f106120da57805160ff1916838001178555612107565b82800160010185558215612107579182015b828111156121075782518255916020019190600101906120ec565b5061211392915061214d565b5090565b508054612123906126a7565b6000825580601f10612133575050565b601f01602090049060005260206000209081019061096891905b5b80821115612113576000815560010161214e565b600067ffffffffffffffff8084111561217d5761217d612746565b604051601f8501601f19908116603f011681019082821181831017156121a5576121a5612746565b816040528093508581528686860111156121be57600080fd5b858560208301376000602087830101525050509392505050565b8035600160a060020a0381168114610c2a57600080fd5b80356bffffffffffffffffffffffff81168114610c2a57600080fd5b60006020828403121561221c578081fd5b61197f826121d8565b60008060408385031215612237578081fd5b612240836121d8565b915061224e602084016121d8565b90509250929050565b60008060006060848603121561226b578081fd5b612274846121d8565b9250612282602085016121d8565b9150604084013590509250925092565b600080600080608085870312156122a7578081fd5b6122b0856121d8565b93506122be602086016121d8565b925060408501359150606085013567ffffffffffffffff8111156122e0578182fd5b8501601f810187136122f0578182fd5b6122ff87823560208401612162565b91505092959194509250565b6000806040838503121561231d578182fd5b612326836121d8565b91506020830135801515811461233a578182fd5b809150509250929050565b600080600060608486031215612359578283fd5b612362846121d8565b9250602084013567ffffffffffffffff81111561237d578283fd5b8401601f8101861361238d578283fd5b61239c86823560208401612162565b9250506123ab604085016121ef565b90509250925092565b600080604083850312156123c6578182fd5b6123cf836121d8565b946020939093013593505050565b6000602082840312156123ee578081fd5b813561197f8161275f565b60006020828403121561240a578081fd5b815161197f8161275f565b600060208284031215612426578081fd5b5035919050565b600080600060608486031215612441578283fd5b83359250612451602085016121d8565b91506123ab604085016121ef565b60008060408385031215612471578182fd5b50508035926020909101359150565b6000815180845261249881602086016020860161267b565b601f01601f19169290920160200192915050565b600083516124be81846020880161267b565b8351908301906124d281836020880161267b565b01949350505050565b6000600160a060020a0380871683528086166020840152508360408301526080606083015261250d6080830184612480565b9695505050505050565b60208152600061197f6020830184612480565b60208082526032908201527f4552433732313a207472616e7366657220746f206e6f6e20455243373231526560408201527f63656976657220696d706c656d656e7465720000000000000000000000000000606082015260800190565b6020808252818101527f4f776e61626c653a2063616c6c6572206973206e6f7420746865206f776e6572604082015260600190565b60208082526031908201527f4552433732313a207472616e736665722063616c6c6572206973206e6f74206f60408201527f776e6572206e6f7220617070726f766564000000000000000000000000000000606082015260800190565b6000821982111561262c5761262c612714565b500190565b6000826126405761264061272d565b500490565b600081600019048311821515161561265f5761265f612714565b500290565b60008282101561267657612676612714565b500390565b60005b8381101561269657818101518382015260200161267e565b838111156107255750506000910152565b6002810460018216806126bb57607f821691505b602082108114156126df5760e060020a634e487b7102600052602260045260246000fd5b50919050565b60006000198214156126f9576126f9612714565b5060010190565b60008261270f5761270f61272d565b500690565b60e060020a634e487b7102600052601160045260246000fd5b60e060020a634e487b7102600052601260045260246000fd5b60e060020a634e487b7102600052604160045260246000fd5b600160e060020a03198116811461096857600080fdfea26469706673582212204718b83760fffc9d9bf69fe62768921a0ac8b0319bf82d5a3138e905619e2f2464736f6c63430008040033",
  "immutableReferences": {},
  "source": "// SPDX-License-Identifier: MIT\r\npragma solidity ^0.8.4;\r\n\r\nimport \"@openzeppelin/contracts/token/ERC721/ERC721.sol\";\r\nimport \"@openzeppelin/contracts/token/ERC721/extensions/ERC721Enumerable.sol\";\r\nimport \"@openzeppelin/contracts/token/ERC721/extensions/ERC721URIStorage.sol\";\r\nimport \"@openzeppelin/contracts/token/ERC721/extensions/ERC721Burnable.sol\";\r\nimport \"@openzeppelin/contracts/access/Ownable.sol\";\r\nimport \"@openzeppelin/contracts/utils/Counters.sol\";\r\nimport \"@openzeppelin/contracts/token/ERC721/extensions/ERC721Royalty.sol\";\r\nimport \"../interfaces/IERC4907.sol\";\r\n\r\ncontract PNFT is\r\n    IERC4907,\r\n    ERC721,\r\n    ERC721Enumerable,\r\n    ERC721URIStorage,\r\n    Ownable,\r\n    ERC721Burnable,\r\n    ERC721Royalty\r\n{\r\n    using Counters for Counters.Counter;\r\n\r\n    Counters.Counter private _tokenIdCounter;\r\n\r\n    struct UserInfo \r\n    {\r\n        address user;   // address of user role\r\n        uint96 expires; // unix timestamp, user expires\r\n    }\r\n\r\n    mapping (uint256  => UserInfo) internal _users;\r\n\r\n    constructor(\r\n        string memory name,\r\n        string memory symbol,\r\n        address owner\r\n    ) ERC721(name, symbol) {\r\n        _transferOwnership(owner);\r\n    }\r\n\r\n    function safeMint(\r\n        address to,\r\n        string memory uri,\r\n        uint96 royaltyFeeNumerator\r\n    ) public onlyOwner {\r\n        uint256 tokenId = _tokenIdCounter.current();\r\n        _tokenIdCounter.increment();\r\n        _safeMint(to, tokenId);\r\n        _setTokenURI(tokenId, uri);\r\n        _setTokenRoyalty(tokenId, to, royaltyFeeNumerator);\r\n    }\r\n\r\n    /// @notice set the user and expires of an NFT\r\n    /// @dev The zero address indicates there is no user\r\n    /// Throws if `tokenId` is not valid NFT\r\n    /// @param user  The new user of the NFT\r\n    /// @param expires  UNIX timestamp, The new user could use the NFT before expires\r\n    function setUser(uint256 tokenId, address user, uint96 expires) public override{\r\n        require(_isApprovedOrOwner(msg.sender, tokenId), \"ERC4907: transfer caller is not owner nor approved\");\r\n        UserInfo storage info =  _users[tokenId];\r\n        info.user = user;\r\n        info.expires = expires;\r\n        emit UpdateUser(tokenId, user, expires);\r\n    }\r\n\r\n    /// @notice Get the user address of an NFT\r\n    /// @dev The zero address indicates that there is no user or the user is expired\r\n    /// @param tokenId The NFT to get the user address for\r\n    /// @return The user address for this NFT\r\n    function userOf(uint256 tokenId) public view override returns(address){\r\n        if( uint256(_users[tokenId].expires) >=  block.timestamp){\r\n            return  _users[tokenId].user;\r\n        }\r\n        else{\r\n            return ownerOf(tokenId);\r\n        }\r\n    }\r\n\r\n    /// @notice Get the user expires of an NFT\r\n    /// @dev The zero value indicates that there is no user\r\n    /// @param tokenId The NFT to get the user expires for\r\n    /// @return The user expires for this NFT\r\n    function userExpires(uint256 tokenId) public view override returns(uint96){\r\n        return _users[tokenId].expires;\r\n    }\r\n\r\n    // The following functions are overrides required by Solidity.\r\n    function _beforeTokenTransfer(\r\n        address from,\r\n        address to,\r\n        uint256 tokenId\r\n    ) internal override(ERC721, ERC721Enumerable) {\r\n        super._beforeTokenTransfer(from, to, tokenId);\r\n\r\n        if (from != to && _users[tokenId].user != address(0)) {\r\n            delete _users[tokenId];\r\n            emit UpdateUser(tokenId, address(0), 0);\r\n        }\r\n    }\r\n\r\n    function _burn(uint256 tokenId)\r\n        internal\r\n        override(ERC721, ERC721URIStorage, ERC721Royalty)\r\n    {\r\n        super._burn(tokenId);\r\n    }\r\n\r\n    function tokenURI(uint256 tokenId)\r\n        public\r\n        view\r\n        override(ERC721, ERC721URIStorage)\r\n        returns (string memory)\r\n    {\r\n        return super.tokenURI(tokenId);\r\n    }\r\n\r\n    function supportsInterface(bytes4 interfaceId)\r\n        public\r\n        view\r\n        override(ERC721, ERC721Enumerable, ERC721Royalty)\r\n        returns (bool)\r\n    {\r\n        return interfaceId == type(IERC4907).interfaceId || super.supportsInterface(interfaceId);\r\n    }\r\n\r\n    function _feeDenominator()\r\n        internal\r\n        pure\r\n        override(ERC2981)\r\n        returns (uint96)\r\n    {\r\n        return 2000;\r\n    }\r\n}\r\n",
  "sourcePath": "G:\\Learning\\Project\\source\\picasarts-contracts\\contracts\\standards\\PNFT.sol",
  "compiler": {
    "name": "solc",
    "version": "0.8.4+commit.c7e474f2.Emscripten.clang"
  },
  "schemaVersion": "3.4.10",
  "updatedAt": "2023-02-24T17:19:21.472Z",
  "devdoc": {
    "kind": "dev",
    "methods": {
      "approve(address,uint256)": {
        "details": "See {IERC721-approve}."
      },
      "balanceOf(address)": {
        "details": "See {IERC721-balanceOf}."
      },
      "burn(uint256)": {
        "details": "Burns `tokenId`. See {ERC721-_burn}. Requirements: - The caller must own `tokenId` or be an approved operator."
      },
      "getApproved(uint256)": {
        "details": "See {IERC721-getApproved}."
      },
      "isApprovedForAll(address,address)": {
        "details": "See {IERC721-isApprovedForAll}."
      },
      "name()": {
        "details": "See {IERC721Metadata-name}."
      },
      "owner()": {
        "details": "Returns the address of the current owner."
      },
      "ownerOf(uint256)": {
        "details": "See {IERC721-ownerOf}."
      },
      "renounceOwnership()": {
        "details": "Leaves the contract without owner. It will not be possible to call `onlyOwner` functions anymore. Can only be called by the current owner. NOTE: Renouncing ownership will leave the contract without an owner, thereby removing any functionality that is only available to the owner."
      },
      "royaltyInfo(uint256,uint256)": {
        "details": "Returns how much royalty is owed and to whom, based on a sale price that may be denominated in any unit of exchange. The royalty amount is denominated and should be paid in that same unit of exchange."
      },
      "safeTransferFrom(address,address,uint256)": {
        "details": "See {IERC721-safeTransferFrom}."
      },
      "safeTransferFrom(address,address,uint256,bytes)": {
        "details": "See {IERC721-safeTransferFrom}."
      },
      "setApprovalForAll(address,bool)": {
        "details": "See {IERC721-setApprovalForAll}."
      },
      "setUser(uint256,address,uint96)": {
        "details": "The zero address indicates there is no user Throws if `tokenId` is not valid NFT",
        "params": {
          "expires": "UNIX timestamp, The new user could use the NFT before expires",
          "user": "The new user of the NFT"
        }
      },
      "symbol()": {
        "details": "See {IERC721Metadata-symbol}."
      },
      "tokenByIndex(uint256)": {
        "details": "See {IERC721Enumerable-tokenByIndex}."
      },
      "tokenOfOwnerByIndex(address,uint256)": {
        "details": "See {IERC721Enumerable-tokenOfOwnerByIndex}."
      },
      "totalSupply()": {
        "details": "See {IERC721Enumerable-totalSupply}."
      },
      "transferFrom(address,address,uint256)": {
        "details": "See {IERC721-transferFrom}."
      },
      "transferOwnership(address)": {
        "details": "Transfers ownership of the contract to a new account (`newOwner`). Can only be called by the current owner."
      },
      "userExpires(uint256)": {
        "details": "The zero value indicates that there is no user",
        "params": {
          "tokenId": "The NFT to get the user expires for"
        },
        "returns": {
          "_0": "The user expires for this NFT"
        }
      },
      "userOf(uint256)": {
        "details": "The zero address indicates that there is no user or the user is expired",
        "params": {
          "tokenId": "The NFT to get the user address for"
        },
        "returns": {
          "_0": "The user address for this NFT"
        }
      }
    },
    "version": 1
  },
  "userdoc": {
    "events": {
      "UpdateUser(uint256,address,uint96)": {
        "notice": "Emitted when the `user` of an NFT or the `expires` of the `user` is changed The zero address for user indicates that there is no user address"
      }
    },
    "kind": "user",
    "methods": {
      "setUser(uint256,address,uint96)": {
        "notice": "set the user and expires of an NFT"
      },
      "userExpires(uint256)": {
        "notice": "Get the user expires of an NFT"
      },
      "userOf(uint256)": {
        "notice": "Get the user address of an NFT"
      }
    },
    "version": 1
  }
}