{
  "contractName": "Rental",
  "abi": [
    {
      "inputs": [
        {
          "internalType": "uint256",
          "name": "fee",
          "type": "uint256"
        },
        {
          "internalType": "address",
          "name": "hub",
          "type": "address"
        }
      ],
      "stateMutability": "nonpayable",
      "type": "constructor"
    },
    {
      "anonymous": false,
      "inputs": [
        {
          "indexed": true,
          "internalType": "address",
          "name": "previousOwner",
          "type": "address"
        },
        {
          "indexed": true,
          "internalType": "address",
          "name": "newOwner",
          "type": "address"
        }
      ],
      "name": "OwnershipTransferred",
      "type": "event"
    },
    {
      "inputs": [],
      "name": "DENOMINATOR",
      "outputs": [
        {
          "internalType": "uint256",
          "name": "",
          "type": "uint256"
        }
      ],
      "stateMutability": "view",
      "type": "function"
    },
    {
      "inputs": [],
      "name": "ERC2981INTERFACE",
      "outputs": [
        {
          "internalType": "bytes4",
          "name": "",
          "type": "bytes4"
        }
      ],
      "stateMutability": "view",
      "type": "function"
    },
    {
      "inputs": [],
      "name": "ERC721INTERFACE",
      "outputs": [
        {
          "internalType": "bytes4",
          "name": "",
          "type": "bytes4"
        }
      ],
      "stateMutability": "view",
      "type": "function"
    },
    {
      "inputs": [],
      "name": "RATE_FEE",
      "outputs": [
        {
          "internalType": "uint256",
          "name": "",
          "type": "uint256"
        }
      ],
      "stateMutability": "view",
      "type": "function"
    },
    {
      "inputs": [
        {
          "internalType": "address",
          "name": "tokenAddr",
          "type": "address"
        }
      ],
      "name": "addAcceptToken",
      "outputs": [],
      "stateMutability": "nonpayable",
      "type": "function"
    },
    {
      "inputs": [
        {
          "internalType": "address",
          "name": "whitelistAddress",
          "type": "address"
        },
        {
          "internalType": "uint256",
          "name": "fee",
          "type": "uint256"
        }
      ],
      "name": "addWhitelistAddress",
      "outputs": [],
      "stateMutability": "nonpayable",
      "type": "function"
    },
    {
      "inputs": [
        {
          "internalType": "address",
          "name": "walletAddress",
          "type": "address"
        },
        {
          "internalType": "address",
          "name": "tokenAddress",
          "type": "address"
        }
      ],
      "name": "feeOf",
      "outputs": [
        {
          "internalType": "uint256",
          "name": "",
          "type": "uint256"
        }
      ],
      "stateMutability": "view",
      "type": "function"
    },
    {
      "inputs": [],
      "name": "getAcceptTokens",
      "outputs": [
        {
          "internalType": "address[]",
          "name": "",
          "type": "address[]"
        }
      ],
      "stateMutability": "view",
      "type": "function"
    },
    {
      "inputs": [],
      "name": "getRateFee",
      "outputs": [
        {
          "internalType": "uint256",
          "name": "",
          "type": "uint256"
        }
      ],
      "stateMutability": "view",
      "type": "function"
    },
    {
      "inputs": [
        {
          "internalType": "address",
          "name": "tokenAddress",
          "type": "address"
        }
      ],
      "name": "getTokenFee",
      "outputs": [
        {
          "internalType": "uint256",
          "name": "",
          "type": "uint256"
        }
      ],
      "stateMutability": "view",
      "type": "function"
    },
    {
      "inputs": [],
      "name": "getWhitelist",
      "outputs": [
        {
          "components": [
            {
              "internalType": "address",
              "name": "addr",
              "type": "address"
            },
            {
              "internalType": "uint256",
              "name": "fee",
              "type": "uint256"
            }
          ],
          "internalType": "struct IHubChild.WhitelistVars[]",
          "name": "",
          "type": "tuple[]"
        }
      ],
      "stateMutability": "view",
      "type": "function"
    },
    {
      "inputs": [],
      "name": "hubAddr",
      "outputs": [
        {
          "internalType": "address",
          "name": "",
          "type": "address"
        }
      ],
      "stateMutability": "view",
      "type": "function"
    },
    {
      "inputs": [],
      "name": "owner",
      "outputs": [
        {
          "internalType": "address",
          "name": "",
          "type": "address"
        }
      ],
      "stateMutability": "view",
      "type": "function"
    },
    {
      "inputs": [
        {
          "internalType": "address",
          "name": "tokenAddr",
          "type": "address"
        }
      ],
      "name": "removeToken",
      "outputs": [],
      "stateMutability": "nonpayable",
      "type": "function"
    },
    {
      "inputs": [
        {
          "internalType": "address",
          "name": "whitelistAddress",
          "type": "address"
        }
      ],
      "name": "removeWhitelistAddress",
      "outputs": [],
      "stateMutability": "nonpayable",
      "type": "function"
    },
    {
      "inputs": [],
      "name": "renounceOwnership",
      "outputs": [],
      "stateMutability": "nonpayable",
      "type": "function"
    },
    {
      "inputs": [
        {
          "internalType": "address",
          "name": "hub",
          "type": "address"
        }
      ],
      "name": "setHub",
      "outputs": [],
      "stateMutability": "nonpayable",
      "type": "function"
    },
    {
      "inputs": [
        {
          "internalType": "uint256",
          "name": "rateFee",
          "type": "uint256"
        }
      ],
      "name": "setRateFee",
      "outputs": [],
      "stateMutability": "nonpayable",
      "type": "function"
    },
    {
      "inputs": [
        {
          "internalType": "address",
          "name": "newOwner",
          "type": "address"
        }
      ],
      "name": "transferOwnership",
      "outputs": [],
      "stateMutability": "nonpayable",
      "type": "function"
    },
    {
      "inputs": [
        {
          "internalType": "address",
          "name": "nftContract",
          "type": "address"
        },
        {
          "internalType": "uint256",
          "name": "tokenId",
          "type": "uint256"
        },
        {
          "internalType": "address",
          "name": "ftContract",
          "type": "address"
        },
        {
          "internalType": "uint256",
          "name": "releaseFrequency",
          "type": "uint256"
        },
        {
          "internalType": "uint256",
          "name": "cycleTime",
          "type": "uint256"
        },
        {
          "internalType": "uint256",
          "name": "cycleEnded",
          "type": "uint256"
        }
      ],
      "name": "list",
      "outputs": [],
      "stateMutability": "nonpayable",
      "type": "function"
    },
    {
      "inputs": [
        {
          "internalType": "uint256",
          "name": "itemId",
          "type": "uint256"
        },
        {
          "internalType": "address",
          "name": "ftContract",
          "type": "address"
        },
        {
          "internalType": "uint256",
          "name": "releaseFrequency",
          "type": "uint256"
        },
        {
          "internalType": "uint256",
          "name": "cycleTime",
          "type": "uint256"
        },
        {
          "internalType": "uint256",
          "name": "cycleEnded",
          "type": "uint256"
        }
      ],
      "name": "relist",
      "outputs": [],
      "stateMutability": "nonpayable",
      "type": "function"
    },
    {
      "inputs": [
        {
          "internalType": "uint256",
          "name": "itemId",
          "type": "uint256"
        },
        {
          "internalType": "address",
          "name": "ftContract",
          "type": "address"
        },
        {
          "internalType": "uint256",
          "name": "releaseFrequency",
          "type": "uint256"
        },
        {
          "internalType": "uint256",
          "name": "cycleTime",
          "type": "uint256"
        },
        {
          "internalType": "uint256",
          "name": "cycleEnded",
          "type": "uint256"
        }
      ],
      "name": "edit",
      "outputs": [],
      "stateMutability": "nonpayable",
      "type": "function"
    },
    {
      "inputs": [
        {
          "internalType": "uint256",
          "name": "itemId",
          "type": "uint256"
        }
      ],
      "name": "unlist",
      "outputs": [],
      "stateMutability": "nonpayable",
      "type": "function"
    },
    {
      "inputs": [
        {
          "internalType": "uint256",
          "name": "itemId",
          "type": "uint256"
        },
        {
          "internalType": "uint256",
          "name": "amount",
          "type": "uint256"
        }
      ],
      "name": "rent",
      "outputs": [],
      "stateMutability": "payable",
      "type": "function"
    },
    {
      "inputs": [
        {
          "internalType": "uint256",
          "name": "itemId",
          "type": "uint256"
        },
        {
          "internalType": "uint256",
          "name": "amount",
          "type": "uint256"
        }
      ],
      "name": "topup",
      "outputs": [],
      "stateMutability": "payable",
      "type": "function"
    },
    {
      "inputs": [
        {
          "internalType": "uint256",
          "name": "itemId",
          "type": "uint256"
        }
      ],
      "name": "cancel",
      "outputs": [],
      "stateMutability": "payable",
      "type": "function"
    },
    {
      "inputs": [
        {
          "internalType": "uint256",
          "name": "itemId",
          "type": "uint256"
        }
      ],
      "name": "withdraw",
      "outputs": [],
      "stateMutability": "payable",
      "type": "function"
    },
    {
      "inputs": [
        {
          "internalType": "uint256",
          "name": "itemId",
          "type": "uint256"
        }
      ],
      "name": "stop",
      "outputs": [],
      "stateMutability": "payable",
      "type": "function"
    },
    {
      "inputs": [
        {
          "internalType": "uint256",
          "name": "itemId",
          "type": "uint256"
        }
      ],
      "name": "redeem",
      "outputs": [],
      "stateMutability": "nonpayable",
      "type": "function"
    },
    {
      "inputs": [],
      "name": "getCovenants",
      "outputs": [
        {
          "components": [
            {
              "internalType": "uint256",
              "name": "itemId",
              "type": "uint256"
            },
            {
              "internalType": "address",
              "name": "nftContract",
              "type": "address"
            },
            {
              "internalType": "uint256",
              "name": "tokenId",
              "type": "uint256"
            },
            {
              "internalType": "address",
              "name": "ftContract",
              "type": "address"
            },
            {
              "internalType": "uint256",
              "name": "releaseFrequency",
              "type": "uint256"
            },
            {
              "internalType": "uint256",
              "name": "cycleTime",
              "type": "uint256"
            },
            {
              "internalType": "uint256",
              "name": "cycleEnded",
              "type": "uint256"
            },
            {
              "internalType": "enum Rental.CovenantStatus",
              "name": "status",
              "type": "uint8"
            },
            {
              "internalType": "address",
              "name": "lender",
              "type": "address"
            }
          ],
          "internalType": "struct Rental.Covenant[]",
          "name": "",
          "type": "tuple[]"
        }
      ],
      "stateMutability": "view",
      "type": "function"
    },
    {
      "inputs": [
        {
          "internalType": "address",
          "name": "addr",
          "type": "address"
        }
      ],
      "name": "getCovenantsByAddress",
      "outputs": [
        {
          "components": [
            {
              "internalType": "uint256",
              "name": "itemId",
              "type": "uint256"
            },
            {
              "internalType": "address",
              "name": "nftContract",
              "type": "address"
            },
            {
              "internalType": "uint256",
              "name": "tokenId",
              "type": "uint256"
            },
            {
              "internalType": "address",
              "name": "ftContract",
              "type": "address"
            },
            {
              "internalType": "uint256",
              "name": "releaseFrequency",
              "type": "uint256"
            },
            {
              "internalType": "uint256",
              "name": "cycleTime",
              "type": "uint256"
            },
            {
              "internalType": "uint256",
              "name": "cycleEnded",
              "type": "uint256"
            },
            {
              "internalType": "enum Rental.CovenantStatus",
              "name": "status",
              "type": "uint8"
            },
            {
              "internalType": "address",
              "name": "lender",
              "type": "address"
            }
          ],
          "internalType": "struct Rental.Covenant[]",
          "name": "",
          "type": "tuple[]"
        }
      ],
      "stateMutability": "view",
      "type": "function"
    },
    {
      "inputs": [
        {
          "internalType": "uint256",
          "name": "itemId",
          "type": "uint256"
        }
      ],
      "name": "getCovenant",
      "outputs": [
        {
          "components": [
            {
              "internalType": "uint256",
              "name": "itemId",
              "type": "uint256"
            },
            {
              "internalType": "address",
              "name": "nftContract",
              "type": "address"
            },
            {
              "internalType": "uint256",
              "name": "tokenId",
              "type": "uint256"
            },
            {
              "internalType": "address",
              "name": "ftContract",
              "type": "address"
            },
            {
              "internalType": "uint256",
              "name": "releaseFrequency",
              "type": "uint256"
            },
            {
              "internalType": "uint256",
              "name": "cycleTime",
              "type": "uint256"
            },
            {
              "internalType": "uint256",
              "name": "cycleEnded",
              "type": "uint256"
            },
            {
              "internalType": "enum Rental.CovenantStatus",
              "name": "status",
              "type": "uint8"
            },
            {
              "internalType": "address",
              "name": "lender",
              "type": "address"
            }
          ],
          "internalType": "struct Rental.Covenant",
          "name": "",
          "type": "tuple"
        },
        {
          "components": [
            {
              "internalType": "address",
              "name": "borrower",
              "type": "address"
            },
            {
              "internalType": "uint256",
              "name": "startTime",
              "type": "uint256"
            },
            {
              "internalType": "uint256",
              "name": "duration",
              "type": "uint256"
            },
            {
              "internalType": "uint256",
              "name": "withdrawRound",
              "type": "uint256"
            }
          ],
          "internalType": "struct Rental.CovenantProfile",
          "name": "",
          "type": "tuple"
        }
      ],
      "stateMutability": "view",
      "type": "function"
    },
    {
      "inputs": [
        {
          "internalType": "address",
          "name": "contractAddress",
          "type": "address"
        },
        {
          "internalType": "uint256",
          "name": "tokenId",
          "type": "uint256"
        }
      ],
      "name": "getRentalData",
      "outputs": [
        {
          "components": [
            {
              "internalType": "uint256",
              "name": "itemId",
              "type": "uint256"
            },
            {
              "internalType": "address",
              "name": "nftContract",
              "type": "address"
            },
            {
              "internalType": "uint256",
              "name": "tokenId",
              "type": "uint256"
            },
            {
              "internalType": "address",
              "name": "ftContract",
              "type": "address"
            },
            {
              "internalType": "uint256",
              "name": "releaseFrequency",
              "type": "uint256"
            },
            {
              "internalType": "uint256",
              "name": "cycleTime",
              "type": "uint256"
            },
            {
              "internalType": "uint256",
              "name": "cycleEnded",
              "type": "uint256"
            },
            {
              "internalType": "enum Rental.CovenantStatus",
              "name": "status",
              "type": "uint8"
            },
            {
              "internalType": "address",
              "name": "lender",
              "type": "address"
            }
          ],
          "internalType": "struct Rental.Covenant",
          "name": "",
          "type": "tuple"
        }
      ],
      "stateMutability": "view",
      "type": "function"
    }
  ],
  "bytecode": "0x60806040523480156200001157600080fd5b5060405162004166380380620041668339810160408190526200003491620001a8565b6200005a6200004b6401000000006200007f810204565b64010000000062000083810204565b6001805560078290556200007781640100000000620000d3810204565b5050620001e5565b3390565b60008054600160a060020a03838116600160a060020a0319831681178455604051919092169283917f8be0079c531659141344cd1fd0a4f28419497f9722a3daafe3b4186f6b6457e09190a35050565b620000e66401000000006200007f810204565b600160a060020a03166200010264010000000062000199810204565b600160a060020a03161462000177576040517f08c379a000000000000000000000000000000000000000000000000000000000815260206004820181905260248201527f4f776e61626c653a2063616c6c6572206973206e6f7420746865206f776e6572604482015260640160405180910390fd5b60088054600160a060020a031916600160a060020a0392909216919091179055565b600054600160a060020a031690565b60008060408385031215620001bb578182fd5b82516020840151909250600160a060020a0381168114620001da578182fd5b809150509250929050565b613f7180620001f56000396000f3fe6080604052600436106101f25760003560e060020a90048063715018a611610111578063b1c005fa116100a4578063d9042f8511610073578063d9042f851461058f578063db006a75146105af578063debd2272146105cf578063f2fde38b146105ef578063ffd62f7b1461060f57600080fd5b8063b1c005fa146104ff578063b7ecbaae1461052d578063bf5a4dd31461054d578063d01f63f51461056d57600080fd5b80638da5cb5b116100e05780638da5cb5b14610496578063918f8674146104b457806393e4626e146104ca578063a89eccfd146104df57600080fd5b8063715018a614610437578063783a112b1461044c5780638563e10e1461045f57806386c3b08a1461048157600080fd5b806340e58ee5116101895780635a24a0b5116101585780635a24a0b5146103c45780635fa7b584146103e45780636299f8cf146104045780636eeaa63c1461041757600080fd5b806340e58ee51461034357806349095a2114610356578063502a676c1461038e5780635254aca9146103a457600080fd5b80631879c750116101c55780631879c750146102c4578063252154fa146102e25780632e1a7d4d1461031057806331962cdc1461032357600080fd5b8063042ca242146101f757806307cb1a6e1461022d5780630f15e9be1461028f578063184ff47f146102b1575b600080fd5b34801561020357600080fd5b50610217610212366004613946565b61063c565b6040516102249190613c2b565b60405180910390f35b34801561023957600080fd5b506102617f80ac58cd0000000000000000000000000000000000000000000000000000000081565b6040517bffffffffffffffffffffffffffffffffffffffffffffffffffffffff199091168152602001610224565b34801561029b57600080fd5b506102af6102aa366004613a6d565b6108c1565b005b6102af6102bf366004613acc565b610976565b3480156102d057600080fd5b5061026160e160020a63152a902d0281565b3480156102ee57600080fd5b506103026102fd366004613946565b610c80565b604051908152602001610224565b6102af61031e366004613a6d565b610c93565b34801561032f57600080fd5b506102af61033e366004613946565b610d12565b6102af610351366004613a6d565b610d61565b34801561036257600080fd5b5060085461037690600160a060020a031681565b604051600160a060020a039091168152602001610224565b34801561039a57600080fd5b5061030260075481565b3480156103b057600080fd5b506102af6103bf36600461399a565b61127d565b3480156103d057600080fd5b506102af6103df366004613a85565b6112bb565b3480156103f057600080fd5b506102af6103ff366004613946565b61151e565b6102af610412366004613a6d565b61155a565b34801561042357600080fd5b506102af6104323660046139f2565b6116fa565b34801561044357600080fd5b506102af611a22565b6102af61045a366004613acc565b611a5b565b34801561046b57600080fd5b50610474611eca565b6040516102249190613bde565b34801561048d57600080fd5b50600754610302565b3480156104a257600080fd5b50600054600160a060020a0316610376565b3480156104c057600080fd5b5061030261271081565b3480156104d657600080fd5b50610217611f9c565b3480156104eb57600080fd5b506103026104fa366004613962565b612156565b34801561050b57600080fd5b5061051f61051a366004613a6d565b612169565b604051610224929190613e0c565b34801561053957600080fd5b506102af610548366004613946565b6122cc565b34801561055957600080fd5b506102af610568366004613a6d565b612304565b34801561057957600080fd5b506105826125b2565b6040516102249190613c6e565b34801561059b57600080fd5b506102af6105aa366004613a85565b6126b4565b3480156105bb57600080fd5b506102af6105ca366004613a6d565b6128e2565b3480156105db57600080fd5b506102af6105ea366004613946565b612b51565b3480156105fb57600080fd5b506102af61060a366004613946565b612b89565b34801561061b57600080fd5b5061062f61062a36600461399a565b612c41565b6040516102249190613dfd565b6060600061064960095490565b90506000805b828110156106c5576000818152600b6020526040902054600160a060020a03868116911614806106a057506000818152600a6020526040902060070154600160a060020a0386811661010090920416145b156106b357816106af81613ef2565b9250505b806106bd81613ef2565b91505061064f565b5060008267ffffffffffffffff8111156106f25760e060020a634e487b7102600052604160045260246000fd5b60405190808252806020026020018201604052801561072b57816020015b6107186138c6565b8152602001906001900390816107105790505b5090506000805b838110156108b6576000818152600b6020526040902054600160a060020a038881169116148061078357506000818152600a6020526040902060070154600160a060020a0388811661010090920416145b156108a4576000818152600a6020908152604091829020825161012081018452815481526001820154600160a060020a0390811693820193909352600282015493810193909352600381015490911660608301526004808201546080840152600582015460a0840152600682015460c0840152600782015460e084019160ff909116908111156108265760e060020a634e487b7102600052602160045260246000fd5b60048111156108485760e060020a634e487b7102600052602160045260246000fd5b8152600791909101546101009004600160a060020a0316602090910152835184908490811061088a5760e060020a634e487b7102600052603260045260246000fd5b602002602001018190525081806108a090613ef2565b9250505b806108ae81613ef2565b915050610732565b509095945050505050565b600854600160a060020a031633146108f75760405160e560020a62461bcd0281526004016108ee90613d8f565b60405180910390fd5b61271081106109715760405160e560020a62461bcd02815260206004820152602160248201527f466565206e756d657261746f72206d757374206c657373207468616e2031303060448201527f250000000000000000000000000000000000000000000000000000000000000060648201526084016108ee565b600755565b6000828152600b60205260409020548290600160a060020a031633146109e15760405160e560020a62461bcd02815260206004820152601660248201527f53656e646572206973206e6f7420626f72726f7765720000000000000000000060448201526064016108ee565b60026001541415610a075760405160e560020a62461bcd0281526004016108ee90613dc6565b600260018190556000848152600a602052604090206007015460ff166004811115610a455760e060020a634e487b7102600052602160045260246000fd5b14610a955760405160e560020a62461bcd02815260206004820181905260248201527f52656e74616c20636f76656e616e74206d7573742062652072656e74696e672e60448201526064016108ee565b6000838152600a602052604081206004810154909190610ab59085613e99565b90506000826004015482610ac99190613ebc565b90506000610ad78287613edb565b6003850154909150600160a060020a0316610b6557853414610b3e5760405160e560020a62461bcd02815260206004820152601760248201527f52656e74616c20616d6f756e74206e6f7420657861637400000000000000000060448201526064016108ee565b8015610b60576003840154610b609030903390600160a060020a031684612daa565b610b81565b6003840154610b819033903090600160a060020a031685612daa565b6000878152600b6020526040902060020154610b9d9084613e81565b600180860154600287015460008b8152600b60205260409020909201546005880154939650600160a060020a039091169263eaf05b1692913391610be19089613ebc565b610beb9190613e81565b6040518463ffffffff1660e060020a028152600401610c0c93929190613e54565b600060405180830381600087803b158015610c2657600080fd5b505af1158015610c3a573d6000803e3d6000fd5b505050506007939093018054600260ff1990911681179091556000968752600b60205260409096208054600160a060020a03191633178155909501555050600180555050565b6000610c8d600483612f2c565b92915050565b6000818152600a602052604090206007015481906101009004600160a060020a03163314610cd65760405160e560020a62461bcd0281526004016108ee90613d23565b60026001541415610cfc5760405160e560020a62461bcd0281526004016108ee90613dc6565b6002600155610d0a82612f41565b505060018055565b600054600160a060020a03163314610d3f5760405160e560020a62461bcd0281526004016108ee90613d5a565b60088054600160a060020a031916600160a060020a0392909216919091179055565b6000818152600b60205260409020548190600160a060020a03163314610dcc5760405160e560020a62461bcd02815260206004820152601660248201527f53656e646572206973206e6f7420626f72726f7765720000000000000000000060448201526064016108ee565b60026001541415610df25760405160e560020a62461bcd0281526004016108ee90613dc6565b600260019081556000838152600a6020908152604080832060050154600b909252822090920154429290610e269084613edb565b610e309190613e99565b905080610e3c81613ef2565b9150600290506000858152600a602052604090206007015460ff166004811115610e795760e060020a634e487b7102600052602160045260246000fd5b1480610ebb575060036000858152600a602052604090206007015460ff166004811115610eb95760e060020a634e487b7102600052602160045260246000fd5b145b8015610ed757506000848152600b602052604090206002015481105b610f265760405160e560020a62461bcd02815260206004820181905260248201527f52656e74616c20636f76656e616e74206d7573742062652072656e74696e672e60448201526064016108ee565b6000848152600a60209081526040808320600b909252822060020154909190610f50908490613edb565b8260040154610f5f9190613ebc565b6000878152600b60205260409020546003840154919250610f8f913091600160a060020a03908116911684612daa565b6000838360040154610fa19190613ebc565b60078401546003850154919250600091610fcc91600160a060020a03610100909104811691166132a6565b9050612710610fdb8284613ebc565b610fe59190613e99565b600185015490915061100a90600160a060020a031660e160020a63152a902d02613310565b15611165576001840154600285015460405160e160020a63152a902d0281526000928392600160a060020a0390911691632a55205a91611057918890600401918252602082015260400190565b604080518083038186803b15801561106e57600080fd5b505afa158015611082573d6000803e3d6000fd5b505050506040513d601f19601f820116820180604052508101906110a691906139c5565b60078801549193509150600160a060020a0380841661010090920416148015906110d05750600081115b156111325760038601546110f19030908490600160a060020a031684612daa565b6007860154600387015461112d913091600160a060020a03610100909204821691168461111e888a613edb565b6111289190613edb565b612daa565b61115e565b6007860154600387015461115e913091600160a060020a03610100909204821691166111288789613edb565b5050611191565b60078401546003850154611191913091600160a060020a03610100909204821691166111288587613edb565b6111bf306111a7600054600160a060020a031690565b6003870154600160a060020a03166111288587613edb565b600180850154600286015460008b8152600b60205260409020909201546005870154600160a060020a039092169263eaf05b169290913391611201908b613ebc565b61120b9190613e81565b6040518463ffffffff1660e060020a02815260040161122c93929190613e54565b600060405180830381600087803b15801561124657600080fd5b505af115801561125a573d6000803e3d6000fd5b50505060009889525050600b602052505060409094206002015550506001805550565b600854600160a060020a031633146112aa5760405160e560020a62461bcd0281526004016108ee90613d8f565b6112b66004838361332c565b505050565b6000858152600a602052604090206007015485906101009004600160a060020a031633146112fe5760405160e560020a62461bcd0281526004016108ee90613d23565b8560016000828152600a602052604090206007015460ff1660048111156113385760e060020a634e487b7102600052602160045260246000fd5b1415806113cb57506000818152600a6020908152604080832060050154600b90925290912060020154429161136c91613ebc565b6000838152600b60205260409020600101546113889190613e81565b1180156113cb575060026000828152600a602052604090206007015460ff1660048111156113c95760e060020a634e487b7102600052602160045260246000fd5b145b61141a5760405160e560020a62461bcd02815260206004820152601160248201527f4e6f742074696d6520666f722072656e7400000000000000000000000000000060448201526064016108ee565b600260015414156114405760405160e560020a62461bcd0281526004016108ee90613dc6565b600260018190556000888152600a6020908152604080832060038082018054600160a060020a031916600160a060020a038e16179055600482018b9055600582018a905560068201899055600b9093529220908101549201549091146114a9576114a988612f41565b50506040805160808101825260008082526020808301828152838501838152606085018481529b8452600b9092529390912091518254600160a060020a031916600160a060020a0390911617825591516001808301919091559151600282015596516003909701969096555050509180555050565b600854600160a060020a0316331461154b5760405160e560020a62461bcd0281526004016108ee90613d8f565b61155660028261334a565b5050565b6000818152600a602052604090206007015481906101009004600160a060020a0316331461159d5760405160e560020a62461bcd0281526004016108ee90613d23565b600260015414156115c35760405160e560020a62461bcd0281526004016108ee90613dc6565b600260019081556000838152600a6020908152604080832060050154600b9092528220909201544292906115f79084613edb565b6116019190613e99565b6000858152600a60205260409020600601549091506116209082613e81565b6000858152600b60205260409020600201549091508110611652576000848152600b6020526040902060020154611654565b805b6000858152600a60209081526040808320600b9092528220600201549293509161167f908490613edb565b6000878152600a602052604090206004015461169b9190613ebc565b905080156116d0576000868152600b602052604090205460038301546116d0913091600160a060020a03918216911684612daa565b506000948552600b6020526040909420600201555050600701805460ff1916600317905560018055565b600260015414156117205760405160e560020a62461bcd0281526004016108ee90613dc6565b600260015582158015906117345750600082115b6117535760405160e560020a62461bcd0281526004016108ee90613cc6565b61177d867f80ac58cd00000000000000000000000000000000000000000000000000000000613310565b6117cc5760405160e560020a62461bcd02815260206004820152601b60248201527f436f6e7472616374206e6565647320746f20626520455243373231000000000060448201526064016108ee565b60405160e060020a6323b872dd028152600160a060020a038716906323b872dd906117ff90339030908a90600401613bba565b600060405180830381600087803b15801561181957600080fd5b505af115801561182d573d6000803e3d6000fd5b5050505061183f600980546001019055565b600061184a60095490565b905060405180610120016040528082815260200188600160a060020a0316815260200187815260200186600160a060020a03168152602001858152602001848152602001838152602001600160048111156118b85760e060020a634e487b7102600052602160045260246000fd5b8152336020918201526000838152600a8252604090819020835181559183015160018084018054600160a060020a03938416600160a060020a0319918216179091559285015160028501556060850151600385018054919093169316929092179055608083015160048084019190915560a0840151600584015560c0840151600684015560e08401516007840180549193909260ff199092169184908111156119745760e060020a634e487b7102600052602160045260246000fd5b021790555061010091820151600791909101805474ffffffffffffffffffffffffffffffffffffffff001916600160a060020a0392831690930292909217909155604080516080810182526000808252602080830182815283850183815260608501848152978452600b9092529390912091518254600160a060020a031916941693909317815590516001828101919091559151600282015591516003909201919091558055505050505050565b600054600160a060020a03163314611a4f5760405160e560020a62461bcd0281526004016108ee90613d5a565b611a59600061335f565b565b60026001541415611a815760405160e560020a62461bcd0281526004016108ee90613dc6565b60026001556000828152600a60205260409020600701546101009004600160a060020a0316331415611af85760405160e560020a62461bcd02815260206004820152601960248201527f53656e646572206d757374206265206e6f74206c656e6465720000000000000060448201526064016108ee565b60026000838152600a602052604090206007015460ff166004811115611b315760e060020a634e487b7102600052602160045260246000fd5b1480611b73575060016000838152600a602052604090206007015460ff166004811115611b715760e060020a634e487b7102600052602160045260246000fd5b145b611bc25760405160e560020a62461bcd02815260206004820152601260248201527f4e6f74206163636570746564207374617465000000000000000000000000000060448201526064016108ee565b6000828152600a602052604081206004810154909190611be29084613e99565b90506000826004015482611bf69190613ebc565b90506000611c048286613edb565b90504260026000888152600a602052604090206007015460ff166004811115611c405760e060020a634e487b7102600052602160045260246000fd5b1415611d49576000878152600a6020908152604080832060050154600b909252909120600201544291611c7291613ebc565b6000898152600b6020526040902060010154611c8e9190613e81565b11611cde5760405160e560020a62461bcd02815260206004820152601d60248201527f52656e74616c20636f76656e616e74206d75737420626520656e64656400000060448201526064016108ee565b6000878152600b60205260409020600381015460029091015414611d495760058501546000888152600b6020526040902060020154611d1d9190613ebc565b611d279082613edb565b6000888152600b6020526040902060020154909150611d469085613e81565b93505b6003850154600160a060020a0316611dd457853414611dad5760405160e560020a62461bcd02815260206004820152601760248201527f52656e74616c20616d6f756e74206e6f7420657861637400000000000000000060448201526064016108ee565b8115611dcf576003850154611dcf9030903390600160a060020a031685612daa565b611df0565b6003850154611df09033903090600160a060020a031686612daa565b600185015460028601546005870154600160a060020a039092169163eaf05b16919033908590611e20908a613ebc565b611e2a9190613e81565b6040518463ffffffff1660e060020a028152600401611e4b93929190613e54565b600060405180830381600087803b158015611e6557600080fd5b505af1158015611e79573d6000803e3d6000fd5b5050506007860180546002925060ff191660018302179055506000968752600b60205260409096208054600160a060020a031916331781556001808201979097556002019290925550505090805550565b60606000611ed860026133af565b905060008167ffffffffffffffff811115611f065760e060020a634e487b7102600052604160045260246000fd5b604051908082528060200260200182016040528015611f2f578160200160208202803683370190505b50905060005b82811015611f9557611f486002826133b9565b828281518110611f6b5760e060020a634e487b7102600052603260045260246000fd5b600160a060020a039092166020928302919091019091015280611f8d81613ef2565b915050611f35565b5092915050565b60606000611fa960095490565b905060008167ffffffffffffffff811115611fd75760e060020a634e487b7102600052604160045260246000fd5b60405190808252806020026020018201604052801561201057816020015b611ffd6138c6565b815260200190600190039081611ff55790505b5090506000805b8381101561214d576000818152600a6020908152604091829020825161012081018452815481526001820154600160a060020a0390811693820193909352600282015493810193909352600381015490911660608301526004808201546080840152600582015460a0840152600682015460c0840152600782015460e084019160ff909116908111156120bd5760e060020a634e487b7102600052602160045260246000fd5b60048111156120df5760e060020a634e487b7102600052602160045260246000fd5b8152600791909101546101009004600160a060020a031660209091015283518490849081106121215760e060020a634e487b7102600052603260045260246000fd5b6020026020010181905250818061213790613ef2565b925050808061214590613ef2565b915050612017565b50909392505050565b600061216283836132a6565b9392505050565b6121716138c6565b6121a560405180608001604052806000600160a060020a031681526020016000815260200160008152602001600081525090565b6000838152600a60209081526040808320815161012081018352815481526001820154600160a060020a0390811694820194909452600282015492810192909252600381015490921660608201526004808301546080830152600583015460a0830152600683015460c0830152600783015491929160e084019160ff909116908111156122455760e060020a634e487b7102600052602160045260246000fd5b60048111156122675760e060020a634e487b7102600052602160045260246000fd5b815260079190910154600160a060020a0361010090910481166020928301526000968752600b82526040968790208751608081018952815490921682526001810154928201929092526002820154968101969096526003015460608601529492505050565b600854600160a060020a031633146122f95760405160e560020a62461bcd0281526004016108ee90613d8f565b6115566004826133c5565b6000818152600a602052604090206007015481906101009004600160a060020a031633146123475760405160e560020a62461bcd0281526004016108ee90613d23565b8160016000828152600a602052604090206007015460ff1660048111156123815760e060020a634e487b7102600052602160045260246000fd5b14158061241457506000818152600a6020908152604080832060050154600b9092529091206002015442916123b591613ebc565b6000838152600b60205260409020600101546123d19190613e81565b118015612414575060026000828152600a602052604090206007015460ff1660048111156124125760e060020a634e487b7102600052602160045260246000fd5b145b6124635760405160e560020a62461bcd02815260206004820152601160248201527f4e6f742074696d6520666f722072656e7400000000000000000000000000000060448201526064016108ee565b600260015414156124895760405160e560020a62461bcd0281526004016108ee90613dc6565b600260018181556000858152600a6020526040908190209182015492820154905160e060020a6323b872dd0281529192600160a060020a0316916323b872dd916124d99130913391600401613bba565b600060405180830381600087803b1580156124f357600080fd5b505af1158015612507573d6000803e3d6000fd5b5050506000858152600b6020526040902060038101546002909101541490506125335761253384612f41565b604080516080810182526000808252602080830182815283850183815260608501848152998452600b9092529390912091518254600160a060020a03909116600160a060020a03199091161782559151600180830191909155915160028201559451600390950194909455600701805460ff1916600417905550508055565b606060006125c060046133da565b905060008167ffffffffffffffff8111156125ee5760e060020a634e487b7102600052604160045260246000fd5b60405190808252806020026020018201604052801561263357816020015b604080518082019091526000808252602082015281526020019060019003908161260c5790505b50905060005b82811015611f955760008061264f6004846133e5565b91509150604051806040016040528083600160a060020a03168152602001828152508484815181106126945760e060020a634e487b7102600052603260045260246000fd5b6020026020010181905250505080806126ac90613ef2565b915050612639565b600260015414156126da5760405160e560020a62461bcd0281526004016108ee90613dc6565b600260015560046000868152600a602052604090206007015460ff1660048111156127185760e060020a634e487b7102600052602160045260246000fd5b146127685760405160e560020a62461bcd02815260206004820152601d60248201527f436f76656e616e74206d75737420756e6c6973746564206265666f726500000060448201526064016108ee565b6000831180156127785750600082115b6127975760405160e560020a62461bcd0281526004016108ee90613cc6565b6000858152600a6020526040908190206001810154600290910154915160e060020a6323b872dd028152600160a060020a03909116916323b872dd916127e4913391309190600401613bba565b600060405180830381600087803b1580156127fe57600080fd5b505af1158015612812573d6000803e3d6000fd5b5050506000868152600a6020908152604080832060038082018054600160a060020a039b8c16600160a060020a03199182161790915560048301999099556005820197909755600681019590955560079094018054610100330274ffffffffffffffffffffffffffffffffffffffffff199091161760019081179091558451608081018652838152808301848152818701858152606083018681529b8652600b90945295909320925183549816979096169690961781559151828501555092516002840155925191909201558055565b6000818152600a602052604090206007015481906101009004600160a060020a031633146129255760405160e560020a62461bcd0281526004016108ee90613d23565b6002600154141561294b5760405160e560020a62461bcd0281526004016108ee90613dc6565b600260018190556000838152600a6020908152604080832060050154600b90925290912090910154429161297e91613ebc565b6000848152600b602052604090206001015461299a9190613e81565b1080156129dd575060036000838152600a602052604090206007015460ff1660048111156129db5760e060020a634e487b7102600052602160045260246000fd5b145b612a2c5760405160e560020a62461bcd02815260206004820152601760248201527f436f76656e616e74206d7573742062652072656465656d00000000000000000060448201526064016108ee565b6000828152600a60205260409081902060018101546002820154925160e060020a6323b872dd0281529192600160a060020a03909116916323b872dd91612a799130913391600401613bba565b600060405180830381600087803b158015612a9357600080fd5b505af1158015612aa7573d6000803e3d6000fd5b5050506000848152600b602052604090206003810154600290910154149050612ad357612ad383612f41565b604080516080810182526000808252602080830182815283850183815260608501848152988452600b9092529390912091518254600160a060020a03909116600160a060020a03199091161782559151600180830191909155915160028201559351600390940193909355600701805460ff19166004179055508055565b600854600160a060020a03163314612b7e5760405160e560020a62461bcd0281526004016108ee90613d8f565b611556600282613403565b600054600160a060020a03163314612bb65760405160e560020a62461bcd0281526004016108ee90613d5a565b600160a060020a038116612c355760405160e560020a62461bcd02815260206004820152602660248201527f4f776e61626c653a206e6577206f776e657220697320746865207a65726f206160448201527f646472657373000000000000000000000000000000000000000000000000000060648201526084016108ee565b612c3e8161335f565b50565b612c496138c6565b612c516138c6565b6000612c5c60095490565b905060005b81811015612da0576000818152600a6020526040902060010154600160a060020a038781169116148015612ca557506000818152600a602052604090206002015485145b15612d8e576000818152600a6020908152604091829020825161012081018452815481526001820154600160a060020a0390811693820193909352600282015493810193909352600381015490911660608301526004808201546080840152600582015460a0840152600682015460c0840152600782015460e084019160ff90911690811115612d485760e060020a634e487b7102600052602160045260246000fd5b6004811115612d6a5760e060020a634e487b7102600052602160045260246000fd5b8152600791909101546101009004600160a060020a03166020909101529250612da0565b80612d9881613ef2565b915050612c61565b5090949350505050565b600160a060020a038216612df457604051600160a060020a0384169082156108fc029083906000818181858888f19350505050158015612dee573d6000803e3d6000fd5b50612f26565b600160a060020a0384163014612e895760405160e060020a6323b872dd028152600160a060020a038316906323b872dd90612e3790879087908690600401613bba565b602060405180830381600087803b158015612e5157600080fd5b505af1158015612e65573d6000803e3d6000fd5b505050506040513d601f19601f82011682018060405250810190612dee9190613a4d565b6040517fa9059cbb000000000000000000000000000000000000000000000000000000008152600160a060020a0384811660048301526024820183905283169063a9059cbb90604401602060405180830381600087803b158015612eec57600080fd5b505af1158015612f00573d6000803e3d6000fd5b505050506040513d601f19601f82011682018060405250810190612f249190613a4d565b505b50505050565b600061216283600160a060020a038416613418565b60026001541415612f675760405160e560020a62461bcd0281526004016108ee90613dc6565b600260019081556000828152600a6020908152604080832060050154600b909252822090920154429290612f9b9084613edb565b612fa59190613e99565b6000848152600b60205260409020600201549091508110612fd7576000838152600b6020526040902060020154612fd9565b805b6000848152600b6020526040902060030154909150811161303f5760405160e560020a62461bcd02815260206004820152601a60248201527f596f7520776974686472617720616c6c20617661696c61626c6500000000000060448201526064016108ee565b6000838152600a60209081526040808320600b9092528220600301549091906130689084613edb565b82600401546130779190613ebc565b600783015460038401549192506000916130a291600160a060020a03610100909104811691166132a6565b90506127106130b18284613ebc565b6130bb9190613e99565b60018401549091506130e090600160a060020a031660e160020a63152a902d02613310565b1561322c576001830154600284015460405160e160020a63152a902d0281526000928392600160a060020a0390911691632a55205a9161312d918890600401918252602082015260400190565b604080518083038186803b15801561314457600080fd5b505afa158015613158573d6000803e3d6000fd5b505050506040513d601f19601f8201168201806040525081019061317c91906139c5565b60078701549193509150600160a060020a0380841661010090920416148015906131a65750600081115b156131f95760038501546131c79030908490600160a060020a031684612daa565b600785015460038601546131f4913091600160a060020a03610100909204821691168461111e888a613edb565b613225565b60078501546003860154613225913091600160a060020a03610100909204821691166111288789613edb565b5050613258565b60078301546003840154613258913091600160a060020a03610100909204821691166111288587613edb565b6132863061326e600054600160a060020a031690565b6003860154600160a060020a03166111288587613edb565b5050506000928352600b6020526040909220600301919091555060018055565b60408051808201909152600080825260208201819052906132c860048561348b565b602083015215801582526132e157602001519050610c8d565b6132ec60048461348b565b6020830152158015825261330557602001519050610c8d565b505060075492915050565b600061331b836134a3565b801561216257506121628383613504565b600061334284600160a060020a03851684613630565b949350505050565b600061216283600160a060020a03841661364d565b60008054600160a060020a03838116600160a060020a0319831681178455604051919092169283917f8be0079c531659141344cd1fd0a4f28419497f9722a3daafe3b4186f6b6457e09190a35050565b6000610c8d825490565b60006121628383613773565b600061216283600160a060020a0384166137ae565b6000610c8d826137cb565b60008080806133f486866137d6565b909450925050505b9250929050565b600061216283600160a060020a038416613801565b60008181526002830160205260408120548015158061343c575061343c8484613850565b6121625760405160e560020a62461bcd02815260206004820152601e60248201527f456e756d657261626c654d61703a206e6f6e6578697374656e74206b6579000060448201526064016108ee565b60008080806133f486600160a060020a03871661385c565b60006134cf827f01ffc9a700000000000000000000000000000000000000000000000000000000613504565b8015610c8d57506134fd827bffffffffffffffffffffffffffffffffffffffffffffffffffffffff19613504565b1592915050565b604080517bffffffffffffffffffffffffffffffffffffffffffffffffffffffff19831660248083019190915282518083039091018152604490910182526020810180517bffffffffffffffffffffffffffffffffffffffffffffffffffffffff167f01ffc9a70000000000000000000000000000000000000000000000000000000017905290516000919082908190600160a060020a03871690617530906135ae908690613b81565b6000604051808303818686fa925050503d80600081146135ea576040519150601f19603f3d011682016040523d82523d6000602084013e6135ef565b606091505b509150915060208151101561360a5760009350505050610c8d565b8180156136265750808060200190518101906136269190613a4d565b9695505050505050565b600082815260028401602052604081208290556133428484613896565b60008181526001830160205260408120548015613769576000613671600183613edb565b855490915060009061368590600190613edb565b905081811461370c5760008660000182815481106136b65760e060020a634e487b7102600052603260045260246000fd5b90600052602060002001549050808760000184815481106136ea5760e060020a634e487b7102600052603260045260246000fd5b6000918252602080832090910192909255918252600188019052604090208390555b855486908061372e5760e060020a634e487b7102600052603160045260246000fd5b600190038181906000526020600020016000905590558560010160008681526020019081526020016000206000905560019350505050610c8d565b6000915050610c8d565b600082600001828154811061379b5760e060020a634e487b7102600052603260045260246000fd5b9060005260206000200154905092915050565b6000818152600283016020526040812081905561216283836138a2565b6000610c8d826133af565b600080806137e485856133b9565b600081815260029690960160205260409095205494959350505050565b600081815260018301602052604081205461384857508154600181810184556000848152602080822090930184905584548482528286019093526040902091909155610c8d565b506000610c8d565b600061216283836138ae565b600081815260028301602052604081205481908061388b5761387e8585613850565b9250600091506133fc9050565b6001925090506133fc565b60006121628383613801565b6000612162838361364d565b60008181526001830160205260408120541515612162565b604051806101200160405280600081526020016000600160a060020a03168152602001600081526020016000600160a060020a03168152602001600081526020016000815260200160008152602001600060048111156139395760e060020a634e487b7102600052602160045260246000fd5b8152600060209091015290565b600060208284031215613957578081fd5b813561216281613f26565b60008060408385031215613974578081fd5b823561397f81613f26565b9150602083013561398f81613f26565b809150509250929050565b600080604083850312156139ac578182fd5b82356139b781613f26565b946020939093013593505050565b600080604083850312156139d7578182fd5b82516139e281613f26565b6020939093015192949293505050565b60008060008060008060c08789031215613a0a578182fd5b8635613a1581613f26565b9550602087013594506040870135613a2c81613f26565b959894975094956060810135955060808101359460a0909101359350915050565b600060208284031215613a5e578081fd5b81518015158114612162578182fd5b600060208284031215613a7e578081fd5b5035919050565b600080600080600060a08688031215613a9c578081fd5b853594506020860135613aae81613f26565b94979496505050506040830135926060810135926080909101359150565b60008060408385031215613ade578182fd5b50508035926020909101359150565b805182526020810151600160a060020a0380821660208501526040830151604085015280606084015116606085015250506080810151608083015260a081015160a083015260c081015160c083015260e081015160058110613b625760e060020a634e487b7102600052602160045260246000fd5b60e083015261010081810151600160a060020a03811682850152612f26565b60008251815b81811015613ba15760208186018101518583015201613b87565b81811115613baf5782828501525b509190910192915050565b600160a060020a039384168152919092166020820152604081019190915260600190565b6020808252825182820181905260009190848201906040850190845b81811015613c1f578351600160a060020a031683529284019291840191600101613bfa565b50909695505050505050565b6020808252825182820181905260009190848201906040850190845b81811015613c1f57613c5a838551613aed565b928401926101209290920191600101613c47565b602080825282518282018190526000919060409081850190868401855b82811015613cb95781518051600160a060020a03168552860151868501529284019290850190600101613c8b565b5091979650505050505050565b60208082526025908201527f52656c65617365206672657175656e6379206d7573742067726561746572207460408201527f68616e2030000000000000000000000000000000000000000000000000000000606082015260800190565b60208082526014908201527f53656e646572206973206e6f74206c656e646572000000000000000000000000604082015260600190565b6020808252818101527f4f776e61626c653a2063616c6c6572206973206e6f7420746865206f776e6572604082015260600190565b60208082526014908201527f4d7573742062652068756220636f6e7472616374000000000000000000000000604082015260600190565b6020808252601f908201527f5265656e7472616e637947756172643a207265656e7472616e742063616c6c00604082015260600190565b6101208101610c8d8284613aed565b6101a08101613e1b8285613aed565b600160a060020a038351166101208301526020830151610140830152604083015161016083015260608301516101808301529392505050565b928352600160a060020a039190911660208301526bffffffffffffffffffffffff16604082015260600190565b60008219821115613e9457613e94613f0d565b500190565b600082613eb75760e060020a634e487b710281526012600452602481fd5b500490565b6000816000190483118215151615613ed657613ed6613f0d565b500290565b600082821015613eed57613eed613f0d565b500390565b6000600019821415613f0657613f06613f0d565b5060010190565b60e060020a634e487b7102600052601160045260246000fd5b600160a060020a0381168114612c3e57600080fdfea2646970667358221220d93543bb68ddc4b95b94877e1670da61ac5cf760cebcf5c74d7d209c202f7f0a64736f6c63430008040033",
  "immutableReferences": {},
  "source": "// SPDX-License-Identifier: MIT\r\npragma solidity ^0.8.4;\r\n\r\nimport \"@openzeppelin/contracts/utils/Counters.sol\";\r\nimport \"@openzeppelin/contracts/token/ERC721/ERC721.sol\";\r\nimport \"@openzeppelin/contracts/token/ERC721/IERC721.sol\";\r\nimport \"@openzeppelin/contracts/interfaces/IERC2981.sol\";\r\nimport \"@openzeppelin/contracts/token/ERC20/IERC20.sol\";\r\nimport \"@openzeppelin/contracts/utils/introspection/ERC165Checker.sol\";\r\nimport \"./interfaces/IERC4907.sol\";\r\nimport \"./HubChild.sol\";\r\n\r\ncontract Rental is HubChild {\r\n    using Counters for Counters.Counter;\r\n    Counters.Counter private _itemCount;\r\n    mapping(uint256 => Covenant) private _idToCovenant;\r\n    mapping(uint256 => CovenantProfile) private _idToProfile;\r\n    bytes4 public constant ERC721INTERFACE = type(IERC721).interfaceId;\r\n    bytes4 public constant ERC2981INTERFACE = type(IERC2981).interfaceId;\r\n\r\n    enum CovenantStatus {\r\n        NOT_INITIAL,\r\n        LISTING,\r\n        RENTING,\r\n        REDEEM,\r\n        UNLISTED\r\n    }\r\n\r\n    struct CovenantProfile {\r\n        address borrower;\r\n        uint256 startTime;\r\n        uint256 duration;\r\n        uint256 withdrawRound;\r\n    }\r\n\r\n    struct Covenant {\r\n        uint256 itemId;\r\n        address nftContract;\r\n        uint256 tokenId;\r\n        address ftContract;\r\n        uint256 releaseFrequency;\r\n        uint256 cycleTime;\r\n        uint256 cycleEnded;\r\n        CovenantStatus status;\r\n        address lender;\r\n    }\r\n\r\n    constructor(uint256 fee, address hub) {\r\n        RATE_FEE = fee;\r\n        setHub(hub);\r\n    }\r\n    \r\n    modifier onlyBorrower(uint256 itemId) {\r\n        require(\r\n            _idToProfile[itemId].borrower == msg.sender,\r\n            \"Sender is not borrower\"\r\n        );\r\n        _;\r\n    }\r\n\r\n    modifier onlyLender(uint256 itemId) {\r\n        require(\r\n            _idToCovenant[itemId].lender == msg.sender,\r\n            \"Sender is not lender\"\r\n        );\r\n        _;\r\n    }\r\n\r\n    modifier rentAvailable(uint256 itemId) {\r\n        require(\r\n            _idToCovenant[itemId].status != CovenantStatus.LISTING ||\r\n                (_idToProfile[itemId].startTime +\r\n                    _idToProfile[itemId].duration *\r\n                    _idToCovenant[itemId].cycleTime >\r\n                    block.timestamp &&\r\n                    _idToCovenant[itemId].status == CovenantStatus.RENTING),\r\n            \"Not time for rent\"\r\n        );\r\n        _;\r\n    }\r\n\r\n    function list(\r\n        address nftContract,\r\n        uint256 tokenId,\r\n        address ftContract,\r\n        uint256 releaseFrequency,\r\n        uint256 cycleTime,\r\n        uint256 cycleEnded\r\n    ) public nonReentrant {\r\n        require(\r\n            releaseFrequency > 0 && cycleTime > 0,\r\n            \"Release frequency must greater than 0\"\r\n        );\r\n        require(\r\n            ERC165Checker.supportsInterface(nftContract, ERC721INTERFACE),\r\n            \"Contract needs to be ERC721\"\r\n        );\r\n\r\n        IERC721(nftContract).transferFrom(msg.sender, address(this), tokenId);\r\n        _itemCount.increment();\r\n        uint256 itemId = _itemCount.current();\r\n\r\n        _idToCovenant[itemId] = Covenant(\r\n            itemId,\r\n            nftContract,\r\n            tokenId,\r\n            ftContract,\r\n            releaseFrequency,\r\n            cycleTime,\r\n            cycleEnded,\r\n            CovenantStatus.LISTING,\r\n            msg.sender\r\n        );\r\n\r\n        _idToProfile[itemId] = CovenantProfile(address(0), 0, 0, 0);\r\n    }\r\n\r\n    function relist(\r\n        uint256 itemId,\r\n        address ftContract,\r\n        uint256 releaseFrequency,\r\n        uint256 cycleTime,\r\n        uint256 cycleEnded\r\n    ) public nonReentrant {\r\n        require(\r\n            _idToCovenant[itemId].status == CovenantStatus.UNLISTED,\r\n            \"Covenant must unlisted before\"\r\n        );\r\n        require(\r\n            releaseFrequency > 0 && cycleTime > 0,\r\n            \"Release frequency must greater than 0\"\r\n        );\r\n        IERC721(_idToCovenant[itemId].nftContract).transferFrom(\r\n            msg.sender,\r\n            address(this),\r\n            _idToCovenant[itemId].tokenId\r\n        );\r\n\r\n        _idToCovenant[itemId].ftContract = ftContract;\r\n        _idToCovenant[itemId].releaseFrequency = releaseFrequency;\r\n        _idToCovenant[itemId].cycleTime = cycleTime;\r\n        _idToCovenant[itemId].cycleEnded = cycleEnded;\r\n        _idToCovenant[itemId].status = CovenantStatus.LISTING;\r\n        _idToCovenant[itemId].lender = msg.sender;\r\n        _idToProfile[itemId] = CovenantProfile(address(0), 0, 0, 0);\r\n    }\r\n\r\n    function edit(\r\n        uint256 itemId,\r\n        address ftContract,\r\n        uint256 releaseFrequency,\r\n        uint256 cycleTime,\r\n        uint256 cycleEnded\r\n    ) external onlyLender(itemId) rentAvailable(itemId) nonReentrant {\r\n        Covenant storage rentalCovenant = _idToCovenant[itemId];\r\n\r\n        rentalCovenant.ftContract = ftContract;\r\n        rentalCovenant.releaseFrequency = releaseFrequency;\r\n        rentalCovenant.cycleTime = cycleTime;\r\n        rentalCovenant.cycleEnded = cycleEnded;\r\n\r\n        if (\r\n            _idToProfile[itemId].duration != _idToProfile[itemId].withdrawRound\r\n        ) {\r\n            internalWithdraw(itemId);\r\n        }\r\n\r\n        _idToProfile[itemId] = CovenantProfile(address(0), 0, 0, 0);\r\n    }\r\n\r\n    function unlist(uint256 itemId)\r\n        external\r\n        onlyLender(itemId)\r\n        rentAvailable(itemId)\r\n        nonReentrant\r\n    {\r\n        Covenant storage rentalCovenant = _idToCovenant[itemId];\r\n        IERC721(rentalCovenant.nftContract).transferFrom(\r\n            address(this),\r\n            msg.sender,\r\n            rentalCovenant.tokenId\r\n        );\r\n        if (\r\n            _idToProfile[itemId].duration != _idToProfile[itemId].withdrawRound\r\n        ) {\r\n            internalWithdraw(itemId);\r\n        }\r\n\r\n        _idToProfile[itemId] = CovenantProfile(address(0), 0, 0, 0);\r\n        rentalCovenant.status = CovenantStatus.UNLISTED;\r\n    }\r\n\r\n    function rent(uint256 itemId, uint256 amount) public payable nonReentrant {\r\n        require(\r\n            _idToCovenant[itemId].lender != msg.sender,\r\n            \"Sender must be not lender\"\r\n        );\r\n\r\n        require(\r\n            _idToCovenant[itemId].status == CovenantStatus.RENTING ||\r\n                _idToCovenant[itemId].status == CovenantStatus.LISTING,\r\n            \"Not accepted state\"\r\n        );\r\n        Covenant storage rentalCovenant = _idToCovenant[itemId];\r\n        uint256 duration = amount / rentalCovenant.releaseFrequency;\r\n        uint256 realAmount = duration * rentalCovenant.releaseFrequency;\r\n        uint256 refund = amount - realAmount;\r\n\r\n        uint256 startTime = block.timestamp;\r\n        if (_idToCovenant[itemId].status == CovenantStatus.RENTING) {\r\n            require(\r\n                _idToProfile[itemId].startTime +\r\n                    _idToProfile[itemId].duration *\r\n                    _idToCovenant[itemId].cycleTime >\r\n                    block.timestamp,\r\n                \"Rental covenant must be ended\"\r\n            );\r\n            if (\r\n                _idToProfile[itemId].duration !=\r\n                _idToProfile[itemId].withdrawRound\r\n            ) {\r\n                startTime -=\r\n                    _idToProfile[itemId].duration *\r\n                    rentalCovenant.cycleTime;\r\n                duration += _idToProfile[itemId].duration;\r\n            }\r\n        }\r\n\r\n        if (rentalCovenant.ftContract == address(0)) {\r\n            require(msg.value == amount, \"Rental amount not exact\");\r\n            if (refund > 0) {\r\n                sendAssets(\r\n                    address(this),\r\n                    msg.sender,\r\n                    rentalCovenant.ftContract,\r\n                    refund\r\n                );\r\n            }\r\n        } else {\r\n            sendAssets(\r\n                msg.sender,\r\n                address(this),\r\n                rentalCovenant.ftContract,\r\n                realAmount\r\n            );\r\n        }\r\n\r\n        IERC4907(rentalCovenant.nftContract).setUser(\r\n            rentalCovenant.tokenId,\r\n            msg.sender,\r\n            uint96(duration * rentalCovenant.cycleTime + startTime)\r\n        );\r\n        rentalCovenant.status = CovenantStatus.RENTING;\r\n        _idToProfile[itemId].borrower = msg.sender;\r\n        _idToProfile[itemId].startTime = startTime;\r\n        _idToProfile[itemId].duration = duration;\r\n    }\r\n\r\n    function topup(uint256 itemId, uint256 amount)\r\n        public\r\n        payable\r\n        onlyBorrower(itemId)\r\n        nonReentrant\r\n    {\r\n        require(\r\n            _idToCovenant[itemId].status == CovenantStatus.RENTING,\r\n            \"Rental covenant must be renting.\"\r\n        );\r\n\r\n        Covenant storage rentalCovenant = _idToCovenant[itemId];\r\n        uint256 duration = amount / rentalCovenant.releaseFrequency;\r\n        uint256 realAmount = duration * rentalCovenant.releaseFrequency;\r\n        uint256 refund = amount - realAmount;\r\n\r\n        if (rentalCovenant.ftContract == address(0)) {\r\n            require(msg.value == amount, \"Rental amount not exact\");\r\n            if (refund > 0) {\r\n                sendAssets(\r\n                    address(this),\r\n                    msg.sender,\r\n                    rentalCovenant.ftContract,\r\n                    refund\r\n                );\r\n            }\r\n        } else {\r\n            sendAssets(\r\n                msg.sender,\r\n                address(this),\r\n                rentalCovenant.ftContract,\r\n                realAmount\r\n            );\r\n        }\r\n        duration += _idToProfile[itemId].duration;\r\n        IERC4907(rentalCovenant.nftContract).setUser(\r\n            rentalCovenant.tokenId,\r\n            msg.sender,\r\n            uint96(duration * rentalCovenant.cycleTime + _idToProfile[itemId].startTime)\r\n        );\r\n        rentalCovenant.status = CovenantStatus.RENTING;\r\n        _idToProfile[itemId].borrower = msg.sender;\r\n        _idToProfile[itemId].duration = duration;\r\n    }\r\n\r\n    function cancel(uint256 itemId)\r\n        public\r\n        payable\r\n        onlyBorrower(itemId)\r\n        nonReentrant\r\n    {\r\n        uint256 currentTime = block.timestamp;\r\n        uint256 currentCycle = (currentTime - _idToProfile[itemId].startTime) /\r\n            _idToCovenant[itemId].cycleTime;\r\n        currentCycle++;\r\n\r\n        require(\r\n            (_idToCovenant[itemId].status == CovenantStatus.RENTING ||\r\n                _idToCovenant[itemId].status == CovenantStatus.REDEEM) &&\r\n                currentCycle < _idToProfile[itemId].duration,\r\n            \"Rental covenant must be renting.\"\r\n        );\r\n\r\n        Covenant storage rentalCovenant = _idToCovenant[itemId];\r\n        uint256 refund = rentalCovenant.releaseFrequency *\r\n            (_idToProfile[itemId].duration - currentCycle);\r\n\r\n        // refund user\r\n        sendAssets(\r\n            address(this),\r\n            _idToProfile[itemId].borrower,\r\n            rentalCovenant.ftContract,\r\n            refund\r\n        );\r\n        uint256 amount = rentalCovenant.releaseFrequency * currentCycle;\r\n        uint256 fee = _feeOf(rentalCovenant.lender, rentalCovenant.ftContract);\r\n        fee = (amount * fee) / DENOMINATOR;\r\n        if (\r\n            ERC165Checker.supportsInterface(\r\n                rentalCovenant.nftContract,\r\n                ERC2981INTERFACE\r\n            )\r\n        ) {\r\n            (address creator, uint256 royaltyAmount) = IERC2981(\r\n                rentalCovenant.nftContract\r\n            ).royaltyInfo(rentalCovenant.tokenId, amount);\r\n            if (creator != rentalCovenant.lender && royaltyAmount > 0) {\r\n                sendAssets(\r\n                    address(this),\r\n                    creator,\r\n                    rentalCovenant.ftContract,\r\n                    royaltyAmount\r\n                );\r\n                sendAssets(\r\n                    address(this),\r\n                    rentalCovenant.lender,\r\n                    rentalCovenant.ftContract,\r\n                    amount - fee - royaltyAmount\r\n                );\r\n            } else {\r\n                sendAssets(\r\n                    address(this),\r\n                    rentalCovenant.lender,\r\n                    rentalCovenant.ftContract,\r\n                    amount - fee\r\n                );\r\n            }\r\n        } else {\r\n            sendAssets(\r\n                address(this),\r\n                rentalCovenant.lender,\r\n                rentalCovenant.ftContract,\r\n                amount - fee\r\n            );\r\n        }\r\n        sendAssets(\r\n            address(this),\r\n            owner(),\r\n            rentalCovenant.ftContract,\r\n            amount - fee\r\n        );\r\n        IERC4907(rentalCovenant.nftContract).setUser(\r\n            rentalCovenant.tokenId,\r\n            msg.sender,\r\n            uint96(currentCycle *\r\n                rentalCovenant.cycleTime +\r\n                _idToProfile[itemId].startTime)\r\n        );\r\n        _idToProfile[itemId].duration = currentCycle;\r\n    }\r\n\r\n    function withdraw(uint256 itemId)\r\n        public\r\n        payable\r\n        onlyLender(itemId)\r\n        nonReentrant\r\n    {\r\n        internalWithdraw(itemId);\r\n    }\r\n\r\n    function internalWithdraw(uint256 itemId) private nonReentrant {\r\n        uint256 currentTime = block.timestamp;\r\n        uint256 currentCycle = (currentTime - _idToProfile[itemId].startTime) /\r\n            _idToCovenant[itemId].cycleTime;\r\n        currentCycle = currentCycle < _idToProfile[itemId].duration\r\n            ? currentCycle\r\n            : _idToProfile[itemId].duration;\r\n        require(\r\n            currentCycle > _idToProfile[itemId].withdrawRound,\r\n            \"You withdraw all available\"\r\n        );\r\n\r\n        Covenant storage rentalCovenant = _idToCovenant[itemId];\r\n\r\n        uint256 amount = rentalCovenant.releaseFrequency *\r\n            (currentCycle - _idToProfile[itemId].withdrawRound);\r\n        uint256 fee = _feeOf(rentalCovenant.lender, rentalCovenant.ftContract);\r\n        fee = (amount * fee) / DENOMINATOR;\r\n        if (\r\n            ERC165Checker.supportsInterface(\r\n                rentalCovenant.nftContract,\r\n                ERC2981INTERFACE\r\n            )\r\n        ) {\r\n            (address creator, uint256 royaltyAmount) = IERC2981(\r\n                rentalCovenant.nftContract\r\n            ).royaltyInfo(rentalCovenant.tokenId, amount);\r\n            if (creator != rentalCovenant.lender && royaltyAmount > 0) {\r\n                sendAssets(\r\n                    address(this),\r\n                    creator,\r\n                    rentalCovenant.ftContract,\r\n                    royaltyAmount\r\n                );\r\n                sendAssets(\r\n                    address(this),\r\n                    rentalCovenant.lender,\r\n                    rentalCovenant.ftContract,\r\n                    amount - fee - royaltyAmount\r\n                );\r\n            } else {\r\n                sendAssets(\r\n                    address(this),\r\n                    rentalCovenant.lender,\r\n                    rentalCovenant.ftContract,\r\n                    amount - fee\r\n                );\r\n            }\r\n        } else {\r\n            sendAssets(\r\n                address(this),\r\n                rentalCovenant.lender,\r\n                rentalCovenant.ftContract,\r\n                amount - fee\r\n            );\r\n        }\r\n        sendAssets(\r\n            address(this),\r\n            owner(),\r\n            rentalCovenant.ftContract,\r\n            amount - fee\r\n        );\r\n\r\n        _idToProfile[itemId].withdrawRound = currentCycle;\r\n    }\r\n\r\n    function stop(uint256 itemId)\r\n        public\r\n        payable\r\n        onlyLender(itemId)\r\n        nonReentrant\r\n    {\r\n        uint256 currentTime = block.timestamp;\r\n        uint256 endCycle = (currentTime - _idToProfile[itemId].startTime) /\r\n            _idToCovenant[itemId].cycleTime;\r\n        endCycle += _idToCovenant[itemId].cycleEnded;\r\n        endCycle = endCycle < _idToProfile[itemId].duration\r\n            ? endCycle\r\n            : _idToProfile[itemId].duration;\r\n\r\n        Covenant storage rentalCovenant = _idToCovenant[itemId];\r\n        uint256 refund = _idToCovenant[itemId].releaseFrequency *\r\n            (_idToProfile[itemId].duration - endCycle);\r\n        if (refund > 0) {\r\n            sendAssets(\r\n                address(this),\r\n                _idToProfile[itemId].borrower,\r\n                rentalCovenant.ftContract,\r\n                refund\r\n            );\r\n        }\r\n\r\n        _idToProfile[itemId].duration = endCycle;\r\n        rentalCovenant.status = CovenantStatus.REDEEM;\r\n    }\r\n\r\n    function redeem(uint256 itemId) external onlyLender(itemId) nonReentrant {\r\n        require(\r\n            _idToProfile[itemId].startTime +\r\n                _idToProfile[itemId].duration *\r\n                _idToCovenant[itemId].cycleTime <\r\n                block.timestamp &&\r\n                _idToCovenant[itemId].status == CovenantStatus.REDEEM,\r\n            \"Covenant must be redeem\"\r\n        );\r\n        Covenant storage rentalCovenant = _idToCovenant[itemId];\r\n        IERC721(rentalCovenant.nftContract).transferFrom(\r\n            address(this),\r\n            msg.sender,\r\n            rentalCovenant.tokenId\r\n        );\r\n        if (\r\n            _idToProfile[itemId].duration != _idToProfile[itemId].withdrawRound\r\n        ) {\r\n            internalWithdraw(itemId);\r\n        }\r\n\r\n        _idToProfile[itemId] = CovenantProfile(address(0), 0, 0, 0);\r\n        rentalCovenant.status = CovenantStatus.UNLISTED;\r\n    }\r\n\r\n    function getCovenants() public view returns (Covenant[] memory) {\r\n        uint256 covenantCount = _itemCount.current();\r\n\r\n        Covenant[] memory covenants = new Covenant[](covenantCount);\r\n        uint256 covenantIndex = 0;\r\n        for (uint256 i = 0; i < covenantCount; i++) {\r\n            covenants[covenantIndex] = _idToCovenant[i];\r\n            covenantIndex++;\r\n        }\r\n        return covenants;\r\n    }\r\n\r\n    function getCovenantsByAddress(address addr)\r\n        public\r\n        view\r\n        returns (Covenant[] memory)\r\n    {\r\n        uint256 covenantCount = _itemCount.current();\r\n        uint256 myListedCovenantCount = 0;\r\n        for (uint256 i = 0; i < covenantCount; i++) {\r\n            if (\r\n                _idToProfile[i].borrower == addr ||\r\n                _idToCovenant[i].lender == addr\r\n            ) {\r\n                myListedCovenantCount++;\r\n            }\r\n        }\r\n\r\n        Covenant[] memory covenants = new Covenant[](covenantCount);\r\n        uint256 covenantIndex = 0;\r\n        for (uint256 i = 0; i < myListedCovenantCount; i++) {\r\n            if (\r\n                _idToProfile[i].borrower == addr ||\r\n                _idToCovenant[i].lender == addr\r\n            ) {\r\n                covenants[covenantIndex] = _idToCovenant[i];\r\n                covenantIndex++;\r\n            }\r\n        }\r\n        return covenants;\r\n    }\r\n\r\n    function getCovenant(uint256 itemId)\r\n        public\r\n        view\r\n        returns (Covenant memory, CovenantProfile memory)\r\n    {\r\n        Covenant memory covenant = _idToCovenant[itemId];\r\n        CovenantProfile memory profile = _idToProfile[itemId];\r\n        return (covenant, profile);\r\n    }\r\n\r\n    function getRentalData(address contractAddress, uint256 tokenId)\r\n        public\r\n        view\r\n        returns (Covenant memory)\r\n    {\r\n        Covenant memory covenant;\r\n        uint256 cCount = _itemCount.current();\r\n        for (uint256 i = 0; i < cCount; i++) {\r\n            if (\r\n                _idToCovenant[i].nftContract == contractAddress &&\r\n                _idToCovenant[i].tokenId == tokenId\r\n            ) {\r\n                covenant = _idToCovenant[i];\r\n                break;\r\n            }\r\n        }\r\n\r\n        return covenant;\r\n    }\r\n\r\n    function sendAssets(\r\n        address from,\r\n        address to,\r\n        address ftToken,\r\n        uint256 value\r\n    ) private {\r\n        if (ftToken == address(0)) {\r\n            payable(to).transfer(value);\r\n        } else {\r\n            if (from != address(this)) {\r\n                IERC20(ftToken).transferFrom(from, to, value);\r\n            } else {\r\n                IERC20(ftToken).transfer(to, value);\r\n            }\r\n        }\r\n    }\r\n}\r\n",
  "sourcePath": "G:\\Learning\\Project\\source\\picasarts-contracts\\contracts\\Rental.sol",
  "compiler": {
    "name": "solc",
    "version": "0.8.4+commit.c7e474f2.Emscripten.clang"
  },
  "schemaVersion": "3.4.10",
  "updatedAt": "2023-02-24T17:19:21.454Z",
  "devdoc": {
    "kind": "dev",
    "methods": {
      "owner()": {
        "details": "Returns the address of the current owner."
      },
      "renounceOwnership()": {
        "details": "Leaves the contract without owner. It will not be possible to call `onlyOwner` functions anymore. Can only be called by the current owner. NOTE: Renouncing ownership will leave the contract without an owner, thereby removing any functionality that is only available to the owner."
      },
      "transferOwnership(address)": {
        "details": "Transfers ownership of the contract to a new account (`newOwner`). Can only be called by the current owner."
      }
    },
    "version": 1
  },
  "userdoc": {
    "kind": "user",
    "methods": {},
    "version": 1
  }
}